:100000008091521083FF08C087E594E08093080830
:100010009093090810E007C08CE695E080930808EB
:100020009093090811E083E08093070880EC8093A7
:1000300006088AE23ED08DE03CD08AE03AD081E8E2
:1000400080B9D0E0C0E000E8FF24F39402B98091C9
:10005000040887FF04C028ED24BFF0924100CF5F61
:10006000CA3038F0DF5FC0E0DA3018F0D0E0C0E02E
:1000700000C080E38D0F1DD080E38C0F1AD08DE07F
:1000800018D08AE016D0112351F087EE9BE22AE0C7
:10009000815090402040E1F700C00000D7CF8FECA6
:1000A00092E228E0815090402040E1F700C000003B
:1000B000CDCF9091040895FFFCCF8093020808955E
:00000001FF
