:100000000DC100003DC100003BC1000039C100002E
:1000100037C1000035C1000033C1000031C100000C
:100020002FC100002DC100002BC1000029C100001C
:1000300027C1000025C1000023C100000C94CF0D92
:100040001FC100001DC100001BC100000C94510D18
:1000500017C1000015C1000013C1000011C100004C
:100060000C94150E0DC100000BC1000009C1000069
:1000700007C1000005C1000003C1000001C100006C
:10008000FFC00000FDC000004300440043002D00FD
:10009000410043004D002F00560043005000000077
:1000A0005500500044004900340041005600520001
:1000B0002D005500530042003A0041005600520006
:1000C0002D00440055003A0045004400420047001E
:1000D0002F0043004D005300490053002D00440001
:1000E0004100500000004D0075006C007400690074
:1000F00058002E006A00700020004F00530053008B
:1001000057002F004F0053004800570020005000B8
:1001100072006F0064002E0000000600FF0901A1BC
:1001200001150026FF00750896400009018102961E
:1001300040000901910295040901B102C009026B56
:1001400000030100803209040000020300000009DE
:1001500021110100012223000705020340000107CD
:10016000058103400001080B010202020104090499
:10017000010001020201000524001001042402060E
:10018000052406010205240103020705820310006D
:100190000409040200020A000000070503024000EF
:1001A00000070583024000000A060002EF0201403A
:1001B000000012010002EF020140DB04150B0001F8
:1001C00001020301902800183800000000012028D7
:1001D000000000000000000000004B00000663006B
:1001E00000007B00000E6300000000000000000023
:1001F0000000BB40001E630000008B00001E634037
:100200000000B900000E630000008B00005E634038
:100210000002BB00009E63000000000011241FBE0E
:10022000CFEFCDBFDFE7DEBF88ED90E284BF9093D4
:10023000680090E084BF90936100E0E0F4E084E027
:1002400083878FEF848780934C0480936C04809322
:10025000AC0410E6A0E0B0E6EAE3FBE202C00590E1
:100260000D92AC37B107D9F720E6ACE7B0E601C094
:100270001D92A538B207E1F70E942A0E0C949B1537
:10028000BFCE88E58093270A81E08093000A90E042
:1002900080E0FC0123E0F595E7952A95E1F7E65E1D
:1002A000FF49208130E0482F477002C035952795DF
:1002B0004A95E2F740910B0A41FFFCCF20FF0DC0A9
:1002C000009820910B0A226020930B0A0196803936
:1002D0009105F9F61092000A0895009AF2CF8FB7AF
:1002E000F8941092216410926064109261648FBF40
:1002F00080910B0C82FDFCCF8EEF80934C0C089507
:10030000E49908C080912264803409F03EC01092C4
:10031000226408958091666481FD14C080910B0A67
:10032000826080930B0A8EE48093210A8091666438
:1003300081FD04C080910B0A81FFF8CF8091666433
:1003400081FFE0CF2FB7F894E29B20C08EED93E6BB
:1003500080936A6490936B648091226490E08093B0
:1003600068649093696410926C6410926D6410924A
:1003700022648CB394E089278CBB2FBF80910B0C37
:1003800082FDFCCF8EEF80934E0C08958EE993E6AC
:10039000DFCF8AE090E08093586490935964109284
:1003A0005C6410925D6480910B0C82FDFCCF8EEF3B
:1003B00080934A0C089510923C6410923D648091A1
:1003C0000B0C82FDFCCF8EEF8093420C08951092AF
:1003D00030641092316480910B0C82FDFCCF8EEF63
:1003E0008093400C08952091040827FF04C00090DA
:1003F0000108009000080197B1F708959C0150E0B2
:1004000040E060E071E782E090E00E946215DA016E
:10041000C9010196A11DB11DB595A7959795879521
:1004200080349105A105B10554F0009721E0A207A1
:10043000B10548F08FEF9FEFA0E0B0E0089580E4B1
:1004400090E0A0E0B0E0089590E080E00895809111
:10045000040887FFFCCF8091010880588EBB8091F3
:1004600000088FBB8EB3882311F1209108083091CA
:1004700009088091080890910908969587959695A6
:100480008795820F931F809308089093090880E056
:1004900010D08091186090911960B0DF80930808A7
:1004A0009093090890E080E09EDF80E0089581E06D
:1004B0000895CF93C82F8091040885FFFCCFC09387
:1004C0000208C5DF882321F09FB381E09C1380E000
:1004D000CF9108950F931F93CF93DF93EB018C017E
:1004E000F80181918F01E5DF882311F02197C1F791
:1004F000DF91CF911F910F91089562E070E08BE43E
:1005000090E6E8DF8111A3CF80E0089562E070E01B
:1005100089E490E6DFDF81119ACF80E00895CF93E0
:10052000DF93D82F6AE070E08DE490E6D3DFC82F28
:10053000882361F0EBDFFC9BFDCFDD2339F066E023
:1005400070E082E790E6DF91CF91C4CF8C2FDF91EE
:10055000CF910895E9990FC0EF9A81E0E0DF8823F9
:1005600069F0CBDFFB9BFDCFEF98E99AE091FE624B
:10057000F091FF62099481E090E0089590E080E0BE
:100580000895609303607093046080930560909376
:10059000066065E070E081E090E69CDF811157CF56
:1005A00080E0089554DF882329F09FB381E09034E0
:1005B00009F080E00895CF93DF93EA01609314601F
:1005C000709315608093166090931760CA0196959A
:1005D0008795815080930F6085E68093116065E078
:1005E00070E082E190E676DF8823F9F0DBDF882394
:1005F000E1F063E070E083E490E66CDF8823A9F02B
:1006000065E070E08DE090E665DF882371F0BE0163
:100610006E7F8FEC90E65EDF882339F063E070E058
:1006200086E490E6DF91CF9155CF80E0DF91CF91C6
:100630000895CF93DF93EA0160931460709315607F
:1006400080931660909317608FEF840F80930F60F4
:1006500084E68093116065E070E082E190E63ADF25
:100660008823F1F09FDF8823D9F063E070E083E412
:1006700090E630DF8823A1F065E070E08DE090E641
:1006800029DF882369F0BE018FEC90E623DF882301
:1006900039F063E070E086E490E6DF91CF911ACF05
:1006A00080E0DF91CF910895CF92DF92EF92FF9299
:1006B0000F931F93CF93E8990AC0C0E08C2FCF917E
:1006C0001F910F91FF90EF90DF90CF900895809150
:1006D000C560853C91F70091A6601091A76080915C
:1006E000CA609091CB600817190739F7C090C660AF
:1006F000D090C760E090C860F090C9608091B06011
:100700009091B1608C159D05C1F6EF9A90E080E064
:100710006ADE6AE070E087E590E6DCDE882369F255
:10072000F5DEFD9BFDCF66E070E082E790E6D2DE6D
:10073000C82F882309F4C1CFE0DEFA9BFDCFA801C2
:10074000C701B60176DF63E070E084E690E6C2DEC2
:10075000D4DEFA99FDCF63E070E081E690E6BADE80
:10076000EF98E99B06C081E0DADEC7DEFB9BFDCF98
:10077000A5CF66E070E082E790E6CF911F910F91E0
:10078000FF90EF90DF90CF90A5CECF93C42F6093D2
:10079000096070930A6080930B6090930C6065E031
:1007A00070E087E090E696DE882349F0FBDE882340
:1007B00031F08C2F7EDE882311F0CF91F3CE80E0D4
:1007C000CF910895482F60E070E180E090E0DDCFA8
:1007D000CF92DF92EF92FF920F931F93CF93DF930D
:1007E000CEEBD0E68A0102541F49C017D107C1F0F1
:1007F0006B017C012FEFC21AD20AE20AF20A498980
:10080000C4DF2196811109C0DF91CF911F910F9113
:10081000FF90EF90DF90CF900895C701B601E5CF2C
:1008200081E0F2CF0F931F93CF93DF93EB018C0105
:100830000EDE882331F09FB3F80191938F01219749
:10084000B9F7DF91CF911F910F910895CF93DF9367
:10085000EA01609314607093156080931660909322
:100860001760CA0196958795815080930F6085E245
:100870008093116065E070E082E190E62BDE8823D2
:1008800089F090DE882371F065E070E08DE090E6FD
:1008900021DE882339F0BE016E7F85EC90E6DF9182
:1008A000CF91C0CF80E0DF91CF910895CF93DF93B8
:1008B000EA016093146070931560809316609093C2
:1008C00017608FEF840F80930F6084E28093116034
:1008D00065E070E082E190E6FDDD882381F062DE74
:1008E000882369F065E070E08DE090E6F3DD882311
:1008F00031F0BE0185EC90E6DF91CF9193CF80E09F
:10090000DF91CF910895CF93DF93E99905C090E0EF
:1009100080E0DF91CF9108952091C5606091C6601D
:100920007091C7608091C8609091C960C091CA60A1
:10093000D091CB60203B49F480589F4FAE0186DFB9
:10094000882329F3CE010196E4CF243B41F46F774D
:1009500070E060587F4E072E000C880B990BAE019B
:10096000A5DFEECFD0CFCF93DF93E99905C090E01C
:1009700080E0DF91CF9108952091C5606091C660BD
:100980007091C7608091C8609091C960C091CA6041
:10099000D091CB60203B49F480589F4FAE0156DF89
:1009A000882329F3CE010196E4CF243B39F46F77F5
:1009B00070E07F5E072E000C880B990BAE0176DF8E
:1009C000EFCFD1CFCF93DF938091C5606091C660A8
:1009D0003091C760843B51F46F7770E07F5EE99996
:1009E0000FC090E080E0DF91CF910895732F803B9E
:1009F000B1F780918E6090918F60680F791FEFCF73
:100A0000C091CA60D091CB6090E080E0AE014EDF33
:100A1000882339F3CE010196E6CF8091040887FF41
:100A2000FCCF8091010880588EBB809100088FBB5D
:100A30009EB381E0911180E00895CF93C82F8091FB
:100A4000040885FFFCCFC0930208E7DF882321F06C
:100A50009FB381E09C1380E0CF910895CF93C82F7E
:100A600083EFEBDF882319F08C2FCF91E6CF80E066
:100A7000CF91089582E7E1DF882331F0CEDF88232C
:100A800019F08FB38111F6CF81E00895CF93C82F6D
:100A900084E6D3DF882319F08C2FCF91CECF80E06E
:100AA000CF91089584E2C9DF8111B7CF80E0089526
:100AB000CF93DF93D82FC92F88E6BFDF882361F05B
:100AC0008D2FBBDF882341F089E6B7DF882321F033
:100AD0008C2FDF91CF91B1CF80E0DF91CF9108953E
:100AE00030E020E04091080442FFFCCF4091080430
:100AF00042FDFCCF2F5F3F4F8217930799F7089570
:100B0000CF92DF92EF92FF92AB01BC018091BB606C
:100B1000282F30E0322F222780919060820F932F70
:100B2000911D919581959109B0E0A0E084239523D2
:100B3000A623B72321E0C090DA62D090DB62E09078
:100B4000DC62F090DD62C816D906EA06FB0609F4FD
:100B500020E08093DA629093DB62A093DC62B09332
:100B6000DD62822FFF90EF90DF90CF90089580910B
:100B70007D60823081F01092000A10921A0B89EA8F
:100B800095E080931C0B90931D0B8FE48093100BCA
:100B900082E080937D60089580917D60813089F04E
:100BA0008FE08093000A10921A0B84EC92E68093F7
:100BB0001C0B90931D0B85E48093100B81E08093B8
:100BC0007D600895CF92DF92EF92FF92CF93DF93F3
:100BD00000D000D0CDB7DEB720917E6030917F602D
:100BE000409180605091816021153105410551058A
:100BF000A1F060E078E689E899E00E9440152F5F57
:100C00003F4F4F4F5F4F5695479537952795A8EC27
:100C1000203631054105510528F4220F331F441FAA
:100C2000551FAAEC69017A0180E4C81AD108E108CD
:100C3000F10880ECC8168FEFD806E104F104D0F576
:100C4000909184609550C0902C60D0902D60E09081
:100C50002E60F0902F60C982DA82EB82FC82E091F4
:100C60008360E370EC0FFD2FF11D61818091826044
:100C7000680F7727771F80E0672B09F088E09430B2
:100C800028F5890F9FB7F89462E16093E20560E26E
:100C9000609304082093080830930908809307089C
:100CA00080E880930508A0930608E19A9FBF80E042
:100CB00090E899DBE09B0CC02496CDBFDEBFDF91AE
:100CC000CF91FF90EF90DF90CF9066CF8D5FDACF1E
:100CD0002496CDBFDEBFDF91CF91FF90EF90DF90E4
:100CE000CF9045CFE19B04C0E39B02C06BDFE49A49
:100CF000E398089566E070E180E090E042DC8FB315
:100D00008370C1F78FB30895F5DF982F937781E053
:100D100009F080E00895CF93C82FECDF60E070E128
:100D200080E090E02EDC882331F08FB38C1303C079
:100D300081E0CF91089580E045DD8823D1F3CC2375
:100D4000B9F38C2FCF913ECD80E0E5DF90E00895A0
:100D500080E0E1CF8FE0DFDF8FE1DDDF80E0DBDF10
:100D600090E00895F7CFCF92DF92EF92FF92CF936A
:100D7000DF936B017C01EA0180E0CDDF882389F0FD
:100D8000AE01C701B60155DC882359F085E0C3DF09
:100D9000882339F0DF91CF91FF90EF90DF90CF90D3
:100DA000B3CF80E0DF91CF91FF90EF90DF90CF90B5
:100DB0000895CF92DF92EF92FF92CF93DF936B0172
:100DC0007C01EA0180E0A7DF882389F0AE01C7013A
:100DD000B601F1DB882359F085E09DDF882339F0E7
:100DE000DF91CF91FF90EF90DF90CF908DCF80E09B
:100DF000DF91CF91FF90EF90DF90CF900895CF9249
:100E0000DF92EF92FF92CF93DF93E99909C04CDC18
:100E100090E0DF91CF91FF90EF90DF90CF90089519
:100E20008091C560C090C660D090C760E090C860F7
:100E3000F090C960C091CA60D091CB60823231F02D
:100E40009EE4980F923010F0843C91F480E063DFD0
:100E5000811102C080E0DCCFAE01C701B601E9DB41
:100E60008823C1F385E157DF8823A1F34DDFD0CF7D
:100E7000803C11F0853C29F4AE01C701B60173DF57
:100E8000C7CF803B39F4C701B60180589F4FAE01F0
:100E900090DFBECFAE01C701B601CBDBB9CFCF9299
:100EA000DF92EF92FF926B017C0188E034DF8823B0
:100EB00071F04FEFC701B60168DC882341F01ADFFB
:100EC000837729F4FF90EF90DF90CF9041CF80E0BF
:100ED000FF90EF90DF90CF900895CF92DF92EF9246
:100EE000FF92CF93DF93E99909C0DEDB90E0DF91B9
:100EF000CF91FF90EF90DF90CF9008958091C560E3
:100F0000C090C660D090C760E090C860F090C960A3
:100F1000C091CA60D091CB60823231F09EE4980FCC
:100F2000923010F0843C89F483E1F5DE811102C037
:100F300080E0DCCFAE01C701B6014ADC8823C1F3F3
:100F4000D9DE8377A9F704DFD1CF803C11F0853C4F
:100F5000B9F4C701B601D4DD882319F0C701B60181
:100F60009EDF82E0D8DE882319F3AE01C701B60107
:100F70002FDC8823E9F2BEDE8377D1F6E9DEB6CF37
:100F8000803BF9F480E8E80EF11CEA9908C0C7013B
:100F9000B601B6DD882319F0C701B60180DF82E013
:100FA000BADE882309F4C4CFAE01C701B60103DB62
:100FB000882309F4BDCF9EDE837709F0B9CFC8DE60
:100FC00095CFAE01C701B60134DB90CFCF92DF924F
:100FD000EF92FF92CF93DF93E99909C065DB90E030
:100FE000DF91CF91FF90EF90DF90CF9008958091A7
:100FF000C560C090C660D090C760E090C860F090B7
:10100000C960C091CA60D091CB60823231F09EE459
:10101000980F923010F0843C91F480E17CDE8111D5
:1010200002C080E0DCCFAE01C701B60102DB88233D
:10103000C1F385E170DE8823A1F366DED0CF803C6A
:1010400011F0853C29F4AE01C701B6018CDEC7CF93
:10105000803B39F4C701B60180589F4FAE01A9DE2D
:10106000BECFAE01C701B601E4DAB9CF62E070E1EC
:1010700080E090E086DA8FB38370C1F78FB3089574
:10108000F5DF84E09FDBF2DF80E09CDB90E00895F9
:10109000CF93C82FEBDF60E070E180E090E071DA81
:1010A000882331F08FB38C1303C081E0CF91089572
:1010B00080E088DB8823D1F3CC23B9F38C2FCF9148
:1010C00081CB80E0E5DF90E0089580E0E1CFCF9232
:1010D000DF92EF92FF926B017C0188E0D9DF8823D9
:1010E00071F04FEFC701B60150DB882341F0BEDF3E
:1010F000837729F4FF90EF90DF90CF90E6CF80E0E8
:10110000FF90EF90DF90CF900895CF92DF92EF9213
:10111000FF92CF93DF93E99909C0C6DA90E0DF919F
:10112000CF91FF90EF90DF90CF9008958091C560B0
:10113000C090C660D090C760E090C860F090C96071
:10114000C091CA60D091CB60823231F09EE4980F9A
:10115000923010F0843C89F483E19ADF811102C05F
:1011600080E0DCCFAE01C701B60132DB8823C1F3DA
:101170007DDF8377A9F7A9DFD1CF803C11F0853CD3
:10118000B9F4C701B601BCDC882319F0C701B60168
:101190009EDF82E07DDF882319F3AE01C701B6012F
:1011A00017DB8823E9F262DF8377D1F68EDFB6CFD3
:1011B000803BF9F480E8E80EF11CEA9908C0C70109
:1011C000B6019EDC882319F0C701B60180DF82E0FA
:1011D0005FDF882309F4C4CFAE01C701B601EBD9A4
:1011E000882309F4BDCF42DF837709F0B9CF6DDFE3
:1011F00095CFAE01C701B6011CDA90CF90E080E038
:10120000089590E080E0089590E080E008954F9286
:101210005F926F927F92AF92BF92CF92DF92EF92E6
:10122000FF920F931F93CF93DF9300D000D0CDB7E1
:10123000DEB7E99914C038DA90E02496CDBFDEBF5E
:10124000DF91CF911F910F91FF90EF90DF90CF90A2
:10125000BF90AF907F906F905F904F900895809176
:10126000C560C090C660D090C760E090C860F09044
:10127000C96096010091CA601091CB609EE4980FFE
:10128000923008F044C08EEBE82E80E6F82EC901BB
:101290008E5B90466C01C7018E5B9046801791076C
:1012A000A0F5F701818990E089839A83C6018E0DAC
:1012B0009F1D8B839C83DADECE0101965C0166E084
:1012C00070E180E090E0F50141915F012B013C016C
:1012D000FFEF4F1A5F0A6F0A7F0A57DA811102C0C7
:1012E00080E0AACFC301B2016A3020E17207810514
:1012F000910549F787E066DA882391F3B7DE9FEF1F
:10130000E91AF90A877039F2EBCF81E095CF823282
:1013100021F09CE3980F923058F4A8DEC701B60183
:1013200088279927A80185D981111BC090E021C089
:10133000803B11F0803CF9F460918E6070918F6079
:10134000C60ED71EF12CE12CC701B601D9DB8823CC
:1013500019F08CDE84E036DA89DEA801C701B60117
:10136000E2CF83E02FDA882309F380DE877091E0F3
:10137000E9F6892F61CFC701B60188279927A8010F
:1013800058D95ACFCF93DF93C0E0DCE01882109297
:10139000040C8EE294E68093060C9093070C81E097
:1013A0008093010C1CBA1DBA1EBA109223641092CD
:1013B000246410922264109221641092206410928E
:1013C0001F644AE450E061ED71E086E294E60E9419
:1013D000231510921E64E6E0F3E681EA808780E23E
:1013E00081871286138681E090E08487958782E06A
:1013F00090E086879787108A118A83E88883DF9137
:10140000CF9108958AE18A95F1F700C08FB7F894DB
:1014100010920608109205081EBA1FBA1DBA92E172
:101420009093E205E1988FBF009888E080931004C4
:101430000298809312040298089580917D60843010
:1014400081F01092000A10921A0B82E291E18093CF
:101450001C0B90931D0B8FE48093100B84E0809302
:101460007D60D0DF039888E0809313040198809317
:1014700011040895EF92FF920F931F93CF93DF9380
:1014800000D0CDB7DEB780E88DBB029A019A2FEF6E
:1014900084E39CE0215080409040E1F700C00000D0
:1014A00082ECCBDA811103C090E080E050C085E08F
:1014B000C4DA8823C9F38FE8C0DA8823E1F3ADDA10
:1014C0008823C9F38FB38038B1F7E89A83E4E82E14
:1014D00080E6F82E80E8B1DA882311F19EDA8823BD
:1014E000F9F08FB38230E1F419821A8281EC9FE324
:1014F000DFDA882399F0D6DA882381F08FB38A83E4
:10150000D1DA882311F08FB3898389819A818E3053
:10151000F2E99F07A9F08F30914911F182E011C0E3
:101520000AE310E6F80181918F0187DA882309F434
:10153000BBCF84E090E0D4DAE016F10699F7CACF89
:1015400088E080938D60E89AEF9881E090E00F90BA
:101550000F90DF91CF911F910F91FF90EF90089521
:1015600084E0EFCF8091C560811154C0EF9AEA9A70
:1015700090E080E00E94F301E99903C080E00E94BE
:101580008F026AE070E080E390E60E946A028111B7
:1015900002C020E03CC00E948602FB9BFCCF66E0BC
:1015A00070E082E790E60E946A02882391F32FEFB1
:1015B00084E39CE0215080409040E1F700C00000AF
:1015C00090E080E00E94F3010E947D02FD99FCCF33
:1015D0000E947D02F899FCCF0E948602FB99FCCF05
:1015E0000E947D02FB9909C081E00E948F0288233E
:1015F00081F20E947D02FB9BFCCFE99AEF98E0917B
:10160000FE62F091FF62099521E0892B11F2822F91
:1016100090E0089581E090E00895A4CFA3CFA2CFF9
:10162000A1CF90E080E00E94F30169E070E082E7E2
:1016300090E60E946A021DBA019A0000019890E0AB
:1016400008951092DE628FEF9FEFDC018093DA62E3
:101650009093DB62A093DC62B093DD6284E292E05F
:101660008093FE629093FF6281E099E08093006333
:101670009093016384E099E0809302639093036305
:101680008EEF98E08093046390930563019A0000C5
:10169000EF9B0BC00E982FEF84E39CE0215080401D
:1016A0009040E1F700C000000E9A019880E88DBBE1
:1016B00090E080E00E94F3018091186090911960A1
:1016C00096958795969587950E94FE0180930808C8
:1016D0009093090880E00E945902809118609091CF
:1016E00019600E94FE01809308089093090869E040
:1016F00070E089E690E60E946A02811103C090E0E2
:1017000080E008950E947D02FC99FCCF62E070E0C9
:1017100087E690E60E946A02882389F360E270E01F
:101720008EED92E67FD8882351F38091E86285336D
:1017300061F582EB96E08093FE629093FF6282EB0C
:1017400094E080930063909301638DE09BE080932D
:101750000263909303638FEF96E08093046390930A
:101760000563EF98E89A8091DE62EEEDF2E6803252
:1017700011F4E2EEF2E684E0A5ECB0E601900D9201
:101780008A95E1F785E090E008958433A9F484EA2E
:1017900096E08093FE629093FF6283E894E08093EA
:1017A0000063909301638EE09BE0809302639093CB
:1017B00003638DE697E0D1CF8333A9F48AEA96E0FC
:1017C0008093FE629093FF6281EE94E080930063C9
:1017D000909301638FE09BE0809302639093036397
:1017E00086EE97E0BACF8233A9F481E698E0809341
:1017F000FE629093FF6283EB94E08093006390938A
:10180000016380E19BE0809302639093036385E82A
:1018100098E0A3CF803309F072CF80E498E0809302
:10182000FE629093FF6282EE94E080930063909357
:10183000016382EB9AE0809302639093036387E0F5
:1018400099E08BCF6F927F928F929F92AF92BF92CF
:10185000CF92DF92EF92FF920F931F93CF93DF937C
:101860002091C460C090C860D090C960DC24CD24B1
:10187000DC240091CA601091CB601027012710274B
:1018800060908D60862C912CC4010197CCECD0E641
:101890003FEFAC014C215D21452B71F43FEF7C0102
:1018A000E022F122E114F10471F0F801EC0DFD1DCC
:1018B00030830F5F1F4FF3CF41E0C41AD1080F5F91
:1018C0001F4F3A93E6CF213019F5D4D8782E8823CC
:1018D00019F0C601EDD8782EB12CA12CA016B106B6
:1018E00008F077C08DE1BAD8882329F08881CED856
:1018F000811135C02196782294E0691246C08CE0AF
:1019000090E0EED88881C2D8811131C0219636C0CE
:10191000B1D88823A1F0C6018160CAD8882379F0A4
:1019200084E19CD8882359F08FEFB0D8882339F010
:10193000A1D8882321F080E091D88111C6CFC701BA
:10194000DF91CF911F910F91FF90EF90DF90CF909B
:10195000BF90AF909F908F907F906F9008956E0191
:1019600082E0C80ED11C898191D8E601C4CF6E01F6
:10197000E2E0CE0ED11C898189D8E60178227AD89E
:101980007822E9F2A80CB91CA9CFF8E06F12F7CFC2
:101990008CE090E0A5D8888179D86E01811113C0C0
:1019A0004FEFC41AD40A78228CE090E099D8F6015F
:1019B00080816CD8E601882309F4A8CF2296F6012D
:1019C000818164D8DBCF82E0C80ED11C89815ED8CA
:1019D000EACF80E043D8E82EF12CB1CF0F931F93CC
:1019E000CF93DF938091C7609091C860C091C96028
:1019F000D091CA60DC27CD27DC2798278927982734
:101A000057D80EEB10E6C8018E5B90468C179D07E9
:101A100048F448D80F5F1F4F882359F08FB3F8015F
:101A20008683F1CFCE010196DF91CF911F910F9167
:101A3000089590E080E0F8CFCF93DF93C091C76026
:101A4000D091C860DC27CD27DC278091C46081302D
:101A5000F1F410D8811105C090E080E0DF91CF91C2
:101A60000895CE0125D88823B9F380E10E942E0580
:101A7000882391F38FEF0AD8882371F30E943A05E7
:101A8000882351F380E00E942E0590E0E7CF0E946A
:101A90003A05882309F3CE010BD88823E9F284E1C3
:101AA000E5CF1F920F920FB60F9211242F933F9301
:101AB0004F935F936F937F938F939F93AF93BF9356
:101AC000CF93EF93FF93C0910108209100088C2FD2
:101AD0008674B1F4E2995DC08EE993E6E0912264E8
:101AE00031E03E0F30932264E80FF92FF11D20837F
:101AF00080912264803408F04FC08EE180931F648F
:101B00008EB3C82BCEBB8091566481FF30C080E07D
:101B1000F29980E1F1998062F69980641EBAE49BA3
:101B200026C090911E64891711F180931E6491EA7A
:101B300090930E6390E290930F6310921063109253
:101B4000116321E030E0209312633093136322E0AD
:101B500030E0209314633093156390E08093166314
:101B6000909317638091566481FD0E94C901FF9193
:101B7000EF91CF91BF91AF919F918F917F916F9195
:101B80005F914F913F912F910F900FBE0F901F903B
:101B900018958EED93E6A2CF0E948001B1CF11245B
:101BA0001092000B81E08093060B62E070E080E70A
:101BB00094E629D78FB7F8941092000B91E0909398
:101BC000060B8FBF1895CF93DF9300D000D0CDB711
:101BD000DEB78B839C8319821A8280E794E6F3D662
:101BE000892BD1F49FB7F89410920A0B10920B0B2B
:101BF00020E233E020930C0B30930D0B81E08093B7
:101C0000050B8093060B8FE08093000B9FBFEB8149
:101C1000FC81099589839A83CDDF89819A812496F5
:101C2000CDBFDEBFDF91CF9108951F920F920FB607
:101C30000F9211248F938FEF87BBE89903C0B69B57
:101C400007C0E69A8F910F900FBE0F901F901895C6
:101C5000E79AF8CFCF93DF93CDB7DEB72597CDBF07
:101C6000DEBF649A10927404659A1092750488E03D
:101C7000809370048093710480937304069A109289
:101C800016040E9A8093B40429E02093B60490E8D9
:101C90009093B20490E19093100291E090932B0204
:101CA00036E03093CB0139EA3093C9019093C801F3
:101CB00031E43093C0019093030A33EC3093260A49
:101CC00032E63093280A37E43093110B49EA55E0A5
:101CD00040931C0B50931D0B3FE43093100B34E6E4
:101CE00030935601809311022093120282E0809378
:101CF000310283E080933302909350019EDB809108
:101D0000010180FDFCCF88ED98E084BF9093000135
:101D10008FEF83B98BB98FB987BB78940E94B705D1
:101D20004E0125E0820E911CB7E0AB2EB12C10E8DD
:101D3000412E15E2512E612C712CCC24C394D12C50
:101D4000A89510910A0C10930A0CB49B10C08091B6
:101D5000000C811115C080917D60833011F00E94CC
:101D6000B7051092030C8091000C0CDB38C08091F9
:101D7000000C882329F088ED91E084BF9093410006
:101D800017FF14C080911F64882381F080911F6425
:101D9000815080931F64811109C08091666481FF26
:101DA00005C08091226481110E948001812F80767C
:101DB00041F0E09B05C088ED91E084BF9093410025
:101DC000106114FF0CC080917D60833011F00E947F
:101DD000B7051092030C8091000C8111C6CF809141
:101DE0002E6484FF1FC01091066317FF0E94E70155
:101DF000107609F0F3C180910763811183C01092BE
:101E00000E6310920F6382E090E0809338649093A9
:101E100039640E94DB010E94E70180910B0C846011
:101E200080930B0CE79B69C2E8991FC080917D608D
:101E3000833081F01092000A10921A0B89EA95E51E
:101E400080931C0B90931D0B8FE48093100B83E009
:101E500080937D6080918860853029F489E5809346
:101E600024600E944101019AE798E09B69CFE19BC1
:101E70008DC2E39914C08091040885FF10C0809141
:101E80005E6481FF0CC0E19B0AC0209160643091C8
:101E900061648091216482135AC20E946F01E39BA6
:101EA00018C080912364909124649C012F5F3F4F60
:101EB0002230310570F08530910508F46CC204972A
:101EC00080932364909324648091566481FD0E94E2
:101ED000C90180914E6481FF33CF90911E63809140
:101EE0001F632091466421FFFCCF903809F0CAC2DD
:101EF000F82FFF70FD83FA3008F454C210921F636C
:101F000000E086C28130D9F480910863811112C04B
:101F1000E0910A63F0910B6380910B0C82FDFCCF82
:101F2000F595E795F595E795EF73FF27E05CF34F9F
:101F300089E0808310923864109239646ACF8430CB
:101F4000C9F3853061F4109108631F770E94DB01AB
:101F50008091366481FFFCCF1093030CEBCF863069
:101F600009F01EC1E0900C63F0900D63809108634E
:101F700090910963913001F542E150E062EB71E02C
:101F80008EE093E660D58091001490910114A091A9
:101F90000214B09103148F3F4FEF9407A407B407C6
:101FA00041F08093166390931763A0931863B093E6
:101FB000196302E110E01DC0923009F4D9C09630D7
:101FC00009F4DFC0913209F4E1C0923209F4E3C0B0
:101FD0008115E3E09E0751F584E080930E6393E062
:101FE00090930F6399E0909310638093116304E0E2
:101FF00010E0C7010E151F0508F4C80198018C01F7
:102000000093386410933964232B09F002CF809138
:102010000B0C82FDFCCF88E08093430C80910B0C6D
:1020200082FDFCCF88E08093410CF7CE8230F3E054
:102030009F0741F160F404E310E066EE70E0813048
:10204000934079F010E000E070E060E00AC0833077
:102050009807E9F008E110E068E870E08430934008
:1020600089F700930E6383E080930F63A8014250C9
:10207000510980E193E60115110509F080C030E0B7
:1020800020E0BECF06E410E060EA70E0EACF4091C5
:10209000041450910514609106147091071449833B
:1020A0005A836B837C834F3F2FEF5207620772077F
:1020B00059F5E0E8F0E1CF01019620814227E8E000
:1020C0008A019B01369527951795079541705527ED
:1020D0006627772770956095509541955F4F6F4FB4
:1020E0007F4F40725378687B7D7E4027512762275F
:1020F0007327E15029F7FC01E03A80E1F807D9F6AF
:1021000049835A836B837C8386E180930E6383E0EB
:1021100080930F638DE4809310631092116388E5C0
:102120008093126310921363E4E1F3E6DE011196EB
:102130008D91282F30E074E0359527957A95E1F759
:1021400090E3920F9A3310F097E3920F90831182ED
:102150008F7090E3980F9A3310F097E3980F928363
:10216000138234968A169B0619F706E110E041CFD8
:102170000BE610E06DE371E0A8018EE093E663D416
:1021800038CF0AE010E068EA71E0F6CF09E010E02D
:102190006FE471E0F1CF03E210E06AE171E0ECCFAF
:1021A000883049F48091206480930E63C092386433
:1021B000D09239642ECE893041F4809108638093A7
:1021C0002064E09A0E94CC05B5CE8A3019F41092B2
:1021D0000E63ECCF8B3009F01ACFACCE103209F081
:1021E00016CF809107638A3009F4A4CE803231F58E
:1021F00080912E6481FFFCCF47E050E06EE073E6F3
:102200008EE790E67BD4892B89F080915E6481FD16
:102210000E946F0112D987E0EEE0F3E6AEE7B0E688
:1022200001900D928A95E1F70E94E205E49A1092DE
:1022300022641092216410921F647CCE813229F5B1
:1022400087E0EEE7F0E6AEE0B3E601900D928A9506
:10225000E1F780910E6390910F63A0911063B091AC
:102260001163892B8A2B8B2B59F440920E63509269
:102270000F63609210637092116388E0809314631F
:10228000A0923864B0923964C4CD8232C9F480918E
:102290000863982F917080FF0FC06C9881FF0EC06B
:1022A0006D9820917C6020FD04C0992311F0E79A7D
:1022B000E69A80937C603ECE6C9AF0CF6D9AF1CF17
:1022C000833209F0A4CE80910863909109638093D2
:1022D000236490932464892B69F0E19B09C0E399FE
:1022E00007C0E49810921F648DD8029A10921204CD
:1022F000E39A20CE0E9472061DCEE69BB6CDE899E9
:10230000B4CD80918860853021F4109224600E94C1
:10231000410101989FE7EAE1F6E09150E040F0408A
:10232000E1F700C00000E09B05C00E94CC05E798E3
:10233000E6989BCD8091030C811106C088ED91E059
:1023400084BF90934100F3CF0E94B705F0CF409136
:10235000606450916164282F30E010E04217530709
:1023600039F08F5F80932164225A3C49F901108132
:10237000809160649091616420912164281719060E
:1023800011F40E946F011093020889CD80915E6460
:1023900081FF85CD82CD10922364109224640E9427
:1023A000720697CD90E064E0959587956A95E1F780
:1023B000282EE090216321E0821302C010928660F3
:1023C00001972CE3289F8001299F100D11248091F3
:1023D000866033243394380E30928660F12CA70146
:1023E00062E273E6C80182549F4995D381E08093ED
:1023F0001F634D81421184CD0E0D1F1D00938B6014
:1024000010938C608D81831179CD1092896001E0E9
:1024100080E490E0809348649093496410924C6407
:1024200010924D6480910B0C82FDFCCF8EEF809357
:10243000460C109250641092516480910B0C82FDF6
:10244000FCCF8EEF8093480C002309F479CC809167
:10245000C260813009F0C7C08091C360823009F04A
:10246000B2C08091C5606091C6600091C760811163
:1024700068C0402F50E070E064537E4F85EC90E6DA
:10248000E2D293C09138A9F51092206390918960AF
:10249000911105C010921F631092216331CD80917C
:1024A0008A602CE3829FF0011124E154FF49A2E2EB
:1024B000B3E601900D922A95E1F78F5F80938A60D1
:1024C000E0E18E9F90011124292B20931F6320911E
:1024D0008B6030918C60981751F08CE3809321636E
:1024E0002C53310920938B6030938C6009CD822F5F
:1024F000F5CF91111AC08F3F21F095E0980F9230DF
:1025000038F482E080931F6380E480932063C4CF1B
:10251000813F09F0F5CC82E080931F6380E88093CF
:10252000206381E080932163EBCC923009F4E8CC06
:10253000913019F48111E2CCE3CC933009F0DECC78
:10254000DFCC813091F5962F9F7DB1F59FEF909371
:10255000070610920E0610920F06809300068093D5
:10256000010684E0809302068AEF8093040684E4E7
:1025700080930B0681E180930A068091070681FF14
:10258000FCCF80910E0690910F069C0143E0220F34
:10259000331F4A95E1F7880F991F10920006820FAA
:1025A000931F8093C5609093C66084E891E0809308
:1025B000C3609093C4606BC0402F50E0677070E0C0
:1025C0006C537E4F5BCF803149F41092886080E875
:1025D00090E08093C3609093C46002C08131B9F3EE
:1025E00010E000E0F7C0823109F037C11091C360FC
:1025F0008091C5609091C6604091C7601130C1F56F
:102600002091C8603091C960811105C09111DFCF60
:1026100020938860DCCF8130F1F4911103C02093C6
:102620008760D5CF913399F6209318603093196065
:1026300080918860853059F680EF90E0213F310528
:1026400028F42832310518F688E290E0809318606B
:1026500090931960BCCF823009F0B9CF9111B7CFF8
:102660004F7350E068EC70E68EE890E654D2AFCF3E
:10267000123019F581110DC080918860992379F08D
:1026800084E891E08093C3609093C460042F10E0CD
:1026900050C18130A9F7911105C080918760809366
:1026A000C560EECF913361F7809118609091196009
:1026B0008093C5609093C660E3CF90918860953019
:1026C00009F0C8C0103151F50E941D0A0FB7F894E7
:1026D0001093E20580E28093040880911860909145
:1026E00019600E94FE0180930808909309088BE20C
:1026F000809307088AE08093050888EC8093060899
:102700000FBF81E29BE05FDA8C0184E890E0011565
:10271000110509F05BC080EA90E058C0113199F4CE
:10272000E89B0EC081E19BE04EDA8C010E941D0AFD
:102730000E94E2050115110571F380E890E046C0A2
:1027400001E010E0F3CF153149F48AEA92E03BDA78
:10275000892B11F40DB3017010E0ECCF163109F4A0
:1027600073C0103239F480910263909103632BDAC5
:102770008C01E0CFE89B6BC0113209F05EC0009184
:10278000CA601091CB60833D99F48091C6608F71CF
:1027900090E0A801415051094F7155274F5F5F4F9D
:1027A0006EED72E68B539F49B6D10F5F1F4F08C085
:1027B000E99B29C0809100639091016304DA8C0148
:1027C00084E891E00115110509F4A5CF8093C36059
:1027D0009093C46098012A5F3F4F20938B603093A1
:1027E0008C6010928A60C8018F5B9F4F6CE370E031
:1027F00033D1609389608EE08093BF6022543F495B
:10280000F90110829DCA843B89F48091DE6288239D
:1028100069F09EE19093C560803209F481E4809371
:10282000C6608091E8628093C760BFCFA8016FEF58
:1028300070E085EC90E678D1B8CF133241F4809106
:1028400004639091056393CF01E010E076CF10E030
:1028500000E061CF80EA90E0BCCE843109F088C00E
:102860008091C360813009F044C00E941D0A1FB7E7
:10287000F894209118603091196050E040E060E2D7
:102880007EE480E090E01ED1DA01C9010196A11D2D
:10289000B11DB595A7959795879536E0880F991F37
:1028A000AA1FBB1F3A95D1F720E12093E2050298B9
:1028B00028E02093120420E220930408803491053C
:1028C000A105B10520F480E490E0A0E0B0E08093A1
:1028D0000808909309088BE6809307088BE08093A3
:1028E000050888EC809306081FBF8AE39AE06BD93D
:1028F00019C0823009F580EC0E941D05882319F06B
:1029000080E00E941D0583EF91E00197F1F700C080
:102910000000029801981DBA0E941D0A0E94E2055B
:1029200081E090E021E0009709F020E02093C4606E
:102930008C010F5F1F4F4ECFE89B17C0833019F4F7
:102940008CE19DE0D4CF843019F482E29CE0CFCFBB
:10295000853019F48EEE9CE0CACF31E020E087305C
:1029600009F030E0832F922FDDCF90E080E0DACFC6
:10297000803209F035CE2091C3609091C56080917E
:10298000C660213089F4911122CE803109F01FCE2A
:102990008091C8609091C96080930060892B11F08C
:1029A0000E9A15CE0E9813CE223009F019CE009152
:1029B000C7609111FACD803109F0F7CD80910060A8
:1029C0008093C560F2CDDC012D923D924D925D92D7
:1029D0006D927D928D929D92AD92BD92CD92DD923F
:1029E000ED92FD920D931D93CD93DD93FF91EF91A9
:1029F0008DB78D938EB78D938FB78D93ED93FD9398
:102A0000882799270994DC01CB0181309105811D2C
:102A10002D903D904D905D906D907D908D909D900E
:102A2000AD90BD90CD90DD90ED90FD900D911D91FC
:102A3000CD91DD91ED91FD910D900FBEEDBFFEBFEB
:102A4000ED91FD910994FB01DC0102C005900D920E
:102A500041505040D8F70895AA1BBB1B51E107C055
:102A6000AA1FBB1FA617B70710F0A61BB70B881F1E
:102A7000991F5A95A9F780959095BC01CD010895AD
:102A8000A1E21A2EAA1BBB1BFD010DC0AA1FBB1F72
:102A9000EE1FFF1FA217B307E407F50720F0A21BE4
:102AA000B30BE40BF50B661F771F881F991F1A9451
:102AB00069F760957095809590959B01AC01BD017B
:102AC000CF010895052E97FB16F400940FD057FD03
:102AD00005D0D6DF07FC02D046F408C050954095DB
:102AE000309521953F4F4F4F5F4F089590958095BA
:102AF000709561957F4F8F4F9F4F0895FB01DC01CB
:102B000004C08D910190801921F441505040C8F7C4
:102B1000881B990B0895FB01DC0102C001900D9206
:102B200041505040D8F70895DC0101C06D934150E9
:0A2B30005040E0F70895F894FFCF3D
:102B3A000155080000000055480000000055A0009B
:102B4A005504556A00000000E100000000FFFF7F05
:102B5A00557EC87F59FE557EC37E04FF0030200093
:102B6A0055E065736172454D564EE0FF88D8CD45F4
:102B7A00AB891255C20D55C2055587558B55E020B4
:102B8A00676F72504D564E55E065742673554D5613
:102B9A004E55C72055CA0355E655C85955C3085559
:0C2BAA00C20555C85955C80055C30400A9
:00000001FF
