:100000006CC40000A7C40000A5C40000A3C4000085
:10001000A1C400009FC400000C9494159BC4000070
:1000200099C4000097C4000095C4000093C4000068
:1000300091C400008FC400008DC400000C941F15F3
:1000400089C4000087C4000085C400000C94891492
:1000500081C400007FC400007DC400007BC4000098
:100060000C94A41577C4000075C4000073C400008C
:1000700071C400006FC400006DC400006BC40000B8
:1000800069C4000067C400004300440043002D0021
:10009000410043004D002F00560043005000000077
:1000A0005500500044004900340041005600520001
:1000B0002D005500530042003A0041005600520006
:1000C0002D00440055003A0045004400420047001E
:1000D0002F0043004D005300490053002D00440001
:1000E0004100500000004D0075006C007400690074
:1000F00058002E006A00700020004F00530053008B
:1001000057002F004F0053004800570020005000B8
:1001100072006F0064002E0000000600FF0901A1BC
:1001200001150026FF00750896400009018102961E
:1001300040000901910295040901B102C009026B56
:1001400000030100803209040000020300000009DE
:1001500021110100012223000705020340000107CD
:10016000058103400001080B010202020104090499
:10017000010001020201000524001001042402060E
:10018000052406010205240103020705820310006D
:100190000409040200020A000000070503024000EF
:1001A00000070583024000000A060002EF0201403A
:1001B0000000205649443A5049443D253034583ACD
:1001C000253034580D0A0012010002EF020140DB15
:1001D00004150B0001010203013C47493A25303266
:1001E000583E0D0A003C53493A303E0D0A003C533C
:1001F000433A253032583E0D0A003C47433A2530F9
:1002000032583E0D0A0020555342305F414444525B
:100210003D25640D0A002053463D253032583A25CD
:100220003032580D0A002043463D253032583A25D9
:100230003032580D0A002053423D253034580D0A03
:100240000020534C533D253032580D0A0020474CB6
:10025000453D0020534C453D002049444C3D253050
:1002600032580D0A005B5354414C4C45445D0D0A15
:100270000052513D253032583A253034583A253015
:1002800032583A253032583A253034583A253034ED
:10029000583A253034580D0A003C5253543A494ECE
:1002A0003E0D0A003C5253543A4F55543E0D0A003D
:1002B0003C454442475F454D5054593E0D0A003C71
:1002C000454442475F4641494C3E0D0A003C454487
:1002D00042475F4641494C3E0D0A002047454E3D8E
:1002E000253032583A253032583A253032580D0AE6
:1002F000002047454E5F5349474E5F4F46460D0A23
:10030000002047454E5F5349474E5F4F4E0D0A0050
:1003100090280018380000002050485953494341A4
:100320004C3D253032583A253032580D0A002056BF
:100330005441524745543D25640D0A00205645530B
:1003400052494F4E3D000001202C002047454E5F92
:100350004745545F504152414D3D253032583A2572
:100360003032583A253032580D0A00204241554467
:100370003D253034583A253032580D0A0020554179
:1003800052543D555044490D0A0020555044495F90
:1003900057524954453D253032583A2530366C582D
:1003A0003A253034580D0A0020555044495F5245D3
:1003B00041443D253032583A2530366C583A253084
:1003C00034580D0A0020555044495F455241534569
:1003D0003D253032583A2530366C580D0A002055EC
:1003E0005044495F4C454156455F50524F470D0AB6
:1003F0000020555044495F454E5445525F50524F7E
:10040000470D0A0020555044495F5349474E5F4FFE
:1004100046460D0A0020555044495F5349474E5FF8
:100420004F4E3D4558543A253032580D0A00205859
:10043000434C4B3D25640D0A0020434F4E4E45432F
:1004400054494F4E3D253032580D0A002041524349
:10045000483D253032580D0A00204156525F47452D
:10046000545F504152414D455445523D253032581C
:100470003A253032583A253032580D0A0020554E70
:100480004C4F434B454E3D253032580D0A00204815
:10049000564354524C454E3D253032580D0A0020EB
:1004A0004856545950453D253032580D0A002044D5
:1004B0004556494345444553433D25580D0A0020C0
:1004C0004649585F434C4B3D25640D0A0020584374
:1004D0004C4B3D25640D0A0020434F4E4E4543547E
:1004E000494F4E3D253032580D0A00205345535395
:1004F0005F505552504F53453D253032580D0A003C
:1005000020415243483D253032580D0A00204156C3
:10051000525F5345545F504152414D3D2530325852
:100520003A253032583A253032583A253032580D73
:100530000A0020424155443D253034583A25303296
:10054000580D0A0020554152543D5450490D0A009F
:100550002054504953523C30300D0A00203C524543
:10056000533A253032583E0D0A00205450495F431B
:1005700052430D0A00205450495F524541443D25E5
:100580003032583A2530386C583A253034580D0AF4
:1005900000205450495F57524954453D2530325848
:1005A0003A2530386C583A253034580D0A0020541A
:1005B00050495F45524153453D253032583A253028
:1005C000386C580D0A00205450495F4C454156453F
:1005D0005F50524F474D4F44450D0A00205450493B
:1005E0005F454E5445525F50524F474D4F44450D65
:1005F0000A00205441524745545F504F5745523DE1
:10060000253032580D0A00204156525F4745545F4D
:10061000504152414D3D253032583A253032583AFA
:10062000253032580D0A00205441524745545F503E
:100630004F5745523D253032580D0A002041565241
:100640005F5345545F504152414D3D253032583A39
:10065000253032583A253032583A253032580D0A72
:100660000053434F50453D253032582C433D2530F3
:1006700032582C533D253032582C4C3D25303258C1
:100680000D0A003C57414954494E473E0D0A005F50
:100690005F4156525F415243485F5F203D200069F1
:1006A0006F6176723634647533322E68005F41565E
:1006B000525F494F5858585F485F203D2000465FC1
:1006C000435055203D20000A3C737461727475706C
:1006D0003E003C5245424F4F543E0D0A00205345C8
:1006E0004354494F4E5F45524153453D25303458A0
:1006F0000D0A0020434849505F45524153453D256E
:100700003034580D0A00205349473E253034583ABA
:10071000253032580D0A0020534B45590D0A002050
:1007200054504953523E253032580D0A002054503F
:100730004949523E253032580D0A00205450495044
:1007400043523C30350D0A003C4856454E3E0D0A9A
:1007500000204B45593D253032580D0A002050529B
:100760004F475F4B45590D0A00204B45593D2530F9
:1007700032580D0A002045524153455F4B45590DF3
:100780000A002050524F4753544152543D253032B5
:10079000580D0A00203C5359533A253032583E0D2B
:1007A0000A00204B45593D253032580D0A0020558E
:1007B000524F575F4B45590D0A002052455F50522A
:1007C0004F4753544152543D253032580D0A0020B2
:1007D000454E5445525F55524F573D2530346C5865
:1007E0003A253034580D0A00203C4E564D3A2530FB
:1007F00032583E0D0A00205349423D25730D0A0030
:100800003C535441543A253032583E003C505752E4
:1008100053543E0D0A00203C5253543A25643E0D79
:100820000A002050524F4753544152543D25303214
:10083000580D0A0020554152543D4F46460D0A00BE
:1008400020554152543D4641494C0D0A0020554126
:1008500052543D5643500D0A0020424155443D2517
:1008600030386C583A253032580D0A00204343493D
:100870003D000000000000000000004B0000166377
:100880000000007B00001E6300000000000000006C
:10089000000000BB40002E630000008B00002E63B0
:1008A000400000B900001E630000008B00006E6372
:1008B000400002BB0000AE6300000000E20518101B
:1008C0006004408077040D0A2154494D454F55542A
:1008D0003A253034583E0000B31511241FBECFEF27
:1008E000CDBFDFE7DEBF88ED90E284BF9093680064
:1008F00090E084BF90936100E0E0F4E084E08387BF
:100900008FEF848780934C0480936C048093AC04B5
:1009100010E6A0E0B0E6E8EDF9E402C005900D9223
:10092000A438B107D9F720E6A4E8B0E601C01D92CB
:10093000A439B207E1F714E0CDE6D4E004C0219772
:10094000FE010E94C724CC36D107C9F70E94C21508
:100950000C94EA2455CBFB01A485B585ED91FC915F
:1009600011970190F081E02D682FCD01099488E561
:100970008093270A81E08093000A90E080E0FC01E8
:1009800023E0F595E7952A95E1F7E65EFF4920819A
:1009900030E0482F477002C0359527954A95E2F719
:1009A00040910B0A41FFFCCF20FF0DC00098209121
:1009B0000B0A226020930B0A019680399105F9F603
:1009C0001092000A0895009AF2CF982F9F7080E34A
:1009D000890F8A3310F087E3890F0895DC0112969E
:1009E000ED91FC91248125FFFDCF20E42483DC01DF
:1009F0001296ED91FC91628381E090E008958FB7AB
:100A0000F8941092316410927064109271648FBFE8
:100A100080910B0C82FDFCCF8EEF80934C0C0895DF
:100A2000E49B0BC08091766481FF07C02FB7F894D8
:100A3000E2990AC08EEA93E609C08091326480345C
:100A400011F51092326408958EEE93E680937A64E5
:100A500090937B648091326490E08093786490936B
:100A6000796410927C6410927D64109232648CB32D
:100A700094E089278CBB2FBF80910B0C82FDFCCFAB
:100A80008EEF80934E0C08958AE090E08093686426
:100A90009093696410926C6410926D6480910B0C59
:100AA00082FDFCCF8EEF80934A0C089510924C6427
:100AB00010924D6480910B0C82FDFCCF8EEF8093E1
:100AC000420C0895109240641092416480910B0C86
:100AD00082FDFCCF8EEF8093400C08952091040896
:100AE00027FF04C000900108009000080197B1F7AB
:100AF00008959C0150E040E060E071E782E090E002
:100B00000E94A424DA01C9010196A11DB11DB59569
:100B1000A7959795879580349105A105B10554F067
:100B2000009721E0A207B10548F08FEF9FEFA0E00A
:100B3000B0E0089580E490E0A0E0B0E0089590E097
:100B400080E008958091040887FFFCCF8091010820
:100B500080588EBB809100088FBB8EB3882311F123
:100B6000209108083091090880910808909109089F
:100B70009695879596958795820F931F8093080881
:100B80009093090880E010D08091186090911960CE
:100B9000B0DF809308089093090890E080E09EDF22
:100BA00080E0089581E00895CF93C82F80910408D4
:100BB00085FFFCCFC0930208C5DF882321F09FB3D7
:100BC00081E09C1380E0CF9108950F931F93CF9302
:100BD000DF93EB018C01F80181918F01E5DF882320
:100BE00011F02197C1F7DF91CF911F910F910895D7
:100BF00062E070E081E490E6E8DF8111A3CF80E05D
:100C0000089562E070E08FE390E6DFDF81119ACF14
:100C100080E00895609303607093046080930560A2
:100C20009093066065E070E081E090E6CEDF811190
:100C300089CF80E0089586DF882329F09FB381E083
:100C4000903409F080E00895CF93DF93EA01609338
:100C50001460709315608093166090931760CA01BA
:100C600096958795815080930F6085E680931160FB
:100C700065E070E082E190E6A8DF8823F9F0DBDF31
:100C80008823E1F063E070E089E390E69EDF88234B
:100C9000A9F065E070E08DE090E697DF882371F0C1
:100CA000BE016E7F8FED90E690DF882339F063E020
:100CB00070E08CE390E6DF91CF9187CF80E0DF9109
:100CC000CF910895CF93DF93EA01609314607093FE
:100CD000156080931660909317608FEF840F809358
:100CE0000F6084E68093116065E070E082E190E639
:100CF0006CDF8823F1F09FDF8823D9F063E070E098
:100D000089E390E662DF8823A1F065E070E08DE082
:100D100090E65BDF882369F0BE018FED90E655DF3A
:100D2000882339F063E070E08CE390E6DF91CF91A7
:100D30004CCF80E0DF91CF910895CF93C42F609383
:100D4000096070930A6080930B6090930C6065E07B
:100D500070E087E090E639DF882349F06CDF882374
:100D600031F08C2F21DF882311F0CF9164CF80E008
:100D7000CF910895482F60E070E180E090E0DDCFF2
:100D8000CF92DF92EF92FF920F931F93CF93DF9357
:100D9000CEECD0E68A0102531F49C017D107C1F03B
:100DA0006B017C012FEFC21AD20AE20AF20A4989CA
:100DB000C4DF2196811109C0DF91CF911F910F915E
:100DC000FF90EF90DF90CF900895C701B601E5CF77
:100DD00081E0F2CF0F931F93CF93DF93EB018C0150
:100DE000B1DE882331F09FB3F80191938F012197F1
:100DF000B9F7DF91CF911F910F910895CF93DF93B2
:100E0000EA0160931460709315608093166090936C
:100E10001760CA0196958795815080930F6085E28F
:100E20008093116065E070E082E190E6CEDE882379
:100E300089F001DF882371F065E070E08DE090E6D5
:100E4000C4DE882339F0BE016E7F85ED90E6DF9128
:100E5000CF91C0CF80E0DF91CF910895CF93DF9302
:100E6000EA0160931460709315608093166090930C
:100E700017608FEF840F80930F6084E2809311607E
:100E800065E070E082E190E6A0DE882381F0D3DEA9
:100E9000882369F065E070E08DE090E696DE8823B7
:100EA00031F0BE0185ED90E6DF91CF9193CF80E0E8
:100EB000DF91CF910895CF93DF93E99905C090E03A
:100EC00080E0DF91CF9108952091D5606091D66048
:100ED0007091D7608091D8609091D960C091DA60AC
:100EE000D091DB60203B49F480589F4FAE0186DFF4
:100EF000882329F3CE010196E4CF243B41F46F7798
:100F000070E060587F4E072E000C880B990BAE01E5
:100F1000A5DFEECFD0CFCF93DF93E99905C090E066
:100F200080E0DF91CF9108952091D5606091D660E7
:100F30007091D7608091D8609091D960C091DA604B
:100F4000D091DB60203B49F480589F4FAE0156DFC3
:100F5000882329F3CE010196E4CF243B39F46F773F
:100F600070E07F5E072E000C880B990BAE0176DFD8
:100F7000EFCFD1CFCF93DF938091D5606091D660D2
:100F80003091D760843B51F46F7770E07F5EE999D0
:100F90000FC090E080E0DF91CF910895732F803BE8
:100FA000B1F780919E6090919F60680F791FEFCF9D
:100FB000C091DA60D091DB6090E080E0AE014EDF5E
:100FC000882339F3CE010196E6CF8091040887FF8C
:100FD000FCCF8091010880588EBB809100088FBBA8
:100FE0009EB381E0911180E00895CF93C82F809146
:100FF000040885FFFCCFC0930208E7DF882321F0B7
:101000009FB381E09C1380E0CF910895CF93C82FC8
:1010100083EFEBDF882319F08C2FCF91E6CF80E0B0
:10102000CF91089582E7E1DF882331F0CEDF882376
:1010300019F08FB38111F6CF81E00895CF93C82FB7
:1010400084E6D3DF882319F08C2FCF91CECF80E0B8
:10105000CF91089584E2C9DF8111B7CF80E0089570
:10106000CF93DF93D82FC92F88E6BFDF882361F0A5
:101070008D2FBBDF882341F089E6B7DF882321F07D
:101080008C2FDF91CF91B1CF80E0DF91CF91089588
:1010900030E020E04091080442FFFCCF409108047A
:1010A00042FDFCCF2F5F3F4F8217930799F70895BA
:1010B000CF92DF92EF92FF92AB01BC018091CB60A7
:1010C000282F30E0322F22278091A060820F932FAB
:1010D000911D919581959109B0E0A0E0842395231D
:1010E000A623B72321E0C090EA62D090EB62E090A3
:1010F000EC62F090ED62C816D906EA06FB0609F428
:1011000020E08093EA629093EB62A093EC62B0934C
:10111000ED62822FFF90EF90DF90CF900895809145
:101120008560823081F01092000A10921A0B89EAD1
:1011300095E080931C0B90931D0B8FE48093100B14
:1011400082E080938560089580918560813089F088
:101150008FE08093000A10921A0B84EC92E6809341
:101160001C0B90931D0B85E48093100B81E0809302
:101170008560089566E070E180E090E04BDD8FB31C
:101180008370C1F78FB30895F5DF982F937781E0CF
:1011900009F080E00895CF93C82FECDF60E070E1A4
:1011A00080E090E037DD882331F08FB38C1303C0EB
:1011B00081E0CF91089580E0DDDD8823D1F3CC2359
:1011C000B9F38C2FCF91D6CD80E0E5DF90E0089584
:1011D00080E0E1CF8FE0DFDF8FE1DDDF80E0DBDF8C
:1011E00090E00895F7CFCF92DF92EF92FF92CF93E6
:1011F000DF936B017C01EA0180E0CDDF882389F079
:10120000AE01C701B6015EDD882359F085E0C3DF7A
:10121000882339F0DF91CF91FF90EF90DF90CF904E
:10122000B3CF80E0DF91CF91FF90EF90DF90CF9030
:101230000895CF92DF92EF92FF92CF93DF936B01ED
:101240007C01EA0180E0A7DF882389F0AE01C701B5
:10125000B601FADC882359F085E09DDF882339F058
:10126000DF91CF91FF90EF90DF90CF908DCF80E016
:10127000DF91CF91FF90EF90DF90CF900895CF92C4
:10128000DF92EF92FF926B017C0188E084DF88237C
:1012900071F04FEFC701B60150DD882341F06ADFDE
:1012A000837729F4FF90EF90DF90CF9091CF80E08B
:1012B000FF90EF90DF90CF90089562E070E180E0C2
:1012C00090E0A8DC8FB38370C1F78FB30895F5DF8A
:1012D00084E050DDF2DF80E04DDD90E00895CF93B3
:1012E000C82FEBDF60E070E180E090E093DC8823C2
:1012F00031F08FB38C1303C081E0CF91089580E06B
:1013000039DD8823D1F3CC23B9F38C2FCF9132CDA3
:1013100080E0E5DF90E0089580E0E1CFCF92DF92BA
:10132000EF92FF926B017C0188E0D9DF882371F096
:101330004FEFC701B60101DD882341F0BEDF83779F
:1013400029F4FF90EF90DF90CF90E6CF80E0FF9000
:10135000EF90DF90CF90089590E080E0089590E0C6
:1013600080E0089590E080E00895DC01ED91FC912B
:101370000190F081E02D0994CF92DF92EF92FF92DD
:101380000F931F93CF93DF938C01D0E0C0E07B01DC
:1013900081E0E81AF108672B61F1F801D1908F0123
:1013A0008D2D829512DB682F8DE890E6DEDF8D2D86
:1013B0000CDB682F8DE890E6D8DFE114F10491F0A2
:1013C000219691F481E8C82E80E6D82EF60161912D
:1013D0006F01662339F08DE890E6C7DF892BB1F7FE
:1013E000D0E0C0E0B701D3CF6AE38DE890E6BDDF7F
:1013F000F9CF8DE890E6DF91CF911F910F91FF908B
:10140000EF90DF90CF900895EF92FF920F931F938C
:10141000CF93DF938C017B01D0E0C0E0F701EC0FAC
:10142000FD1F6491662331F0C8019FDF892B11F005
:101430002196F4CFCE01DF91CF911F910F91FF90B4
:10144000EF900895CF93DF93EC016DE08EDF6AE0BB
:10145000CE018BDFCE01DF91CF910895CF93DF9343
:10146000CDB7DEB72E97CDBFDEBF8BEA94E089877C
:101470009A871B861C8682E08C838DE890E68D8798
:101480009E87AE01495E5F4F6D897E89CE010196D0
:101490000E94C0218DE890E62E96CDBFDEBFDF9181
:1014A000CF910895BF92CF92DF92EF92FF920F9368
:1014B0001F93CF93DF9300D000D0CDB7DEB7C0909D
:1014C0008660D0908760E0908860F0908960C11459
:1014D000D104E104F104D9F060E078E689E899E00C
:1014E000A70196010E94822469017A018FEFC81A30
:1014F000D80AE80AF80AF694E794D794C79488ECD7
:10150000B82E90E6C916D104E104F10430F4CC0CF5
:10151000DD1CEE1CFF1C2AECB22E1F92BF92FF9224
:10152000EF92DF92CF9289E598E09F938F930DE839
:1015300010E61F930F9392DFCDBFDEBFD701C60128
:1015400080549109A109B109803C9F4FA105B105C3
:1015500008F058C090918C60955040912C6050914B
:101560002D6060912E6070912F6049835A836B8348
:101570007C83E0918B60E370EC0FFD2FF11D2181E6
:1015800080918A60280F3327331F80E0232B09F0D6
:1015900088E09430A8F5890F9FB7F89422E1209352
:1015A000E20520E220930408C0920808D0920908BE
:1015B0008093070880E880930508B0920608E19AB6
:1015C0009FBF8DE498E09F938F938DE890E69F9363
:1015D0008F9344DF80E090E881DA0F900F900F90B6
:1015E0000F90E09B17C02496CDBFDEBFDF91CF9157
:1015F0001F910F91FF90EF90DF90CF90BF90A4CDFF
:101600008D5FCACF80E498E09F938F931F930F93D1
:1016100025DFE3CF2496CDBFDEBFDF91CF911F91B1
:101620000F91FF90EF90DF90CF90BF9078CDE19B2E
:1016300004C0E39B02C036DFE49AE3980895CF9399
:10164000DF93D82F8DE597E09F938F938DE890E6F9
:101650009F938F9303DF6AE070E083E490E6B5DA4E
:10166000C82F0F900F900F900F908823F1F0C9DAD8
:10167000FC9BFDCF8FB31F928F9381E597E09F93E3
:101680008F938DE890E69F938F93E8DE0F900F90F5
:101690000F900F900F900F90DD2339F066E070E00F
:1016A00082E790E6DF91CF9190CA8C2FDF91CF91A6
:1016B0000895CF92DF92EF92FF920F931F93CF93F3
:1016C000DF93E8990BC010E0812FDF91CF911F913C
:1016D0000F91FF90EF90DF90CF9008958091D560AB
:1016E000853C89F7C091B660D091B7608091DA608F
:1016F0009091DB60C817D90731F7C090D660D090C1
:10170000D760E090D860F090D9608091C0609091EF
:10171000C1608C159D05B9F690E080E0DFD9DF93BC
:10172000CF93FF92EF92DF92CF928FEC97E09F934F
:101730008F930DE810E61F930F9390DE8EEA97E0EB
:101740009F938F931F930F9389DE6AE070E087E584
:1017500090E63BDA2DB73EB7225F3F4F2DBF3EBF2D
:10176000882309F4B0CF4DDAFD9BFDCF8FB31F92D4
:101770008F9382EA97E09F938F938DE890E69F93F3
:101780008F936CDE66E070E082E790E61EDA182F39
:101790000F900F900F900F900F900F90882309F4E7
:1017A00092CF26DAFA9BFDCFAE01C701B6014CDA23
:1017B00063E070E084E690E608DA1ADAFA99FDCF81
:1017C00063E070E081E690E600DAE99B18C081E012
:1017D00036DF0EDAFB9BFDCF8FB31F928F938AEB20
:1017E00097E09F938F938DE890E69F938F9336DEDB
:1017F0000F900F900F900F900F900F9065CF66E0B5
:1018000070E082E790E6DF91CF911F910F91FF90FA
:10181000EF90DF90CF90D9C9CF92DF92EF92FF92F5
:10182000CF93DF93E99909C044DF90E0DF91CF9136
:10183000FF90EF90DF90CF9008958091D560C09099
:10184000D660D090D760E090D860F090D960C09119
:10185000DA60D091DB60823231F09EE4980F9230F2
:1018600010F0843C91F480E096DC811102C080E0AD
:10187000DCCFAE01C701B60125DA8823C1F385E1CB
:101880008ADC8823A1F380DCD0CF803C11F0853C3A
:1018900029F4AE01C701B601A6DCC7CF803B39F4FD
:1018A000C701B60180589F4FAE01C3DCBECFAE0169
:1018B000C701B60107DAB9CFCF92DF92EF92FF925C
:1018C000CF93DF93E99909C0F4DE90E0DF91CF91E7
:1018D000FF90EF90DF90CF9008958091D560C090F9
:1018E000D660D090D760E090D860F090D960C09179
:1018F000DA60D091DB60823231F09EE4980F923052
:1019000010F0843C89F483E146DC811102C080E060
:10191000DCCFAE01C701B60133DA8823C1F32ADC7C
:101920008377A9F755DCD1CF803C11F0853CB9F421
:10193000C701B601BDDB882319F0C701B6019FDCE2
:1019400082E029DC882319F3AE01C701B60118DA59
:101950008823E9F20FDC8377D1F63ADCB6CF803BFF
:10196000F9F480E8E80EF11CEA9908C0C701B60155
:101970009FDB882319F0C701B60181DC82E00BDC14
:10198000882309F4C4CFAE01C701B6015DD988230D
:1019900009F4BDCFEFDB837709F0B9CF19DC95CF20
:1019A000AE01C701B6018ED990CFCF92DF92EF92F0
:1019B000FF92CF93DF93E99909C07BDE90E0DF913E
:1019C000CF91FF90EF90DF90CF9008958091D560F8
:1019D000C090D660D090D760E090D860F090D96089
:1019E000C091DA60D091DB60823231F09EE4980FD2
:1019F000923010F0843C91F480E1CDDB811102C083
:101A000080E0DCCFAE01C701B6015CD98823C1F309
:101A100085E1C1DB8823A1F3B7DBD0CF803C11F097
:101A2000853C29F4AE01C701B601DDDBC7CF803BA1
:101A300039F4C701B60180589F4FAE01FADBBECF23
:101A4000AE01C701B6013ED9B9CFCF92DF92EF9276
:101A5000FF92CF93DF93E99909C02BDE90E0DF91ED
:101A6000CF91FF90EF90DF90CF9008958091D56057
:101A7000C090D660D090D760E090D860F090D960E8
:101A8000C091DA60D091DB60823231F09EE4980F31
:101A9000923010F0843C89F483E121DC811102C092
:101AA00080E0DCCFAE01C701B6016AD98823C1F35B
:101AB00004DC8377A9F730DCD1CF803C11F0853C82
:101AC000B9F4C701B601F4DA882319F0C701B601E9
:101AD00025DC82E004DC882319F3AE01C701B601DE
:101AE0004FD98823E9F2E9DB8377D1F615DCB6CF4D
:101AF000803BF9F480E8E80EF11CEA9908C0C701C0
:101B0000B601D6DA882319F0C701B60107DC82E0F6
:101B1000E6DB882309F4C4CFAE01C701B60194D82F
:101B2000882309F4BDCFC9DB837709F0B9CFF4DB93
:101B300095CFAE01C701B601C5D890CF4F925F9245
:101B40006F927F92AF92BF92CF92DF92EF92FF920D
:101B50000F931F93CF93DF9300D000D0CDB7DEB7A4
:101B6000E99914C0A6DD90E02496CDBFDEBFDF91D9
:101B7000CF911F910F91FF90EF90DF90CF90BF908A
:101B8000AF907F906F905F904F9008958091D56057
:101B9000C090D660D090D760E090D860F090D960C7
:101BA00096010091DA601091DB609EE4980F92300C
:101BB00008F044C08EECE82E80E6F82EC9018E5C59
:101BC00090466C01C7018E5C904680179107A0F586
:101BD000F701818990E089839A83C6018E0D9F1D4C
:101BE0008B839C836ADBCE0101965C0166E070E129
:101BF00080E090E0F50141915F012B013C01FFEF96
:101C00004F1A5F0A6F0A7F0A98D8811102C080E0DC
:101C1000AACFC301B2016A3020E1720781059105A4
:101C200049F787E0A7D8882391F347DB9FEFE91AAC
:101C3000F90A877039F2EBCF81E095CF823221F03B
:101C40009CE3980F923058F438DBC701B60188271F
:101C50009927A80137D881111BC090E021C0803B93
:101C600011F0803CF9F460919E6070919F60C60E07
:101C7000D71EF12CE12CC701B6011ADA882319F01E
:101C80001CDB84E077D819DBA801C701B601E2CFDD
:101C900083E070D8882309F310DB877091E0E9F6C0
:101CA000892F61CFC701B60188279927A8010AD8D3
:101CB0005ACF82ED96E09F938F938DE890E69F93A5
:101CC0008F93CCDBE0918F60F09190600F900F903C
:101CD0000F900F90848186FFFDCF88ED91E084BF47
:101CE0009093410008953F924F925F926F927F923E
:101CF0008F929F92AF92BF92CF92DF92EF92FF921C
:101D00000F931F93CF93DF93CDB7DEB72B013C0129
:101D1000922EADB6BEB6322E822F220F990B0196AF
:101D20002DB73EB7281B390B2DBF3EBF0DB71EB7D1
:101D30000F5F1F4F812C47FF16C04F7381E090E06B
:101D4000A0E0B0E0092C04C0880F991FAA1FBB1F98
:101D50000A94D2F70197A109B109482259226A22AF
:101D60007B2250E8852E842F90E08F73823091057E
:101D700034F4019711F432E0832E4074465F46FF3D
:101D80000CC077FE0AC0689480F8709460945094F8
:101D90004094411C511C611C711C4F73C42ED12CEA
:101DA000F12CE12CC301B201A70196010E9482240B
:101DB00029013A01862F0E94E504992D9A94F80191
:101DC000E90DF11D97FCFA958083411451046104DB
:101DD000710441F732E0831236C02EEF922E990E35
:101DE000F801E90DF11D97FCFA958BE28083090D4E
:101DF000111D97FC1A9539187801E30CF11C37FC7A
:101E0000FA94E016F10649F0F80161918F018DE82E
:101E100090E60E94EE04892BA1F78DE890E6ADBE16
:101E2000BEBEDF91CF911F910F91FF90EF90DF9099
:101E3000CF90BF90AF909F908F907F906F905F906A
:101E40004F903F900895181494F68EEF982E990EA7
:101E5000F801E90DF11D97FCFA958DE2C7CFCF93FC
:101E6000DF93C0E0DCE018821092040C8EE394E66D
:101E70008093060C9093070C81E08093010C1CBAB0
:101E80001DBA1EBA109233641092346410923264F8
:101E9000109231641092306410922F644AE450E042
:101EA00062E778E086E394E60E94B72110922E6400
:101EB000E6E1F3E681EA808780E281871286138675
:101EC00081E090E08487958782E090E0868797871D
:101ED000108A118A83E88883DF91CF91089584E383
:101EE00098E09F938F938DE890E69F938F93B6DA57
:101EF0008AE18A95F1F700C08FB7F894109206082E
:101F0000109205081EBA1FBA1DBA92E19093E2051D
:101F1000E1988FBF009888E0809310040298809326
:101F2000120402980F900F900F900F9008958091D7
:101F30008560843081F01092000A10921A0B82E2C0
:101F400091E180931C0B90931D0B8FE48093100BF9
:101F500084E080938560C3DF039888E08093130456
:101F60000198809311040895CF938DB3C82FC27048
:101F700081FD2EC081E063DB811106C090E080E02E
:101F8000CF910895C130D1F389EF90E00197F1F737
:101F900000C000000E94F805C150FB9BF3CF8FB337
:101FA0001F928F9382E298E09F938F938DE890E643
:101FB0009F938F9353DAE99A0F900F900F900F90A1
:101FC0000F900F90E0910E63F0910F63CF91099401
:101FD00081E090E0D5CF90E080E00E946E05E99925
:101FE00002C080E02CDB85E797E09F938F938DE81C
:101FF00090E69F938F9332DA6AE070E08DE490E68A
:102000000E94E5050F900F900F900F90811102C074
:1020100020E073C00E940106FB9BFCCF8FB31F9290
:102020008F9389E697E09F938F938DE890E69F9337
:102030008F9314DA66E070E082E790E60E94E5058F
:102040000F900F900F900F900F900F90882301F337
:102050002FEF84E39CE0215080409040E1F700C0E6
:10206000000090E080E00E946E050E94F805FD9956
:10207000FCCF0E94F805F899FCCF8FB31F928F9385
:1020800084E997E09F938F938DE890E69F938F93D9
:10209000E5D90F900F900F900F900F900F900E9426
:1020A0000106FB99FCCF0E94F805FB9909C081E06D
:1020B000C6DA882309F4ACCF0E94F805FB9BFCCF5D
:1020C0008FB31F928F9382E897E09F938F938DE851
:1020D00090E69F938F93C2D9EA9AE99AE0910E63B2
:1020E000F0910F63099521E00F900F900F900F90E2
:1020F0000F900F90892B09F48BCF822F0895809138
:10210000D560811103C067DF90E00895873051F4F6
:102110006091D6607091D7608091D8609091D960BD
:10212000AED8F2CF81E090E008958091D560811122
:1021300003C051DF90E00895873051F46091D6607C
:102140007091D7608091D8609091D960E7D8F2CF34
:1021500081E090E008958091D560811103C03BDF5C
:1021600090E0089581E090E00895F5CFF4CFAF922C
:10217000BF92CF92DF92EF92FF920F931F93CF9374
:10218000DF9300D0CDB7DEB780E88DBB80919C6037
:1021900090919D60079788F08091D460882369F0C2
:1021A00088E497E09F938F938DE890E69F938F93B9
:1021B00055D90F900F900F900F90029A019A2FEF20
:1021C00084E39CE0215080409040E1F700C0000093
:1021D00082EC0E94F507811103C090E080E0AEC060
:1021E00085E00E94F5078823C1F38BE397E09F9376
:1021F0008F938DE890E69F938F9330D90F900F9037
:102200000F900F908FE80E94F5078823D9F30E9462
:10221000E5078823B9F38FB38038A1F78FB31F92F6
:102220008F938DE297E09F938F938DE890E69F9335
:102230008F9314D9E89A0F900F900F900F900F90F2
:102240000F9087E1E82E87E0F82E9DE8C92E90E6F2
:10225000D92E29E3A22E20E6B22E80E80E94F507AF
:102260008823E1F10E94E5078823C1F18FB3823012
:10227000A9F58FB31F928F938FE197E09F938F9370
:102280008DE890E69F938F93E9D819821A8281ECAA
:102290009FE30E9430080F900F900F900F900F90C7
:1022A0000F90882309F457C00E942A08882309F454
:1022B00052C08FB38A830E942A08882311F08FB3FB
:1022C000898329813A8188E02E30F2E93F0711F1B4
:1022D0002F3081E93807E9F082E01CC0FF92EF92CD
:1022E000DF92CF92BBD800E310E60F900F900F90D3
:1022F0000F90F80181918F010E94F507882309F45E
:102300006CCF84E090E00E944808A016B10689F7DF
:10231000A4CF84E080939B601F928F933F932F9371
:1023200086E097E09F938F938DE890E69F938F933D
:1023300095D8E99ACDBFDEBF81E090E00F900F9075
:10234000DF91CF911F910F91FF90EF90DF90CF9091
:10235000BF90AF90089529813A81BECFCF93DF938C
:1023600090E080E00E946E0569E070E082E790E610
:102370000E94E5051DBAC82FD0E01F928F9386E119
:1023800098E09F938F938DE890E69F938F9366D804
:10239000019A000001980F900F900F900F900F90EE
:1023A0000F90CE01DF91CF910895CF93DF9380E816
:1023B0008DBB1092EE628FEF9FEFDC018093EA629B
:1023C0009093EB62A093EC62B093ED628FE995E09D
:1023D00080930E6390930F638FEA99E0809310636C
:1023E0009093116382EB99E080931263909313634F
:1023F0008CEA99E08093146390931563019A00002E
:102400008091D5608823C1F08CE098E09F938F93F2
:102410008DE890E69F938F9321D80E982FEF34E3A9
:102420008CE0215030408040E1F700C000000E9A5F
:102430000F900F900F900F90019890E080E00E9415
:102440006E05809118609091196096958795969584
:1024500087950E947905809308089093090880E089
:102460000E94D40580911860909119600E947905AE
:10247000809308089093090869E070E089E690E687
:102480000E94E505811105C090E080E0DF91CF91C9
:1024900008950E94F805FC99FCCF8FB31F928F938B
:1024A00080E098E09F938F93CDE8D0E6DF93CF93C1
:1024B0000E942E0A62E070E087E690E60E94E50541
:1024C0000F900F900F900F900F900F908823E1F2D4
:1024D00060E270E08EEE92E60E94EA068823A1F2A6
:1024E0008EEE92E69F938F9386EF97E09F938F9364
:1024F000DF93CF930E942E0A8091F8621F928F93F0
:1025000088EE97E09F938F93DF93CF930E942E0ADC
:102510008091F8622DB73EB7245F3F4F2DBF3EBF7D
:10252000853359F582EF98E080930E6390930F63A3
:102530008AE897E0809310639093116385EB90E1B4
:1025400080931263909313638CE09CE080931463F8
:10255000909315638091EE62EEEEF2E6803211F414
:10256000E2EFF2E684E0A5EDB0E601900D928A95E7
:10257000E1F7E89A85E090E089CF8433A9F484EE0E
:1025800098E080930E6390930F638BE597E08093C0
:102590001063909311638FE790E18093126390939F
:1025A00013638CE59CE0D2CF8333A9F48AEE98E0E4
:1025B00080930E6390930F6389EB97E08093106391
:1025C0009093116386EB90E1809312639093136371
:1025D00085ED9CE0BBCF8233A9F488E899E0809335
:1025E0000E6390930F638BE897E080931063909352
:1025F000116385E990E1809312639093136385E200
:102600009DE0A4CF803309F03FCF87E699E0809327
:102610000E6390930F638AEB97E08093106390931F
:1026200011638BEA90E180931263909313638EE9B8
:102630009DE08CCF6F927F928F929F92AF92BF92CC
:10264000CF92DF92EF92FF920F931F93CF93DF937E
:102650002091D460C090D860D090D960DC24CD2483
:10266000DC240091DA601091DB601027012710272D
:1026700060909B60862C912CC4010197CCEDD0E634
:102680003FEFAC014C215D21452B71F43FEF7C0104
:10269000E022F122E114F10471F0F801EC0DFD1DCE
:1026A00030830F5F1F4FF3CF41E0C41AD1080F5F93
:1026B0001F4F3A93E6CF213049F50E941208782E39
:1026C000882321F0C6010E943008782EB12CA12C5D
:1026D000A016B10608F08AC08DE10E940608882382
:1026E00031F088810E941E0881113DC02196782218
:1026F00094E0691251C08CE090E00E944808888103
:102700000E941E08811138C021963EC00E94120806
:102710008823C9F0C60181600E943008882399F09F
:1027200084E10E940608882371F08FEF0E941E0842
:10273000882349F00E941208882329F080E00E9433
:1027400006088111BACFC701DF91CF911F910F9178
:10275000FF90EF90DF90CF90BF90AF909F908F90C1
:102760007F906F9008956E0182E0C80ED11C898120
:102770000E941E08E601BBCF6E01E2E0CE0ED11C26
:1027800089810E941E08E60178220E9412087822A0
:10279000D1F2A80CB91C9CCFF8E06F12F6CF8CE0F8
:1027A00090E00E94480888810E941E086E018111F5
:1027B00016C04FEFC41AD40A78228CE090E00E9431
:1027C0004808F60180810E941E08E601882309F46A
:1027D0009BCF2296F60181810E941E08D5CF82E010
:1027E000C80ED11C89810E941E08E6CF80E00E949D
:1027F0000608E82EF12CA7CF0F931F93CF93DF93FA
:102800008091D7609091D860C091D960D091DA6002
:10281000DC27CD27DC279827892798270E943008B6
:102820000EEC10E6C8018E5C90468C179D0750F4A4
:102830000E942A080F5F1F4F882359F08FB3F801B9
:102840008683F0CFCE010196DF91CF911F910F913A
:10285000089590E080E0F8CFCF93DF93C091D760E8
:10286000D091D860DC27CD27DC278091D4608130DF
:1028700099F5DF93CF9383EF96E09F938F938DE845
:1028800090E69F938F930E942E0A0E9412080F9049
:102890000F900F900F900F900F90811105C090E056
:1028A00080E0DF91CF910895CE010E943008882307
:1028B000B1F380E10E940608882389F38FEF0E941C
:1028C0001E08882361F30E941208882341F380E0E8
:1028D0000E94060890E0E5CFDF93CF938DED96E060
:1028E0009F938F938DE890E69F938F930E942E0A7B
:1028F0000E9412080F900F900F900F900F900F9062
:10290000882369F2CE010E943008882341F284E1D5
:10291000D1CF1F920F920FB60F9211242F933F9396
:102920004F935F936F937F938F939F93AF93BF93D7
:10293000CF93EF93FF93C0910108209100088C2F53
:102940008674B1F4E29975C08EEA93E6E091326440
:1029500031E03E0F30933264E80FF92FF11D2083F0
:1029600080913264803408F067C08EE180932F64D8
:102970008EB3C82BCEBB8091666481FF48C08EB1F8
:1029800080958B70F2998061F1998062F6998064EC
:102990001EBAE49B3CC090912E648917C1F18093CC
:1029A0002E6491EA90931E6390E290931F631092BD
:1029B00020631092216321E030E020932263309362
:1029C000236322E030E0209324633093256390E07A
:1029D00080932663909327638CE698E09F938F9370
:1029E0008DE890E69F938F930E942E0A6AE070E034
:1029F0008EE193E60E94BC090E94220A80916664DF
:102A00000F900F900F900F9081FD0E944405FF9151
:102A1000EF91CF91BF91AF919F918F917F916F91E6
:102A20005F914F913F912F910F900FBE0F901F908C
:102A300018958EEE93E68ACF0E94100599CF112447
:102A40008DB79EB780934C0190934D011092000B6F
:102A500081E08093060B62E070E080E894E60E94DB
:102A600097218FB7F8941092000B91E09093060B8A
:102A70008FBF18950F931F93CF93DF9300D000D093
:102A8000CDB7DEB78B839C8319821A8280E894E6E7
:102A90000E947721892B31F59FB7F89410920A0B89
:102AA00010920B0B20E233E020930C0B30930D0BB4
:102AB00081E08093050B8093060B8FE08093000BE1
:102AC0009FBFEB81FC81099589839A83EF98C9DFC9
:102AD00089819A812496CDBFDEBFDF91CF911F916E
:102AE0000F9108950CE411E0F801808191819F938A
:102AF0008F9386EC98E09F938F938DE890E69F9359
:102B00008F930E942E0A0F900F900F900F900F90AE
:102B10000F90F8018081918160E170E001960E9440
:102B2000BC090E94220AD3CF1F920F920FB60F92B8
:102B300011248F938FEF8093C701E79A8F910F90A5
:102B40000FBE0F901F9018951F920F920FB60F9205
:102B500011248F938FEF87BBE69A8F910F900FBE52
:102B60000F901F901895EDE8F0E680E298E08283E0
:102B700093838FE790E6808391838CEB98E0858345
:102B800096830895CF93DF93CDB7DEB72597CDBF5A
:102B9000DEBF8091926090919360FC01A591B49109
:102BA0002C91FC01329634913196E49123232E2B03
:102BB0002C93FC013496A591B491FC013696E491D6
:102BC0001196EC931197FC013796E4911296EC93D1
:102BD000FC013896A591B49118E01C93E0918F60A8
:102BE000F091906080EA90E080879187158203E001
:102BF000078380EC868367EC76E08DE890E60E94A0
:102C0000040A8DE890E60E94220A6EEB76E08DE8D9
:102C100090E60E94040A20E240E460E07DE281E365
:102C200091E061D88DE890E60E94220A6DEA76E094
:102C30008DE890E60E94040A6FE976E08DE890E660
:102C40000E94040A8DE890E60E94220A6FE876E06E
:102C50008DE890E60E94040A20E140E466E670E018
:102C600080E090E040D88DE890E60E94220A649AC5
:102C700010927404659A1092750410937004109366
:102C8000710410937304069A109216040E9A10930E
:102C9000B4048AE08093B60496E09093B8048AE482
:102CA0008093130220E82093B20480E18093100205
:102CB00081E080932B029093CB0199EA9093C90114
:102CC0008093C80194E09093260292E09093D701FC
:102CD0000093D50131E23093D4012093C50121E462
:102CE0002093C0018093030A23EC2093260A22E656
:102CF0002093280A27E42093110B29EA35E020933A
:102D00001C0B30931D0B2FE42093100B24E6209313
:102D100056011093110229E0209312029093310280
:102D2000009333028093500102D98091010180FD0C
:102D3000FCCF88ED98E084BF909300018FEF87BBB4
:102D40008093C70178940E948F0883E896E09F9350
:102D50008F938DE890E69F938F930E942E0A0F9099
:102D60000F900F900F900DE810E61E0125E0220E47
:102D7000311C30E8832E35E2932EA12CB12C662431
:102D80006394712CA895F0900A0CF0920A0CB49BF5
:102D900010C08091000C811111C08091856083303A
:102DA00011F00E948F081092030C8091000C57D8EC
:102DB00031C08091000C81110E94590EF7FE14C0A1
:102DC00080912F64882381F080912F6481508093BB
:102DD0002F64811109C08091766481FF05C08091C4
:102DE000326481110E9410058F2D807629F0E099C0
:102DF0000E94590E6894F4F8F4FE0CC0809185602E
:102E0000833011F00E948F081092030C8091000C07
:102E10008111CDCF80913E6484FF4CC0F090166349
:102E2000809140649091416420913E6430911D6393
:102E30003F9330911C633F9330911B633F933091DC
:102E40001A633F93309119633F93309118633F9316
:102E5000309117631F923F931F92FF929F938F931E
:102E60001F922F9381E792E09F938F931F930F936D
:102E70000E942E0ACDBFDEBFF7FE0E9462058F2D95
:102E8000807609F0A8C28091176381119BC01092CF
:102E90001E6310921F6382E090E0809348649093D9
:102EA00049640E9456050E94620580910B0C846063
:102EB00080930B0CE8992DC0E79B79C380918560C6
:102EC000833081F01092000A10921A0B89EA95E57E
:102ED00080931C0B90931D0B8FE48093100B83E069
:102EE0008093856080919860853029F489E580938E
:102EF00024600E94B704019A89E992E09F938F931E
:102F00001F930F930E942E0AE7980F900F900F9037
:102F10000F90E09B37CFE19B9AC3E39914C0809157
:102F2000040885FF10C080916E6481FF0CC0E19B96
:102F30000AC0209170643091716480913164821371
:102F400067C30E94FF04E39B18C080913364909193
:102F500034649C012F5F3F4F2230310570F0853083
:102F6000910508F479C30497809333649093346493
:102F70008091666481FD0E94440580915E6481FFBA
:102F8000FECE90912E6380912F632091566421FF95
:102F9000FCCF903809F03AC4F82FFF706F2E29E06B
:102FA0002F1708F060C38DEC92E09F938F931F93CF
:102FB0000F930E942E0A10922F630F900F900F9084
:102FC0000F9079C3813079F580911B638F93809145
:102FD0001A638F93809119638F93809118638F93F5
:102FE00086E292E09F938F931F930F930E942E0A85
:102FF000CDBFDEBF80911863811110C0E0911A63CC
:10300000E29580910B0C82FDFCCFF0E0F595E79501
:10301000F595E795E05CF34F8BE080831092486470
:10302000109249643ECF8430D9F480911B638F9312
:1030300080911A638F93809119638F9380911863A5
:103040008F9386E192E09F938F931F930F930E943B
:103050002E0A1092486410924964CDBFDEBF21CF82
:103060008530E1F480911863F82EE894F7F80E9417
:1030700056058091466481FFFCCFF092030C1F92AD
:10308000FF9286E092E09F938F931F930F930E948D
:103090002E0A109248641092496464C1863009F087
:1030A0004DC140901C63F0911D63FD8380911863B6
:1030B00090911963913009F061C042E150E067ECF2
:1030C00071E08EE193E60E94B72180910014909107
:1030D0000114A0910214B09103148F3F2FEF9207B7
:1030E000A207B20741F08093266390932763A093D1
:1030F0002863B0932963809129638F93809128631B
:103100008F93809127638F93809126638F9382EBB7
:1031100091E09F938F931F930F930E942E0ACDBF30
:10312000DEBF82E1E82EF12C842D9D81E816F906A0
:1031300008F4C70197017C01E0924864F092496469
:10314000232B09F0AECE85E692E09F938F931F93D9
:103150000F930E942E0A0F900F900F900F90809166
:103160000B0C82FDFCCF88E08093430C80910B0C0C
:1031700082FDFCCF88E08093410C97CE923009F419
:10318000C0C0963009F4C8C0913209F4CBC0923265
:1031900009F4CEC08115E3E09E0779F484E08093C2
:1031A0001E6393E090931F6399E090932063809354
:1031B0002163B4E0EB2EF12CB7CF8230F3E09F0710
:1031C00031F148F48130934009F495C0F12CE12CA1
:1031D00070E060E00BC083309807F9F0F8E1EF2E63
:1031E000F12C68E870E08430934081F7E0921E6330
:1031F00083E080931F63A7014250510980E293E668
:10320000E114F10409F085C030E020E095CFA6E498
:10321000EA2EF12C60EA70E0E9CF4091041450915D
:103220000514609106147091071449835A836B83C7
:103230007C834F3FFFEF5F076F077F0751F5E0E8A3
:10324000F0E1CF0101962081422728E06A017B014D
:10325000F694E794D794C79441705527662777274B
:1032600070956095509541955F4F6F4F7F4F4072BD
:103270005378687B7D7E4C255D256E257F2521500A
:1032800029F7FC01803A9041E1F649835A836B8328
:103290007C8386E180931E6383E080931F638DE4CB
:1032A000809320631092216388E5809322631092BB
:1032B000236334E2E32E33E6F32ECE0101966C0154
:1032C000F60151906F01852D82958F700E94E50463
:1032D000F70180831182852D0E94E504F701828326
:1032E0001382F4E0EF0EF11C2C143D0449F726E1A3
:1032F000E22EF12C19CF94E3E92EF12C66EE70E06A
:1033000075CF8BE6E82EF12C6DE371E0A7018EE11D
:1033100093E60E94B72108CFBAE0EB2EF12C68EAC1
:1033200071E0F4CFA9E0EA2EF12C6FE471E0EECF6A
:10333000F3E2EF2EF12C6AE171E0E8CF8830C9F4B6
:103340008091306480931E631F928F938AEF91E087
:103350009F938F931F930F930E942E0A609248644D
:10336000709249640F900F900F900F900F900F90F4
:1033700098CD893071F48091186380933064E09A1D
:103380000E94A408809130641F928F938EEE91E08A
:103390007ACE8A3099F425EE31E03F932F931F9334
:1033A0000F930E942E0A10921E63609248647092DE
:1033B00049640F900F900F900F9073CD8B3009F0F0
:1033C000C2CE809119638F93809118638F9389ED9A
:1033D00091E09F9359CE803209F0B5CE809117636A
:1033E0008A3061F4809118639091196399279F93B3
:1033F0008F9329E532E03F932F9347CE8032E1F55A
:1034000080913E6481FFFCCF47E050E06EE173E6BF
:1034100086E890E60E94CD24892B91F080916E641D
:1034200081FD0E94FF040E94970F87E0EEE1F3E622
:10343000A6E8B0E601900D928A95E1F70E94520A43
:1034400083E592E09F938F931F930F930E942E0A20
:1034500067E070E086E890E60E94BC090E94220ABC
:10346000E49A109232641092316410922F64109298
:103470004864109249649DCF8132B9F587E0E6E84F
:10348000F0E6AEE1B3E601900D928A95E1F7809106
:103490001E6390911F63A0912063B0912163892BDB
:1034A0008A2B8B2B59F480921E6390921F63A092FB
:1034B0002063B092216388E0809324632DE432E09E
:1034C0003F932F931F930F930E942E0A67E070E0A3
:1034D0008EE193E60E94BC090E94220A87E090E0F8
:1034E000809348649093496464CF823271F58091EF
:1034F00018639091196399279F938F9381E492E0C9
:103500009F938F931F930F930E942E0A80911863AD
:103510000F900F900F900F900F900F90982F917029
:1035200080FF0FC06C9881FF0EC06D982091846061
:1035300020FD04C0992311F0E79AE69A80938460F5
:103540006DCD6C9AF0CF6D9AF1CF833209F0FBCD3F
:10355000809119638F93809118638F9326E332E0F3
:103560003F932F931F930F930E942E0A809118630D
:103570009091196380933364909334640F900F900B
:103580000F900F900F900F90892B71F0E19B0AC064
:10359000E39908C0E49810922F640E946F0F029A7A
:1035A00010921204E39A3ACD0E94170B37CDE69B96
:1035B000B0CC80919860853021F4109224600E94F4
:1035C000B7040198FFE72AE136E0F150204030408F
:1035D000E1F700C0000084EA92E09F938F931F936D
:1035E0000F930E942E0A0F900F900F900F90E09B68
:1035F00005C00E94A408E798E6988BCC8091030C44
:10360000811103C00E94590EF6CF0E948F08F3CF9C
:103610004091706450917164282F30E0F12C421772
:10362000530739F08F5F8093316422593C49F90187
:10363000F0808091706490917164209131642817BA
:10364000190611F40E94FF04F09202087CCC8091CC
:103650006E6481FF78CC75CC109233641092346420
:103660000E94170B8ACC90E0E4E095958795EA9547
:10367000E1F7582EC090316331E0831302C01092FD
:10368000946001972CE3289F7001299FF00C11246E
:1036900070909460739470929460D12CA60162E350
:1036A00073E6C70182539F490E94DA2481E0809328
:1036B0002F63651411F0E12C0CC0EC0CFD1CE092A2
:1036C0009C60F0929D6067109EC010929960EE24FD
:1036D000E39480E490E0809358649093596410924E
:1036E0005C6410925D6480910B0C82FDFCCF8EEFC8
:1036F0008093460C109260641092616480910B0C70
:1037000082FDFCCF8EEF8093480CEE2009F437CB7E
:10371000F090D2608091D6601F928F938091D56097
:103720001F928F938091D3601F928F931F92FF926D
:1037300081E696E09F938F931F930F930E942E0A2A
:10374000CDBFDEBF91E0F91268C18091D360609077
:10375000D5607090D6605090D760823009F028C153
:10376000E52CF12CC72CD12C1F925F921F927F92D7
:103770001F926F928BE493E09F938F931F930F930D
:103780000E942E0ACDBFDEBF6110ABC0B6016A5BDE
:103790007C4FA70185ED90E6EAD58CE393E09F93FB
:1037A0008F931F930F930E942E0AB70185ED90E629
:1037B0000E94BC090E94220A0F900F900F900F9058
:1037C00084E891E08093D3609093D4603FEFE31A54
:1037D000F30A97012A5F3F4F20939C6030939D60CE
:1037E00010929A60C7018F5B9F4F6CE370E00E945C
:1037F0006E24609399608EE08093CF6022533F499E
:10380000F9011082BCCA8FEB92E0CFCB9138E9F579
:10381000109230639091996091110DC080EB92E00D
:103820009F938F931F930F930E942E0A10922F63E2
:1038300010923163C2CB80919A602CE3829FF00199
:103840001124E153FF49A2E3B3E601900D922A95BA
:10385000E1F78F5F80939A6040E1849F900111248B
:10386000292B20932F6320919C6030919D609817A5
:1038700051F08CE3809331632C53310920939C6089
:1038800030939D6018CF822FF5CF91111CC08F3FD0
:1038900021F095E0980F923048F482E080932F63F6
:1038A00080E4809330631092316305CF813F09F04B
:1038B00002CF82E080932F6380E88093306381E0C1
:1038C00080933163F8CE923009F4F5CE913031F423
:1038D000882309F4F0CE10922F63EDCE9330D9F700
:1038E000EACEF1E06F126CCF872D8F7D09F048C0D2
:1038F0008FEF8093070610920E0610920F066092CB
:1039000000066092010684E0809302068AEF8093AD
:10391000040684E480930B0681E180930A0680917B
:10392000070681FFFCCF20910E0630910F06C901DA
:1039300063E0880F991F6A95E1F7220F331F820F0A
:10394000931F1092000680939560909396609F93CA
:103950008F938EE293E09F938F931F930F930E9418
:103960002E0A80919560909196608093D560909397
:10397000D6600F900F900F900F900F900F9020CF68
:103980001F925F921F927F9288E193E09F938F93A3
:103990001F930F930E942E0A672D677070E0605F7F
:1039A0007C4FA70185ED90E6E2D4CDBFDEBF08CF06
:1039B0008031B9F481E093E09F938F931F930F932D
:1039C0000E942E0A1092986080E890E08093D36065
:1039D0009093D4600F900F900F900F90F12CE12CEA
:1039E000F8CE813149F481EF92E09F938F931F933A
:1039F0000F930E942E0AE8CF1F925F921F927F9230
:103A00001F926F928BED92E09F938F931F930F9372
:103A10000E942E0ACDBFDEBFE1CF92E1F912A4C20F
:103A2000F090D360D090D560C090D6607090D76091
:103A3000E1E0FE12CAC0E090D860F090D960FF9239
:103A4000EF921F927F921F92CF921F92DF928DE092
:103A500095E09F938F931F930F930E942E0ACDBFE3
:103A6000DEBFD11029C0C11019C0FF92EF9280E0D3
:103A700095E09F938F931F930F930E942E0AE092DD
:103A800098600F900F900F900F900F900F9080E81C
:103A900090E08093D3609093D460A0CF31E0C312C4
:103AA000F6CFFF92EF928BEE94E09F938F931F934C
:103AB0000F930E942E0AE5CF41E0D4124AC0C110F4
:103AC0000DC0FF92EF9288ED94E09F938F931F9328
:103AD0000F930E942E0AE0929760D3CF81E3C81221
:103AE000D6CFE0921860F0921960FF92EF928DECC1
:103AF00094E09F938F931F930F930E942E0A0F9031
:103B00000F900F900F900F900F90809198608530DC
:103B100009F0BDCF8091186090911960813F9105A7
:103B200098F080EF90E080931860909319608091F6
:103B3000186090911960E816F90609F4A8CF9F93D0
:103B40008F938FEB94E0B1CF889788F788E290E06D
:103B5000EACF92E0D91226C0C11099CF1F927F926E
:103B60008EEA94E09F938F931F930F930E942E0AE7
:103B7000472D4F7350E068ED70E68EE990E61AD756
:103B80000F900F900F900F900F900F908091986072
:103B9000853009F07CCF8091CD601F928F938FE9A3
:103BA00094E083CFE3E0DE1272CFF6E0CF1205C0DF
:103BB000FF92EF928EE894E078CF27E0C21267CFB1
:103BC000FF92EF928DE794E070CF32E0F31264C081
:103BD000E72CF12C1F927F921F92CF921F92DF92BF
:103BE00089E594E09F938F931F930F930E942E0A71
:103BF000CDBFDEBFD11022C0C11016C08091986029
:103C00001F928F938CE494E09F938F931F930F9355
:103C10000E942E0A809198608093D5600F900F903B
:103C20000F900F900F900F9084E891E08093D360F5
:103C30009093D460FFEFEF1AFF0ACBCD91E0D91239
:103C4000F3CFC1100FC0809197601F928F9389E3CB
:103C500094E09F938F931F930F930E942E0A80915D
:103C60009760DACFE1E3CE12DFCF809119608F93B6
:103C7000809118608F938EE294E09F938F931F93AF
:103C80000F930E942E0A8091186090911960809382
:103C9000D5609093D660C2CF80919860853009F04E
:103CA00060C120E1F21251C01F92DF9285E194E0E1
:103CB0009F938F931F930F930E942E0A0E94970F3A
:103CC000EFB6F8948DE793E09F938F931F930F9334
:103CD0000E942E0AF092E20580E28093040880910F
:103CE0001860909119600E9479058093080890935C
:103CF00009088BE2809307088AE08093050888EC26
:103D00008093060820910608809108089091090880
:103D10001F922F939F938F938BE693E09F938F93A4
:103D20001F930F930E942E0AEFBE85ED91E10E9432
:103D30003A157C01CDBFDEBF84E890E0E114F104C8
:103D400009F0BCC080EA90E0B9C091E1F9121FC04F
:103D500084E094E09F938F931F930F930E942E0A09
:103D60000F900F900F900F90E89B0DC08EEA91E19D
:103D70000E943A157C010E94970F0E94520AE1149A
:103D8000F10401F331C0EE24E394F12CF4CFE5E12A
:103D9000FE1218C081EF93E09F938F931F930F93B0
:103DA0000E942E0A84EB9FE00E943A150F900F901C
:103DB0000F900F90892B21F4EDB2FE2DF170EF2EB4
:103DC000F12CDDCF26E1F21212C08EED93E09F932D
:103DD0008F931F930F930E942E0A0F900F900F90B6
:103DE0000F90EE24E394F12C80E890E067C030E27D
:103DF000F31220C08091D9608F938091D8608F9307
:103E00008091D7608F938091D6608F931F92DF92BD
:103E100085EC93E09F938F931F930F930E942E0A3C
:103E200080911263909113630E943A157C01CDBF7B
:103E3000DEBFA5CFE89B92C091E2F9126BC08091E2
:103E4000DB608F938091DA608F938091D9608F933C
:103E50008091D8608F938091D7608F938091D66046
:103E60008F931F92DF9288EA93E09F938F931F9323
:103E70000F930E942E0A8091D560E090DA60F09056
:103E8000DB60CDBFDEBF833DF1F48091D6608F71E2
:103E900090E0A701415051094F7155274F5F5F4F87
:103EA0006EEE72E68B529F4985D5FFEFEF1AFF0A3F
:103EB00084E891E0E114F10409F444CF8093D360E5
:103EC0009093D46086CCE99B08C080911063909158
:103ED00011630E943A157C01EBCF843BA1F48091E1
:103EE000EE62882381F09EE19093D560803209F4E0
:103EF00081E48093D6608091F8628093D7602FEF41
:103F0000E21AF20AD5CFA7016FEF70E085ED90E6D7
:103F10005AD5F5CF33E2F31221C08091DB608F9345
:103F20008091DA608F938091D9608F938091D8606F
:103F30008F938091D7608F938091D6608F931F92DB
:103F4000DF928AE893E09F938F931F930F930E94D1
:103F50002E0A809114639091156366CFF12CE12CA9
:103F6000F1CE80EA90E095CD94E1F91246C18091BE
:103F7000D360813009F06CC08CED95E09F938F93F6
:103F80001F930F930E942E0A0E94970FFFB6F8947A
:103F900084E495E09F938F931F930F930E942E0AC2
:103FA000209118603091196050E040E0CDBFDEBF35
:103FB00060E27EE480E090E0C7D4DA01C9010196B6
:103FC000A11DB11DB595A7959795879536E0880FEA
:103FD000991FAA1FBB1F3A95D1F720E12093E20554
:103FE000029828E02093120420E2209304088034F1
:103FF0009105A105B10520F480E490E0A0E0B0E0D7
:1040000080930808909309088BE6809307088BE05B
:104010008093050888EC809306082091060880911B
:104020000808909109081F922F939F938F9382E322
:1040300095E09F938F931F930F930E942E0AFFBECC
:1040400087EB90E10E943A157C01CDBFDEBF33C003
:10405000823009F04BC086EC95E09F938F931F93BD
:104060000F930E942E0A80EC0E94F5070F900F908C
:104070000F900F90882319F080E00E94F50780E5EB
:1040800095E09F938F931F930F930E942E0A83EFC7
:1040900091E00197F1F700C00000029801981DBA65
:1040A0000E94970F0E94520A0F900F900F900F904E
:1040B000EE24E394F12C81E0E114F10409F080E0B6
:1040C0008093D460FF92EF928CE595E09F938F935D
:1040D0001F930F930E942E0A9FEFE91AF90A0F907F
:1040E0000F900F900F900F900F9073CBE89B7AC0BA
:1040F0008330E1F46091D5607091D6608091D76093
:104100009091D8603DD49F938F937F936F938091CC
:10411000D4601F928F938EEA95E09F938F931F93A5
:104120000F930E942E0A8CE294E18CCF843029F503
:104130002091DA603091DB603227232732276091AB
:10414000D6607091D7608091D8609091D96018D472
:104150003F932F939F938F937F936F938091D4601E
:104160001F928F9381E995E09F938F931F930F93F5
:104170000E942E0A8AE193E165CF853029F52091CE
:10418000D9603091DA603227232732276091D560D9
:104190007091D6608091D7609091D860F1D33F93B1
:1041A0002F939F938F937F936F938091D4601F92EF
:1041B0008F9385E795E09F938F931F930F930E94B2
:1041C0002E0A8CEF93E13ECF863079F48AE695E0B3
:1041D0009F938F931F930F930E942E0A0F900F901F
:1041E0000F900F90F12CE12C66CF21E090E087300A
:1041F00009F020E0E22EF92E5ECFE0E2FE12EECBD7
:104200009091D360C090D560D090D6608091D760F7
:10421000913099F5E090D860F090D960FF92EF92DC
:104220001F928F931F92DF921F92CF928CE396E0A2
:104230009F938F931F930F930E942E0ACDBFDEBFD3
:10424000C11025CC30E1D31222CCFF92EF9287E24D
:1042500096E09F938F931F930F930E942E0AE092F4
:1042600000600F900F900F900F900F900F90EF281D
:1042700011F00E9A0CCC0E980ACC923009F0AECB0D
:10428000E82EF12C1F928F931F92DF921F92CF92F4
:1042900087E096E09F938F931F930F930E942E0ABF
:1042A000CDBFDEBFC11019C090E1D91216C08091F8
:1042B00000601F928F9382EF95E09F938F931F93DF
:1042C0000F930E942E0A809100608093D5600F901A
:1042D0000F900F900F900F900F9084E891E08093D3
:1042E000D3609093D460EFEFEE1AFE0A72CADC013D
:1042F0002D923D924D925D926D927D928D929D9206
:10430000AD92BD92CD92DD92ED92FD920D931D93F3
:10431000CD93DD93FF91EF918DB78D938EB78D93F4
:104320008FB78D93ED93FD93882799270994DC012E
:10433000CB0181309105811D2D903D904D905D9078
:104340006D907D908D909D90AD90BD90CD90DD90C5
:10435000ED90FD900D911D91CD91DD91ED91FD912F
:104360000D900FBEEDBFFEBFED91FD910994FB01D5
:10437000DC0102C005900D9241505040D8F70895DD
:10438000CF93DF93EC018B8188608B83CE0106D0C5
:104390002B81277F2B83DF91CF910895ABE0B0E095
:1043A000E3EDF1E26AC27C013B018A01FC01168265
:1043B0001782838181FFBAC1CE0101965C01F701AA
:1043C0009381F30193FD859193FF81913F018823B0
:1043D00009F449C1853239F493FD859193FF8191A8
:1043E0003F01853221F4B70190E0B9D1E8CF912C9B
:1043F000212C312CFFE1F31538F08B3211F190F4C0
:10440000803209F1833229F137FC3CC020ED280FBE
:104410002A3050F536FE20C08AE0989E200D1124E7
:10442000922E06C08D3291F0803371F7689430F887
:10443000F30193FD859193FF81913F018111DACFC3
:1044400021C0689431F8689432F8F2CF689433F858
:10445000EFCF689434F8ECCFEAE02E9E200D1124C3
:10446000222E689435F8E4CF8E3229F436FCFBC056
:10447000689436F8DDCF8C3619F4689437F8D8CFC5
:104480008836B1F2982F9F7D95549330D8F08336BB
:1044900091F18337B1F1833509F05EC02801F2E074
:1044A0004F0E511CF801C080D180692D70E036FCA0
:1044B00002C06FEF7FEFC6013CD14C01689437F822
:1044C00082010AC00C5F1F4FFFE3F98388248394A5
:1044D000912C6501E89437F833FE2AC0522C8114E0
:1044E000910459F5552009F46ACFB70180E290E0B4
:1044F00036D15A94F7CFF801808189830E5F1F4F20
:10450000E5CF2801F2E04F0E511CF801C080D180A8
:10451000692D70E036FC02C06FEF7FEFC60114D149
:104520004C018201D7CFB70180E290E018D12A94E4
:104530002814190409F0B8F7D1CFF60137FC85919A
:1045400037FE81916F01B70190E009D151105A9463
:10455000F1E08F1A9108C3CF843619F0893609F03B
:1045600073C0F80137FE67C06081718182819381D9
:104570000C5F1F4FF32DFF763F2E97FF09C09095DC
:104580008095709561957F4F8F4F9F4F689437F856
:104590002AE030E0A50113D1C82ECA188C2C432C78
:1045A00036FE0CC0E89440F8C91440F434FE05C04F
:1045B00032FC03C0F32DFE7E4F2E892C44FE90C0AA
:1045C000FE01EC0DF11D8081803309F082C0242DA5
:1045D000297E422E842D8870582E43FC8FC040FEC9
:1045E00089C09C2C821418F42C0C922C981844FE30
:1045F0008BC0B70180E390E0B2D042FE08C088E7EC
:1046000090E041FE02C088E590E0B701A8D0C9144F
:1046100008F486C0CA94D12C9FEFC91AD90ACA0CD3
:10462000DB1CF60182916F01B70190E098D0AC14C9
:10463000BD04B9F757CF60817181072E000C880B3C
:10464000990B0E5F1F4F96CFD32CE894D4F82AE035
:1046500030E0853731F1232D297FD22E8F36F9F0C6
:1046600040F48835A1F0F701868197812B96E2E12D
:104670001DC1803749F08837B1F7D4FE02C0689475
:10468000D2F820E130E00DC06894D4F8F6CF34FEC3
:1046900003C0822F8660D82E20E132E002C028E0DD
:1046A00030E0F801D7FE0EC0608171818281938174
:1046B0000C5F1F4FA50183D0C82ECA183D2CE8946B
:1046C00037F86CCF6081718190E080E00E5F1F4F02
:1046D000F1CF42FC02C083947DCF839483947ACF40
:1046E000842D867809F476CFF6CFB70180E290E08A
:1046F00036D083948214C8F3512C79CF522C581899
:10470000821408F474CFF8CF842D867809F47FCF13
:104710008BE241FE80E247FC8DE2B70190E076CF6C
:10472000B70180E390E01BD09A9471CF8FEF9FEF99
:104730009DCFFC010590615070400110D8F7809525
:1047400090958E0F9F1F0895FC016150704001905D
:104750000110D8F7809590958E0F9F1F08950F93A5
:104760001F93CF93DF93182F092FEB018B8181FDCE
:1047700009C01FEF0FEF812F902FDF91CF911F9175
:104780000F91089582FF14C02E813F818C819D81FD
:10479000281739073CF4E881F981CF010196888315
:1047A000998310838E819F8101968E839F83E3CFAF
:1047B000E885F985812F0995892BA1F3DACFFA01D4
:1047C000AA27283051F1203181F1E8946F936E7F50
:1047D0006E5F7F4F8F4F9F4FAF4FB1E03ED0B4E041
:1047E0003CD0670F781F891F9A1FA11D680F791F82
:1047F0008A1F911DA11D6A0F711D811D911DA11D93
:1048000020D009F468943F912AE0269F11243019A2
:10481000305D3193DEF6CF010895462F4770405D3D
:104820004193B3E00FD0C9F7F6CF462F4F70405DEC
:104830004A3318F0495D31FD4052419302D0A9F747
:10484000EACFB4E0A6959795879577956795BA9541
:10485000C9F700976105710508959B01AC010A2E07
:1048600006945795479537952795BA95C9F7620FDE
:10487000731F841F951FA01D08952F923F924F9282
:104880005F926F927F928F929F92AF92BF92CF92E0
:10489000DF92EF92FF920F931F93CF93DF93CDB7E9
:1048A000DEB7CA1BDB0BCDBFDEBF09942A8839886F
:1048B00048885F846E847D848C849B84AA84B984B8
:1048C000C884DF80EE80FD800C811B81AA81B981C4
:1048D000CE0FD11DCDBFDEBFED010895AA1BBB1BBE
:1048E00051E107C0AA1FBB1FA617B70710F0A61BF0
:1048F000B70B881F991F5A95A9F780959095BC0111
:10490000CD010895A1E21A2EAA1BBB1BFD010DC00B
:10491000AA1FBB1FEE1FFF1FA217B307E407F5076F
:1049200020F0A21BB30BE40BF50B661F771F881F4B
:10493000991F1A9469F760957095809590959B01E1
:10494000AC01BD01CF010895052E97FB16F400942C
:104950000FD057FD05D0D6DF07FC02D046F408C0C3
:1049600050954095309521953F4F4F4F5F4F08959B
:1049700090958095709561957F4F8F4F9F4F0895CB
:104980006927962769277827872778270895EE0FC4
:10499000FF1F0590F491E02D0994FB01DC0104C098
:1049A0008D910190801921F441505040C8F7881B27
:1049B000990B0895FB01DC0102C001900D9241505A
:1049C0005040D8F70895DC0101C06D93415050402C
:0849D000E0F70895F894FFCF11
:1049D8000155080000000055480000000055A000DF
:1049E8005504556A00000000E100000000FFFF7F49
:1049F800557EC87F59FE557EC37E04FF00302000D7
:104A0800E0FF88D8CD45AB891255C20D55C2055572
:104A180087558B55E020676F72504D564E55E065AF
:104A2800736172454D564E55E065742673554D5663
:104A38004E55C72055CA0355E655C85955C308559C
:104A4800C20555C85955C80055C30400000000EEFA
:044A5800040D0A003F
:00000001FF
