:1000000054C500008FC500008DC500008BC50000E1
:1000100089C5000087C500000C94891C83C50000B9
:1000200081C500007FC500007DC500007BC50000C4
:1000300079C5000077C5000075C500000C94F41B5D
:1000400071C500006FC500006DC500000C94AB1BAE
:1000500069C5000067C5000065C5000063C50000F4
:100060000C94991C5FC500005DC500005BC50000D5
:1000700059C5000057C5000055C5000053C5000014
:1000800051C500004FC500005550444934415652F7
:100090002D55534220312E33352E34392048414CD2
:1000A0002F41565244555F434E414E4F2E680043F8
:1000B00000440043002D00410043004D002F005636
:1000C0000043005000000055005000440049003437
:1000D000004100560052002D005500530042003AE6
:1000E000004100560052002D00440055003A0045E2
:1000F000004400420047002F0043004D00530049D8
:100100000053002D0044004100500000004D0075D8
:10011000006C007400690058002E006A0070002016
:10012000004F005300530057002F004F005300486A
:100130000057002000500072006F0064002E000085
:10014000000600FF0901A101150026FF00750896B1
:1001500040000901810296400009019102950409BD
:1001600001B102C009026B000301008032090400E2
:1001700000020300000009211101000122230007F1
:1001800005020340000107058103400001080B013F
:100190000202020104090401000102020100052417
:1001A00000100104240206052406010205240103AF
:1001B000020705820310000409040200020A00007D
:1001C0000007050302400000070583024000000A03
:1001D000060002EF0201400000205649443A50490F
:1001E000443D253034583A253034580D0A00120168
:1001F0000002EF020140D804150B000101020301C7
:100200003C47493A253032583E0D0A003C53493AA2
:10021000303E0D0A003C53433A253032583E0D0A19
:10022000003C47433A253032583E0D0A00205553D2
:1002300042305F414444523D25640D0A002053463C
:100240003D253032583A253032580D0A00204346B9
:100250003D253032583A253032580D0A002053429D
:100260003D253034580D0A0020534C533D25303283
:10027000580D0A0020474C453D0020534C453D0099
:100280002049444C3D253032580D0A0052513D253D
:100290003032583A253034583A253032583A2530E1
:1002A00032583A253034583A253034583A253034CB
:1002B000580D0A003C5253543A494E3E0D0A003C38
:1002C0005253543A4F55543E0D0A003C4544424760
:1002D0005F454D5054593E0D0A003C454442475F2E
:1002E0004641494C3E0D0A003C454442475F464169
:1002F000494C3E0D0A002047454E3D253032583AC4
:10030000253032583A253032580D0A002047454EE4
:100310005F5349474E5F4F46460D0A002047454E02
:100320005F5349474E5F4F4E0D0A00902800183822
:1003300000000020504859534943414C3D2530327C
:10034000583A253032580D0A00205654415247453C
:10035000543D25640D0A002056455352494F4E3DE9
:100360000000012331002047454E5F4745545F5050
:100370004152414D3D253032583A253032583A25C8
:100380003032580D0A00205044495F5752495445B5
:100390003D253032583A2530386C583A253034589B
:1003A0000D0A00205044495F524541443D253032FA
:1003B000583A2530386C583A253034580D0A002008
:1003C0005044495F45524153453D253032583A2506
:1003D00030386C580D0A00205044495F4C45415656
:1003E000455F50524F470D0A00205044495F454E2B
:1003F0005445525F50524F470D0A00205044495F08
:100400005349474E5F4F46460D0A00205044495F0E
:100410005349474E5F4F4E3D4558543A2530325868
:100420000D0A0020555044495F57524954453D2517
:100430003032583A2530366C583A253034580D0A47
:100440000020555044495F524541443D25303258C3
:100450003A2530366C583A253034580D0A0020556C
:100460005044495F45524153453D253032583A2565
:1004700030366C580D0A00204C4153545F58434CA1
:100480004B3D25640D0A0020555044495F4C4541C1
:1004900056455F50524F470D0A0020555044495F62
:1004A000454E5445525F50524F470D0A002055505B
:1004B00044495F5349474E5F4F46460D0A00205559
:1004C0005044495F5349474E5F4F4E3D4558543A5B
:1004D000253032580D0A00203F3A415243483D250D
:1004E000640D0A002058434C4B3D25640D0A002042
:1004F000434F4E4E454354494F4E3D253032580DE3
:100500000A0020415243483D253032580D0A002050
:100510004156525F4745545F504152414D45544505
:10052000523D253032583A253032583A253032582B
:100530000D0A0020554E4C4F434B454E3D25303261
:10054000580D0A002048564354524C454E3D253024
:1005500032580D0A0020444556494345444553430B
:100560003D25580D0A00204649585F58434C4B3DE5
:1005700025640D0A0020434F4E4E454354494F4ECB
:100580003D253032580D0A0020534553535F5055D6
:1005900052504F53453D253032580D0A00205843E4
:1005A0004C4B3D25640D0A0020415243483D253007
:1005B00032580D0A00204156525F5345545F504156
:1005C00052414D3D253032583A253032583A253087
:1005D00032583A253034580D0A003C4856433A4FB9
:1005E00046463E0D0A00203C5245533A25303258CB
:1005F0003E0D0A00205450495F57524954453D254D
:100600003032583A2530386C583A25640D0A0020AB
:100610005450495F45524153453D253032583A25A3
:1006200030386C580D0A00205450495F434D443D0A
:1006300025642C205654474C4F573D25640D0A0025
:10064000205450495F524541443D253032583A25A7
:1006500030386C583A25640D0A00205450495F43E5
:1006600052430D0A00205450495F4C454156455FA6
:1006700050524F474D4F44450D0A002056544152A9
:100680004745543D25640D0A00205450495F454EAE
:100690005445525F50524F474D4F44450D0A00207C
:1006A0005441524745545F504F5745523D253032D3
:1006B000580D0A00204156525F4745545F50415241
:1006C000414D3D253032583A253032583A253032A6
:1006D000580D0A00205441524745545F504F57452A
:1006E000523D253032580D0A00204156525F534585
:1006F000545F504152414D3D253032583A253032F9
:10070000583A253032583A253032580D0A00203FE9
:100710003A53434F50453D253032580D0A0053514E
:100720003D25643A25643E53434F50453D253032C4
:10073000582C433D253032582C533D253032582C0F
:100740004C3D253032580D0A003C57414954494E22
:10075000473E0D0A00424541543D25643A25640D4B
:100760000A0048414C5F50524F46494C453D484174
:100770004C2F41565244555F434E414E4F2E680D0B
:100780000A005F5F4156525F415243485F5F3D251B
:10079000640D0A005F4156525F494F5858585F48F0
:1007A0005F3D696F6176723634647533322E680D41
:1007B0000A00465F4350553D256C640D0A000A3C13
:1007C000737461727475703E0D0A00204C3D2530C3
:1007D00034582C413D2530386C582C00204C3D2598
:1007E0003034582C413D2530386C582C002046615F
:1007F000696C0D0A0020205044495F4F4E3A47561D
:10080000414C3D253032580D0A0020204E564D50A7
:100810005F4F4E3A253032580D0A0020204661695C
:100820006C3A253032580D0A00204C45443A484273
:100830004541540D0A003C5245424F4F543E0D0A6B
:1008400000204C45443A4D443D25640D0A00205497
:100850004342303A4F4E0D0A005B544F5D00205426
:100860004342303A4F460D0A002053454354494F06
:100870004E5F45524153453D253034580D0A002006
:10088000434849505F45524153453D253034580D4A
:100890000A0020524541443D253034583A25642011
:1008A0000020434F44455F57524954453D2530345D
:1008B000583A253032580D0A002053454354494FC9
:1008C0004E5F45524153453D253034580D0A0020B6
:1008D00057524954453D253034583A25642000206C
:1008E00055534152543D54504920424155443D25B1
:1008F0003034580D0A00205349473E253034583AC9
:10090000253032580D0A0020534B45590D0A003C42
:100910004856454E3E002050524F475F4B45593D8B
:10092000002045524153455F4B45593D00205052F0
:100930004F4753544152543D253032580D0A002040
:100940003C5359533A253032583E0D0A0020574146
:1009500049540020434849505F45524153450020C7
:1009600055524F575F4B45593D002052455F5052FD
:100970004F4753544152543D253032580D0A003CE4
:100980005359533A253032583A25643E0D0A003CFB
:100990005359533A253032583A25643E0D0A002007
:1009A000454E5445525F55524F573D2530346C5893
:1009B0003A253034580D0A002055534152543D55C4
:1009C0005044492058434C4B3D25642042415544F6
:1009D0003D253034580D0A00204641494C3A253017
:1009E00032582C253032580D0A00204E564D3A25EB
:1009F0003032582C5349423D222573220D0A003CC7
:100A00004856433A5625643E00253032580D0A00B8
:100A10002055534152543D50444920424155443D94
:100A2000253034580D0A00205643503D4641494C6C
:100A30000D0A002055534152543D5643500D0A00B3
:100A400020424155443D2530386C583A25303258C3
:100A50000D0A000000000000000000004B00005CD8
:100A6000630000007B0000646300000000000000E1
:100A700000000000BB400074630000008B000074A5
:100A800063400000B9000064630000008B0000B404
:100A900063400002BB0000F46300000000E20518A0
:100AA0001060044080770400A81C11241FBECFEF03
:100AB000CDBFDFE7DEBF88ED90E284BF9093680092
:100AC00090E084BF90936100E0E0F4E084E08387ED
:100AD0008FEF848780934C0480936C048093AC04E4
:100AE00010E6A0E0B0E6E8E6FAE502C005900D9257
:100AF000AA3AB107D9F720E6AAEAB0E601C01D92EA
:100B0000A93BB207E1F715E0C5E5D5E004C02197A0
:100B1000FE010E940F2DC435D107C9F70E94B71CF2
:100B20000C94322D6DCAFB01A485B585ED91FC9125
:100B300011970190F081E02D682FCD01099480E09C
:100B400094E02091040827FF04C000900108009061
:100B500000080197B1F70895DC011296ED91FC9120
:100B6000248125FFFDCF20E42483DC011296ED9142
:100B7000FC91628381E090E008958FB7F894109221
:100B800076641092B4641092B5648FBF80910B0CA0
:100B900082FDFCCF8EEF80934C0C0895F49B0BC02C
:100BA0008091BA6481FF07C02FB7F894F2990AC008
:100BB00084EF93E609C080917764803411F5109238
:100BC0007764089584E394E68093BE649093BF6451
:100BD0008091776490E08093BC649093BD641092A0
:100BE000C0641092C164109277648EB394E0892738
:100BF0008EBB2FBF80910B0C82FDFCCF8EEF8093BC
:100C00004E0C0895109290641092916480910B0C98
:100C100082FDFCCF8EEF8093420C08951092846485
:100C20001092856480910B0C82FDFCCF8EEF809337
:100C3000400C0895FC01948196FFFDCF089590E04B
:100C400080E00895809101088CBB8CB38823D1F398
:100C5000809100088DBB8CB380588CBB9CB381E025
:100C6000911180E00895EECFCF93C82F80910408B2
:100C700085FFFCCFC0930208E5DF882321F09DB3F8
:100C800081E09C1380E0CF9108950F931F93CF9341
:100C9000DF93EB018C01F80181918F01E5DF88235F
:100CA00011F02197C1F7DF91CF911F910F91089516
:100CB00069E070E087E990E6E8DF90E0089562E09F
:100CC00070E081E690E6E1DF8111CDCF80E008950C
:100CD00062E070E08FE590E6D8DF8111C4CF80E05C
:100CE00008956093156070931660809317609093D9
:100CF000186065E070E083E190E6C7DF8111B3CF53
:100D000080E008959FDF882329F09DB381E090342F
:100D100009F080E00895CF93DF93EA0160932660A5
:100D2000709327608093286090932960CA019695FC
:100D3000879581508093216085E68093236065E0EC
:100D400070E084E290E6A1DF8823F9F0DBDF8823FE
:100D5000E1F063E070E08CE590E697DF8823A9F08E
:100D600065E070E08FE190E690DF882371F0BE01CE
:100D70006E7F8EEE90E689DF882339F063E070E0C5
:100D800087E890E6DF91CF9180CF80E0DF91CF912F
:100D90000895CF93C42F60931B6070931C60809361
:100DA0001D6090931E6065E070E089E190E66DDF64
:100DB000882349F0A7DF882331F08C2F55DF882363
:100DC00011F0CF919FCF80E0CF910895482F60E040
:100DD00070E180E090E0DDCFCF92DF92EF92FF9262
:100DE0000F931F93CF93DF93CDEDD0E68A0103528B
:100DF0001F49C017D107C1F06B017C012FEFC21A48
:100E0000D20AE20AF20A4989C4DF2196811109C097
:100E1000DF91CF911F910F91FF90EF90DF90CF90D6
:100E20000895C701B601E5CF81E0F2CFCF93DF93FC
:100E30004130510529F44091EE60DF91CF91A9CF67
:100E4000EA016093266070932760809328609093F6
:100E50002960842F81508093216084E680932360F1
:100E600065E070E084E290E610DF8823F1F04ADF6D
:100E70008823D9F063E070E08CE590E606DF8823F4
:100E8000A1F065E070E08FE190E6FFDE882369F075
:100E9000BE018EEE90E6F9DE882339F063E070E063
:100EA00087E890E6DF91CF91F0CE80E0DF91CF919F
:100EB00008950F931F93CF93DF93EB018C01C2DE54
:100EC000882331F09DB3F80191938F012197B9F7F1
:100ED000DF91CF911F910F910895CF93DF93EA0196
:100EE00060932660709327608093286090932960B8
:100EF000CA019695879581508093216085E2809301
:100F0000236065E070E084E290E6BFDE882389F02C
:100F1000F9DE882371F065E070E08FE190E6B5DEE0
:100F2000882339F0BE016E7F84EE90E6DF91CF9189
:100F3000C0CF80E0DF91CF910895CF93DF93EA0196
:100F40004130510559F4CDDE811104C080E0DF91BC
:100F5000CF9108959DB39093E460F9CF609326609C
:100F6000709327608093286090932960842F81502C
:100F70008093216084E28093236065E070E084E2E6
:100F800090E683DE882311F3BDDE8823F9F265E065
:100F900070E08FE190E679DE8823C1F2BE0184EE35
:100FA00090E6DF91CF9185CFCF93DF938091E4607E
:100FB0006091E5603091E660843B51F46F7770E0BA
:100FC0007F5EF9990FC090E080E0DF91CF910895A6
:100FD000732F803BB1F78091FB629091FC62680FA8
:100FE000791FEFCFC091E960D091EA6090E080E096
:100FF000AE01A3DF882339F3CE010196E6CFCF936C
:10100000DF93F99905C090E080E0DF91CF910895DA
:101010002091E4606091E5607091E6608091E76006
:101020009091E860C091E960D091EA60203B49F47A
:1010300080589F4FAE0151DF882329F3CE010196DE
:10104000E4CF243B39F46F7770E07F5E072E000C0D
:10105000880B990BAE0171DFEFCFD1CFCF93DF9328
:10106000F99905C090E080E0DF91CF91089520913B
:10107000E4606091E5607091E6608091E760909136
:10108000E860C091E960D091EA60203B49F4805863
:101090009F4FAE0122DF882329F3CE010196E4CFD2
:1010A000243B41F46F7770E060587F4E072E000CB0
:1010B000880B990BAE0141DFEECFD0CFCFCF80911F
:1010C000080890910908880F991F80930808909349
:1010D000090880E0C9DD2091596330915A6350E0DE
:1010E00040E060E071E782E090E00E94EC2CDA01E1
:1010F000C9010196A11DB11DB595A7959795879535
:1011000080349105A105B1057CF0009721E0A2078C
:10111000B10520F08FEF9FEFA0E0B0E080930808CA
:101120009093090881E0089580E490E0A0E0B0E0A9
:10113000F5CF8091596389518DBB8DB3883270F0A2
:101140008DB390E08093596390935A63B8DF63E066
:1011500070E087E890E699DD90E0089590E080E007
:10116000089582CDCF93C82F83EF7EDD882319F0B9
:101170008C2FCF91F6CF80E0CF91089582E774DD78
:10118000882331F070DD882319F08DB38111F6CFFB
:1011900081E00895CF93C82F84E666DD882319F097
:1011A0008C2FCF91DECF80E0CF91089584E25CDD7B
:1011B000811159CD80E00895CF93DF93D82FC92FA7
:1011C00088E652DD882361F08D2F4EDD882341F0C3
:1011D00089E64ADD882321F08C2FDF91CF9144CD21
:1011E00080E0DF91CF91089530E020E04091080445
:1011F00042FFFCCF4091080442FDFCCF2F5F3F4FE0
:101200008217930799F7089584E1809366008FEF22
:101210008093070610920E0610920F0681E08093CD
:10122000000683E08093010684E0809302068AEF43
:101230008093040684E480930B068091080680FD69
:10124000FCCF81E180930A068091070681FFFCCFE5
:1012500020910E0630910F06C90143E0880F991FB7
:101260004A95E1F7220F331F10920006820F931F59
:101270000895CF92DF92EF92FF92AB01BC01809173
:101280002863282F30E0322F22278091FD62820FC1
:10129000932F911D919581959109B0E0A0E0842351
:1012A0009523A623B72321E0C0902B63D0902C6315
:1012B000E0902D63F0902E63C816D906EA06FB066F
:1012C00009F420E080932B6390932C63A0932D630B
:1012D000B0932E63822FFF90EF90DF90CF90089510
:1012E000823249F4609103637091046380910563D5
:1012F000909106630895803B49F46091FF6270917C
:10130000006380910163909102630895813B51F3E2
:10131000823B49F46091076370910863809109638F
:1013200090910A630895833B49F460910B63709137
:101330000C6380910D6390910E630895843B89F452
:10134000209128633091296360911763709118632D
:101350008091196390911A63620F731F811D911D13
:101360000895803C49F46091FB627091FC62809129
:10137000FD629091FE620895813C09F4BECF843CE9
:1013800009F4B0CF853C49F460910F63709110630C
:1013900080911163909112630895863C49F46091A5
:1013A000136370911463809115639091166308958F
:1013B00060911763709118638091196390911A631B
:1013C000089530E020E04091080446FFFCCF4091B2
:1013D000080446FDFCCF2F5F3F4F8217930799F714
:1013E00081E00895FB9B08C081E090E0EADF04986B
:1013F00088E880930608FB9881E00895F3DF811167
:1014000032CC80E00895FB9909C081E090E0D9DFFB
:101410000C9A049A80EC80930608FB9A81E0089568
:1014200082E090E0CEDFEFDF811102C080E008951E
:1014300080E897DE8823D1F3E1DF882389F3E99BF5
:10144000EFCF0895EF92FF920F931F93CF93DF9307
:101450007C018B01D8DFE701899106DC882319F034
:1014600001501109C9F7DF91CF911F910F91FF90A2
:10147000EF900895F89907C064E070E08FE490E67B
:10148000E1DF90E0089581E090E00895CF92DF924F
:10149000EF92FF928FECC82EDD24D394E12CFD2C2B
:1014A000C0920660D0920760E0920860F0920960F6
:1014B00065E070E085E090E6C5DF81119FDF8DB3C8
:1014C000807C71F781E0FF90EF90DF90CF900895DE
:1014D000CF93C82F8AEC91E0A0E0B1E08093016047
:1014E00090930260A0930360B093046065E070E0A5
:1014F00080E090E6A7DF882319F08C2FCF9131CEC2
:1015000080E0CF9108958BEC91E0A0E0B1E0809372
:10151000016090930260A0930360B093046065E063
:1015200070E080E090E68EDF882311F081E019CE34
:1015300080E00895CF93C091E4608091E560909140
:10154000E660A091E760B091E86080930F609093AF
:101550001060A0931160B093126098DFC11111C0A8
:1015600080E4B6DF811104C090E080E0CF9108955F
:10157000CADF8823C9F354DF8823B1F387DF90E003
:10158000F5CF81E090E0C73089F788E1A1DF8823BB
:1015900059F365E070E08EE090E654DF882321F394
:1015A00084E662DB882301F38FEF5EDBE5CF1ADF91
:1015B0000C98049A80E190E004DF0C9A82E090E0BD
:1015C00000DF0C9880E190E0FCDE1DCF67E070E169
:1015D00080E090E086DB8DB38370C1F78DB3089512
:1015E000CF93C82FF3DF60E070E180E090E079DB1B
:1015F000882331F08DB38C1303C081E0CF9108951F
:1016000080E0E4DB8823D1F3CC23B9F38C2FCF9196
:10161000DDCB80E0E5DF90E0089580E0E1CFCF9280
:10162000DF92EF92FF926B017C0188E0D9DF882383
:1016300071F04FEFC701B601ACDB882341F0C6DF84
:10164000837729F4FF90EF90DF90CF90E6CF80E092
:10165000FF90EF90DF90CF90089566E070E180E01A
:1016600090E03FDB8DB38370C1F78DB30895F5DF54
:10167000982F937781E009F080E00895CF93C82FE9
:10168000ECDF60E070E180E090E02BDB882331F05C
:101690008DB38C1303C081E0CF91089580E096DB79
:1016A0008823D1F3CC23B9F38C2FCF918FCB80E05B
:1016B000E5DF90E0089580E0E1CF8FE0DFDF8FE1AC
:1016C000DDDF80E0DBDF90E00895F7CFCF92DF929F
:1016D000EF92FF92CF93DF936B017C01EA0180E0F0
:1016E000CDDF882389F0AE01C701B6019FDB8823D7
:1016F00059F085E0C3DF882339F0DF91CF91FF9067
:10170000EF90DF90CF90B3CF80E0DF91CF91FF904B
:10171000EF90DF90CF900895CF92DF92EF92FF92FB
:10172000CF93DF936B017C01EA0180E0A7DF882380
:1017300089F0AE01C701B601EEDA882359F085E0E1
:101740009DDF882339F0DF91CF91FF90EF90DF90FC
:10175000CF908DCF80E0DF91CF91FF90EF90DF9021
:10176000CF900895CF92DF92EF92FF926B017C01B0
:1017700088E084DF882371F04FEFC701B60109DBF1
:10178000882341F06ADF837729F4FF90EF90DF90A0
:10179000CF9091CF80E0FF90EF90DF90CF900895B1
:1017A00062E070E180E090E09CDA8DB38370C1F775
:1017B0008DB30895F5DF84E009DBF2DF80E006DB1E
:1017C00090E00895CF93C82FEBDF60E070E180E0F8
:1017D00090E087DA882331F08DB38C1303C081E069
:1017E000CF91089580E0F2DA8823D1F3CC23B9F3C6
:1017F0008C2FCF91EBCA80E0E5DF90E0089580E088
:10180000E1CFCF92DF92EF92FF926B017C0188E0F3
:10181000D9DF882371F04FEFC701B601BADA882308
:1018200041F0BEDF837729F4FF90EF90DF90CF90F7
:10183000E6CF80E0FF90EF90DF90CF90089590E0AA
:1018400080E0089590E080E0089590E080E00895C1
:10185000DC01ED91FC910190F081E02D0994CF9293
:10186000DF92EF92FF920F931F93CF93DF937C0150
:1018700010E000E06B0181E0C81AD108672B91F1FC
:10188000F701C1917F018C2F82958F7060E3680F03
:101890006A3310F067E3680F82EB90E6D9DFCF7010
:1018A00060E36C0F6A3310F067E36C0F82EB90E635
:1018B000CFDFC114D10479F00F5F1F4F71F4C6EA76
:1018C000D0E66991662339F082EB90E6C1DF892B7F
:1018D000C1F710E000E0B601CDCF6AE382EB90E6FD
:1018E000B7DFF9CF82EB90E6DF91CF911F910F9197
:1018F000FF90EF90DF90CF900895CF93DF93EC01AE
:101900006DE0A6DF6AE0CE01A3DFCE01DF91CF91CB
:101910000895CF93DF93CDB7DEB72E97CDBFDEBF4F
:1019200083E995E089879A871B861C8682E08C83F1
:1019300082EB90E68D879E87AE01495E5F4F6D8991
:101940007E89CE0101960E94082A82EB90E62E96AF
:10195000CDBFDEBFDF91CF910895CF93CFB7F8947D
:1019600081E18093E20580E880931604069A80E284
:10197000809304082091596330915A6350E040E00D
:1019800060E27EE480E090E00E94EC2CDA01C90184
:101990000196A11DB11DB595A7959795879536E040
:1019A000880F991FAA1FBB1F3A95D1F7009721E016
:1019B000A207B10520F08FEF9FEFA0E0B0E08034E8
:1019C0009105A105B10520F480E490E0A0E0B0E02D
:1019D00080930808909309088BE6809307088AE0B3
:1019E0008093050880E8809306088091080890910C
:1019F00009089F938F9380E19AE09F938F9382EBE6
:101A000090E69F938F9385DFCFBF0F900F900F903D
:101A10000F900F900F90CF910895EF92FF921F9328
:101A2000CF93DF93182FEB0110922402E12C8AE070
:101A3000F82EF70110821F921F9381E498E09F9384
:101A40008F9382EB90E69F938F9363DF1092030A4C
:101A5000C093260AD093270AD695C795C093280A23
:101A6000D093290A83E08093010A8FE0F7018083F5
:101A7000109357630F900F900F900F900F900F904F
:101A8000DF91CF911F91FF90EF9008958091576360
:101A9000833021F061E173E183E0BFCF089580914D
:101AA0005763823021F064E276E282E0B6CF089597
:101AB00086E398E09F938F9382EB90E69F938F93BA
:101AC00028DF8091B4609091B560B4D888ED91E042
:101AD00084BF909300010F900F900F900F90FFCF55
:101AE00080915763813029F11092000A89E298E0D1
:101AF0009F938F9382EB90E69F938F930ADF21E071
:101B00002093030A8091C3608093260A8091C3606A
:101B100090E0959587958093280A8FE08093000A3E
:101B200082E080932402209357630F900F900F90D0
:101B30000F900895BF92CF92DF92EF92FF920F9392
:101B40001F93CF93DF9300D000D0CDB7DEB72091A5
:101B5000AB603091AC604091AD605091AE602115AA
:101B600031054105510521F420E835E240E050E01F
:101B700060E078E689E899E00E94CA2CDA01C901A0
:101B80000196A11DB11D6C017D01F694E794D794D7
:101B9000C79420E6C216D104E104F10408F07BC02A
:101BA0006C017D01E894C0F89AECB92E1F92BF92A7
:101BB000FF92EF92DF92CF9280E49AE09F938F930F
:101BC00002EB10E61F930F93A4DECDBFDEBFD7015B
:101BD000C60180549109A109B109803C9F4FA1051C
:101BE000B10508F05DC09091B160955040912A60B8
:101BF00050912B6060912C6070912D6049835A83C5
:101C00006B837C83E091B060E370EC0FFD2FF11DDE
:101C100021818091AF60280F3327331F80E0232B71
:101C200009F088E09430D0F5890F9FB7F89422E14D
:101C30002093E20520E220930408C0920808D09285
:101C400009088093070880E880930508B092060889
:101C5000F19A9FBF83E39AE09F938F9382EB90E684
:101C60009F938F9356DE0E949F050F900F900F90C9
:101C70000F908EB38F718EBBF09B1AC02496CDBF90
:101C8000DEBFDF91CF911F910F91FF90EF90DF901A
:101C9000CF90BF9025CF88ECB82E88CF8D5FC5CF71
:101CA00087E29AE09F938F931F930F9332DEDDCFED
:101CB0002496CDBFDEBFDF91CF911F910F91FF9092
:101CC000EF90DF90CF90BF90EACEF19B04C0F39BE2
:101CD00002C030DFF49AF3980895F9991DC069E0C5
:101CE00070E083E590E6AEDB8823C9F099DB8823BA
:101CF000B1F0F99A8DB31F928F938AE098E09F9389
:101D00008F9382EB90E69F938F9303DE0F900F905B
:101D10000F900F900F900F9081E090E008958DB399
:101D20001F928F938BE198E09F938F9382EB90E6C5
:101D30009F938F93EEDD0F900F900F900F900F9069
:101D40000F9090E080E008958DEE97E09F938F9341
:101D500082EB90E69F938F93DCDD809159639091A5
:101D60005A630F900F900F900F908233910579F086
:101D7000C2978233910540F08093596390935A63E0
:101D8000ECDD15DC90E0089582E390E0F5CF90E083
:101D900080E00895CF92DF92EF92FF920F931F930E
:101DA000CF93DF93C091E460C090E560D090E6608F
:101DB000E090E760F090E8608C2F92DAC60ED71EB4
:101DC000E81EF91E0091E9601091EA60C0920F6070
:101DD000D0921060E0921160F09212609801215050
:101DE000310920930B6030930C6024E620930D6042
:101DF000FF92EF92DF92CF921F930F938CED97E0BB
:101E00009F938F9382EB90E69F938F9382DD3EDBCF
:101E10008DB79EB70A968DBF9EBFC03C09F43FC0E8
:101E2000C03B09F47AC0C13C09F477C0C23209F45E
:101E300078C0C13B09F475C0C43C09F472C0C53C0C
:101E400009F473C0C23B31F088E0C33B21F090E05D
:101E500080E006C08CE43CDB81110BC080E090E0A8
:101E6000DF91CF911F910F91FF90EF90DF90CF9076
:101E7000089565E070E08EE090E6E4DA882371F37F
:101E800064E070E08AE090E6DDDA882339F3B80197
:101E90008EEE90E6D7DA882309F3F8DAE0CFD3E2C2
:101EA00086E2C5E215DB8823C9F22DDB8823B1F277
:101EB000EDDA882399F28D2F0BDB882379F265E028
:101EC00070E08EE090E6BEDA882309F4C7CF64E0C4
:101ED00070E08AE090E6B6DA882309F4BFCFB80153
:101EE0008EEE90E6AFDA882309F4B8CF8C2FF0DAC3
:101EF000882309F4B3CF65E070E08EE090E6A2DAC3
:101F0000882309F4ABCF84E60E943406882309F4C1
:101F1000A5CF8FEF0E943406BECFD3E286E2CDE29A
:101F2000C1CFD3E386E3C5E3BDCFD3E286E2CAE106
:101F3000B9CFCF92DF92EF92FF920F931F93CF937F
:101F4000DF93C090E560D090E660E090E760F090AD
:101F5000E8608091E460C4D9C60ED71EE81EF91E61
:101F6000C091E960D091EA60FF92EF92DF92CF9248
:101F7000DF93CF938BEC97E09F938F9382EB90E668
:101F80009F938F93C6DC83E4A3DAEDB7FEB73A964E
:101F9000EDBFFEBF882309F45AC0C130D10511F549
:101FA000C0920660D0920760E0920860F0920960EB
:101FB00065E070E085E090E645DA882309F447C0E3
:101FC0001DDA882309F443C08DB38093E46082E076
:101FD00090E0DF91CF911F910F91FF90EF90DF90F4
:101FE000CF900895C0920F60D0921060E09211607F
:101FF000F0921260CE01019780930B6090930C6079
:1020000084E280930D6065E070E08EE090E61ADA7D
:102010008823E9F064E070E08AE090E613DA882330
:10202000B1F0E0D90DED10E69E0123523F49790150
:102030000E942206882359F08DB3F80187830F5F31
:102040001F4F0E151F05A1F7CE010196C2CF90E0DC
:1020500080E0BFCFBC018FB7F89410920A0B1092AA
:102060000B0B1092040B1092050B9FEF9093060B35
:1020700020EA30E020930C0B30930D0B1092010BF3
:1020800091E09093000B8FBF30E020E0F90183E0F6
:10209000F595E7958A95E1F7E60FF71F408150E047
:1020A000822F877002C0559547958A95E2F78091F7
:1020B000060B80FFFCCF40FF0FC000989091060BED
:1020C00091609093060BA8952F5F3F4F2037310505
:1020D000E9F61092000B0895009AF0CFCF93DF93AA
:1020E000C0E0DCE018821092040C82E894E6809351
:1020F000060C9093070C81E08093010C1EBA1FBA66
:102100001CBA1092786410927964109277641092DD
:10211000766410927564109274644AE450E063E54A
:102120007AE08AE794E60E94FF29ECE5F3E681EA8B
:10213000808780E281871286138681E090E0848721
:10214000958782E090E086879787108A118A83E8D6
:102150008883DF91CF9108958AE18A95F1F700C0D5
:102160008FB7F89410920608109205081CBA1DBA91
:1021700095E19093E205F1988FBF88E08093120477
:1021800002980398089580915763843021F068E89D
:1021900079E084E042DC809106088111DDDF00985F
:1021A0000198029880915863833019F4049A069834
:1021B00008950498FCCFCF93DF93E2E1F1E03197EB
:1021C000F1F700C00000C1E0D0E002C0CC0FDD1F7D
:1021D0008A95E2F70E945F068DB390E08C239D23E1
:1021E000892BC1F781E0DF91CF910895CF93DF93E1
:1021F000E2E1F1E03197F1F700C00000C1E0D0E08A
:1022000002C0CC0FDD1F8A95E2F70E945F068DB3F6
:1022100090E08C239D23892BC1F381E0DF91CF9146
:102220000895CF93DF93E2E1F1E03197F1F700C039
:102230000000C1E0D0E002C0CC0FDD1F8A95E2F7BC
:102240000E9468068DB390E08C239D23892BC1F3F7
:1022500081E0DF91CF910895CF93C82F86E199E077
:102260009F938F9382EB90E69F938F9352DB6AE06C
:1022700070E083E690E60E9445060F900F900F9065
:102280000F90811103C080E0CF91089584E0C9DFF1
:102290008823C9F3CC23C1F366E070E087E990E6B8
:1022A000CF910C944506F9992CC081E0D5DF8823A5
:1022B00059F182E191E00197F1F700C000000E941E
:1022C0006806EC99FCCF0E945F06882341F0E899EC
:1022D00006C0F99AE0914F63F091506309958DB370
:1022E0001F928F9389E09AE09F938F9382EB90E601
:1022F0009F938F930EDB0F900F900F900F900F9086
:102300000F9081E090E0089590E080E00895BF9202
:10231000CF92DF92EF92FF920F931F93CF93DF93B1
:10232000F8990CC010E0812FDF91CF911F910F9190
:10233000FF90EF90DF90CF90BF9008958091E46080
:10234000853C81F700911363109114638091E960DB
:102350009091EA600817190729F7C090E560D090BE
:10236000E660E090E760F090E86080911D639091F6
:102370001E638C159D05B1F60E949F051F930F9358
:10238000FF92EF92DF92CF928FE999E09F938F9324
:10239000C2EBD0E6DF93CF93BCDA8091B46090912A
:1023A000B5600E941A068FE599E09F938F93DF93A3
:1023B000CF93AFDA6AE070E087E790E60E944506C7
:1023C0002DB73EB7225F3F4F2DBF3EBF882309F494
:1023D000A9CF85E026DF882309F4A4CF66E070E06A
:1023E00087E990E60E944506882309F49BCF82E0A6
:1023F000FDDE8DB39DB386958695BB24B3948B2566
:1024000081701F928F931F929F938FE899E09F9303
:102410008F93DF93CF937DDA8091B4609091B56014
:102420000E941A06A801C701B6010E948B0683EF1D
:1024300091E00197F1F700C0000063E070E084E8EC
:1024400090E60E94450682E0B6DE8DB39DB3869588
:1024500086958B2581701F928F931F929F938FE794
:1024600099E09F938F93DF93CF9353DA8091B46079
:102470009091B5600E941A0663E070E081E890E6F2
:102480000E9445068DB79EB740968DBF9EBFF999B5
:102490000FC066E070E087E990E6DF91CF911F9171
:1024A0000F91FF90EF90DF90CF90BF900C94450676
:1024B00081E0D2DE182F882361F383E097DE8DB3AD
:1024C0001F928F938AE699E09F938F93DF93CF9328
:1024D00020DA0F900F900F900F900F900F9023CF56
:1024E0004F925F926F927F92AF92BF92CF92DF92A4
:1024F000EF92FF920F931F93CF93DF9300D000D002
:10250000CDB7DEB7F99914C002DF90E02496CDBFB5
:10251000DEBFDF91CF911F910F91FF90EF90DF9081
:10252000CF90BF90AF907F906F905F904F90089545
:102530008091E460C090E560D090E660E090E76054
:10254000F090E86096010091E9601091EA609EE4E5
:10255000980F923008F046C08DEDE82E80E6F82EF8
:10256000C9018D5D90466C01C7018D5D9046801755
:102570009107B0F5F701818990E089839A83C601BC
:102580008E0D9F1D8B839C830BD9CE0101965C0120
:1025900066E070E180E090E0F50141915F012B0180
:1025A0003C01FFEF4F1A5F0A6F0A7F0A0E94C906BB
:1025B000811102C080E0A9CFC301B2016A3020E1DD
:1025C00072078105910541F787E00E94E60688239E
:1025D00089F3E6D89FEFE91AF90A877029F2EACF62
:1025E00081E093CF823221F09CE3980F923060F427
:1025F000D7D8C701B60188279927A8010E941607D6
:1026000081111DC090E024C0803B11F0803C11F589
:102610006091FB627091FC62C60ED71EF12CE12C1A
:10262000C701B6010E943909882321F0B9D884E096
:102630000E94E606B5D8A801C701B601DFCF83E046
:102640000E94E6068823F1F2ABD8877091E0D1F6BC
:10265000892F5BCFC701B60188279927A8010E945F
:10266000160753CFCF92DF92EF92FF92CF93DF9373
:10267000F99909C04CDE90E0DF91CF91FF90EF9087
:10268000DF90CF9008958091E460C090E560D09095
:10269000E660E090E760F090E860C091E960D0917A
:1026A000EA60823231F09EE4980F923010F0843C60
:1026B00091F483E187D8811102C080E0DCCFAE01C4
:1026C000C701B6010E94EC068823B9F369D8837765
:1026D000A1F795D8D0CF803C11F0853CC9F4C70153
:1026E000B6010E943909882319F0C701B60189D8BB
:1026F00082E068D8882309F3AE01C701B6010E94C1
:10270000EC068823D1F24CD88377B9F678D8B3CFCA
:10271000803B09F580E8E80EF11CFA9909C0C70171
:10272000B6010E943909882319F0C701B60169D89A
:1027300082E048D8882309F4C0CFAE01C701B601B2
:102740000E948B06882309F4B8CF2AD8837709F032
:10275000B4CF55D890CFAE01C701B6010E9416077D
:102760008ACFCF92DF92EF92FF92CF93DF93F999C6
:1027700009C0CDDD90E0DF91CF91FF90EF90DF9029
:10278000CF9008958091E460C090E560D090E660BD
:10279000E090E760F090E860C091E960D091EA6075
:1027A000823231F09EE4980F923010F0843CB1F404
:1027B00080E10E943E0B811102C080E0DBCFAE01C0
:1027C000C701B6010E9416078823B9F385E10E946C
:1027D0003E0B882391F30E94370BCCCF803C11F045
:1027E000853C31F4AE01C701B6010E94660BC2CF31
:1027F000803B41F4C701B60180589F4FAE010E9453
:102800008C0BB8CFAE01C701B6010E941607B2CF3C
:10281000CF92DF92EF92FF92CF93DF93F99909C0A5
:1028200076DD90E0DF91CF91FF90EF90DF90CF9039
:1028300008958091E460C090E560D090E660E090FB
:10284000E760F090E860C091E960D091EA60823280
:1028500031F09EE4980F923010F0843CA9F483E1AB
:102860000E943E0B811102C080E0DBCFAE01C701A8
:10287000B6010E94EC068823B9F30E942D0B8377E2
:1028800099F70E945B0BCDCF803C11F0853CE9F4B9
:10289000C701B6010E943909882321F0C701B6019A
:1028A0000E94B20B82E00E943E0B8823E9F2AE0147
:1028B000C701B6010E94EC068823B1F20E942D0BDD
:1028C000837791F60E945B0BACCF803B29F580E8C3
:1028D000E80EF11CFA990AC0C701B6010E94390935
:1028E000882321F0C701B6010E94B20B82E00E944A
:1028F0003E0B882309F4B8CFAE01C701B6010E9490
:102900008B06882309F4B0CF0E942D0B837709F042
:10291000ABCF0E945B0B85CFAE01C701B6010E9411
:1029200016077FCFCF92DF92EF92FF92CF93DF9384
:10293000F99909C0ECDC90E0DF91CF91FF90EF9026
:10294000DF90CF9008958091E460C090E560D090D2
:10295000E660E090E760F090E860C091E960D091B7
:10296000EA60823231F09EE4980F923010F0843C9D
:10297000B1F480E00E943E0B811102C080E0DBCF09
:10298000AE01C701B6010E9416078823B9F385E19D
:102990000E943E0B882391F30E94370BCCCF803CE2
:1029A00011F0853C31F4AE01C701B6010E94660BFF
:1029B000C2CF803B41F4C701B60180589F4FAE01A2
:1029C0000E948C0BB8CFAE01C701B6010E9416075A
:1029D000B2CFCF92DF92EF92FF92CF93DF93F9992C
:1029E00009C095DC90E0DF91CF91FF90EF90DF90F0
:1029F000CF9008958091E460C090E560D090E6604B
:102A0000E090E760F090E860C091E960D091EA6002
:102A1000823231F09EE4980F923010F0843CA9F499
:102A200083E10E94F00A811102C080E0DBCFAE0199
:102A3000C701B6010E94EC068823B9F30E94E60A9A
:102A4000837799F70E940D0BCDCF803C11F0853C28
:102A5000E9F4C701B6010E943909882321F0C701B2
:102A6000B6010E940F0B82E00E94F00A8823E9F26F
:102A7000AE01C701B6010E94EC068823B1F20E94A4
:102A8000E60A837791F60E940D0BACCF803B29F5C7
:102A900080E8E80EF11CFA990AC0C701B6010E944D
:102AA0003909882321F0C701B6010E940F0B82E08B
:102AB0000E94F00A882309F4B8CFAE01C701B6011D
:102AC0000E948B06882309F4B0CF0E94E60A837720
:102AD00009F0ABCF0E940D0B85CFAE01C701B60147
:102AE0000E9416077FCFCF93DF9383E599E09F93F2
:102AF0008F9382EB90E69F938F930E94890C0E94A4
:102B00009F050F900F900F900F90F99902C080E0F1
:102B1000A3DB81E299E09F938F93C2EBD0E6DF9332
:102B2000CF930E94890C6AE070E08DE690E60E94E7
:102B300045060F900F900F900F90811102C020E07A
:102B400071C083E06EDB8823D1F366E070E087E933
:102B500090E60E944506882391F38DE499E09F93C7
:102B60008F93DF93CF930E94890C8FE191EA27E046
:102B7000815090402040E1F700C000008FE191EAD1
:102B800027E0815090402040E1F700C000000E9403
:102B90009F0585E010DB80E00EDB8DB31F928F93E5
:102BA0008FE399E09F938F93DF93CF930E94890CDB
:102BB00082E191E00197F1F700C000008DB79EB768
:102BC0000A968DBF9EBF0E946806EB99FCCF0E94BB
:102BD0005F06882349F0EB9907C081E03DDB88233D
:102BE00009F4ADCF83E002DB8DB31F928F938DE2AA
:102BF00099E09F938F9382EB90E69F938F930E942F
:102C0000890CFA9AF99AE0914F63F0915063099513
:102C100021E00F900F900F900F900F900F90892B45
:102C200009F48DCF822FDF91CF9108958091E460D8
:102C3000811103C058DF90E0089581E090E008958D
:102C4000F5CFF4CF8091E460811103C04CDF90E0B8
:102C50000895873059F46091E5607091E660809145
:102C6000E7609091E8600E94010CF1CF81E090E074
:102C700008958091E460811103C035DF90E00895EC
:102C8000873059F46091E5607091E6608091E7606B
:102C90009091E8600E94B20BF1CF81E090E008953E
:102CA0008091E460811103C01EDF90E008958730B9
:102CB00059F46091E5607091E6608091E7609091D1
:102CC000E8600E940F0BF1CF81E090E00895882327
:102CD00049F02FE181EA97E0215080409040E1F7F0
:102CE00000C000006B9880911204886080931204E9
:102CF000809113048860809313048091100488608D
:102D000080931004809111048860809311040895C9
:102D10008823A9F06B9A90911104977F90931104E6
:102D200090911004977F9093100490911204977FD4
:102D30009093120490911304977F90931304611160
:102D4000C6CF089520DA0C98049A069A61E081E0D3
:102D5000DFDF0C9A82E191E00197F1F700C00000FB
:102D60000E94AD0C80E190E00E94E10965E070E016
:102D70008AE490E60E94220A811105C00E94D70AC7
:102D80000E94D70AF3CF0E94FE098823B9F38DB3BE
:102D90008530A1F78DB31F928F9385EF97E09F93B6
:102DA0008F9382EB90E69F938F930E94890CF89A01
:102DB0000F900F900F900F900F900F9081E090E088
:102DC0000895E0E0FAE0108281E08093030A90E643
:102DD0009093010A92E090932B0A90932D0A93E02E
:102DE0009093270A1092210A808383EF91E0019744
:102DF000F1F700C000000895CF92DF92EF92FF92AA
:102E00000F931F93CF93DF9300D0CDB7DEB71FBAD8
:102E1000BAD9019A61E081E07BDF83ED90E301970D
:102E2000F1F700C000008091F9629091FA62079773
:102E300020F08091E360811102C0F59B12C00198DF
:102E4000C0DF699A8FE099E09F938F9382EB90E6C1
:102E50009F938F930E94890CFE9A0F900F900F9072
:102E60000F909FE1E1EAF7E09150E040F040E1F798
:102E700000C000001FB7F89480E18093E20580E86D
:102E800080931204029A80E28093040880E09AE022
:102E900080930808909309088BE6809307088AE0DE
:102EA0008093050888EC809306088091080890912B
:102EB00009089F938F938FED98E09F938F9382EBF8
:102EC00090E69F938F930E94890C1FBF84E190E04E
:102ED0000E94F40882EC0E9434060F900F900F902D
:102EE0000F900F900F9081110DC090E080E00F9037
:102EF0000F90DF91CF911F910F91FF90EF90DF9096
:102F0000CF90089585E00E94B108882371F38FE87F
:102F10000E9434068823D9F30E9433068823B9F32C
:102F20008DB38038A1F7F89A87E0E82E89E0F82E73
:102F300092EBC92E90E6D92EFF92EF92DF92CF92BC
:102F40000E94890C03E510E60F900F900F900F90F0
:102F5000F80181918F010E943406882331F2F0E656
:102F60000C351F07A9F718E084E190E00E94F408EF
:102F700080E80E943406811103C01150A9F7DCCF0C
:102F80000E9433068823C9F38DB38230B1F71982CA
:102F90001A8281EC9FE30E94DC08882381F10E9461
:102FA000D608882361F18DB38A830E94D6088823CE
:102FB00011F08DB3898329813A812E3082E9380757
:102FC00039F084E02F3091E9390719F082E001C02F
:102FD00088E08093DB601F928F933F932F9386EF5F
:102FE00098E09F938F9382EB90E69F938F930E943C
:102FF000890CF99ACDBFDEBF81E090E078CF2981BE
:103000003A81E4CFCF9310922F638FEF9FEFDC01D3
:1030100080932B6390932C63A0932D63B0932E63C6
:103020008FE196E080934F639093506382E29CE03F
:10303000809351639093526385E29CE08093536345
:10304000909354638FE19CE0809355639093566313
:103050009AD808980998019A61E081E059DE83EDD9
:1030600090E30197F1F700C0000001988091F962A8
:103070009091FA62079740F08091E460882321F0F4
:103080008091DC60811102C0F59B26C0C0912A634B
:10309000C13011F11F92CF938FEF99E09F938F93DF
:1030A00082EB90E69F938F930E94890C8ADE0F90AB
:1030B0000F900F900F900F900F90C1119BC0689AC6
:1030C0008FE99FE00197F1F700C000001092010A1C
:1030D0001092000A68986A98009A83ED90E301972D
:1030E000F1F700C000000098109BFECFCFB7F89416
:1030F00080E18093E20580E2809304082091596387
:1031000030915A6350E040E060E071E782E090E087
:103110000E94EC2CDA01C9010196A11DB11DB595E3
:10312000A7959795879580349105A105B1050CF475
:1031300066C0009721E0A207B10520F08FEF9FEF56
:10314000A0E0B0E080930808909309088BE2809398
:1031500007088AE08093050888EC80930608809130
:103160000808909109089F938F9380915A638F93D9
:10317000809159638F9388EB99E09F938F9382EBB3
:1031800090E69F938F930E94890CCFBF8DB79EB717
:1031900008968DBF9EBF6BE070E08CE890E60E94C1
:1031A0004506882389F10E942206882369F18DB3A0
:1031B000853151F562E070E08AE890E60E944506AC
:1031C000811125C09DB38CB31F929F931F928F9343
:1031D00088ED99E09F938F9382EB90E69F938F9376
:1031E0000E94890C8DB79EB708968DBF9EBF90E058
:1031F00080E05BC0C23009F063CF6A9A61CF80E49F
:1032000090E0A0E0B0E09ECF0E945F08C4CF60E2F3
:1032100070E08FE293E60E945907882399F28FE2CB
:1032200093E69F938F93809139631F928F938AEED9
:1032300099E09F938F9382EB90E69F938F930E94E8
:10324000890C809139632DB73EB7285F3F4F2DBF62
:103250003EBF863361F589E09BE080934F63909396
:1032600050638EE598E0809351639093526380E5BC
:1032700096E1809353639093546389EE94E1809335
:1032800055639093566380912F63EFE2F3E68032AB
:1032900011F4E3E3F3E684E0A4EEB0E601900D92CE
:1032A0008A95E1F7F89A85E090E0CF91089585330B
:1032B000A9F485E69BE080934F63909350638DE57E
:1032C00098E0809351639093526381E296E18093FA
:1032D00053639093546382E994E1D1CF8433A9F48A
:1032E00087E59BE080934F63909350638EE298E074
:1032F000809351639093526389E396E18093536383
:103300009093546388E094E1BACF8333A9F48DE5B8
:103310009BE080934F63909350638DE298E080939D
:1033200051639093526380E296E18093536390934C
:10333000546381EB93E1A3CF8233A9F48BEF9BE03D
:1033400080934F63909350638FEF97E08093516326
:103350009093526382E296E1809353639093546317
:1033600082E393E18CCF803309F02CCF8AED9BE090
:1033700080934F639093506384ED97E08093516303
:103380009093526386E196E18093536390935463E4
:1033900080E792E174CF2F923F924F925F926F92AB
:1033A0007F928F929F92AF92BF92CF92DF92EF92D5
:1033B000FF920F931F93CF93DF939090E360009160
:1033C000E7601091E860102701271027E090E9607E
:1033D000F090EA60FE24EF24FE248091DB608150AF
:1033E000990BCBEED0E62FEFAC0140235123452BB8
:1033F00079F42FEF6C01CE20DF20C114D10479F0D5
:10340000F801EE0DFF1D2083EFEFEE1AFE0AF2CF5A
:10341000015011093FEFE31AF30A2A93E5CFFF9217
:10342000EF921F930F938FEC98E09F938F9322EB73
:10343000A22E20E6B22EBF92AF920E94890CB70155
:10344000CE010E942F0C0E947D0C8DB79EB708966E
:103450008DBF9EBF91E0991271C0912C812C81EAA1
:10346000482E88E0582E92EB692E90E6792E8E1425
:103470009F0408F0C6C08091DB601F928F931F935A
:103480000F935F924F927F926F920E94890C0E94DD
:10349000BE08382EEDB7FEB73896EDBFFEBF8823C5
:1034A00099F0C8010E94DC08382E882369F08DE16C
:1034B0000E94B208382E882339F088810E94CA08F9
:1034C000382E81117EC021962090DB6033E03215CA
:1034D00048F580E190E00E94F40888810E94CA08C3
:1034E000811179C02196382298E029121BC080E111
:1034F00090E00E94F40888810E94CA085E01811150
:1035000073C0EFEFAE1ABE0A382280E190E00E944D
:10351000F408F50180810E94CA08E50181116BC0A1
:10352000219638220E94BE083320B9F18823A9F1E0
:10353000312C020D131D820C931C99CF4801689405
:1035400080F89F928F9289EB98E09F938F93BF9220
:10355000AF920E94890C0E94BE080F900F900F90AE
:103560000F900F900F908823C1F0C4010E94DC08D7
:10357000882399F084E10E94B208882371F08FEFCC
:103580000E94CA08882349F00E94BE08882329F0B7
:1035900080E00E94B208811160CFC601DF91CF9117
:1035A0001F910F91FF90EF90DF90CF90BF90AF9061
:1035B0009F908F907F906F905F904F903F902F9053
:1035C00008955E01F2E0AF0EB11C89810E94CA0825
:1035D000382EE50179CF5E0182E0A80EB11C898109
:1035E0000E94CA08E5017FCFF2E0AF0EB11C8981CD
:1035F0000E94CA0889CF2296F50181810E94CA08DB
:1036000090CF80E00E94B208C82ED12CC6CF0F9375
:103610001F93CF93DF930091E6601091E76010272E
:1036200001271027C091E860D091E960DC27CD2701
:10363000DC27DF93CF931F930F9382E998E09F934A
:103640008F9382EB90E69F938F930E94890CC80121
:103650000E94DC08EDB7FEB73896EDBFFEBF0DED5A
:1036600010E6C8018D5D90468C179D0750F40E94AE
:10367000D6080F5F1F4F882389F08DB3F80186832A
:10368000F0CFBE0184EE90E60E942F0C0E947D0CCC
:10369000CE01DF91CF911F910F910895D0E0C0E04E
:1036A000F7CFCF93DF93C091E660D091E760DC273E
:1036B000CD27DC278091E360813079F5DF93CF93CC
:1036C0008FE798E09F938F9382EB90E69F938F9381
:1036D0000E94890C0E94BE080F900F900F900F90CF
:1036E0000F900F90811105C090E080E0DF91CF91A5
:1036F0000895CE0181600E94DC088823A9F380E14F
:103700000E94B208882381F38FEF0E94CA088823A1
:1037100059F30E94BE0890E0E9CFDF93CF9389E68A
:1037200098E09F938F9382EB90E69F938F930E94F4
:10373000890C0E94BE080F900F900F900F900F9071
:103740000F90882389F2CE0181600E94DC088823D3
:1037500059F284E1D5CF1F920F920FB60F92112428
:103760002F933F934F935F936F937F938F939F9389
:10377000AF93BF93CF93EF93FF93C0910108209134
:1037800000088C2F8674A9F4F29928C084EF93E680
:10379000E091776431E03E0F30937764E80FF92FC2
:1037A000F11D2083809177648034D8F48EE180937A
:1037B00074648CB3C82BCCBBFF91EF91CF91BF91B8
:1037C000AF919F918F917F916F915F914F913F91B9
:1037D0002F910F900FBE0F901F90189584E394E6E1
:1037E000D7CF0E94CE05E5CF11241092000BE6E062
:1037F000FBE080818160808362E070E084EC90E691
:103800000E94DF298FB7F8941092000B1092050BDD
:103810009FEF9093060B8FBF18950F931F93CF9335
:10382000DF93CDB7DEB72897CDBFDEBF8D839E83F4
:103830006B837C834F83588719821A8289819A818E
:10384000892B09F041C084EC90E60E94BF29892BA6
:1038500009F044C08EE498E09F938F9302EB10E64A
:103860001F930F930E94890C0F900F900F900F9051
:103870009FB7F89410920A0B10920B0B2F8138858A
:1038800020930C0B30930D0B81E08093050BE6E049
:10389000FBE08081816080831092010B8FE0809338
:1038A000000B9FBFED81FE81099589839A83AADF72
:1038B0008EE598E09F938F931F930F930E94890C3E
:1038C0000F900F900F900F9089819A812896CDBF0D
:1038D000DEBFDF91CF911F910F91089593DF29E50E
:1038E00038E03F932F93E2EBF0E6FF93EF930E94D3
:1038F000890C0F900F900F900F908B819C81892BDA
:1039000019F3A895EB81FC810995892B09F096CFD5
:10391000DBCF1F920F920FB60F9211248F938FEF70
:103920008093C701F79A8F910F900FBE0F901F9051
:1039300018951F920F920FB60F9211248F938FEF4D
:1039400087BBF69A8F910F900FBE0F901F9018951E
:10395000E2EBF0E680E298E08283938384EA90E6EB
:10396000808391838DE99AE0858396830895CF9330
:10397000DF93CDB7DEB72797CDBFDEBF809168005C
:1039800082648093576398ED94BF8093680057E3F7
:103990005CB9639A98E09093120490931304909307
:1039A00010044CE0409311041092140464E06093FE
:1039B00016042AE02093B60484E88093B20480932E
:1039C000740486E08093B80430E33093180403E075
:1039D0000093E7059093100299E09093110291E112
:1039E0009093120292E19093130231E43093140207
:1039F0009AE49093150260932B028093200295E045
:103A000090932202909326020093320211E01093C9
:103A1000310262E06093CB010093C9017BE27093B5
:103A2000C8016093C5010093CF015093CD0110935D
:103A3000CC014093D70143EA4093D5013093D401A0
:103A40008093D3012093D20129E32093D1011093D5
:103A5000D0011093C00121E632E020931C0B30937B
:103A60001D0B1093140B8093110B9093100B84E794
:103A700080935601109350010E9404098093BE6008
:103A80009093BF60109330021093040B0093010BCE
:103A90001093000B8091060B80FFFCCF80910C0BE4
:103AA00090910D0B8091060B80FFFCCF80910C0B49
:103AB00090910D0B1092000B1092010B1092040BC1
:103AC000FF24FA94F092060B0196880F892F881F25
:103AD000990B91958093C360109230020E94460D1D
:103AE00002EB10E68091B7609091B860FC01A5915F
:103AF000B4912C91FC01329634913196E4912323B8
:103B00002E2B2C93FC013496A591B491FC01369692
:103B1000E4911196EC931197FC013796E49112967B
:103B2000EC93FC013896A591B49138E0E32EEC9229
:103B3000E091B460F091B56080EA90E08087918771
:103B4000158283E0878380EC86832FEF3EE944E291
:103B5000215030404040E1F700C000008EEB97E07C
:103B60009F938F931F930F930E94890C81E08F93F3
:103B700081E38F938DE28F931F9282EB97E09F9367
:103B80008F931F930F930E94890C84E997E09F9372
:103B90008F931F930F930E94890C1F9286E68F9339
:103BA00082E897E09F938F931F930F930E94890C55
:103BB00082E697E09F938F931F930F930E94890C47
:103BC0001F921F921F9287E98F938091C3601F926B
:103BD0008F9385E597E09F938F931F930F930E9498
:103BE000890CCDBFDEBF8091B4609091B5600E941A
:103BF0001A060E94C31088ED84BFE0920001F7BA54
:103C0000F092C70178949FE1E1EAF7E09150E0403B
:103C1000F040E1F700C000002FE131EA47E0215019
:103C200030404040E1F700C000008091576383308E
:103C300011F00E944F0D1092030C8091000C0E9415
:103C40006E1089E497E09F938F9382EB90E69F93A9
:103C50008F930E94890C0F900F900F900F90DD248E
:103C6000D39402EB10E6B0E88B2EB5E29B2EA12C8C
:103C7000B12C66246394712CCE0105968D839E83AE
:103C8000DD2019F0A895DD24D394F0900A0CF09271
:103C90000A0CF7FE14C080917464882381F080912F
:103CA0007464815080937464811109C08091BA64F6
:103CB00081FF05C08091776481110E94CE058F2D10
:103CC0008076C1F0F09B14C08091010C8E7F8093B0
:103CD000010CF098A8959FE1E1EAF7E09150E040EF
:103CE000F040E1F700C000001092000C0E94580D57
:103CF0006894F4F8F4FE0DC080915763833011F09E
:103D00000E944F0D1092030C8091000C81110E94B3
:103D10006E108091826484FF06C1F0905C63809194
:103D200084649091856420918264309163633F93B1
:103D3000309162633F93309161633F933091606350
:103D40003F9330915F633F9330915E633F93309137
:103D50005D631F923F931F92FF929F938F931F92D9
:103D60002F932CE832E03F932F931F930F930E94E1
:103D7000890CCDBFDEBFF7FE0E940E068F2D807628
:103D800009F017C280915D6381110FC010926463C6
:103D90001092656382E090E080938C6490938D64D0
:103DA0000E9402060E940E06B9C0813079F580910A
:103DB00061638F93809160638F9380915F638F9332
:103DC00080915E638F938DE492E09F938F931F9316
:103DD0000F930E94890CCDBFDEBF80915E6381117D
:103DE00010C0E0916063E29580910B0C82FDFCCFE6
:103DF000F0E0F595E795F595E795E05CF34F8BE0FE
:103E0000808310928C6410928D64CACF8430D9F470
:103E1000809161638F93809160638F9380915F63E2
:103E20008F9380915E638F938DE392E09F938F9346
:103E30001F930F930E94890C10928C6410928D64D2
:103E4000CDBFDEBFADCF8530A1F480915E63F82E8B
:103E5000E894F7F80E94020680918A6481FFFCCF03
:103E6000F092030C1F92FF928DE292E09F938F934A
:103E700074C1863009F045C1309162633F83C090C0
:103E8000636380915E6390915F63913009F056C0E7
:103E900042E150E06EEE71E084E693E60E94FF2975
:103EA0008091001490910114A0910214B091031418
:103EB0008F3F4FEF9407A407B40741F080936C63E2
:103EC00090936D63A0936E63B0936F6380916F6303
:103ED0008F9380916E638F9380916D638F938091A8
:103EE0006C638F9389ED91E09F938F931F930F9352
:103EF0000E94890CCDBFDEBF72E1E72EF12C8F81CD
:103F00009C2DE816F90608F4C70197017C01E092A0
:103F10008C64F0928D64232B09F042CF80910B0CBE
:103F2000846080930B0CF09923C2B699A9CE84E0EB
:103F3000809300028EB38F718EBBA2CE923009F4B3
:103F4000C3C0963009F4CBC0913209F4CEC092328E
:103F500009F4D1C08115E3E09E0779F484E08093F1
:103F6000646393E09093656399E0909366638093B4
:103F7000676364E0E62EF12CC2CF8230F3E09F0746
:103F800051F168F474E3E72EF12C6DE071E08130BB
:103F9000934081F0F12CE12C70E060E00BC08330A5
:103FA0009807F9F048E1E42EF12C6FEA70E08430D4
:103FB000934081F7E092646383E080936563A70197
:103FC0004250510986E693E6E114F10409F084C0F9
:103FD00030E020E09CCF56E4E52EF12C67EC70E059
:103FE000E9CF40910414509105146091061470912A
:103FF000071449835A836B837C834F3FFFEF5F072E
:104000006F077F0751F5E0E8F0E1CF0101962081CD
:10401000422728E01A012B0156944794379427949D
:104020004170552766277727709560955095419583
:104030005F4F6F4F7F4F40725378687B7D7E422584
:10404000532564257525215029F7FC01803A9041BC
:10405000E1F649835A836B837C8386E180936463B2
:1040600083E0809365638DE4809366631092676359
:1040700088E58093686310926963EAE6F3E6DE01FF
:1040800011968D91282F30E094E0359527959A95DB
:10409000E1F790E3920F9A3310F097E3920F908339
:1040A00011828F7090E3980F9A3310F097E3980F76
:1040B0009283138234968D819E818A179B0709F71C
:1040C000E6E1EE2EF12C1BCF6BE6E62EF12C64E63A
:1040D00071E0A70184E693E60E94FF2910CF5AE021
:1040E000E52EF12C6FEC71E0F4CF49E0E42EF12CD9
:1040F00066E771E0EECF33E2E32EF12C61E471E08C
:10410000E8CF8830C9F480917564809364631F920E
:104110008F9381E292E09F938F931F930F930E945E
:10412000890C60928C6470928D640F900F900F9048
:104130000F900F900F9034CE8930C1F480915E6360
:1041400080937564F09A0E94700D809175641F923F
:104150008F93E5E1F2E0FF93EF931F930F930E949B
:10416000890C10928C6410928D64DFCF8A3099F4A0
:104170008CE092E09F938F931F930F930E94890C82
:104180001092646360928C6470928D640F900F90B3
:104190000F900F9005CE8B3009F0C0CE80915F63F9
:1041A0008F9380915E638F9320E032E03F932F9353
:1041B000D4CF803209F0B2CE80915D638A3059F459
:1041C00080915E6390915F6399279F938F9380E8BE
:1041D00092E09F934CCE8032E1F58091826481FF22
:1041E000FCCF47E050E064E673E68BEA90E60E947D
:1041F000152D892B91F08091B26481FD0E94BD053F
:104200000E94C31087E0E4E6F3E6ABEAB0E6019073
:104210000D928A95E1F70E949A0D2AE732E03F93CA
:104220002F931F930F930E94890C67E070E08BEA35
:1042300090E60E942F0C0E947D0CF49A10927764F5
:10424000109276641092746410928C6410928D6453
:104250009DCF8132B9F587E0EBEAF0E6A4E6B3E65C
:1042600001900D928A95E1F7809164639091656366
:10427000A0916663B0916763892B8A2B8B2B59F4CD
:104280008092646390926563A0926663B092676364
:1042900088E080936A6384E792E09F938F931F93F3
:1042A0000F930E94890C67E070E084E693E60E9419
:1042B0002F0C0E947D0C87E090E080938C6490939B
:1042C0008D6464CF823211F580915E6390915F635B
:1042D00099279F938F9328E632E03F932F931F9364
:1042E0000F930E94890C80915E639091AA600F9059
:1042F0000F900F900F900F900F9090FD04C080FFD3
:1043000002C0F79AF69A8093AA607BCD833209F0B7
:1043100005CE80915F638F9380915E638F938DE56F
:1043200092E09F938F931F930F930E94890C80912B
:104330005E6390915F6380937864909379640F904B
:104340000F900F900F900F900F90892B71F0F19BB1
:104350000AC0F39908C0F49810927464809106081A
:1043600081110E94AC10F39A4CCD0E94650E49CD8C
:10437000F8991FC0F79B69C0F5991AC00E94460DB5
:10438000019A8EE290E60E942A1084EB92E09F93BD
:104390008F931F930F930E94890C8091B46090912A
:1043A000B5600E941A06F59A0F900F900F900F902B
:1043B000F798F19B95C0F39914C08091040885FF8C
:1043C00010C08091B26481FF0CC0F19B0AC02091A3
:1043D000B4643091B56480917664821362C00E94A7
:1043E000BD05F39B28C080917864909179649C010D
:1043F0002F5F3F4F22303105F0F08530910508F4F2
:1044000074C02091AA6421FF16C004978093786439
:10441000909379648AE090E08093AC649093AD646B
:104420001092B0641092B16480910B0C82FDFCCFAD
:104430008EEF80934A0C8091A26481FD5DC0F99B50
:104440001FCCF699D12CF6981BCCF69BB2CFF59BDE
:1044500024C08CE390E60E942A100198FFE121EA33
:1044600037E0F15020403040E1F700C000008FEB12
:1044700092E09F938F931F930F930E94890C8091DA
:10448000B4609091B5600E941A060F900F900F9043
:104490000F90F09B2BCC0E94700D8EB38F718EBB52
:1044A00088CF4091B4645091B564282F30E0F12C4E
:1044B0004217530739F08F5F809376642C543C4940
:1044C000F901F0808091B4649091B5642091766494
:1044D0002817190611F40E94BD05F092020881CF39
:1044E0008091B26481FF7DCF7ACF10927864109270
:1044F00079640E94650E9FCF90917463809175637B
:1045000020919A6421FFFCCF903809F0DAC0F82F8F
:10451000FF704F2E29E02F1778F488EE92E09F93DA
:104520008F931F930F930E94890C109275630F90C5
:104530000F900F900F9028C090E024E095958795FC
:104540002A95E1F7382EC090776331E0831302C0DB
:104550001092BA6001972CE3289F7001299FF00CFC
:1045600011245090BA6053945092BA60D12CA60195
:1045700068E773E6C70183529F490E94222D81E0BC
:1045800080937563431411F0E12C0CC0EC0CFD1CFE
:10459000E092F962F092FA62451090C01092C16008
:1045A000EE24E39480E490E080939C6490939D6477
:1045B0001092A0641092A16480910B0C82FDFCCF3C
:1045C0008EEF8093460C1092A4641092A5648091A3
:1045D0000B0C82FDFCCF8EEF8093480CEE2009F48B
:1045E00051CBF090E1608091E5601F928F938091B4
:1045F000E4601F928F938091E2601F928F931F92CD
:10460000FF928091FA628F938091F9628F938091EB
:10461000E0608F938091DF608F938EE197E09F93AE
:104620008F931F930F930E94890CCDBFDEBF91E043
:10463000F91229C18091E2604090E4605090E560F9
:104640003090E660823009F0E4C0E32CF12CC52CF8
:10465000D12C1F923F921F925F921F924F9286E63B
:1046600093E09F938F931F930F930E94890CCDBF6C
:10467000DEBF411091C0B6016F597C4FA70184EE97
:1046800090E6BDD687E593E09F938F931F930F939A
:104690000E94890CB70184EE90E60E942F0C0E94C4
:1046A0007D0C0F900F900F900F9084E891E0809315
:1046B000E2609093E360C701019643C28AED92E005
:1046C0002ECF9138E9F5109276639091C1609111E7
:1046D0000DC08BEC92E09F938F931F930F930E94DA
:1046E000890C109275631092776321CF8091C2601C
:1046F0002CE3829FF0011124E252FF49A8E7B3E6C0
:1047000001900D922A95E1F78F5F8093C26040E19E
:10471000849F90011124292B209375632091F962C5
:104720003091FA62981751F08CE3809377632C53A1
:1047300031092093F9623093FA6226CF822FF5CFA8
:1047400091111CC08F3F21F095E0980F923048F4F2
:1047500082E08093756380E4809376631092776340
:1047600013CF813F09F010CF82E08093756380E81A
:104770008093766381E08093776306CF923009F46B
:1047800003CF913031F4882309F4FECE1092756383
:10479000FBCE9330D9F7F8CEF1E04F1286CF852DBE
:1047A0008F7DF9F40E9404098093BE609093BF60EE
:1047B0009F938F9389E493E09F938F931F930F931D
:1047C0000E94890C8091BE609091BF608093E460EC
:1047D0009093E5600F900F900F900F900F900F90B7
:1047E00064CF1F923F921F925F9283E393E09F9367
:1047F0008F931F930F930E94890C652D677070E053
:10480000655D7C4FA70184EE90E6F9D5CDBFDEBF94
:104810004CCF8031E1F48CE193E09F938F931F9311
:104820000F930E94890C1FBA1092DC60109258639B
:10483000F092C06080E890E08093E2609093E36043
:104840000F900F900F900F9090E080E07AC181312F
:1048500049F48CE093E09F938F931F930F930E94F2
:10486000890CE8CF1F923F921F925F921F924F9246
:1048700086EF92E09F938F931F930F930E94890C72
:10488000CDBFDEBFE1CF92E1F912CEC38091E260ED
:10489000D090E460C090E5605090E660813009F00F
:1048A000D4C0E52DF0E0E352FF491286E090E760C6
:1048B000F090E860FF92EF921F925F921F92CF926A
:1048C0001F92DF9285EB95E09F938F931F930F9339
:1048D0000E94890CCDBFDEBFD1103BC0C11031C0DA
:1048E000FF92EF9288EA95E09F938F931F930F9327
:1048F0000E94890CE09258630F900F900F900F90D8
:104900000F900F90F3E0EF1201C0049A81EE90E057
:1049100025E0E216F10411F084EC99E080935963EC
:1049200090935A638093BC609093BD609F938F93E4
:104930008DE995E09F938F931F930F930E94890CAD
:1049400019C031E0C31246C0FF92EF9288E895E0AB
:10495000F1CF41E0D41245C0C11013C0FF92EF92D5
:1049600085E795E09F938F931F930F930E94890C87
:10497000E092BB600F900F900F900F900F900F90F0
:1049800029C081E3C81226C094E6E916F10418F4A0
:1049900094E6E92EF12C8091596390915A63E816C0
:1049A000F90681F09F938F9386E695E09F938F930E
:1049B0001F930F930E94890C0F900F900F900F90F0
:1049C0000F900F90E092BC60F092BD60E09259634E
:1049D000F0925A6380E890E08093E2609093E36005
:1049E00033CFE2E0DE1216C0C110F4CF1F925F9207
:1049F00085E595E09F938F931F930F930E94890CF9
:104A0000452D4F7350E067EE70E68BEF92E60E9403
:104A1000222DB0CFF3E0DF12DDCF26E0C2120DC0B1
:104A2000FF92EF9284E495E09F938F931F930F93EF
:104A30000E94890CE092DC609DCF37E0C312CACFA0
:104A4000FF92EF9283E395E075CF823009F051C079
:104A5000E52CF12C1F925F921F92CF921F92DF9252
:104A60008FE095E09F938F931F930F930E94890C83
:104A7000CDBFDEBFD11013C0C11017CE80915863D7
:104A80001F928F9382E095E09F938F931F930F93D4
:104A90000E94890C809158638093E4609BCE91E0E2
:104AA000D91203CEC1100FC08091BB601F928F93AB
:104AB0008FEE94E09F938F931F930F930E94890C26
:104AC0008091BB60E9CFE1E3CE12EFCD80915A63D4
:104AD0008F93809159638F9384EE94E09F938F938B
:104AE0001F930F930E94890C8091596390915A6390
:104AF0006DCE90915863933009F021C18031C9F592
:104B00001F92DF928BE094E09F938F931F930F93FC
:104B10000E94890C40E253E064EA7EE082EA96E17A
:104B20000E940D1C0F900F900F900F900F900F9000
:104B3000009709F4DBC024E830E02093E260309372
:104B4000E3609C012A5F3F4F2093F9623093FA6241
:104B50001092C2608F5B9F4F6CE370E007D7609349
:104B6000C1608EE08093DE6023523F49F9011082DC
:104B700089C88131C1F58BEF93E09F938F931F9389
:104B80000F930E94890C40E253E070E060E08AE3FA
:104B90009AE00E940D1C7C0183EF91E00197F1F7F0
:104BA00000C000000E94C3100498109216040E98D2
:104BB000069A0F900F900F900F90F99B0AC061E03A
:104BC00081E00E948816E3EDF0E33197F1F700C031
:104BD000000006981FBA0E949A0DC70199270097F6
:104BE00009F484C02EC08531E1F489EE93E09F93EF
:104BF0008F931F930F930E94890C40E253E064EA65
:104C00007EE08DE69EE00E940D1C0F900F900F90AD
:104C10000F90892B09F00FC1EFB2FE2DF170EF2E2E
:104C20000AC1863189F487ED93E09F938F931F9398
:104C30000F930E94890C0F900F900F900F9081E0BE
:104C400090E020E830E079CFF99BD4C1803209F5BB
:104C50008091E8608F938091E7608F938091E66008
:104C60008F938091E5608F931F92DF928FEB93E09B
:104C70009F938F931F930F930E94890C40E253E000
:104C800064EA7EE08AE99AE00E940D1CCDBFDEBF97
:104C9000A6CF813271F58091EA608F938091E960AF
:104CA0008F938091E8608F938091E7608F938091DC
:104CB000E6608F938091E5608F931F92DF9283EA85
:104CC00093E09F938F931F930F930E94890C40E270
:104CD00053E064EA7EE089E99FE00E940D1CCDBFAD
:104CE000DEBF24E831E0009709F027CF20EA30E06A
:104CF00024CF833209F07EC18091EA608F93809146
:104D0000E9608F938091E8608F938091E7608F9343
:104D10008091E6608F938091E5608F931F92DF9280
:104D200086E893E09F938F931F930F930E94890CC3
:104D300040E253E064EA7EE08AEC9EE0A5CF953045
:104D400009F05BC1803109F044C01F92DF928EEB05
:104D500094E09F938F931F930F930E94890C0F9061
:104D60000F900F900F900F900F90F59904C08091C5
:104D7000DC60882369F08091BC609091BD608E37C3
:104D8000910530F08DE790E08093BC609093BD601A
:104D90008091BC609091BD608093596390935A63F9
:104DA0008091596390915A638436910508F422C129
:104DB00040EA50E070E060E082E098E10E940D1C63
:104DC000009709F0B8CE8091596390915A63499742
:104DD000E3CF8131B1F58DEA94E09F938F931F93D8
:104DE0000F930E94890C0F900F900F900F90F89BDB
:104DF00025C040E253E070E060E088E596E00E9464
:104E00000D1CE82E0E945F0883EF91E00197F1F7F7
:104E100000C000000E94C310019A61E081E00E947E
:104E20008816E3EDF0E33197F1F700C00000019838
:104E30001FBA0E949A0D8E2D90E0D1CEEE24E394FD
:104E4000E1CF853179F48AE994E09F938F931F93A2
:104E50000F930E94890C4AEF50E069E978E083E5FE
:104E600091E1D1CE8631C9F487E894E09F938F9386
:104E70001F930F930E94890C80915A638F938091A6
:104E800059638F9387E794E09F938F931F930F93BA
:104E90000E94890CCDBFDEBFD2CE8032F9F4809162
:104EA000E8608F938091E7608F938091E6608F93A5
:104EB0008091E5608F931F92DF928EE594E09F933F
:104EC0008F931F930F930E94890C40E253E069E98E
:104ED00078E08091536390915463D6CEF89B8AC05A
:104EE000813209F060C08091EA608F938091E9601F
:104EF0008F938091E8608F938091E7608F9380918A
:104F0000E6608F938091E5608F931F92DF9281E43A
:104F100094E09F938F931F930F930E94890C80912D
:104F2000E460E090E960F090EA60CDBFDEBF833DD1
:104F300099F48091E5608F7190E0A701415051098B
:104F40004F7155274F5F5F4F6FE273E68C519F495A
:104F500079D5C7010196C5CEF99B0BC040E951E058
:104F600069E978E080915163909152630E940D1C31
:104F7000B8CE843B89F480912F63882369F09EE149
:104F80009093E460803209F481E48093E56080913D
:104F900039638093E660DDCFA7016FEF70E084EEA8
:104FA00090E659D5D6CF833229F58091EA608F9368
:104FB0008091E9608F938091E8608F938091E760A2
:104FC0008F938091E6608F938091E5608F931F921D
:104FD000DF9283E294E09F938F931F930F930E943D
:104FE000890C40E253E069E978E080915563909143
:104FF00056634ACE90E080E079CE1F929F9387ED72
:1050000094E09F938F931F930F930E94890C80EAE3
:1050100090E08093E2609093E3600F900F900F9088
:105020000F900F900F9010CCF4E1FF122FC18091E0
:10503000E260813009F03FC089E896E09F938F934A
:105040001F930F930E94890C0E9404098093BE60F5
:105050009093BF609F938F938BE796E09F938F937E
:105060001F930F930E94890C1092586340E253E003
:1050700070E060E08CEF96E10E940D1C7C01CDBFDA
:10508000DEBF81E0E114F10409F080E08093E36089
:10509000FF92EF9286EE95E09F938F931F930F936D
:1050A0000E94890CC70101960F900F900F900F90EE
:1050B0000F900F9046CD823009F043C085E696E010
:1050C0009F938F931F930F930E94890C0F900F90C3
:1050D0000F900F90F89B20C080EC0E94340688232C
:1050E00019F080E00E94B1088CE190E00E94F40881
:1050F000FE9B12C01092010A1092000A6998FE9855
:105100008AED95E09F938F931F930F930E94890CD4
:105110000F900F900F900F900298019861E081E03E
:105120000E94881683ED90E30197F1F700C000001C
:105130001FBA0E94C3100E949A0DEE24E394F12C32
:10514000A0CF8730D1F3863079F48AE596E09F933B
:105150008F931F930F930E94890C0F900F900F90C5
:105160000F90F12CE12C8DCFF89BFBCF853049F5CA
:105170002091E8603091E96032272327322760913F
:10518000E4607091E5608091E6609091E76040D4C2
:105190003F932F939F938F937F936F938091E360BF
:1051A0001F928F9380E496E09F938F931F930F93AA
:1051B0000E94890C40E253E070E060E087E09BE1F0
:1051C0005BCF2091BE603091BF602836F0E13F0791
:1051D00078F43F932F931F928F9387E296E09F93EB
:1051E0008F931F930F930E94890CCDBFDEBFB9CF61
:1051F000833001F56091E4607091E5608091E66034
:105200009091E76005D49F938F937F936F938091E4
:10521000E3601F928F938FE096E09F938F931F938D
:105220000F930E94890C40E253E070E060E081E55A
:105230009BE122CF843009F094CF2091E960309136
:10524000EA603227232732276091E5607091E6609B
:105250008091E7609091E860DBD33F932F939F9319
:105260008F937F936F938091E3601F928F9384EF6E
:1052700095E09F938F931F930F930E94890C40E2B8
:1052800053E070E060E08BEC99E1F6CEF0E2FF12C3
:105290006BC09091E260C090E460D090E560809136
:1052A000E6609130C1F5E090E760F090E860FF9231
:1052B000EF921F928F931F92DF921F92CF9289EEEF
:1052C00096E09F938F931F930F930E94890CCDBFFD
:1052D000DEBFC1107FCB30E1D3127CCBFF92EF92C7
:1052E00084ED96E09F938F931F930F930E94890CF8
:1052F000E092C06060E081E00E9488160F900F90FD
:105300000F900F900F900F90EF2809F463CB80E07F
:105310000E9467165FCB923009F096CAE82EF12CF6
:105320001F928F931F92DF921F92CF9284EB96E091
:105330009F938F931F930F930E94890CCDBFDEBF65
:10534000C110B3C990E1D912B0C98091C0601F9259
:105350008F938FE996E09F938F931F930F930E94F3
:10536000890C8091C06098CB1F92FF928EE097E0ED
:105370009F938F931F930F930E94890C4ECEDC0155
:105380002D923D924D925D926D927D928D929D9265
:10539000AD92BD92CD92DD92ED92FD920D931D9353
:1053A000CD93DD93FF91EF918DB78D938EB78D9354
:1053B0008FB78D93ED93FD93882799270994DC018E
:1053C000CB0181309105811D2D903D904D905D90D8
:1053D0006D907D908D909D90AD90BD90CD90DD9025
:1053E000ED90FD900D911D91CD91DD91ED91FD918F
:1053F0000D900FBEEDBFFEBFED91FD910994FB0135
:10540000DC0102C005900D9241505040D8F708953C
:10541000CF93DF93EC018B8188608B83CE0106D024
:105420002B81277F2B83DF91CF910895ABE0B0E0F4
:10543000EBE1FAE26AC27C013B018A01FC011682BF
:105440001782838181FFBAC1CE0101965C01F70109
:105450009381F30193FD859193FF81913F0188230F
:1054600009F449C1853239F493FD859193FF819107
:105470003F01853221F4B70190E0B9D1E8CF912CFA
:10548000212C312CFFE1F31538F08B3211F190F41F
:10549000803209F1833229F137FC3CC020ED280F1E
:1054A0002A3050F536FE20C08AE0989E200D112447
:1054B000922E06C08D3291F0803371F7689430F8E7
:1054C000F30193FD859193FF81913F018111DACF23
:1054D00021C0689431F8689432F8F2CF689433F8B8
:1054E000EFCF689434F8ECCFEAE02E9E200D112423
:1054F000222E689435F8E4CF8E3229F436FCFBC0B6
:10550000689436F8DDCF8C3619F4689437F8D8CF24
:105510008836B1F2982F9F7D95549330D8F083361A
:1055200091F18337B1F1833509F05EC02801F2E0D3
:105530004F0E511CF801C080D180692D70E036FCFF
:1055400002C06FEF7FEFC6013CD14C01689437F881
:1055500082010AC00C5F1F4FFFE3F9838824839404
:10556000912C6501E89437F833FE2AC0522C81143F
:10557000910459F5552009F46ACFB70180E290E013
:1055800036D15A94F7CFF801808189830E5F1F4F7F
:10559000E5CF2801F2E04F0E511CF801C080D18008
:1055A000692D70E036FC02C06FEF7FEFC60114D1A9
:1055B0004C018201D7CFB70180E290E018D12A9444
:1055C0002814190409F0B8F7D1CFF60137FC8591FA
:1055D00037FE81916F01B70190E009D151105A94C3
:1055E000F1E08F1A9108C3CF843619F0893609F09B
:1055F00073C0F80137FE67C0608171818281938139
:105600000C5F1F4FF32DFF763F2E97FF09C090953B
:105610008095709561957F4F8F4F9F4F689437F8B5
:105620002AE030E0A50113D1C82ECA188C2C432CD7
:1056300036FE0CC0E89440F8C91440F434FE05C0AE
:1056400032FC03C0F32DFE7E4F2E892C44FE90C009
:10565000FE01EC0DF11D8081803309F082C0242D04
:10566000297E422E842D8870582E43FC8FC040FE28
:1056700089C09C2C821418F42C0C922C981844FE8F
:105680008BC0B70180E390E0B2D042FE08C088E74B
:1056900090E041FE02C088E590E0B701A8D0C914AF
:1056A00008F486C0CA94D12C9FEFC91AD90ACA0C33
:1056B000DB1CF60182916F01B70190E098D0AC1429
:1056C000BD04B9F757CF60817181072E000C880B9C
:1056D000990B0E5F1F4F96CFD32CE894D4F82AE095
:1056E00030E0853731F1232D297FD22E8F36F9F026
:1056F00040F48835A1F0F701868197812B96E2E18D
:105700001DC1803749F08837B1F7D4FE02C06894D4
:10571000D2F820E130E00DC06894D4F8F6CF34FE22
:1057200003C0822F8660D82E20E132E002C028E03C
:1057300030E0F801D7FE0EC06081718182819381D3
:105740000C5F1F4FA50183D0C82ECA183D2CE894CA
:1057500037F86CCF6081718190E080E00E5F1F4F61
:10576000F1CF42FC02C083947DCF839483947ACF9F
:10577000842D867809F476CFF6CFB70180E290E0E9
:1057800036D083948214C8F3512C79CF522C5818F8
:10579000821408F474CFF8CF842D867809F47FCF73
:1057A0008BE241FE80E247FC8DE2B70190E076CFCC
:1057B000B70180E390E01BD09A9471CF8FEF9FEFF9
:1057C0009DCFFC010590615070400110D8F7809585
:1057D00090958E0F9F1F0895FC01615070400190BD
:1057E0000110D8F7809590958E0F9F1F08950F9305
:1057F0001F93CF93DF93182F092FEB018B8181FD2E
:1058000009C01FEF0FEF812F902FDF91CF911F91D4
:105810000F91089582FF14C02E813F818C819D815C
:10582000281739073CF4E881F981CF010196888374
:10583000998310838E819F8101968E839F83E3CF0E
:10584000E885F985812F0995892BA1F3DACFFA0133
:10585000AA27283051F1203181F1E8946F936E7FAF
:105860006E5F7F4F8F4F9F4FAF4FB1E03ED0B4E0A0
:105870003CD0670F781F891F9A1FA11D680F791FE1
:105880008A1F911DA11D6A0F711D811D911DA11DF2
:1058900020D009F468943F912AE0269F1124301902
:1058A000305D3193DEF6CF010895462F4770405D9D
:1058B0004193B3E00FD0C9F7F6CF462F4F70405D4C
:1058C0004A3318F0495D31FD4052419302D0A9F7A7
:1058D000EACFB4E0A6959795879577956795BA95A1
:1058E000C9F700976105710508959B01AC010A2E67
:1058F00006945795479537952795BA95C9F7620F3E
:10590000731F841F951FA01D08952F923F924F92E1
:105910005F926F927F928F929F92AF92BF92CF923F
:10592000DF92EF92FF920F931F93CF93DF93CDB748
:10593000DEB7CA1BDB0BCDBFDEBF09942A883988CE
:1059400048885F846E847D848C849B84AA84B98417
:10595000C884DF80EE80FD800C811B81AA81B98123
:10596000CE0FD11DCDBFDEBFED010895AA1BBB1B1D
:1059700051E107C0AA1FBB1FA617B70710F0A61B4F
:10598000B70B881F991F5A95A9F780959095BC0170
:10599000CD010895A1E21A2EAA1BBB1BFD010DC06B
:1059A000AA1FBB1FEE1FFF1FA217B307E407F507CF
:1059B00020F0A21BB30BE40BF50B661F771F881FAB
:1059C000991F1A9469F760957095809590959B0141
:1059D000AC01BD01CF010895052E97FB16F400948C
:1059E0000FD057FD05D0D6DF07FC02D046F408C023
:1059F00050954095309521953F4F4F4F5F4F0895FB
:105A000090958095709561957F4F8F4F9F4F08952A
:105A10006927962769277827872778270895EE0F23
:105A2000FF1F0590F491E02D0994FB01DC0104C0F7
:105A30008D910190801921F441505040C8F7881B86
:105A4000990B0895FB01DC0102C001900D924150B9
:105A50005040D8F70895DC0101C06D93415050408B
:085A6000E0F70895F894FFCF70
:105A68004C000000000C00000000A10000006B00CA
:105A780000000055080000000055480000000055CF
:105A8800A0005504556A0000000000302000000006
:105A98000000FFFF7F557EC87F59FEFF7F557EC8F7
:105AA8007F00FE7F557EC37E04FFC205C15982C0B8
:105AB80002C100E0FF88D8CD45AB891255C21D55FB
:105AC80087558B55E020676F72504D564E55E065EF
