:1000000057C4000092C4000090C400008EC40000D9
:100010008CC400008AC4000088C4000086C40000AC
:1000200084C4000082C4000080C400007EC40000BC
:100030007CC400007AC4000078C400000C9407154A
:1000400074C4000072C4000070C400000C947314E7
:100050006CC400006AC4000068C4000066C40000EC
:100060000C94831562C4000060C400005EC40000EC
:100070005CC400005AC4000058C4000056C400000C
:1000800054C4000052C400004300440043002D004B
:10009000410043004D002F00560043005000000077
:1000A0005500500044004900340041005600520001
:1000B0002D005500530042003A0041005600520006
:1000C0002D00440055003A0045004400420047001E
:1000D0002F0043004D005300490053002D00440001
:1000E0004100500000004D0075006C007400690074
:1000F00058002E006A00700020004F00530053008B
:1001000057002F004F0053004800570020005000B8
:1001100072006F0064002E0000000600FF0901A1BC
:1001200001150026FF00750896400009018102961E
:1001300040000901910295040901B102C009026B56
:1001400000030100803209040000020300000009DE
:1001500021110100012223000705020340000107CD
:10016000058103400001080B010202020104090499
:10017000010001020201000524001001042402060E
:10018000052406010205240103020705820310006D
:100190000409040200020A000000070503024000EF
:1001A00000070583024000000A060002EF0201403A
:1001B0000000205649443A5049443D253034583ACD
:1001C000253034580D0A0012010002EF020140DB15
:1001D00004150B0001010203013C53433A25303260
:1001E000583E0D0A0020555342305F414444523D71
:1001F00025640D0A002053463D253032583A2530FB
:1002000032580D0A002043463D253032583A2530F9
:1002100032580D0A002053423D253034580D0A0053
:1002200020534C533D253032580D0A0020474C4591
:100230003D0020534C453D002049444C3D25303283
:10024000580D0A005B5354414C4C45445D0D0A0067
:1002500052513D253032583A253034583A25303203
:10026000583A253032583A253034583A25303458E7
:100270003A253034580D0A003C5253543A494E3E08
:100280000D0A003C5253543A4F55543E0D0A003C5F
:10029000454442475F454D5054593E0D0A003C4588
:1002A0004442475F4641494C3E0D0A003C454442AA
:1002B000475F4641494C3E0D0A002047454E3D25CB
:1002C0003032583A253032583A253032580D0A002B
:1002D0002047454E5F5349474E5F4F46460D0A0043
:1002E0002047454E5F5349474E5F4F4E0D0A0090E1
:1002F0002800183800000020504859534943414C09
:100300003D253032583A253032580D0A00205654D7
:1003100041524745543D25640D0A0020564553522D
:10032000494F4E3D0000012029002047454E5F47C0
:1003300045545F504152414D3D253032583A2530A9
:1003400032583A253032580D0A0020424155443D7A
:10035000253034583A253032580D0A002055415284
:10036000543D555044490D0A0020555044495F57AB
:10037000524954453D253032583A2530366C583A6A
:10038000253034580D0A0020555044495F524541EC
:10039000443D253032583A2530366C583A253034B1
:1003A000580D0A0020555044495F45524153453D80
:1003B000253032583A2530366C580D0A00205550F9
:1003C00044495F4C454156455F50524F470D0A0026
:1003D00020555044495F454E5445525F50524F4757
:1003E0000D0A0020555044495F5349474E5F4F4620
:1003F000460D0A0020555044495F5349474E5F4F10
:100400004E3D4558543A253032580D0A0020584385
:100410004C4B3D25640D0A0020434F4E4E4543543E
:10042000494F4E3D253032580D0A00204152434875
:100430003D253032580D0A00204156525F47455441
:100440005F504152414D455445523D253032583A56
:10045000253032583A253032580D0A0020554E4C7E
:100460004F434B454E3D253032580D0A002048562B
:100470004354524C454E3D253032580D0A00204819
:1004800056545950453D253032580D0A00204445F8
:1004900056494345444553433D25580D0A002046DF
:1004A00049585F434C4B3D25640D0A002058434C8E
:1004B0004B3D25640D0A0020434F4E4E45435449A1
:1004C0004F4E3D253032580D0A0020534553535F9F
:1004D000505552504F53453D253032580D0A00209B
:1004E000415243483D253032580D0A0020415652B2
:1004F0005F5345545F504152414D3D253032583A8B
:10050000253032583A253032583A253032580D0AC3
:100510000020424155443D253034583A2530325868
:100520000D0A0020554152543D5450490D0A0020F7
:1005300054504953523C30300D0A00203C52455330
:100540003A253032583E0D0A00205450495F43523C
:10055000430D0A00205450495F524541443D253027
:1005600032583A2530386C583A253034580D0A0044
:10057000205450495F57524954453D253032583A2E
:100580002530386C583A253034580D0A0020545024
:10059000495F45524153453D253032583A25303860
:1005A0006C580D0A00205450495F4C454156455F38
:1005B00050524F474D4F44450D0A00205450495F5B
:1005C000454E5445525F50524F474D4F44450D0ADA
:1005D00000205441524745545F504F5745523D25E6
:1005E0003032580D0A00204156525F4745545F5043
:1005F0004152414D3D253032583A253032583A2546
:100600003032580D0A00205441524745545F504F34
:100610005745523D253032580D0A00204156525F51
:100620005345545F504152414D3D253032583A2593
:100630003032583A253032583A253032580D0A00B7
:1006400053434F50453D253032582C433D253032E1
:10065000582C533D253032582C4C3D253032580D06
:100660000A003C57414954494E473E0D0A005F5F1E
:100670004156525F415243485F5F203D2000696F01
:100680006176723634647533322E68005F4156529B
:100690005F494F5858585F485F203D2000465F43F0
:1006A0005055203D20000A3C737461727475703E91
:1006B000003C5245424F4F543E0D0A0020534543E3
:1006C00054494F4E5F45524153453D253034580DF6
:1006D0000A0020434849505F45524153453D25306B
:1006E00034580D0A00205349473E253034583A25E6
:1006F0003032580D0A0020534B45590D0A00205442
:10070000504953523E253032580D0A00205450496A
:1007100049523E253032580D0A002054504950436A
:10072000523C30350D0A003C4856454E3E0D0A00FD
:10073000204B45593D253032580D0A002050524F6C
:10074000475F4B45590D0A00204B45593D25303236
:10075000580D0A002045524153455F4B45590D0A3B
:10076000002050524F4753544152543D2530325887
:100770000D0A00203C5359533A253032583E0D0A99
:1007800000204B45593D253032580D0A0020555266
:100790004F575F4B45590D0A002052455F50524F4D
:1007A0004753544152543D253032580D0A002045DC
:1007B0004E5445525F55524F573D2530346C583A90
:1007C000253034580D0A00203C4E564D3A25303223
:1007D000583E0D0A00205349423D25730D0A003C46
:1007E000535441543A253032583E00203C52535421
:1007F0003A25643E0D0A002050524F47535441524F
:10080000543D253032580D0A0020554152543D4F79
:1008100046460D0A0020554152543D4641494C0D73
:100820000A0020554152543D5643500D0A002042C3
:100830004155443D2530386C583A253032580D0A20
:1008400000204343493D000000000000000000007C
:100850004B000016630000007B00001E63000000D8
:100860000000000000000000BB40002E63000000FC
:100870008B00002E63400000B900001E63000000E2
:100880008B00006E63400002BB0000AE63000000FE
:1008900000E20518106004408077040D0A215449D5
:1008A0004D454F55543A2530346C583E000098154C
:1008B00011241FBECFEFCDBFDFE7DEBF88ED90E292
:1008C00084BF9093680090E084BF90936100E0E063
:1008D000F4E084E083878FEF848780934C048093D7
:1008E0006C048093AC0410E6A0E0B0E6EEE4F9E41A
:1008F00002C005900D92A438B107D9F720E6A4E80C
:10090000B0E601C01D92A439B207E1F714E0C8E5D2
:10091000D4E004C02197FE010E948224C735D1078C
:10092000C9F70E94A7150C94A5246ACBFB01A485E6
:10093000B585ED91FC9111970190F081E02D682F24
:10094000CD01099488E58093270A81E08093000A0D
:1009500090E080E0FC0123E0F595E7952A95E1F72A
:10096000E65EFF49208130E0482F477002C0359590
:1009700027954A95E2F740910B0A41FFFCCF20FFF3
:100980000DC0009820910B0A226020930B0A01965B
:1009900080399105F9F61092000A0895009AF2CF75
:1009A000982F9F7080E3890F8A3310F087E3890FB7
:1009B0000895DC011296ED91FC91248125FFFDCF75
:1009C00020E42483DC011296ED91FC91628381E0A6
:1009D00090E008958FB7F89410923164109270648B
:1009E000109271648FBF80910B0C82FDFCCF8EEF53
:1009F00080934C0C0895E49908C08091326480344F
:100A000009F03EC01092326408958091766481FDB1
:100A100014C080910B0A826080930B0A8EE480934D
:100A2000210A8091766481FD04C080910B0A81FFC8
:100A3000F8CF8091766481FFE0CF2FB7F894E29BE6
:100A400020C08EEE93E680937A6490937B648091CD
:100A5000326490E0809378649093796410927C641F
:100A600010927D64109232648CB394E089278CBB21
:100A70002FBF80910B0C82FDFCCF8EEF80934E0C2C
:100A800008958EEA93E6DFCF8AE090E08093686471
:100A90009093696410926C6410926D6480910B0C59
:100AA00082FDFCCF8EEF80934A0C089510924C6427
:100AB00010924D6480910B0C82FDFCCF8EEF8093E1
:100AC000420C0895109240641092416480910B0C86
:100AD00082FDFCCF8EEF8093400C08952091040896
:100AE00027FF04C000900108009000080197B1F7AB
:100AF00008959C0150E040E060E071E782E090E002
:100B00000E945F24DA01C9010196A11DB11DB595AE
:100B1000A7959795879580349105A105B10554F067
:100B2000009721E0A207B10548F08FEF9FEFA0E00A
:100B3000B0E0089580E490E0A0E0B0E0089590E097
:100B400080E008958091040887FFFCCF8091010820
:100B500080588EBB809100088FBB8EB3882311F123
:100B6000209108083091090880910808909109089F
:100B70009695879596958795820F931F8093080881
:100B80009093090880E010D08091186090911960CE
:100B9000B0DF809308089093090890E080E09EDF22
:100BA00080E0089581E00895CF93C82F80910408D4
:100BB00085FFFCCFC0930208C5DF882321F09FB3D7
:100BC00081E09C1380E0CF9108950F931F93CF9302
:100BD000DF93EB018C01F80181918F01E5DF882320
:100BE00011F02197C1F7DF91CF911F910F910895D7
:100BF00062E070E081E490E6E8DF8111A3CF80E05D
:100C0000089562E070E08FE390E6DFDF81119ACF14
:100C100080E00895609303607093046080930560A2
:100C20009093066065E070E081E090E6CEDF811190
:100C300089CF80E0089586DF882329F09FB381E083
:100C4000903409F080E00895CF93DF93EA01609338
:100C50001460709315608093166090931760CA01BA
:100C600096958795815080930F6085E680931160FB
:100C700065E070E082E190E6A8DF8823F9F0DBDF31
:100C80008823E1F063E070E089E390E69EDF88234B
:100C9000A9F065E070E08DE090E697DF882371F0C1
:100CA000BE016E7F8FED90E690DF882339F063E020
:100CB00070E08CE390E6DF91CF9187CF80E0DF9109
:100CC000CF910895CF93DF93EA01609314607093FE
:100CD000156080931660909317608FEF840F809358
:100CE0000F6084E68093116065E070E082E190E639
:100CF0006CDF8823F1F09FDF8823D9F063E070E098
:100D000089E390E662DF8823A1F065E070E08DE082
:100D100090E65BDF882369F0BE018FED90E655DF3A
:100D2000882339F063E070E08CE390E6DF91CF91A7
:100D30004CCF80E0DF91CF910895CF93C42F609383
:100D4000096070930A6080930B6090930C6065E07B
:100D500070E087E090E639DF882349F06CDF882374
:100D600031F08C2F21DF882311F0CF9164CF80E008
:100D7000CF910895482F60E070E180E090E0DDCFF2
:100D8000CF92DF92EF92FF920F931F93CF93DF9357
:100D9000CEECD0E68A0102531F49C017D107C1F03B
:100DA0006B017C012FEFC21AD20AE20AF20A4989CA
:100DB000C4DF2196811109C0DF91CF911F910F915E
:100DC000FF90EF90DF90CF900895C701B601E5CF77
:100DD00081E0F2CF0F931F93CF93DF93EB018C0150
:100DE000B1DE882331F09FB3F80191938F012197F1
:100DF000B9F7DF91CF911F910F910895CF93DF93B2
:100E0000EA0160931460709315608093166090936C
:100E10001760CA0196958795815080930F6085E28F
:100E20008093116065E070E082E190E6CEDE882379
:100E300089F001DF882371F065E070E08DE090E6D5
:100E4000C4DE882339F0BE016E7F85ED90E6DF9128
:100E5000CF91C0CF80E0DF91CF910895CF93DF9302
:100E6000EA0160931460709315608093166090930C
:100E700017608FEF840F80930F6084E2809311607E
:100E800065E070E082E190E6A0DE882381F0D3DEA9
:100E9000882369F065E070E08DE090E696DE8823B7
:100EA00031F0BE0185ED90E6DF91CF9193CF80E0E8
:100EB000DF91CF910895CF93DF93E99905C090E03A
:100EC00080E0DF91CF9108952091D5606091D66048
:100ED0007091D7608091D8609091D960C091DA60AC
:100EE000D091DB60203B49F480589F4FAE0186DFF4
:100EF000882329F3CE010196E4CF243B41F46F7798
:100F000070E060587F4E072E000C880B990BAE01E5
:100F1000A5DFEECFD0CFCF93DF93E99905C090E066
:100F200080E0DF91CF9108952091D5606091D660E7
:100F30007091D7608091D8609091D960C091DA604B
:100F4000D091DB60203B49F480589F4FAE0156DFC3
:100F5000882329F3CE010196E4CF243B39F46F773F
:100F600070E07F5E072E000C880B990BAE0176DFD8
:100F7000EFCFD1CFCF93DF938091D5606091D660D2
:100F80003091D760843B51F46F7770E07F5EE999D0
:100F90000FC090E080E0DF91CF910895732F803BE8
:100FA000B1F780919E6090919F60680F791FEFCF9D
:100FB000C091DA60D091DB6090E080E0AE014EDF5E
:100FC000882339F3CE010196E6CF8091040887FF8C
:100FD000FCCF8091010880588EBB809100088FBBA8
:100FE0009EB381E0911180E00895CF93C82F809146
:100FF000040885FFFCCFC0930208E7DF882321F0B7
:101000009FB381E09C1380E0CF910895CF93C82FC8
:1010100083EFEBDF882319F08C2FCF91E6CF80E0B0
:10102000CF91089582E7E1DF882331F0CEDF882376
:1010300019F08FB38111F6CF81E00895CF93C82FB7
:1010400084E6D3DF882319F08C2FCF91CECF80E0B8
:10105000CF91089584E2C9DF8111B7CF80E0089570
:10106000CF93DF93D82FC92F88E6BFDF882361F0A5
:101070008D2FBBDF882341F089E6B7DF882321F07D
:101080008C2FDF91CF91B1CF80E0DF91CF91089588
:1010900030E020E04091080442FFFCCF409108047A
:1010A00042FDFCCF2F5F3F4F8217930799F70895BA
:1010B000CF92DF92EF92FF92AB01BC018091CB60A7
:1010C000282F30E0322F22278091A060820F932FAB
:1010D000911D919581959109B0E0A0E0842395231D
:1010E000A623B72321E0C090EA62D090EB62E090A3
:1010F000EC62F090ED62C816D906EA06FB0609F428
:1011000020E08093EA629093EB62A093EC62B0934C
:10111000ED62822FFF90EF90DF90CF900895809145
:101120008560823081F01092000A10921A0B89EAD1
:1011300095E080931C0B90931D0B8FE48093100B14
:1011400082E080938560089580918560813089F088
:101150008FE08093000A10921A0B84EC92E6809341
:101160001C0B90931D0B85E48093100B81E0809302
:101170008560089566E070E180E090E04BDD8FB31C
:101180008370C1F78FB30895F5DF982F937781E0CF
:1011900009F080E00895CF93C82FECDF60E070E1A4
:1011A00080E090E037DD882331F08FB38C1303C0EB
:1011B00081E0CF91089580E0DDDD8823D1F3CC2359
:1011C000B9F38C2FCF91D6CD80E0E5DF90E0089584
:1011D00080E0E1CF8FE0DFDF8FE1DDDF80E0DBDF8C
:1011E00090E00895F7CFCF92DF92EF92FF92CF93E6
:1011F000DF936B017C01EA0180E0CDDF882389F079
:10120000AE01C701B6015EDD882359F085E0C3DF7A
:10121000882339F0DF91CF91FF90EF90DF90CF904E
:10122000B3CF80E0DF91CF91FF90EF90DF90CF9030
:101230000895CF92DF92EF92FF92CF93DF936B01ED
:101240007C01EA0180E0A7DF882389F0AE01C701B5
:10125000B601FADC882359F085E09DDF882339F058
:10126000DF91CF91FF90EF90DF90CF908DCF80E016
:10127000DF91CF91FF90EF90DF90CF900895CF92C4
:10128000DF92EF92FF926B017C0188E084DF88237C
:1012900071F04FEFC701B60150DD882341F06ADFDE
:1012A000837729F4FF90EF90DF90CF9091CF80E08B
:1012B000FF90EF90DF90CF90089562E070E180E0C2
:1012C00090E0A8DC8FB38370C1F78FB30895F5DF8A
:1012D00084E050DDF2DF80E04DDD90E00895CF93B3
:1012E000C82FEBDF60E070E180E090E093DC8823C2
:1012F00031F08FB38C1303C081E0CF91089580E06B
:1013000039DD8823D1F3CC23B9F38C2FCF9132CDA3
:1013100080E0E5DF90E0089580E0E1CFCF92DF92BA
:10132000EF92FF926B017C0188E0D9DF882371F096
:101330004FEFC701B60101DD882341F0BEDF83779F
:1013400029F4FF90EF90DF90CF90E6CF80E0FF9000
:10135000EF90DF90CF90089590E080E0089590E0C6
:1013600080E0089590E080E00895DC01ED91FC912B
:101370000190F081E02D0994CF92DF92EF92FF92DD
:101380000F931F93CF93DF938C01D0E0C0E07B01DC
:1013900081E0E81AF108672B61F1F801D1908F0123
:1013A0008D2D8295FDDA682F8DE890E6DEDF8D2D9C
:1013B000F7DA682F8DE890E6D8DFE114F10491F0B8
:1013C000219691F481E8C82E80E6D82EF60161912D
:1013D0006F01662339F08DE890E6C7DF892BB1F7FE
:1013E000D0E0C0E0B701D3CF6AE38DE890E6BDDF7F
:1013F000F9CF8DE890E6DF91CF911F910F91FF908B
:10140000EF90DF90CF900895EF92FF920F931F938C
:10141000CF93DF938C017B01D0E0C0E0F701EC0FAC
:10142000FD1F6491662331F0C8019FDF892B11F005
:101430002196F4CFCE01DF91CF911F910F91FF90B4
:10144000EF900895CF93DF93EC016DE08EDF6AE0BB
:10145000CE018BDFCE01DF91CF910895CF93DF9343
:10146000CDB7DEB72E97CDBFDEBF86E994E0898782
:101470009A871B861C8682E08C838DE890E68D8798
:101480009E87AE01495E5F4F6D897E89CE010196D0
:101490000E947B218DE890E62E96CDBFDEBFDF91C6
:1014A000CF910895BF92CF92DF92EF92FF920F9368
:1014B0001F93CF93DF9300D000D0CDB7DEB7C0909D
:1014C0008660D0908760E0908860F0908960C11459
:1014D000D104E104F104D9F060E078E689E899E00C
:1014E000A70196010E943D2469017A018FEFC81A75
:1014F000D80AE80AF80AF694E794D794C79488ECD7
:10150000B82E90E6C916D104E104F10430F4CC0CF5
:10151000DD1CEE1CFF1C2AECB22E1F92BF92FF9224
:10152000EF92DF92CF928EE298E09F938F930DE837
:1015300010E61F930F9392DFCDBFDEBFD701C60128
:1015400080549109A109B109803C9F4FA105B105C3
:1015500008F058C090918C60955040912C6050914B
:101560002D6060912E6070912F6049835A836B8348
:101570007C83E0918B60E370EC0FFD2FF11D2181E6
:1015800080918A60280F3327331F80E0232B09F0D6
:1015900088E09430A8F5890F9FB7F89422E1209352
:1015A000E20520E220930408C0920808D0920908BE
:1015B0008093070880E880930508B0920608E19AB6
:1015C0009FBF82E298E09F938F938DE890E69F9370
:1015D0008F9344DF80E090E881DA0F900F900F90B6
:1015E0000F90E09B17C02496CDBFDEBFDF91CF9157
:1015F0001F910F91FF90EF90DF90CF90BF90A4CDFF
:101600008D5FCACF85E198E09F938F931F930F93CF
:1016100025DFE3CF2496CDBFDEBFDF91CF911F91B1
:101620000F91FF90EF90DF90CF90BF9078CDE19B2E
:1016300004C0E39B02C036DFE49AE3980895CF9399
:10164000DF93D82F8CE397E09F938F938DE890E6FC
:101650009F938F9303DF6AE070E083E490E6B5DA4E
:10166000C82F0F900F900F900F908823F1F0C9DAD8
:10167000FC9BFDCF8FB31F928F9380E397E09F93E6
:101680008F938DE890E69F938F93E8DE0F900F90F5
:101690000F900F900F900F90DD2339F066E070E00F
:1016A00082E790E6DF91CF9190CA8C2FDF91CF91A6
:1016B0000895E99921C0EF9A81E0C1DF8823F9F00C
:1016C00097DAFB9BFDCF8FB31F928F9387EF97E045
:1016D0009F938F938DE890E69F938F93BFDEEF9853
:1016E000E99A0F900F900F900F900F900F90E0914C
:1016F0000E63F0910F63099481E090E0089590E00B
:1017000080E00895CF92DF92EF92FF920F931F93A4
:10171000CF93DF93E8990BC010E0812FDF91CF9139
:101720001F910F91FF90EF90DF90CF9008958091DF
:10173000D560853C89F7C091B660D091B760809143
:10174000DA609091DB60C817D90731F7C090D66096
:10175000D090D760E090D860F090D9608091C06060
:101760009091C1608C159D05B9F6EF9A90E080E0EC
:10177000B5D9DF93CF93FF92EF92DF92CF928EEAAB
:1017800097E09F938F930DE810E61F930F9366DE0B
:101790008DE897E09F938F931F930F935FDE6AE02E
:1017A00070E087E590E611DA2DB73EB7225F3F4F34
:1017B0002DBF3EBF882309F4AFCF23DAFD9BFDCFB9
:1017C0008FB31F928F9381E897E09F938F938DE85B
:1017D00090E69F938F9342DE66E070E082E790E6AA
:1017E000F4D9182F0F900F900F900F900F900F902B
:1017F000882309F491CFFCD9FA9BFDCFAE01C70134
:10180000B60160DA63E070E084E690E6DED9F0D9F4
:10181000FA99FDCF63E070E081E690E6D6D9EF98C3
:10182000E99B18C081E00BDFE3D9FB9BFDCF8FB3B1
:101830001F928F9389E997E09F938F938DE890E6AD
:101840009F938F930BDE0F900F900F900F900F9040
:101850000F9063CF66E070E082E790E6DF91CF9172
:101860001F910F91FF90EF90DF90CF90AEC9CF9274
:10187000DF92EF92FF92CF93DF93E99909C042DFA5
:1018800090E0DF91CF91FF90EF90DF90CF9008959F
:101890008091D560C090D660D090D760E090D8603D
:1018A000F090D960C091DA60D091DB60823231F083
:1018B0009EE4980F923010F0843C91F480E06BDC51
:1018C000811102C080E0DCCFAE01C701B601FAD9B8
:1018D0008823C1F385E15FDC8823A1F355DCD0CFF9
:1018E000803C11F0853C29F4AE01C701B6017BDCD8
:1018F000C7CF803B39F4C701B60180589F4FAE0176
:1019000098DCBECFAE01C701B601DCD9B9CFCF920A
:10191000DF92EF92FF92CF93DF93E99909C0F2DE55
:1019200090E0DF91CF91FF90EF90DF90CF900895FE
:101930008091D560C090D660D090D760E090D8609C
:10194000F090D960C091DA60D091DB60823231F0E2
:101950009EE4980F923010F0843C89F483E11BDC04
:10196000811102C080E0DCCFAE01C701B60108DA08
:101970008823C1F3FFDB8377A9F72ADCD1CF803C32
:1019800011F0853CB9F4C701B60192DB882319F048
:10199000C701B60174DC82E0FEDB882319F3AE01D7
:1019A000C701B601EDD98823E9F2E4DB8377D1F6EC
:1019B0000FDCB6CF803BF9F480E8E80EF11CEA9921
:1019C00008C0C701B60174DB882319F0C701B6014E
:1019D00056DC82E0E0DB882309F4C4CFAE01C70106
:1019E000B60132D9882309F4BDCFC4DB837709F06F
:1019F000B9CFEEDB95CFAE01C701B60163D990CF69
:101A0000CF92DF92EF92FF92CF93DF93E99909C0D3
:101A100079DE90E0DF91CF91FF90EF90DF90CF9053
:101A200008958091D560C090D660D090D760E09046
:101A3000D860F090D960C091DA60D091DB608232DA
:101A400031F09EE4980F923010F0843C91F480E1E4
:101A5000A2DB811102C080E0DCCFAE01C701B6017C
:101A600031D98823C1F385E196DB8823A1F38CDB90
:101A7000D0CF803C11F0853C29F4AE01C701B601FE
:101A8000B2DBC7CF803B39F4C701B60180589F4F06
:101A9000AE01CFDBBECFAE01C701B60113D9B9CFBE
:101AA000CF92DF92EF92FF92CF93DF93E99909C033
:101AB00029DE90E0DF91CF91FF90EF90DF90CF9003
:101AC00008958091D560C090D660D090D760E090A6
:101AD000D860F090D960C091DA60D091DB6082323A
:101AE00031F09EE4980F923010F0843C89F483E149
:101AF000F6DB811102C080E0DCCFAE01C701B60188
:101B00003FD98823C1F3D9DB8377A9F705DCD1CF8F
:101B1000803C11F0853CB9F4C701B601C9DA8823CD
:101B200019F0C701B601FADB82E0D9DB882319F38B
:101B3000AE01C701B60124D98823E9F2BEDB837761
:101B4000D1F6EADBB6CF803BF9F480E8E80EF11C71
:101B5000EA9908C0C701B601ABDA882319F0C701BA
:101B6000B601DCDB82E0BBDB882309F4C4CFAE0125
:101B7000C701B60169D8882309F4BDCF9EDB8377FE
:101B800009F0B9CFC9DB95CFAE01C701B6019AD82C
:101B900090CF4F925F926F927F92AF92BF92CF920F
:101BA000DF92EF92FF920F931F93CF93DF9300D0BA
:101BB00000D0CDB7DEB7E99914C0A4DD90E024963B
:101BC000CDBFDEBFDF91CF911F910F91FF90EF90BE
:101BD000DF90CF90BF90AF907F906F905F904F90CD
:101BE00008958091D560C090D660D090D760E09085
:101BF000D860F090D96096010091DA601091DB60B6
:101C00009EE4980F923008F044C08EECE82E80E6F7
:101C1000F82EC9018E5C90466C01C7018E5C90461F
:101C200080179107A0F5F701818990E089839A8355
:101C3000C6018E0D9F1D8B839C833FDBCE010196D9
:101C40005C0166E070E180E090E0F50141915F01A8
:101C50002B013C01FFEF4F1A5F0A6F0A7F0A6DD814
:101C6000811102C080E0AACFC301B2016A3020E135
:101C700072078105910549F787E07CD8882391F3A5
:101C80001CDB9FEFE91AF90A877039F2EBCF81E08C
:101C900095CF823221F09CE3980F923058F40DDBFF
:101CA000C701B60188279927A8010CD881111BC04C
:101CB00090E021C0803B11F0803CF9F460919E607F
:101CC00070919F60C60ED71EF12CE12CC701B601A2
:101CD000EFD9882319F0F1DA84E04CD8EEDAA801C4
:101CE000C701B601E2CF83E045D8882309F3E5DADE
:101CF000877091E0E9F6892F61CFC701B601882787
:101D00009927A8010E94620659CF81EB96E09F9324
:101D10008F938DE890E69F938F93A0DBE0918F6087
:101D2000F09190600F900F900F900F90848186FF3C
:101D3000FDCF88ED91E084BF9093410008953F92DC
:101D40004F925F926F927F928F929F92AF92BF92CB
:101D5000CF92DF92EF92FF920F931F93CF93DF9377
:101D6000CDB7DEB72B013C01922EADB6BEB6322EFA
:101D7000822F220F990B01962DB73EB7281B390BE6
:101D80002DBF3EBF0DB71EB70F5F1F4F812C47FF02
:101D900016C04F7381E090E0A0E0B0E0092C04C0D1
:101DA000880F991FAA1FBB1F0A94D2F70197A10998
:101DB000B109482259226A227B2250E8852E842FBD
:101DC00090E08F738230910534F4019711F432E082
:101DD000832E4074465F46FF0CC077FE0AC06894AD
:101DE00080F87094609450944094411C511C611C84
:101DF000711C4F73C42ED12CF12CE12CC301B20104
:101E0000A70196010E943D2429013A01862F0E94D4
:101E1000D004992D9A94F801E90DF11D97FCFA95DB
:101E20008083411451046104710441F732E083124C
:101E300036C02EEF922E990EF801E90DF11D97FC98
:101E4000FA958BE28083090D111D97FC1A953918BC
:101E50007801E30CF11C37FCFA94E016F10649F026
:101E6000F80161918F018DE890E60E94D904892BD9
:101E7000A1F78DE890E6ADBEBEBEDF91CF911F9178
:101E80000F91FF90EF90DF90CF90BF90AF909F9019
:101E90008F907F906F905F904F903F9008951814AF
:101EA00094F68EEF982E990EF801E90DF11D97FC2E
:101EB000FA958DE2C7CFCF93DF93C0E0DCE01882C4
:101EC0001092040C8EE394E68093060C9093070C1A
:101ED00081E08093010C1CBA1DBA1EBA10923364C3
:101EE0001092346410923264109231641092306413
:101EF00010922F644AE450E067E478E086E394E6C9
:101F00000E94722110922E64E6E1F3E681EA808756
:101F100080E281871286138681E090E0848795872E
:101F200082E090E086879787108A118A83E8888309
:101F3000DF91CF91089589E098E09F938F938DE88A
:101F400090E69F938F938ADA8AE18A95F1F700C031
:101F50008FB7F89410920608109205081EBA1FBA9F
:101F60001DBA92E19093E205E1988FBF009888E056
:101F70008093100402988093120402980F900F909F
:101F80000F900F90089580918560843081F01092B9
:101F9000000A10921A0B82E291E180931C0B90933D
:101FA0001D0B8FE48093100B84E080938560C3DF6A
:101FB000039888E080931304019880931104089596
:101FC000EF9AEA9A90E080E00E946E05E99902C0DB
:101FD00080E035DB84E597E09F938F938DE890E672
:101FE0009F938F933BDA6AE070E08DE490E60E9465
:101FF000E5050F900F900F900F90811102C020E027
:1020000073C00E940106FB9BFCCF8FB31F928F937E
:1020100088E497E09F938F938DE890E69F938F934A
:102020001DDA66E070E082E790E60E94E5050F9019
:102030000F900F900F900F900F90882301F32FEFC8
:1020400084E39CE0215080409040E1F700C0000014
:1020500090E080E00E946E050E94F805FD99FCCF9B
:102060000E94F805F899FCCF8FB31F928F9383E7F6
:1020700097E09F938F938DE890E69F938F93EED98F
:102080000F900F900F900F900F900F900E940106ED
:10209000FB99FCCF0E94F805FB9909C081E0CFDADB
:1020A000882309F4ACCF0E94F805FB9BFCCF8FB3CB
:1020B0001F928F9381E697E09F938F938DE890E630
:1020C0009F938F93CBD9E99AEF98E0910E63F091AB
:1020D0000F63099521E00F900F900F900F900F90D4
:1020E0000F90892B09F48BCF822F08958091D560B2
:1020F000811103C065DF90E00895873051F460914D
:10210000D6607091D7608091D8609091D960B7D82F
:10211000F2CF81E090E008958091D560811103C0F5
:102120004FDF90E00895873051F46091D660709150
:10213000D7608091D8609091D960F0D8F2CF81E0DB
:1021400090E008958091D560811103C039DF90E05F
:10215000089581E090E00895F5CFF4CFAF92BF925B
:10216000CF92DF92EF92FF920F931F93CF93DF9363
:1021700000D0CDB7DEB780E88DBB80919C60909198
:102180009D60079788F08091D460882369F087E28A
:1021900097E09F938F938DE890E69F938F935ED9FE
:1021A0000F900F900F900F90029A019A2FEF84E3F7
:1021B0009CE0215080409040E1F700C0000082EC9C
:1021C0000E94F507811103C090E080E0AFC085E078
:1021D0000E94F5078823C1F38AE197E09F938F93CC
:1021E0008DE890E69F938F9339D90F900F900F90C1
:1021F0000F908FE80E94F5078823D9F30E94E50726
:102200008823B9F38FB38038A1F78FB31F928F93D0
:102210008CE097E09F938F938DE890E69F938F9348
:102220001DD9E89A0F900F900F900F900F900F907C
:1022300086EFE82E86E0F82E9DE8C92E90E6D92E8E
:1022400029E3A22E20E6B22E80E80E94F50788231B
:10225000E1F10E94E5078823C1F18FB38230A9F52F
:102260008FB31F928F938EEF96E09F938F938DE89D
:1022700090E69F938F93F2D819821A8281EC9FE3A4
:102280000E9430080F900F900F900F900F900F90BA
:10229000882309F458C00E942A08882309F453C0EF
:1022A0008FB38A830E942A08882311F08FB3898311
:1022B00029813A8188E02E30F2E93F0711F12F3071
:1022C00081E93807E9F082E01CC0FF92EF92DF92CB
:1022D000CF92C4D800E310E60F900F900F900F90AC
:1022E000F80181918F010E94F507882309F46CCFD2
:1022F00084E090E00E944808A016B10689F7A4CFB8
:1023000084E080939B601F928F933F932F9385EE81
:1023100096E09F938F938DE890E69F938F939ED83E
:10232000E89AEF98CDBFDEBF81E090E00F900F906C
:10233000DF91CF911F910F91FF90EF90DF90CF90A1
:10234000BF90AF90089529813A81BDCFCF93DF939D
:1023500090E080E00E946E0569E070E082E790E620
:102360000E94E5051DBAC82FD0E01F928F938BEE17
:1023700097E09F938F938DE890E69F938F936ED80D
:10238000019A000001980F900F900F900F900F90FE
:102390000F90CE01DF91CF910895CF93DF931092EC
:1023A000EE628FEF9FEFDC018093EA629093EB6225
:1023B000A093EC62B093ED628FE995E080930E6399
:1023C00090930F638FEA99E0809310639093116369
:1023D00082EB99E080931263909313638CEA99E007
:1023E0008093146390931563019A0000EF9B0BC0D8
:1023F0000E982FEF34E38CE0215030408040E1F71D
:1024000000C000000E9A019880E88DBB90E080E04B
:102410000E946E058091186090911960969587953D
:10242000969587950E9479058093080890930908EE
:1024300080E00E94D40580911860909119600E94FC
:102440007905809308089093090869E070E089E6AF
:1024500090E60E94E505811105C090E080E0DF91E3
:10246000CF9108950E94F805FC99FCCF8FB31F927D
:102470008F938FED97E09F938F93CDE8D0E6DF9316
:10248000CF930E942E0A62E070E087E690E60E94F9
:10249000E5050F900F900F900F900F900F908823ED
:1024A000E1F260E270E08EEE92E60E94EA06882396
:1024B000A1F28EEE92E69F938F9385ED97E09F9326
:1024C0008F93DF93CF930E942E0A8091F8621F9220
:1024D0008F9387EC97E09F938F93DF93CF930E9426
:1024E0002E0A8091F8622DB73EB7245F3F4F2DBF73
:1024F0003EBF853361F582EF98E080930E63909341
:102500000F638AE897E080931063909311638CEADD
:1025100090E1809312639093136387E39CE0809330
:10252000146390931563EF98E89A8091EE62EEEE53
:10253000F2E6803211F4E2EFF2E684E0A5EDB0E6D7
:1025400001900D928A95E1F785E090E088CF843381
:10255000A9F484EE98E080930E6390930F638BE56B
:1025600097E0809310639093116386E790E18093E6
:1025700012639093136387E89CE0D1CF8333A9F46F
:102580008AEE98E080930E6390930F6389EB97E057
:1025900080931063909311638DEA90E180931263AE
:1025A0009093136380E09DE0BACF8233A9F488E86A
:1025B00099E080930E6390930F638BE897E080938C
:1025C0001063909311638CE890E180931263909371
:1025D000136380E59DE0A3CF803309F03ECF87E60B
:1025E00099E080930E6390930F638AEB97E080935A
:1025F00010639093116382EA90E180931263909349
:10260000136389EC9DE08BCF6F927F928F929F92A4
:10261000AF92BF92CF92DF92EF92FF920F931F93F0
:10262000CF93DF932091D460C090D860D090D960D0
:10263000DC24CD24DC240091DA601091DB601027CB
:102640000127102760909B60862C912CC401019774
:10265000CCEDD0E63FEFAC014C215D21452B71F470
:102660003FEF7C01E022F122E114F10471F0F80166
:10267000EC0DFD1D30830F5F1F4FF3CF41E0C41AF7
:10268000D1080F5F1F4F3A93E6CF213049F50E94E2
:102690001208782E882321F0C6010E943008782E77
:1026A000B12CA12CA016B10608F08AC08DE10E94C1
:1026B0000608882331F088810E941E0881113DC0E0
:1026C0002196782294E0691251C08CE090E00E943B
:1026D000480888810E941E08811138C021963EC09A
:1026E0000E9412088823C9F0C60181600E94300848
:1026F000882399F084E10E940608882371F08FEF07
:102700000E941E08882349F00E941208882329F09D
:1027100080E00E9406088111BACFC701DF91CF91F6
:102720001F910F91FF90EF90DF90CF90BF90AF90EF
:102730009F908F907F906F9008956E0182E0C80EF9
:10274000D11C89810E941E08E601BBCF6E01E2E028
:10275000CE0ED11C89810E941E08E60178220E94BB
:1027600012087822D1F2A80CB91C9CCFF8E06F12A5
:10277000F6CF8CE090E00E94480888810E941E08F5
:102780006E01811116C04FEFC41AD40A78228CE072
:1027900090E00E944808F60180810E941E08E60130
:1027A000882309F49BCF2296F60181810E941E089E
:1027B000D5CF82E0C80ED11C89810E941E08E6CFC9
:1027C00080E00E940608E82EF12CA7CF0F931F93FC
:1027D000CF93DF938091D7609091D860C091D960FA
:1027E000D091DA60DC27CD27DC2798278927982726
:1027F0000E9430080EEC10E6C8018E5C90468C17E3
:102800009D0750F40E942A080F5F1F4F882359F03C
:102810008FB3F8018683F0CFCE010196DF91CF917F
:102820001F910F91089590E080E0F8CFCF93DF9350
:10283000C091D760D091D860DC27CD27DC2780916C
:10284000D460813099F5DF93CF9382ED96E09F932A
:102850008F938DE890E69F938F930E942E0A0E949B
:1028600012080F900F900F900F900F900F90811102
:1028700005C090E080E0DF91CF910895CE010E94E5
:1028800030088823B1F380E10E940608882389F389
:102890008FEF0E941E08882361F30E94120888238C
:1028A00041F380E00E94060890E0E5CFDF93CF93EC
:1028B0008CEB96E09F938F938DE890E69F938F9398
:1028C0000E942E0A0E9412080F900F900F900F90F6
:1028D0000F900F90882369F2CE010E943008882360
:1028E00041F284E1D1CF1F920F920FB60F921124C3
:1028F0002F933F934F935F936F937F938F939F9308
:10290000AF93BF93CF93EF93FF93C09101082091B2
:1029100000088C2F8674B1F4E29973C08EEA93E6B6
:10292000E091326431E03E0F30933264E80FF92FCA
:10293000F11D208380913264803408F065C08EE1FF
:1029400080932F648EB3C82BCEBB8091666481FFC9
:1029500046C080E0F29980E1F1998062F699806446
:102960001EBAE49B3CC090912E648917C1F18093FC
:102970002E6491EA90931E6390E290931F631092ED
:1029800020631092216321E030E020932263309392
:10299000236322E030E0209324633093256390E0AA
:1029A000809326639093276381E498E09F938F93AD
:1029B0008DE890E69F938F930E942E0A6AE070E064
:1029C0008EE193E60E94BC090E94220A809166640F
:1029D0000F900F900F900F9081FD0E944405FF9182
:1029E000EF91CF91BF91AF919F918F917F916F9117
:1029F0005F914F913F912F910F900FBE0F901F90BD
:102A000018958EEE93E68CCF0E94FB049BCF112489
:102A10008DB79EB7B0E0A0E08093081090930910A6
:102A2000A0930A10B0930B101092000B81E08093DA
:102A3000060B62E070E080E894E60E9452218FB7B6
:102A4000F8941092000B91E09093060B8FBF1895AD
:102A50000F931F93CF93DF9300D000D0CDB7DEB795
:102A60008B839C8319821A8280E894E60E9432212B
:102A7000892B29F59FB7F89410920A0B10920B0B33
:102A800020E233E020930C0B30930D0B81E0809318
:102A9000050B8093060B8FE08093000B9FBFEB81AB
:102AA000FC81099589839A83CADF89819A8124965A
:102AB000CDBFDEBFDF91CF911F910F91089508E048
:102AC00010E1F80180819181A281B381BF93AF931E
:102AD0009F938F938BE998E09F938F938DE890E677
:102AE0009F938F930E942E0ACDBFDEBFF801808195
:102AF0009181A281B381029760E170E00E94BC09DC
:102B00000E94220AD1CF1F920F920FB60F9211246A
:102B10008F938FEF87BBE89903C0B69B07C0E69AF7
:102B20008F910F900FBE0F901F901895E79AF8CFD6
:102B3000EDE8F0E680E298E0828393838FE790E609
:102B40008083918381E998E0858396830895CF936C
:102B5000DF93CDB7DEB72597CDBFDEBF8091926002
:102B600090919360FC01A591B4912C91FC01329657
:102B700034913196E49123232E2B2C93FC0134962F
:102B8000A591B491FC013696E4911196EC931197BE
:102B9000FC013796E4911296EC93FC013896A591CE
:102BA000B49118E01C93E0918F60F091906080EAFE
:102BB00090E080879187158203E0078380EC86830D
:102BC00066EA76E08DE890E60E94040A8DE890E6D9
:102BD0000E94220A6DE976E08DE890E60E94040AE0
:102BE00020E240E460E07DE281E391E0A8D88DE856
:102BF00090E60E94220A6CE876E08DE890E60E945A
:102C0000040A6EE776E08DE890E60E94040A8DE8FB
:102C100090E60E94220A6EE676E08DE890E60E9439
:102C2000040A20E140E466E670E080E090E087D8A6
:102C30008DE890E60E94220A649A10927404659AC4
:102C40001092750410937004109371041093730420
:102C5000069A109216040E9A1093B40499E0909379
:102C6000B60480E88093B20480E18093100281E092
:102C700080932B0226E02093CB0129EA2093C901FF
:102C80008093C80121E42093C0018093030A23ECC0
:102C90002093260A22E62093280A27E42093110B8A
:102CA00029EA35E020931C0B30931D0B2FE4209371
:102CB000100B24E6209356011093110290931202F8
:102CC00092E09093310200933302809350015BD9DC
:102CD0008091010180FDFCCF88ED98E084BF909346
:102CE00000018FEF83B98BB98FB987BB78940E94AD
:102CF0008F0882E696E09F938F938DE890E69F93EE
:102D00008F930E942E0A0F900F900F900F900DE856
:102D100010E61E0125E0220E311C30E8832E35E23C
:102D2000932EA12CB12C66246394712CA895F0905D
:102D30000A0CF0920A0CB49B10C08091000C811117
:102D400011C080918560833011F00E948F0810922D
:102D5000030C8091000CAFD831C08091000C811120
:102D60000E94850EF7FE14C080912F64882381F0A5
:102D700080912F64815080932F64811109C08091CC
:102D8000766481FF05C08091326481110E94FB044A
:102D90008F2D807629F0E0990E94850E6894F4F8D2
:102DA000F4FE0CC080918560833011F00E948F0882
:102DB0001092030C8091000C8111CDCF80913E6464
:102DC00084FF4CC0F0901663809140649091416400
:102DD00020913E6430911D633F9330911C633F937B
:102DE00030911B633F9330911A633F933091196385
:102DF0003F93309118633F93309117631F923F9335
:102E00001F92FF929F938F931F922F9380E592E0E2
:102E10009F938F931F930F930E942E0ACDBFDEBF07
:102E2000F7FE0E9462058F2D807609F089C280919D
:102E3000176381119BC010921E6310921F6382E082
:102E400090E080934864909349640E9456050E94E4
:102E5000620580910B0C846080930B0CE79B60C330
:102E6000E8992BC080918560833081F01092000A30
:102E700010921A0B89EA95E580931C0B90931D0B19
:102E80008FE48093100B83E080938560809198603D
:102E9000853029F489E5809324600E94A204019A78
:102EA00088E792E09F938F931F930F930E942E0ABF
:102EB000E7980F900F900F900F90E09B37CFE19B1A
:102EC00081C3E39914C08091040885FF10C08091EC
:102ED0006E6481FF0CC0E19B0AC020917064309148
:102EE00071648091316482134EC30E94EA04E39BB3
:102EF00018C080913364909134649C012F5F3F4FE0
:102F00002230310570F08530910508F460C30497D4
:102F100080933364909334648091666481FD0E9451
:102F2000440580915E6481FFFECE90912E63809176
:102F30002F632091566421FFFCCF903809F021C403
:102F4000F82FFF706F2E29E02F1708F047C38CEA87
:102F500092E09F938F931F930F930E942E0A1092DB
:102F60002F630F900F900F900F9060C3813089F501
:102F700080911B638F9380911A638F938091196363
:102F80008F93809118638F9385E092E09F938F9346
:102F90001F930F930E942E0ACDBFDEBF809118634E
:102FA000811112C0E0911A63F0911B6380910B0CA8
:102FB00082FDFCCFF595E795F595E795EF73FF2733
:102FC000E05CF34F89E0808310924864109249647A
:102FD0003CCF8430D9F480911B638F9380911A6326
:102FE0008F93809119638F93809118638F9385EFEE
:102FF00091E09F938F931F930F930E942E0A10923C
:10300000486410924964CDBFDEBF1FCF8530A1F464
:1030100080911863F82EE894F7F80E945605809185
:10302000466481FFFCCFF092030C1F92FF9285EE65
:1030300091E09F938F936CC1863009F04DC1409011
:103040001C63F0911D63FD83809118639091196357
:10305000913009F061C042E150E067EC71E08EE12F
:1030600093E60E9472218091001490910114A09126
:103070000214B09103148F3F2FEF9207A207B207FB
:1030800041F08093266390932763A0932863B093C5
:103090002963809129638F93809128638F93809116
:1030A00027638F93809126638F9382EB91E09F93A8
:1030B0008F931F930F930E942E0ACDBFDEBF82E134
:1030C000E82EF12C842D9D81E816F90608F4C7013D
:1030D00097017C01E0924864F0924964232B09F047
:1030E000B4CE24E432E03F932F931F930F930E94BA
:1030F0002E0A0F900F900F900F9080910B0C82FD75
:10310000FCCF88E08093430C80910B0C82FDFCCFB8
:1031100088E08093410C9DCE923009F4C0C0963077
:1031200009F4C8C0913209F4CBC0923209F4CEC080
:103130008115E3E09E0779F484E080931E6393E0B9
:1031400090931F6399E09093206380932163B4E090
:10315000EB2EF12CB7CF8230F3E09F0731F148F42A
:103160008130934009F495C0F12CE12C70E060E0CF
:103170000BC083309807F9F0F8E1EF2EF12C68E8E6
:1031800070E08430934081F7E0921E6383E0809387
:103190001F63A7014250510980E293E6E114F10454
:1031A00009F085C030E020E095CFA6E4EA2EF12CAE
:1031B00060EA70E0E9CF40910414509105146091E9
:1031C00006147091071449835A836B837C834F3FA5
:1031D000FFEF5F076F077F0751F5E0E8F0E1CF01F0
:1031E00001962081422728E06A017B01F694E7944A
:1031F000D794C794417055276627772770956095B7
:10320000509541955F4F6F4F7F4F40725378687B69
:103210007D7E4C255D256E257F25215029F7FC01FB
:10322000803A9041E1F649835A836B837C8386E13F
:1032300080931E6383E080931F638DE480932063FB
:103240001092216388E5809322631092236334E215
:10325000E32E33E6F32ECE0101966C01F601519078
:103260006F01852D82958F700E94D004F7018083B5
:103270001182852D0E94D004F70182831382F4E02D
:10328000EF0EF11C2C143D0449F726E1E22EF12C3F
:1032900019CF94E3E92EF12C66EE70E075CF8BE642
:1032A000E82EF12C6DE371E0A7018EE193E60E9418
:1032B000722108CFBAE0EB2EF12C68EA71E0F4CF6E
:1032C000A9E0EA2EF12C6FE471E0EECFF3E2EF2EED
:1032D000F12C6AE171E0E8CF883049F480913064E4
:1032E00080931E636092486470924964AECD8930C9
:1032F000F1F48091186380933064E09A0E94A408EE
:10330000809130641F928F9329ED31E03F932F938A
:103310001F930F930E942E0A1092486410924964E2
:103320000F900F900F900F900F900F908ECD8A30CE
:1033300019F410921E63D6CF8B3009F0D2CE44CE52
:10334000803209F0CECE809117638A3059F4809193
:1033500018639091196399279F938F9388E392E064
:103360009F9368CE803209F040C080913E6481FF17
:10337000FCCF47E050E06EE173E686E890E60E94FD
:103380008824892B91F080916E6481FD0E94EA046B
:103390000E94C30F87E0EEE1F3E6A6E8B0E60190F5
:1033A0000D928A95E1F70E94520A22E332E03F93A0
:1033B0002F931F930F930E942E0A67E070E086E818
:1033C00090E60E94BC090E94220AE49A109232649C
:1033D0001092316410922F641092486410924964E4
:1033E0000F900F900F900F9030CD8132B9F587E09C
:1033F000E6E8F0E6AEE1B3E601900D928A95E1F7DA
:1034000080911E6390911F63A0912063B09121630E
:10341000892B8A2B8B2B59F480921E6390921F6309
:10342000A0922063B092216388E0809324638CE2B1
:1034300092E09F938F931F930F930E942E0A67E051
:1034400070E08EE193E60E94BC090E94220A87E0A8
:1034500090E08093486490934964C2CF823271F5C2
:10346000809118639091196399279F938F9320E21D
:1034700032E03F932F931F930F930E942E0A809167
:1034800018630F900F900F900F900F900F90982F40
:10349000917080FF0FC06C9881FF0EC06D982091D5
:1034A000846020FD04C0992311F0E79AE69A809386
:1034B00084608ACD6C9AF0CF6D9AF1CF833209F097
:1034C00010CE809119638F93809118638F9385E15B
:1034D00092E09F938F931F930F930E942E0A8091E7
:1034E00018639091196380933364909334640F90C0
:1034F0000F900F900F900F900F90892B71F0E19B20
:103500000AC0E39908C0E49810922F640E949B0FB0
:10351000029A10921204E39A57CD0E94170B54CDD1
:10352000E69BCBCCE899C9CC80919860853021F49A
:10353000109224600E94A20401988FE79AE1E6E0CD
:1035400081509040E040E1F700C0000083E892E045
:103550009F938F931F930F930E942E0A0F900F90AB
:103560000F900F90E09B05C00E94A408E798E69892
:10357000A4CC8091030C811103C00E94850EF6CF6C
:103580000E948F08F3CF4091706450917164282F8E
:1035900030E0F12C4217530739F08F5F809331648C
:1035A00022593C49F901F0808091706490917164D6
:1035B000209131642817190611F40E94EA04F09250
:1035C000020895CC80916E6481FF91CC8ECC1092D4
:1035D0003364109234640E94170BA3CC90E0E4E0B3
:1035E00095958795EA95E1F7582EC090316331E0C3
:1035F000831302C01092946001972CE3289F7001FE
:10360000299FF00C112470909460739470929460D0
:10361000D12CA60162E373E6C70182539F490E9441
:10362000952481E080932F63651411F0E12C0CC088
:10363000EC0CFD1CE0929C60F0929D6067109EC0B7
:1036400010929960EE24E39480E490E080935864B3
:103650009093596410925C6410925D6480910B0C9D
:1036600082FDFCCF8EEF8093460C10926064109226
:10367000616480910B0C82FDFCCF8EEF8093480C2F
:10368000EE2009F450CBF090D2608091D6601F926A
:103690008F938091D5601F928F938091D3601F92FA
:1036A0008F931F92FF9280E496E09F938F931F93D6
:1036B0000F930E942E0ACDBFDEBF91E0F91268C1C0
:1036C0008091D3606090D5607090D6605090D76044
:1036D000823009F028C1E52CF12CC72CD12C1F9287
:1036E0005F921F927F921F926F928AE293E09F9364
:1036F0008F931F930F930E942E0ACDBFDEBF6110E0
:10370000ABC0B6016B5D7C4FA70185ED90E6EAD5B5
:103710008BE193E09F938F931F930F930E942E0A48
:10372000B70185ED90E60E94BC090E94220A0F9025
:103730000F900F900F9084E891E08093D360909366
:10374000D4603FEFE31AF30A97012A5F3F4F2093BB
:103750009C6030939D6010929A60C7018F5B9F4F71
:103760006CE370E00E942924609399608EE080935E
:10377000CF6022533F49F9011082D5CA8EE992E009
:10378000E8CB9138E9F510923063909199609111EE
:103790000DC08FE892E09F938F931F930F930E9429
:1037A0002E0A10922F6310923163DBCB80919A60C6
:1037B0002CE3829FF0011124E153FF49A2E3B3E619
:1037C00001900D922A95E1F78F5F80939A6040E116
:1037D000849F90011124292B20932F6320919C60BA
:1037E00030919D60981751F08CE3809331632C5396
:1037F000310920939C6030939D6018CF822FF5CFC4
:1038000091111CC08F3F21F095E0980F923048F441
:1038100082E080932F6380E4809330631092316361
:1038200005CF813F09F002CF82E080932F6380E8CB
:103830008093306381E080933163F8CE923009F455
:10384000F5CE913031F4882309F4F0CE10922F6335
:10385000EDCE9330D9F7EACEF1E06F126CCF872D21
:103860008F7D09F048C08FEF8093070610920E06F7
:1038700010920F06609200066092010684E0809329
:1038800002068AEF8093040684E480930B0681E1AC
:1038900080930A068091070681FFFCCF20910E06D7
:1038A00030910F06C90163E0880F991F6A95E1F70F
:1038B000220F331F820F931F109200068093956092
:1038C000909396609F938F938DE093E09F938F9357
:1038D0001F930F930E942E0A80919560909196609D
:1038E0008093D5609093D6600F900F900F900F90BB
:1038F0000F900F9020CF1F925F921F927F9287EFC1
:1039000092E09F938F931F930F930E942E0A672D2F
:10391000677070E061517D4FA70185ED90E6E2D4BC
:10392000CDBFDEBF08CF8031B9F480EE92E09F9327
:103930008F931F930F930E942E0A1092986080E835
:1039400090E08093D3609093D4600F900F900F908D
:103950000F90F12CE12CF8CE813149F480ED92E00A
:103960009F938F931F930F930E942E0AE8CF1F926D
:103970005F921F927F921F926F928AEB92E09F93C9
:103980008F931F930F930E942E0ACDBFDEBFE1CF0E
:1039900092E1F912A4C2F090D360D090D560C090AB
:1039A000D6607090D760E1E0FE12CAC0E090D860A7
:1039B000F090D960FF92EF921F927F921F92CF9268
:1039C0001F92DF928CEE94E09F938F931F930F933F
:1039D0000E942E0ACDBFDEBFD11029C0C11019C070
:1039E000FF92EF928FED94E09F938F931F930F932D
:1039F0000E942E0AE09298600F900F900F900F9007
:103A00000F900F9080E890E08093D3609093D46003
:103A1000A0CF31E0C312F6CFFF92EF928AEC94E090
:103A20009F938F931F930F930E942E0AE5CF41E03F
:103A3000D4124AC0C1100DC0FF92EF9287EB94E000
:103A40009F938F931F930F930E942E0AE09297608B
:103A5000D3CF81E3C812D6CFE0921860F0921960FC
:103A6000FF92EF928CEA94E09F938F931F930F93B2
:103A70000E942E0A0F900F900F900F900F900F90B2
:103A800080919860853009F0BDCF80911860909149
:103A90001960813F910598F080EF90E08093186065
:103AA000909319608091186090911960E816F9065A
:103AB00009F4A8CF9F938F938EE994E0B1CF8897B4
:103AC00088F788E290E0EACF92E0D91226C0C110D0
:103AD00099CF1F927F928DE894E09F938F931F93CD
:103AE0000F930E942E0A472D4F7350E068ED70E649
:103AF0008EE990E61AD70F900F900F900F900F90CD
:103B00000F9080919860853009F07CCF8091CD60D6
:103B10001F928F938EE794E083CFE3E0DE1272CFA3
:103B2000F6E0CF1205C0FF92EF928DE694E078CFD9
:103B300027E0C21267CFFF92EF928CE594E070CF3E
:103B400032E0F31264C0E72CF12C1F927F921F9297
:103B5000CF921F92DF9288E394E09F938F931F93FD
:103B60000F930E942E0ACDBFDEBFD11022C0C1101C
:103B700016C0809198601F928F938BE294E09F9380
:103B80008F931F930F930E942E0A809198608093C9
:103B9000D5600F900F900F900F900F900F9084E8CA
:103BA00091E08093D3609093D460FFEFEF1AFF0A07
:103BB000CBCD91E0D912F3CFC1100FC080919760A7
:103BC0001F928F9388E194E09F938F931F930F939D
:103BD0000E942E0A80919760DACFE1E3CE12DFCF08
:103BE000809119608F93809118608F938DE094E09D
:103BF0009F938F931F930F930E942E0A80911860BA
:103C0000909119608093D5609093D660C2CF8091D7
:103C10009860853009F060C120E1F21251C01F9216
:103C2000DF9284EF93E09F938F931F930F930E94F3
:103C30002E0A0E94C30FEFB6F8948CE593E09F9391
:103C40008F931F930F930E942E0AF092E20580E259
:103C50008093040880911860909119600E94790502
:103C600080930808909309088BE2809307088AE004
:103C70008093050888EC80930608209106088091BF
:103C80000808909109081F922F939F938F938AE4BD
:103C900093E09F938F931F930F930E942E0AEFBE82
:103CA0008DEC91E10E9428157C01CDBFDEBF84E838
:103CB00090E0E114F10409F0BCC080EA90E0B9C0E2
:103CC00091E1F9121FC083EE93E09F938F931F93AE
:103CD0000F930E942E0A0F900F900F900F90E89B69
:103CE0000DC086EA91E10E9428157C010E94C30F55
:103CF0000E94520AE114F10401F331C0EE24E3946E
:103D0000F12CF4CFE5E1FE1218C080ED93E09F9313
:103D10008F931F930F930E942E0A89E59BE00E94C8
:103D200028150F900F900F900F90892B21F4EDB272
:103D3000FE2DF170EF2EF12CDDCF26E1F21212C034
:103D40008DEB93E09F938F931F930F930E942E0A06
:103D50000F900F900F900F90EE24E394F12C80E8D9
:103D600090E067C030E2F31220C08091D9608F9359
:103D70008091D8608F938091D7608F938091D66027
:103D80008F931F92DF9284EA93E09F938F931F9308
:103D90000F930E942E0A80911263909113630E94E8
:103DA00028157C01CDBFDEBFA5CFE89B92C091E274
:103DB000F9126BC08091DB608F938091DA608F93F2
:103DC0008091D9608F938091D8608F938091D760D4
:103DD0008F938091D6608F931F92DF9287E893E054
:103DE0009F938F931F930F930E942E0A8091D5600B
:103DF000E090DA60F090DB60CDBFDEBF833DF1F490
:103E00008091D6608F7190E0A701415051094F71A8
:103E100055274F5F5F4F6EEE72E68B529F4985D5F7
:103E2000FFEFEF1AFF0A84E891E0E114F10409F4CE
:103E300044CF8093D3609093D46086CCE99B08C034
:103E400080911063909111630E9428157C01EBCF43
:103E5000843BA1F48091EE62882381F09EE19093EF
:103E6000D560803209F481E48093D6608091F86255
:103E70008093D7602FEFE21AF20AD5CFA7016FEF38
:103E800070E085ED90E65AD5F5CF33E2F31221C00C
:103E90008091DB608F938091DA608F938091D960FD
:103EA0008F938091D8608F938091D7608F9380910A
:103EB000D6608F931F92DF9289E693E09F938F9352
:103EC0001F930F930E942E0A8091146390911563A3
:103ED00066CFF12CE12CF1CE80EA90E095CD94E113
:103EE000F91246C18091D360813009F06CC08BEB30
:103EF00095E09F938F931F930F930E942E0A0E9429
:103F0000C30FFFB6F89483E295E09F938F931F93BE
:103F10000F930E942E0A209118603091196050E092
:103F200040E0CDBFDEBF60E27EE480E090E0C7D439
:103F3000DA01C9010196A11DB11DB595A795979507
:103F4000879536E0880F991FAA1FBB1F3A95D1F7B6
:103F500020E12093E205029828E02093120420E259
:103F60002093040880349105A105B10520F480E474
:103F700090E0A0E0B0E080930808909309088BE6F9
:103F8000809307088BE08093050888EC80930608EF
:103F90002091060880910808909109081F922F939C
:103FA0009F938F9381E195E09F938F931F930F933E
:103FB0000E942E0AFFBE8EEA90E10E9428157C0125
:103FC000CDBFDEBF33C0823009F04BC085EA95E03B
:103FD0009F938F931F930F930E942E0A80EC0E9451
:103FE000F5070F900F900F900F90882319F080E045
:103FF0000E94F5078FE295E09F938F931F930F9395
:104000000E942E0A83EF91E00197F1F700C00000B3
:10401000029801981DBA0E94C30F0E94520A0F9085
:104020000F900F900F90EE24E394F12C81E0E114B7
:10403000F10409F080E08093D460FF92EF928BE36B
:1040400095E09F938F931F930F930E942E0A9FEFEB
:10405000E91AF90A0F900F900F900F900F900F90A0
:1040600073CBE89B7AC08330E1F46091D5607091A6
:10407000D6608091D7609091D8603DD49F938F9304
:104080007F936F938091D4601F928F938DE895E01A
:104090009F938F931F930F930E942E0A86E194E1C2
:1040A0008CCF843029F52091DA603091DB603227A3
:1040B000232732276091D6607091D7608091D860B5
:1040C0009091D96018D43F932F939F938F937F93B0
:1040D0006F938091D4601F928F9380E795E09F93B8
:1040E0008F931F930F930E942E0A84E093E165CF74
:1040F000853029F52091D9603091DA603227232765
:1041000032276091D5607091D6608091D760909190
:10411000D860F1D33F932F939F938F937F936F93A7
:104120008091D4601F928F9384E595E09F938F9345
:104130001F930F930E942E0A86EE93E13ECF8630A6
:1041400079F489E495E09F938F931F930F930E94D6
:104150002E0A0F900F900F900F90F12CE12C66CF4C
:1041600021E090E0873009F020E0E22EF92E5ECFCA
:10417000E0E2FE12EECB9091D360C090D560D0907B
:10418000D6608091D760913099F5E090D860F0903A
:10419000D960FF92EF921F928F931F92DF921F922E
:1041A000CF928BE196E09F938F931F930F930E9482
:1041B0002E0ACDBFDEBFC11025CC30E1D31222CCF8
:1041C000FF92EF9286E096E09F938F931F930F9359
:1041D0000E942E0AE09200600F900F900F900F90B7
:1041E0000F900F90EF2811F00E9A0CCC0E980ACC7D
:1041F000923009F0AECBE82EF12C1F928F931F92D4
:10420000DF921F92CF9286EE95E09F938F931F933C
:104210000F930E942E0ACDBFDEBFC11019C090E1DE
:10422000D91216C0809100601F928F9381ED95E0A6
:104230009F938F931F930F930E942E0A809100608B
:104240008093D5600F900F900F900F900F900F906C
:1042500084E891E08093D3609093D460EFEFEE1AFE
:10426000FE0A72CADC012D923D924D925D926D92D2
:104270007D928D929D92AD92BD92CD92DD92ED9206
:10428000FD920D931D93CD93DD93FF91EF918DB72B
:104290008D938EB78D938FB78D93ED93FD93882774
:1042A00099270994DC01CB0181309105811D2D9066
:1042B0003D904D905D906D907D908D909D90AD90D6
:1042C000BD90CD90DD90ED90FD900D911D91CD9123
:1042D000DD91ED91FD910D900FBEEDBFFEBFED9113
:1042E000FD910994FB01DC0102C005900D92415043
:1042F0005040D8F70895CF93DF93EC018B8188600D
:104300008B83CE0106D02B81277F2B83DF91CF912A
:104310000895ABE0B0E0EEE8F1E26AC27C013B0157
:104320008A01FC0116821782838181FFBAC1CE0106
:1043300001965C01F7019381F30193FD859193FF51
:1043400081913F01882309F449C1853239F493FDF5
:10435000859193FF81913F01853221F4B70190E06F
:10436000B9D1E8CF912C212C312CFFE1F31538F095
:104370008B3211F190F4803209F1833229F137FC4C
:104380003CC020ED280F2A3050F536FE20C08AE0D0
:10439000989E200D1124922E06C08D3291F080330C
:1043A00071F7689430F8F30193FD859193FF819143
:1043B0003F018111DACF21C0689431F8689432F856
:1043C000F2CF689433F8EFCF689434F8ECCFEAE09A
:1043D0002E9E200D1124222E689435F8E4CF8E32C3
:1043E00029F436FCFBC0689436F8DDCF8C3619F41E
:1043F000689437F8D8CF8836B1F2982F9F7D9554BE
:104400009330D8F0833691F18337B1F1833509F0D9
:104410005EC02801F2E04F0E511CF801C080D1802F
:10442000692D70E036FC02C06FEF7FEFC6013CD112
:104430004C01689437F882010AC00C5F1F4FFFE3FC
:10444000F98388248394912C6501E89437F833FE2E
:104450002AC0522C8114910459F5552009F46ACFD1
:10446000B70180E290E036D15A94F7CFF80180810D
:1044700089830E5F1F4FE5CF2801F2E04F0E511CDC
:10448000F801C080D180692D70E036FC02C06FEF6A
:104490007FEFC60114D14C018201D7CFB70180E272
:1044A00090E018D12A942814190409F0B8F7D1CF54
:1044B000F60137FC859137FE81916F01B70190E0DD
:1044C00009D151105A94F1E08F1A9108C3CF843664
:1044D00019F0893609F073C0F80137FE67C06081B2
:1044E0007181828193810C5F1F4FF32DFF763F2EE8
:1044F00097FF09C090958095709561957F4F8F4F7C
:104500009F4F689437F82AE030E0A50113D1C82EF8
:10451000CA188C2C432C36FE0CC0E89440F8C91401
:1045200040F434FE05C032FC03C0F32DFE7E4F2E56
:10453000892C44FE90C0FE01EC0DF11D808180337A
:1045400009F082C0242D297E422E842D8870582E99
:1045500043FC8FC040FE89C09C2C821418F42C0CA4
:10456000922C981844FE8BC0B70180E390E0B2D043
:1045700042FE08C088E790E041FE02C088E590E076
:10458000B701A8D0C91408F486C0CA94D12C9FEFF3
:10459000C91AD90ACA0CDB1CF60182916F01B70156
:1045A00090E098D0AC14BD04B9F757CF6081718109
:1045B000072E000C880B990B0E5F1F4F96CFD32C44
:1045C000E894D4F82AE030E0853731F1232D297FB3
:1045D000D22E8F36F9F040F48835A1F0F7018681AC
:1045E00097812B96E2E11DC1803749F08837B1F7FA
:1045F000D4FE02C06894D2F820E130E00DC0689487
:10460000D4F8F6CF34FE03C0822F8660D82E20E186
:1046100032E002C028E030E0F801D7FE0EC0608131
:104620007181828193810C5F1F4FA50183D0C82EB9
:10463000CA183D2CE89437F86CCF6081718190E006
:1046400080E00E5F1F4FF1CF42FC02C083947DCF0C
:10465000839483947ACF842D867809F476CFF6CF2D
:10466000B70180E290E036D083948214C8F3512CD5
:1046700079CF522C5818821408F474CFF8CF842DB7
:10468000867809F47FCF8BE241FE80E247FC8DE221
:10469000B70190E076CFB70180E390E01BD09A9409
:1046A00071CF8FEF9FEF9DCFFC010590615070405F
:1046B0000110D8F7809590958E0F9F1F0895FC01EB
:1046C0006150704001900110D8F7809590958E0F41
:1046D0009F1F08950F931F93CF93DF93182F092FD8
:1046E000EB018B8181FD09C01FEF0FEF812F902F10
:1046F000DF91CF911F910F91089582FF14C02E81F9
:104700003F818C819D81281739073CF4E881F9812C
:10471000CF0101968883998310838E819F810196B2
:104720008E839F83E3CFE885F985812F0995892BB7
:10473000A1F3DACFFA01AA27283051F1203181F113
:10474000E8946F936E7F6E5F7F4F8F4F9F4FAF4F99
:10475000B1E03ED0B4E03CD0670F781F891F9A1FAC
:10476000A11D680F791F8A1F911DA11D6A0F711D60
:10477000811D911DA11D20D009F468943F912AE06C
:10478000269F11243019305D3193DEF6CF01089554
:10479000462F4770405D4193B3E00FD0C9F7F6CF85
:1047A000462F4F70405D4A3318F0495D31FD40524D
:1047B000419302D0A9F7EACFB4E0A69597958795E3
:1047C00077956795BA95C9F70097610571050895C2
:1047D0009B01AC010A2E069457954795379527956E
:1047E000BA95C9F7620F731F841F951FA01D089506
:1047F0002F923F924F925F926F927F928F929F92F1
:10480000AF92BF92CF92DF92EF92FF920F931F93DE
:10481000CF93DF93CDB7DEB7CA1BDB0BCDBFDEBFB7
:1048200009942A88398848885F846E847D848C84C2
:104830009B84AA84B984C884DF80EE80FD800C81CB
:104840001B81AA81B981CE0FD11DCDBFDEBFED0185
:104850000895AA1BBB1B51E107C0AA1FBB1FA617C7
:10486000B70710F0A61BB70B881F991F5A95A9F719
:1048700080959095BC01CD010895A1E21A2EAA1B46
:10488000BB1BFD010DC0AA1FBB1FEE1FFF1FA21700
:10489000B307E407F50720F0A21BB30BE40BF50BFD
:1048A000661F771F881F991F1A9469F76095709586
:1048B000809590959B01AC01BD01CF010895052E17
:1048C00097FB16F400940FD057FD05D0D6DF07FCF8
:1048D00002D046F408C050954095309521953F4F41
:1048E0004F4F5F4F089590958095709561957F4FDC
:1048F0008F4F9F4F08956927962769277827872725
:1049000078270895EE0FFF1F0590F491E02D09948C
:10491000FB01DC0104C08D910190801921F441500C
:104920005040C8F7881B990B0895FB01DC0102C0B9
:1049300001900D9241505040D8F70895DC0101C01C
:0E4940006D9341505040E0F70895F894FFCF7A
:10494E000155080000000055480000000055A00069
:10495E005504556A00000000E100000000FFFF7FD3
:10496E00557EC87F59FE557EC37E04FF0030200061
:10497E00E0FF88D8CD45AB891255C20D55C20555FD
:10498E0087558B55E020676F72504D564E55E0653A
:10499E00736172454D564E55E065742673554D56EE
:1049AE004E55C72055CA0355E655C85955C3085527
:1049BE00C20555C85955C80055C30400000000D99A
:0449CE00040D0A00CA
:00000001FF
