:10000000F5C4000030C500002EC500002CC500005E
:100010002AC5000028C500000C94611B24C50000FF
:1000200022C5000020C500001EC500001CC5000040
:100030001AC5000018C5000016C500000C94F51A7A
:1000400012C5000010C500000EC500000C94AC1ACB
:100050000AC5000008C5000006C5000004C5000070
:100060000C94711B00C50000FEC40000FCC400001D
:10007000FAC40000F8C40000F6C40000F4C4000094
:10008000F2C40000F0C400004300440043002D000F
:10009000410043004D002F00560043005000000077
:1000A0005500500044004900340041005600520001
:1000B0002D005500530042003A0041005600520006
:1000C0002D00440055003A0045004400420047001E
:1000D0002F0043004D005300490053002D00440001
:1000E0004100500000004D0075006C007400690074
:1000F00058002E006A00700020004F00530053008B
:1001000057002F004F0053004800570020005000B8
:1001100072006F0064002E0000000600FF0901A1BC
:1001200001150026FF00750896400009018102961E
:1001300040000901910295040901B102C009026B56
:1001400000030100803209040000020300000009DE
:1001500021110100012223000705020340000107CD
:10016000058103400001080B010202020104090499
:10017000010001020201000524001001042402060E
:10018000052406010205240103020705820310006D
:100190000409040200020A000000070503024000EF
:1001A00000070583024000000A060002EF0201403A
:1001B0000000205649443A5049443D253034583ACD
:1001C000253034580D0A0012010002EF020140D818
:1001D00004150B0001010203013C47493A25303266
:1001E000583E0D0A003C53493A303E0D0A003C533C
:1001F000433A253032583E0D0A003C47433A2530F9
:1002000032583E0D0A0020555342305F414444525B
:100210003D25640D0A002053463D253032583A25CD
:100220003032580D0A002043463D253032583A25D9
:100230003032580D0A002053423D253034580D0A03
:100240000020534C533D253032580D0A0020474CB6
:10025000453D0020534C453D002049444C3D253050
:1002600032580D0A0052513D253032583A2530346B
:10027000583A253032583A253032583A25303458D9
:100280003A253034583A253034580D0A003C525340
:10029000543A494E3E0D0A003C5253543A4F55547D
:1002A0003E0D0A003C454442475F454D5054593E7F
:1002B0000D0A003C454442475F4641494C3E0D0A09
:1002C000003C454442475F4641494C3E0D0A0020F0
:1002D00047454E3D253032583A253032583A253080
:1002E00032580D0A002047454E5F5349474E5F4F35
:1002F00046460D0A002047454E5F5349474E5F4F23
:100300004E0D0A009028001838000000205048596F
:10031000534943414C3D253032583A253032580D2F
:100320000A0020565441524745543D25640D0A00A9
:100330002056455352494F4E3D00000122310020C6
:1003400047454E5F4745545F504152414D3D253032
:1003500032583A253032583A253032580D0A0020AA
:100360005044495F57524954453D253032583A254B
:1003700030386C583A253034580D0A002050444922
:100380005F524541443D253032583A2530386C584B
:100390003A253034580D0A00205044495F455241F7
:1003A00053453D253032583A2530386C580D0A00F7
:1003B000205044495F4C454156455F50524F470DD0
:1003C0000A00205044495F454E5445525F50524FF9
:1003D000470D0A00205044495F5349474E5F4F463E
:1003E000460D0A00205044495F5349474E5F4F4E27
:1003F0003D4558543A253032580D0A002055504496
:10040000495F57524954453D253032583A253036D8
:100410006C583A253034580D0A0020555044495F35
:10042000524541443D253032583A2530366C583AD1
:10043000253034580D0A0020555044495F4552413B
:1004400053453D253032583A2530366C580D0A0058
:10045000204C4153545F58434C4B3D25640D0A00DA
:1004600020555044495F4C454156455F50524F47D7
:100470000D0A0020555044495F454E5445525F5087
:10048000524F470D0A0020555044495F5349474E8B
:100490005F4F46460D0A0020555044495F53494777
:1004A0004E5F4F4E3D4558543A253032580D0A00A4
:1004B000203F3A415243483D25640D0A00205843ED
:1004C0004C4B3D25640D0A0020434F4E4E4543548E
:1004D000494F4E3D253032580D0A002041524348C5
:1004E0003D253032580D0A00204156525F47455491
:1004F0005F504152414D455445523D253032583AA6
:10050000253032583A253032580D0A0020554E4CCD
:100510004F434B454E3D253032580D0A002048567A
:100520004354524C454E3D253032580D0A0020446C
:100530004556494345444553433D25580D0A00203F
:100540004649585F58434C4B3D25640D0A002043F3
:100550004F4E4E454354494F4E3D253032580D0ABB
:100560000020534553535F505552504F53453D253E
:100570003032580D0A002058434C4B3D25640D0A7B
:100580000020415243483D253032580D0A00204199
:1005900056525F5345545F504152414D3D253032D4
:1005A000583A253032583A253032583A25303458A6
:1005B0000D0A003C4856433A4F46463E0D0A00207D
:1005C0003C5245533A253032583E0D0A00205450D3
:1005D000495F57524954453D253032583A25303805
:1005E0006C583A253034580D0A00205450495F4564
:1005F000524153453D253032583A2530386C580D1C
:100600000A00205450495F524541443D253032583C
:100610003A2530386C583A253034580D0A002054A9
:1006200050495F4352430D0A00205450495F4C45E6
:100630004156455F50524F474D4F44450D0A0020EB
:10064000565441524745543D25640D0A00205450EC
:10065000495F454E5445525F50524F474D4F4445B8
:100660000D0A00205441524745545F504F574552A0
:100670003D253032580D0A00204156525F474554FF
:100680005F504152414D3D253032583A2530325865
:100690003A253032580D0A00205441524745545FE4
:1006A000504F5745523D253032580D0A00204156D3
:1006B000525F5345545F504152414D3D25303258B1
:1006C0003A253032583A253032583A253032580DD2
:1006D0000A00203F3A53434F50453D253032580DD4
:1006E0000A0053513D25643A25643E53434F50451B
:1006F0003D253032582C433D253032582C533D2572
:100700003032582C4C3D253032580D0A003C5741B0
:100710004954494E473E0D0A0048414C5F50524FE4
:1007200046494C45203D2048414C2F4156524455A6
:100730005F434E414E4F2E680D0A005F5F41565297
:100740005F415243485F5F203D2025640D0A005FF2
:100750004156525F494F5858585F485F203D2069C5
:100760006F6176723634647533322E680D0A004636
:100770005F435055203D20256C640D0A000A3C73F0
:100780007461727475703E0D0A00204C3D25303442
:10079000582C413D2530386C582C00204C3D2530DC
:1007A00034582C413D2530386C582C002046616966
:1007B0006C0D0A0020205044495F4F4E3A47564185
:1007C0004C3D253032580D0A0020204E564D505FCA
:1007D0004F4E3A253032580D0A0020204661696C90
:1007E0003A253032580D0A003C5245424F4F543E94
:1007F0000D0A005B544F5D002053454354494F4E52
:100800005F45524153453D253034580D0A00204381
:100810004849505F45524153453D253034580D0AF3
:10082000002055534152543D5450492042415544B3
:100830003D253034580D0A00205349473E253034B9
:10084000583A253032580D0A0020534B45590D0AAD
:10085000003C4856454E3E002050524F475F4B45A6
:10086000593D002045524153455F4B45593D0020BD
:1008700050524F4753544152543D253032580D0A7F
:1008800000203C5359533A253032583E0D0A00207F
:10089000574149540020434849505F455241534510
:1008A000002055524F575F4B45593D002052455F40
:1008B00050524F4753544152543D253032580D0A3F
:1008C000003C5359533A253032583A25643E0D0ABC
:1008D000003C5359533A253032583A25643E0D0AAC
:1008E0000020454E5445525F55524F573D253034F8
:1008F0006C583A253034580D0A0020555341525453
:100900003D555044492058434C4B3D2564204241BD
:1009100055443D253034580D0A00204641494C3A93
:10092000253032582C253032580D0A00204E564DB5
:100930003A253032582C5349423D222573220D0A64
:10094000003C4856433A5625643E00253032580D47
:100950000A002055534152543D50444920424155CC
:10096000443D253034580D0A00205643503D464141
:10097000494C0D0A002055534152543D5643500DE9
:100980000A0020424155443D2530386C583A253004
:1009900032580D0A000000000000000000004B006B
:1009A000005A630000007B0000626300000000004A
:1009B000000000000000BB400072630000008B00DC
:1009C000007263400000B9000062630000008B0009
:1009D00000B263400002BB0000F26300000000E2CE
:1009E00005181060044080770400801B11241FBE8E
:1009F000CFEFCDBFDFE7DEBF88ED90E284BF9093FD
:100A0000680090E084BF90936100E0E0F4E084E04F
:100A100083878FEF848780934C0480936C0480934A
:100A2000AC0410E6A0E0B0E6E4E9F7E502C005900A
:100A30000D92AA3AB107D9F720E6AAEAB0E601C0BA
:100A40001D92AA3BB207E1F714E0C6EFD4E004C060
:100A50002197FE010E94A52BC53FD107C9F70E942F
:100A60008F1B0C94C82BCCCAFB01A485B585ED91D6
:100A7000FC9111970190F081E02D682FCD01099430
:100A800080E094E02091040827FF04C00090010852
:100A9000009000080197B1F70895BC0180EA8093A7
:100AA000270A81E08093000A30E020E0F90183E02A
:100AB000F595E7958A95E1F7E60FF71F408150E03D
:100AC000822F877002C0559547958A95E2F78091ED
:100AD0000B0A81FFFCCF40FF0EC0009890910B0ADB
:100AE000926090930B0A2F5F3F4F20373105F1F64C
:100AF0001092000A0895009AF1CFDC011296ED9150
:100B0000FC91248125FFFDCF20E42483DC01129693
:100B1000ED91FC91628381E090E008958FB7F894A5
:100B2000109274641092B2641092B3648FBF80917B
:100B30000B0C82FDFCCF8EEF80934C0C0895F49B40
:100B40000BC08091B86481FF07C02FB7F894F29969
:100B50000AC082EF93E609C080917564803411F574
:100B600010927564089582E394E68093BC64909338
:100B7000BD648091756490E08093BA649093BB6487
:100B80001092BE641092BF64109275648EB394E0AC
:100B900089278EBB2FBF80910B0C82FDFCCF8EEF7F
:100BA00080934E0C089510928E6410928F64809101
:100BB0000B0C82FDFCCF8EEF8093420C08951092B7
:100BC00082641092836480910B0C82FDFCCF8EEFC7
:100BD0008093400C0895FC01948196FFFDCF089509
:100BE00090E080E00895809101088CBB8CB388234D
:100BF000D1F3809100088DBB8CB380588CBB9CB323
:100C000081E0911180E00895EECFCF93C82F8091BD
:100C1000040885FFFCCFC0930208E5DF882321F09C
:100C20009DB381E09C1380E0CF9108950F931F93B3
:100C3000CF93DF93EB018C01F80181918F01E5DF08
:100C4000882311F02197C1F7DF91CF911F910F9168
:100C5000089569E070E087E990E6E8DF90E00895A4
:100C600062E070E081E690E6E1DF8111CDCF80E0C7
:100C7000089562E070E08FE590E6D8DF8111C4CF7F
:100C800080E00895609315607093166080931760FC
:100C90009093186065E070E083E190E6C7DF811112
:100CA000B3CF80E008959FDF882329F09DB381E0D2
:100CB000903409F080E00895CF93DF93EA016093C8
:100CC0002660709327608093286090932960CA0102
:100CD0009695879581508093216085E68093236067
:100CE00065E070E084E290E6A1DF8823F9F0DBDFC5
:100CF0008823E1F063E070E08CE590E697DF8823DD
:100D0000A9F065E070E08FE190E690DF882371F054
:100D1000BE016E7F8DEE90E689DF882339F063E0B7
:100D200070E087E890E6DF91CF9180CF80E0DF919F
:100D3000CF910895CF93C42F60931B6070931C6074
:100D400080931D6090931E6065E070E089E190E6FD
:100D50006DDF882349F0A7DF882331F08C2F55DF22
:100D6000882311F0CF919FCF80E0CF910895482F35
:100D700060E070E180E090E0DDCFCF92DF92EF9213
:100D8000FF920F931F93CF93DF93CCEDD0E68A01B0
:100D900004521F49C017D107C1F06B017C012FEF2E
:100DA000C21AD20AE20AF20A4989C4DF21968111E5
:100DB00009C0DF91CF911F910F91FF90EF90DF90CD
:100DC000CF900895C701B601E5CF81E0F2CFCF9370
:100DD000DF934130510529F44091ED60DF91CF91CF
:100DE000A9CFEA0160932660709327608093286002
:100DF00090932960842F81508093216084E68093B2
:100E0000236065E070E084E290E610DF8823F1F073
:100E10004ADF8823D9F063E070E08CE590E606DFD6
:100E20008823A1F065E070E08FE190E6FFDE882383
:100E300069F0BE018DEE90E6F9DE882339F063E0BB
:100E400070E087E890E6DF91CF91F0CE80E0DF910F
:100E5000CF9108950F931F93CF93DF93EB018C01F4
:100E6000C2DE882331F09DB3F80191938F01219761
:100E7000B9F7DF91CF911F910F910895CF93DF9331
:100E8000EA016093266070932760809328609093B6
:100E90002960CA019695879581508093216085E2EB
:100EA0008093236065E070E084E290E6BFDE8823F3
:100EB00089F0F9DE882371F065E070E08FE190E65B
:100EC000B5DE882339F0BE016E7F83EE90E6DF91B8
:100ED000CF91C0CF80E0DF91CF910895CF93DF9382
:100EE000EA014130510559F4CDDE811104C080E0A2
:100EF000DF91CF9108959DB39093E360F9CF609314
:100F00002660709327608093286090932960842FD7
:100F100081508093216084E28093236065E070E0DB
:100F200084E290E683DE882311F3BDDE8823F9F2A4
:100F300065E070E08FE190E679DE8823C1F2BE01C2
:100F400083EE90E6DF91CF9185CFCF93DF938091B1
:100F5000E3606091E4603091E560843B51F46F7729
:100F600070E07F5EF9990FC090E080E0DF91CF9153
:100F70000895732F803BB1F78091FA629091FB62E4
:100F8000680F791FEFCFC091E860D091E96090E0E1
:100F900080E0AE01A3DF882339F3CE010196E6CFCE
:100FA000CF93DF93F99905C090E080E0DF91CF9176
:100FB00008952091E3606091E4607091E560809114
:100FC000E6609091E760C091E860D091E960203BD5
:100FD00049F480589F4FAE0151DF882329F3CE0199
:100FE0000196E4CF243B39F46F7770E07F5E072EE3
:100FF000000C880B990BAE0171DFEFCFD1CFCF93EF
:10100000DF93F99905C090E080E0DF91CF910895DA
:101010002091E3606091E4607091E5608091E6600A
:101020009091E760C091E860D091E960203B49F47D
:1010300080589F4FAE0122DF882329F3CE0101960D
:10104000E4CF243B41F46F7770E060587F4E072E69
:10105000000C880B990BAE0141DFEECFD0CFCFCF84
:101060008091080890910908880F991F80930808BB
:101070009093090880E0C9DD20915763309158634F
:1010800050E040E060E071E782E090E00E94822B57
:10109000DA01C9010196A11DB11DB595A7959795D6
:1010A000879580349105A105B1057CF0009721E07A
:1010B000A207B10520F08FEF9FEFA0E0B0E0809392
:1010C00008089093090881E0089580E490E0A0E08A
:1010D000B0E0F5CF8091576389518DBB8DB38832D5
:1010E00070F08DB390E08093576390935863B8DFAE
:1010F00063E070E087E890E699DD90E0089590E085
:1011000080E0089582CDCF93C82F83EF7EDD8823C2
:1011100019F08C2FCF91F6CF80E0CF91089582E720
:1011200074DD882331F070DD882319F08DB38111CF
:10113000F6CF81E00895CF93C82F84E666DD88233B
:1011400019F08C2FCF91DECF80E0CF91089584E20B
:101150005CDD811159CD80E00895CF93DF93D82FC6
:10116000C92F88E652DD882361F08D2F4EDD88235C
:1011700041F089E64ADD882321F08C2FDF91CF9161
:1011800044CD80E0DF91CF91089530E020E04091A0
:10119000080442FFFCCF4091080442FDFCCF2F5FC2
:1011A0003F4F8217930799F7089584E18093660073
:1011B0008FEF8093070610920E0610920F0681E0C3
:1011C0008093000683E08093010684E0809302060A
:1011D0008AEF8093040684E480930B0680910806CE
:1011E00080FDFCCF81E180930A068091070681FF94
:1011F000FCCF20910E0630910F06C90143E0880F05
:10120000991F4A95E1F7220F331F10920006820FB3
:10121000931F0895CF92DF92EF92FF92AB01BC0132
:1012200080912763282F30E0322F22278091FC62A3
:10123000820F932F911D919581959109B0E0A0E0C7
:1012400084239523A623B72321E0C0902A63D0905E
:101250002B63E0902C63F0902D63C816D906EA0644
:10126000FB0609F420E080932A6390932B63A093FC
:101270002C63B0932D63822FFF90EF90DF90CF907F
:1012800008958091AB60823081F01092000A109234
:101290001A0B89EA95E080931C0B90931D0B8FE04D
:1012A0008093100B82E08093AB6008958091AB60D7
:1012B000813089F08FE08093000A10921A0B84EC41
:1012C00092E680931C0B90931D0B85E08093100B8E
:1012D00081E08093AB600895823249F460910263AB
:1012E0007091036380910463909105630895803B3E
:1012F00049F46091FE627091FF6280910063909169
:1013000001630895813B51F3823B49F46091066388
:101310007091076380910863909109630895833BFE
:1013200049F460910A6370910B6380910C63909112
:101330000D630895843B89F42091276330912863DD
:10134000609116637091176380911863909119638F
:10135000620F731F811D911D0895803C49F46091B7
:10136000FA627091FB628091FC629091FD62089537
:10137000813C09F4BECF843C09F4B0CF853C49F4EC
:1013800060910E6370910F6380911063909111636F
:101390000895863C49F460911263709113638091C3
:1013A00014639091156308956091166370911763AB
:1013B0008091186390911963089530E020E0409186
:1013C000080446FFFCCF4091080446FDFCCF2F5F88
:1013D0003F4F8217930799F781E00895FB9B08C060
:1013E00081E090E0EADF049888E880930608FB98A3
:1013F00081E00895F3DF811107CC80E00895FB9927
:1014000009C081E090E0D9DF0C9A049A80EC8093C7
:101410000608FB9A81E0089582E090E0CEDFEFDFDE
:10142000811102C080E0089580E86CDE8823D1F34A
:10143000E1DF882389F3E99BEFCF0895EF92FF92D4
:101440000F931F93CF93DF937C018B01D8DFE701CC
:101450008991DBDB882319F001501109C9F7DF916D
:10146000CF911F910F91FF90EF900895F89907C0C9
:1014700064E070E08FE490E6E1DF90E0089581E0C1
:1014800090E00895CF92DF92EF92FF928FECC82EFA
:10149000DD24D394E12CFD2CC0920660D09207602D
:1014A000E0920860F092096065E070E085E090E607
:1014B000C5DF81119FDF8DB3807C71F781E0FF90E4
:1014C000EF90DF90CF900895CF93C82F8AEC91E0F2
:1014D000A0E0B1E08093016090930260A09303606C
:1014E000B093046065E070E080E090E6A7DF8823B9
:1014F00019F08C2FCF9106CE80E0CF9108958BEC20
:1015000091E0A0E0B1E08093016090930260A0932D
:101510000360B093046065E070E080E090E68EDFE9
:10152000882311F081E0EECD80E00895CF93C09143
:10153000E3608091E4609091E560A091E660B091F5
:10154000E76080930F6090931060A0931160B09358
:10155000126098DFC11111C080E4B6DF811104C0B0
:1015600090E080E0CF910895CADF8823C9F354DF6B
:101570008823B1F387DF90E0F5CF81E090E0C730BA
:1015800089F788E1A1DF882359F365E070E08EE0F8
:1015900090E654DF882321F384E637DB882301F3C8
:1015A0008FEF33DBE5CF1ADF0C98049A80E190E0EF
:1015B00004DF0C9A82E090E000DF0C9880E190E07C
:1015C000FCDE1DCF67E070E180E090E05BDB8DB377
:1015D0008370C1F78DB30895CF93C82FF3DF60E018
:1015E00070E180E090E04EDB882331F08DB38C1306
:1015F00003C081E0CF91089580E0B9DB8823D1F367
:10160000CC23B9F38C2FCF91B2CB80E0E5DF90E013
:10161000089580E0E1CFCF92DF92EF92FF926B01CD
:101620007C0188E0D9DF882371F04FEFC701B60154
:1016300081DB882341F0C6DF837729F4FF90EF90A8
:10164000DF90CF90E6CF80E0FF90EF90DF90CF90DB
:10165000089566E070E180E090E014DB8DB3837064
:10166000C1F78DB30895F5DF982F937781E009F0E6
:1016700080E00895CF93C82FECDF60E070E180E058
:1016800090E000DB882331F08DB38C1303C081E040
:10169000CF91089580E06BDB8823D1F3CC23B9F39D
:1016A0008C2FCF9164CB80E0E5DF90E0089580E05F
:1016B000E1CF8FE0DFDF8FE1DDDF80E0DBDF90E097
:1016C0000895F7CFCF92DF92EF92FF92CF93DF93FF
:1016D0006B017C01EA0180E0CDDF882389F0AE0157
:1016E000C701B60174DB882359F085E0C3DF882386
:1016F00039F0DF91CF91FF90EF90DF90CF90B3CF93
:1017000080E0DF91CF91FF90EF90DF90CF90089530
:10171000CF92DF92EF92FF92CF93DF936B017C0128
:10172000EA0180E0A7DF882389F0AE01C701B60196
:10173000C3DA882359F085E09DDF882339F0DF91F3
:10174000CF91FF90EF90DF90CF908DCF80E0DF9131
:10175000CF91FF90EF90DF90CF900895CF92DF92DE
:10176000EF92FF926B017C0188E084DF882371F0A7
:101770004FEFC701B601DEDA882341F06ADF8377D5
:1017800029F4FF90EF90DF90CF9091CF80E0FF9011
:10179000EF90DF90CF90089562E070E180E090E0FC
:1017A00071DA8DB38370C1F78DB30895F5DF84E0EE
:1017B000DEDAF2DF80E0DBDA90E00895CF93C82F25
:1017C000EBDF60E070E180E090E05CDA882331F0EC
:1017D0008DB38C1303C081E0CF91089580E0C7DA08
:1017E0008823D1F3CC23B9F38C2FCF91C0CA80E0EA
:1017F000E5DF90E0089580E0E1CFCF92DF92EF92B5
:10180000FF926B017C0188E0D9DF882371F04FEFF4
:10181000C701B6018FDA882341F0BEDF837729F450
:10182000FF90EF90DF90CF90E6CF80E0FF90EF90B9
:10183000DF90CF90089590E080E0089590E080E000
:10184000089590E080E00895DC01ED91FC91019015
:10185000F081E02D0994CF92DF92EF92FF920F93E7
:101860001F93CF93DF937C0110E000E06B0181E0D8
:10187000C81AD108672B91F1F701C1917F018C2F14
:1018800082958F7060E3680F6A3310F067E3680F2A
:1018900083EB90E6D9DFCF7060E36C0F6A3310F012
:1018A00067E36C0F83EB90E6CFDFC114D10479F0CE
:1018B0000F5F1F4F71F4C6EAD0E66991662339F0D5
:1018C00083EB90E6C1DF892BC1F710E000E0B601A1
:1018D000CDCF6AE383EB90E6B7DFF9CF83EB90E6F9
:1018E000DF91CF911F910F91FF90EF90DF90CF90FC
:1018F0000895CF93DF93EC016DE0A6DF6AE0CE019F
:10190000A3DFCE01DF91CF910895CF93DF93CDB7C1
:10191000DEB72E97CDBFDEBF84E395E089879A8737
:101920001B861C8682E08C8383EB90E68D879E87E6
:10193000AE01495E5F4F6D897E89CE0101960E949E
:101940009E2883EB90E62E96CDBFDEBFDF91CF9130
:101950000895BF92CF92DF92EF92FF920F931F9361
:10196000CF93DF9300D000D0CDB7DEB72091AC602D
:101970003091AD604091AE605091AF60211531055E
:101980004105510521F420E835E240E050E060E0F7
:1019900078E689E899E00E94602BDA01C901019696
:1019A000A11DB11D6C017D01F694E794D794C794F5
:1019B00020E6C216D104E104F10408F07BC06C01FA
:1019C0007D01E894C0F89AECB92E1F92BF92FF9265
:1019D000EF92DF92CF9282E899E09F938F9303EB8F
:1019E00010E61F930F9391DFCDBFDEBFD701C60175
:1019F00080549109A109B109803C9F4FA105B1050F
:101A000008F05DC09091B260955040912A6050916D
:101A10002B6060912C6070912D6049835A836B8399
:101A20007C83E091B160E370EC0FFD2FF11D21810B
:101A30008091B060280F3327331F80E0232B09F0FB
:101A400088E09430D0F5890F9FB7F89422E1209375
:101A5000E20520E220930408C0920808D092090809
:101A60008093070880E880930508B0920608F19AF1
:101A70009FBF85E799E09F938F9383EB90E69F93B9
:101A80008F9343DF0E9440050F900F900F900F90AF
:101A90008EB38F718EBBF09B1AC02496CDBFDEBF74
:101AA000DF91CF911F910F91FF90EF90DF90CF903A
:101AB000BF90FCCB88ECB82E88CF8D5FC5CF89E670
:101AC00099E09F938F931F930F931FDFDDCF249691
:101AD000CDBFDEBFDF91CF911F910F91FF90EF90AF
:101AE000DF90CF90BF90CDCBF19B04C0F39B02C0A1
:101AF00030DFF49AF3980895CF93CFB7F89481E14B
:101B00008093E20580E880931604069A80E2809331
:101B10000408209157633091586350E040E060E240
:101B20007EE480E090E00E94822BDA01C9010196F8
:101B3000A11DB11DB595A7959795879536E0880F9E
:101B4000991FAA1FBB1F3A95D1F7009721E0A20762
:101B5000B10520F08FEF9FEFA0E0B0E08034910559
:101B6000A105B10520F480E490E0A0E0B0E080930E
:101B70000808909309088BE6809307088AE0809311
:101B8000050880E88093060880910808909109086C
:101B90009F938F9382E599E09F938F9383EB90E6D9
:101BA0009F938F93B2DECFBF0F900F900F900F9047
:101BB0000F900F90CF91089588EE97E09F938F93A9
:101BC00083EB90E69F938F93A0DE8091B560909118
:101BD000B66001D888ED91E084BF909300010F902A
:101BE0000F900F900F90FFCFF9991DC069E070E042
:101BF00083E590E623DC8823C9F00EDC8823B1F06E
:101C0000F99A8DB31F928F9389EC97E09F938F93EE
:101C100083EB90E69F938F9378DE0F900F900F9059
:101C20000F900F900F9081E090E008958DB31F9278
:101C30008F938AED97E09F938F9383EB90E69F932A
:101C40008F9363DE0F900F900F900F900F900F9077
:101C500090E080E008958CEA97E09F938F9383EB68
:101C600090E69F938F9351DE8091576390915863D4
:101C70000F900F900F900F908233910579F0C297DB
:101C80008233910540F0809357639093586334DF1B
:101C90008ADC90E0089582E390E0F5CF90E080E068
:101CA0000895CF92DF92EF92FF920F931F93CF93FD
:101CB000DF93C091E360C090E460D090E560E09075
:101CC000E660F090E7608C2F07DBC60ED71EE81E9B
:101CD000F91E0091E8601091E960C0920F60D09207
:101CE0001060E0921160F092126098012150310969
:101CF00020930B6030930C6024E620930D60FF92DC
:101D0000EF92DF92CF921F930F938BE997E09F930F
:101D10008F9383EB90E69F938F93F7DDB3DB8DB7C3
:101D20009EB70A968DBF9EBFC03C09F43FC0C03B22
:101D300009F47AC0C13C09F477C0C23209F478C012
:101D4000C13B09F475C0C43C09F472C0C53C09F438
:101D500073C0C23B31F088E0C33B21F090E080E0EB
:101D600006C08CE4B1DB81110BC080E090E0DF9114
:101D7000CF911F910F91FF90EF90DF90CF9008953A
:101D800065E070E08EE090E659DB882371F364E053
:101D900070E08AE090E652DB882339F3B8018DEEDB
:101DA00090E64CDB882309F36DDBE0CFD3E286E2DB
:101DB000C5E28ADB8823C9F2A2DB8823B1F262DBA9
:101DC000882399F28D2F80DB882379F265E070E01B
:101DD0008EE090E633DB882309F4C7CF64E070E03F
:101DE0008AE090E62BDB882309F4BFCFB8018DEEA3
:101DF00090E624DB882309F4B8CF8C2F65DB882399
:101E000009F4B3CF65E070E08EE090E617DB88233D
:101E100009F4ABCF84E60E940506882309F4A5CF18
:101E20008FEF0E940506BECFD3E286E2CDE2C1CF9E
:101E3000D3E386E3C5E3BDCFD3E286E2CAE1B9CFFF
:101E4000CF92DF92EF92FF920F931F93CF93DF9386
:101E5000C090E460D090E560E090E660F090E760CC
:101E60008091E36039DAC60ED71EE81EF91EC091D4
:101E7000E860D091E960FF92EF92DF92CF92DF931A
:101E8000CF938AE897E09F938F9383EB90E69F939D
:101E90008F933BDD83E418DBEDB7FEB73A96EDBFD9
:101EA000FEBF882309F45AC0C130D10511F5C09294
:101EB0000660D0920760E0920860F092096065E0E9
:101EC00070E085E090E6BADA882309F447C092DA38
:101ED000882309F443C08DB38093E36082E090E0EF
:101EE000DF91CF911F910F91FF90EF90DF90CF90F6
:101EF0000895C0920F60D0921060E0921160F0924D
:101F00001260CE01019780930B6090930C6084E285
:101F100080930D6065E070E08EE090E68FDA8823B4
:101F2000E9F064E070E08AE090E688DA8823B1F0B6
:101F300055DA0CED10E69E0124523F4979010E94CA
:101F4000F305882359F08DB3F80187830F5F1F4F86
:101F50000E151F05A1F7CE010196C2CF90E080E0DB
:101F6000BFCFCF93DF93C0E0DCE018821092040C67
:101F700080E894E68093060C9093070C81E08093B0
:101F8000010C1EBA1FBA1CBA1092766410927764C4
:101F9000109275641092746410927364109272645B
:101FA0004AE450E065E979E088E794E60E949528E4
:101FB000EAE5F3E681EA808780E28187128613866C
:101FC00081E090E08487958782E090E0868797871C
:101FD000108A118A83E88883DF91CF9108958AE17E
:101FE0008A95F1F700C08FB7F89410920608109206
:101FF00005081CBA1DBA95E19093E205F1988FBFD0
:1020000088E0809312040298039808958091AB6051
:10201000843081F01092000A10921A0B82E291E152
:1020200080931C0B90931D0B8FE08093100B84E02A
:102030008093AB60809106088111D1DF00980198F0
:10204000029880915663833019F4049A0698089593
:102050000498FCCFCF93DF93E2E1F1E03197F1F701
:1020600000C00000C1E0D0E002C0CC0FDD1F8A95A7
:10207000E2F70E9430068DB390E08C239D23892BDC
:10208000C1F781E0DF91CF910895CF93DF93E2E133
:10209000F1E03197F1F700C00000C1E0D0E002C0EC
:1020A000CC0FDD1F8A95E2F70E9430068DB390E0D9
:1020B0008C239D23892BC1F381E0DF91CF9108957B
:1020C000CF93DF93E2E1F1E03197F1F700C0000038
:1020D000C1E0D0E002C0CC0FDD1F8A95E2F70E947C
:1020E00039068DB390E08C239D23892BC1F381E0C9
:1020F000DF91CF910895CF93C82F88E598E09F9303
:102100008F9383EB90E69F938F93FFDB6AE070E001
:1021100083E690E60E9416060F900F900F900F90A6
:10212000811103C080E0CF91089584E0C9DF882346
:10213000C9F3CC23C1F366E070E087E990E6CF9164
:102140000C941606F9992CC081E0D5DF882359F14B
:1021500082E191E00197F1F700C000000E9439068A
:10216000EC99FCCF0E943006882341F0E89906C024
:10217000F99AE0914E63F0914F6309958DB31F92E8
:102180008F938BE499E09F938F9383EB90E69F93DB
:102190008F93BBDB0F900F900F900F900F900F90CD
:1021A00081E090E0089590E080E00895BF92CF92A2
:1021B000DF92EF92FF920F931F93CF93DF93F899E3
:1021C0000CC010E0812FDF91CF911F910F91FF90F4
:1021D000EF90DF90CF90BF9008958091E360853CB1
:1021E00081F700911263109113638091E8609091E0
:1021F000E9600817190729F7C090E460D090E560FE
:10220000E090E660F090E76080911C6390911D6320
:102210008C159D05B1F60E9440051F930F93FF9208
:10222000EF92DF92CF9281EE98E09F938F93C3EB72
:10223000D0E6DF93CF9369DB8091B5609091B66073
:102240000E94EB0581EA98E09F938F93DF93CF93F1
:102250005CDB6AE070E087E790E60E9416062DB727
:102260003EB7225F3F4F2DBF3EBF882309F4A9CF61
:1022700085E026DF882309F4A4CF66E070E087E9D3
:1022800090E60E941606882309F49BCF82E0FDDECB
:102290008DB39DB386958695BB24B3948B258170B1
:1022A0001F928F931F929F9381ED98E09F938F933E
:1022B000DF93CF932ADB8091B5609091B6600E9446
:1022C000EB05A801C701B6010E945C0683EF91E00F
:1022D0000197F1F700C0000063E070E084E890E649
:1022E0000E94160682E0B6DE8DB39DB38695869574
:1022F0008B2581701F928F931F929F9381EC98E0A2
:102300009F938F93DF93CF9300DB8091B560909183
:10231000B6600E94EB0563E070E081E890E60E9401
:1023200016068DB79EB740968DBF9EBFF9990FC018
:1023300066E070E087E990E6DF91CF911F910F9101
:10234000FF90EF90DF90CF90BF900C94160681E045
:10235000D2DE182F882361F383E097DE8DB31F92BE
:102360008F938CEA98E09F938F93DF93CF93CDDA8E
:102370000F900F900F900F900F900F9023CF4F92D0
:102380005F926F927F92AF92BF92CF92DF92EF9265
:10239000FF920F931F93CF93DF9300D000D0CDB760
:1023A000DEB7F99914C002DF90E02496CDBFDEBFFE
:1023B000DF91CF911F910F91FF90EF90DF90CF9021
:1023C000BF90AF907F906F905F904F9008958091F5
:1023D000E360C090E460D090E560E090E660F0904B
:1023E000E76096010091E8601091E9609EE4980F23
:1023F000923008F046C08CEDE82E80E6F82EC90138
:102400008C5D90466C01C7018C5D904680179107EA
:10241000B0F5F701818990E089839A83C6018E0D1A
:102420009F1D8B839C83B8D9CE0101965C0166E029
:1024300070E180E090E0F50141915F012B013C01EA
:10244000FFEF4F1A5F0A6F0A7F0A0E949A068111F6
:1024500002C080E0A9CFC301B2016A3020E1720757
:102460008105910541F787E00E94B706882389F32B
:1024700093D99FEFE91AF90A877029F2EACF81E030
:1024800093CF823221F09CE3980F923060F484D98C
:10249000C701B60188279927A8010E94E706811184
:1024A0001DC090E024C0803B11F0803C11F560918C
:1024B000FA627091FB62C60ED71EF12CE12CC701A7
:1024C000B6010E940A09882321F066D984E00E949F
:1024D000B70662D9A801C701B601DFCF83E00E9429
:1024E000B7068823F1F258D9877091E0D1F6892F89
:1024F0005BCFC701B60188279927A8010E94E7068C
:1025000053CFCF92DF92EF92FF92CF93DF93F9995F
:1025100009C04CDE90E0DF91CF91FF90EF90DF900B
:10252000CF9008958091E360C090E460D090E56022
:10253000E090E660F090E760C091E860D091E960DB
:10254000823231F09EE4980F923010F0843C91F486
:1025500083E134D9811102C080E0DCCFAE01C70134
:10256000B6010E94BD068823B9F316D98377A1F777
:1025700042D9D0CF803C11F0853CC9F4C701B601E7
:102580000E940A09882319F0C701B60136D982E0F2
:1025900015D9882309F3AE01C701B6010E94BD0613
:1025A0008823D1F2F9D88377B9F625D9B3CF803B08
:1025B00009F580E8E80EF11CFA9909C0C701B601D7
:1025C0000E940A09882319F0C701B60116D982E0D2
:1025D000F5D8882309F4C0CFAE01C701B6010E9427
:1025E0005C06882309F4B8CFD7D8837709F0B4CF35
:1025F00002D990CFAE01C701B6010E94E7068ACF8B
:10260000CF92DF92EF92FF92CF93DF93F99909C0B7
:10261000CDDD90E0DF91CF91FF90EF90DF90CF90F4
:1026200008958091E360C090E460D090E560E09010
:10263000E660F090E760C091E860D091E960823296
:1026400031F09EE4980F923010F0843CA1F480E1C8
:1026500011D8811102C080E0DCCFAE01C701B60104
:102660000E94E7068823B9F385E104D8882399F30B
:102670000E94330BCECF803C11F0853C29F4AE0193
:10268000C701B6011FD8C5CF803B39F4C701B601D9
:1026900080589F4FAE013CD8BCCFAE01C701B601F8
:1026A0000E94E706B6CFCF92DF92EF92FF92CF93D0
:1026B000DF93F99909C07ADD90E0DF91CF91FF9027
:1026C000EF90DF90CF9008958091E360C090E46038
:1026D000D090E560E090E660F090E760C091E8603F
:1026E000D091E960823231F09EE4980F923010F080
:1026F000843CA9F483E10E943A0B811102C080E07E
:10270000DBCFAE01C701B6010E94BD068823B9F335
:102710000E94290B837799F70E94570BCDCF803CFD
:1027200011F0853CE1F4C701B6010E940A09882333
:1027300019F0C701B60112D882E00E943A0B882333
:10274000F1F2AE01C701B6010E94BD068823B9F2BD
:102750000E94290B837799F60E94570BADCF803BDF
:1027600029F580E8E80EF11CFA990AC0C701B60104
:102770000E940A09882321F0C701B6010E94AE0B0E
:1027800082E00E943A0B882309F4B9CFAE01C70159
:10279000B6010E945C06882309F4B1CF0E94290B80
:1027A000837709F0ACCF0E94570B86CFAE01C701EB
:1027B000B6010E94E70680CFCF92DF92EF92FF92A0
:1027C000CF93DF93F99909C0F1DC90E0DF91CF91CD
:1027D000FF90EF90DF90CF9008958091E360C090DC
:1027E000E460D090E560E090E660F090E760C09132
:1027F000E860D091E960823231F09EE4980F923027
:1028000010F0843CB1F480E00E943A0B811102C0C8
:1028100080E0DBCFAE01C701B6010E94E706882346
:10282000B9F385E10E943A0B882391F30E94330BA0
:10283000CCCF803C11F0853C31F4AE01C701B6012C
:102840000E94620BC2CF803B41F4C701B6018058A1
:102850009F4FAE010E94880BB8CFAE01C701B601F1
:102860000E94E706B2CFCF92DF92EF92FF92CF9312
:10287000DF93F99909C09ADC90E0DF91CF91FF9046
:10288000EF90DF90CF9008958091E360C090E46076
:10289000D090E560E090E660F090E760C091E8607D
:1028A000D091E960823231F09EE4980F923010F0BE
:1028B000843CA9F483E10E94EC0A811102C080E00B
:1028C000DBCFAE01C701B6010E94BD068823B9F374
:1028D0000E94E20A837799F70E94090BCDCF803CD2
:1028E00011F0853CE9F4C701B6010E940A0988236A
:1028F00021F0C701B6010E940B0B82E00E94EC0A96
:102900008823E9F2AE01C701B6010E94BD06882303
:10291000B1F20E94E20A837791F60E94090BACCFD4
:10292000803B29F580E8E80EF11CFA990AC0C7013E
:10293000B6010E940A09882321F0C701B6010E944E
:102940000B0B82E00E94EC0A882309F4B8CFAE0199
:10295000C701B6010E945C06882309F4B0CF0E942B
:10296000E20A837709F0ABCF0E94090B85CFAE0155
:10297000C701B6010E94E7067FCFCF93DF9385E9B9
:1029800098E09F938F9383EB90E69F938F930E94A1
:10299000850C0E9440050F900F900F900F90F999B1
:1029A00002C080E0A8DB83E698E09F938F93C3EB9F
:1029B000D0E6DF93CF930E94850C6AE070E08DE64D
:1029C00090E60E9416060F900F900F900F908111C5
:1029D00002C020E071C083E073DB8823D1F366E09E
:1029E00070E087E990E60E941606882391F38FE84D
:1029F00098E09F938F93DF93CF930E94850C8FE194
:102A000091EA27E0815090402040E1F700C00000AB
:102A10008FE191EA27E0815090402040E1F700C02B
:102A200000000E94400585E015DB80E013DB8DB3DC
:102A30001F928F9381E898E09F938F93DF93CF93BA
:102A40000E94850C82E191E00197F1F700C000003F
:102A50008DB79EB70A968DBF9EBF0E943906EB992F
:102A6000FCCF0E943006882349F0EB9907C081E033
:102A700042DB882309F4ADCF83E007DB8DB31F92DF
:102A80008F938FE698E09F938F9383EB90E69F93CD
:102A90008F930E94850CFA9AF99AE0914E63F09117
:102AA0004F63099521E00F900F900F900F900F90BA
:102AB0000F90892B09F48DCF822FDF91CF9108954C
:102AC0008091E360811103C058DF90E0089581E0B8
:102AD00090E00895F5CFF4CF8091E360811103C0B9
:102AE0004CDF90E00895873059F46091E460709174
:102AF000E5608091E6609091E7600E94FD0BF1CF68
:102B000081E090E008958091E360811103C035DF9A
:102B100090E00895873059F46091E4607091E56029
:102B20008091E6609091E7600E94AE0BF1CF81E06A
:102B300090E008958091E360811103C01EDF90E072
:102B40000895873059F46091E4607091E560809158
:102B5000E6609091E7600E940B0BF1CF81E090E07E
:102B60000895882349F02FE181EA97E021508040C1
:102B70009040E1F700C000006B98809112048860DB
:102B800080931204809113048860809313048091D1
:102B900010048860809310048091110488608093F1
:102BA000110480915663833051F080911404886041
:102BB000809314048091160488608093160408950D
:102BC000882319F16B9A90915663933051F090914C
:102BD0001404977F9093140490911604977F909318
:102BE000160490911104977F909311049091100412
:102BF000977F9093100490911204977F9093120402
:102C000090911304977F909313046111AACF0895B4
:102C1000FDD90C98049A069A61E081E0D1DF0C9A04
:102C200082E191E00197F1F700C000000E947C0D65
:102C300080E190E00E94DD0965E070E08AE490E6C2
:102C40000E941E0A811105C00E94D30A0E94D30A65
:102C5000F3CF0E94FA098823B9F38DB38530A1F729
:102C60008DB31F928F9384EB97E09F938F9383EBA9
:102C700090E69F938F930E94850CF89A0F900F9087
:102C80000F900F900F900F9081E090E00895E0E09A
:102C9000FAE0108280E68093010A82E080932B0A9A
:102CA00080932D0A83E08093270A1092210A81E005
:102CB000808383EF91E00197F1F700C00000089551
:102CC000CF92DF92EF92FF920F931F93CF93DF93F8
:102CD00000D0CDB7DEB71FBA99D9019A61E081E083
:102CE0006FDF83ED90E30197F1F700C00000809162
:102CF000F8629091F962079720F08091E26081116B
:102D000002C0F59B12C00198C2DF699A81E598E084
:102D10009F938F9383EB90E69F938F930E94850CF4
:102D2000FE9A0F900F900F900F909FE1E1EAF7E06D
:102D30009150E040F040E1F700C000001FB7F89468
:102D400080E18093E20580E880931204029A80E299
:102D50008093040880E09AE0809308089093090823
:102D60008BE6809307088AE08093050888EC8093BF
:102D7000060880910808909109089F938F9381E23B
:102D800098E09F938F9383EB90E69F938F930E949D
:102D9000850C1FBF84E190E00E94C50882EC0E9470
:102DA00005060F900F900F900F900F900F908111CC
:102DB0000DC090E080E00F900F90DF91CF911F91B8
:102DC0000F91FF90EF90DF90CF90089585E00E94E3
:102DD0008208882371F38FE80E9405068823D9F3BF
:102DE0000E9404068823B9F38DB38038A1F7F89ABE
:102DF00089E4E82E88E0F82E93EBC92E90E6D92ED0
:102E0000FF92EF92DF92CF920E94850C03E510E6CD
:102E10000F900F900F900F90F80181918F010E94F9
:102E20000506882331F2F0E60C351F07A9F718E0F4
:102E300084E190E00E94C50880E80E9405068111A7
:102E400003C01150A9F7DCCF0E9404068823C9F300
:102E50008DB38230B1F719821A8281EC9FE30E9410
:102E6000AD08882381F10E94A708882361F18DB302
:102E70008A830E94A708882311F08DB38983298152
:102E80003A812E3082E9380739F084E02F3091E919
:102E9000390719F082E001C088E08093DA601F9260
:102EA0008F933F932F9388E398E09F938F9383EBC7
:102EB00090E69F938F930E94850CF99ACDBFDEBF59
:102EC00081E090E078CF29813A81E4CFCF931092CE
:102ED0002E638FEF9FEFDC0180932A6390932B6327
:102EE000A0932C63B0932D6380EF95E080934E63A5
:102EF00090934F638EE19CE0809350639093516375
:102F000081E29CE080935263909353638BE19CE059
:102F1000809354639093556379D808980998019ADF
:102F200061E081E04DDE83ED90E30197F1F700C0B1
:102F3000000001988091F8629091F962079740F043
:102F40008091E360882321F08091DB60811102C0D1
:102F5000F59B26C0C0912963C13011F11F92CF9318
:102F600081E499E09F938F9383EB90E69F938F93F7
:102F70000E94850C8CDE0F900F900F900F900F9099
:102F80000F90C1119BC0689A8FE99FE00197F1F7FC
:102F900000C000001092010A1092000A68986A9816
:102FA000009A83ED90E30197F1F700C000000098CC
:102FB000109BFECFCFB7F89480E18093E20580E2CA
:102FC00080930408209157633091586350E040E0AB
:102FD00060E071E782E090E00E94822BDA01C90193
:102FE0000196A11DB11DB595A7959795879580343C
:102FF0009105A105B1050CF466C0009721E0A20778
:10300000B10520F08FEF9FEFA0E0B0E080930808BB
:10301000909309088BE2809307088AE08093050863
:1030200088EC8093060880910808909109089F9386
:103030008F93809158638F93809157638F938AEF1A
:1030400098E09F938F9383EB90E69F938F930E94DA
:10305000850CCFBF8DB79EB708968DBF9EBF6BE026
:1030600070E08CE890E60E941606882389F10E94A1
:10307000F305882369F18DB3853151F562E070E085
:103080008AE890E60E941606811125C09DB38CB394
:103090001F929F931F928F938AE199E09F938F9342
:1030A00083EB90E69F938F930E94850C8DB79EB71C
:1030B00008968DBF9EBF90E080E05BC0C23009F0F3
:1030C00063CF6A9A61CF80E490E0A0E0B0E09ECF49
:1030D0000E943008C4CF60E270E08EE293E60E9466
:1030E0002A07882399F28EE293E69F938F9380912B
:1030F00038631F928F938CE299E09F938F9383EBB9
:1031000090E69F938F930E94850C809138632DB732
:103110003EB7285F3F4F2DBF3EBF863361F585E048
:103120009BE080934E6390934F638FE298E080938F
:103130005063909351638AE995E180935263909331
:10314000536383E394E18093546390935563809138
:103150002E63EEE2F3E6803211F4E2E3F3E684E07C
:10316000A3EEB0E601900D928A95E1F7F89A85E01A
:1031700090E0CF9108958533A9F481E69BE0809398
:103180004E6390934F638EE298E0809350639093E8
:1031900051638BE695E180935263909353638CED7A
:1031A00093E1D1CF8433A9F483E59BE080934E6310
:1031B00090934F638FEF97E08093506390935163A8
:1031C00083E895E1809352639093536383E593E1A1
:1031D000BACF8333A9F489E59BE080934E63909343
:1031E0004F638EEF97E080935063909351638AE62C
:1031F00095E1809352639093536380E093E1A3CF72
:103200008233A9F487EF9BE080934E6390934F63E2
:1032100080ED97E080935063909351638CE695E145
:10322000809352639093536381E892E18CCF803313
:1032300009F02CCF86ED9BE080934E6390934F6313
:1032400085EA97E0809350639093516380E695E11F
:1032500080935263909353638FEB91E174CFCF933C
:10326000DF93C091E560D091E660DC27CD27DC27B5
:103270008091E260813079F5DF93CF938EE098E022
:103280009F938F9383EB90E69F938F930E94850C7F
:103290000E948F080F900F900F900F900F900F903B
:1032A000811105C090E080E0DF91CF910895CE01BB
:1032B00081600E94AD088823A9F380E10E94830801
:1032C000882381F38FEF0E949B08882359F30E9483
:1032D0008F0890E0E9CFDF93CF9388EF97E09F933B
:1032E0008F9383EB90E69F938F930E94850C0E94AF
:1032F0008F080F900F900F900F900F900F908823D2
:1033000089F2CE0181600E94AD08882359F284E1E0
:10331000D5CF4F925F926F927F928F929F92AF9292
:10332000BF92CF92DF92EF92FF920F931F93CF93B2
:10333000DF932091E260C090E660D090E760DC24EB
:10334000CD24DC24E090E860F090E960FE24EF24D6
:10335000FE244090DA60642C712CC3010197CAEE00
:10336000D0E63FEFAC014C215D21452B79F43FEFD6
:103370004C018E209F208114910481F0F601EE0D06
:10338000FF1D3083FFEFEF1AFF0AF2CF41E0C41AAE
:10339000D108EFEFEE1AFE0A3A93E4CF213021F57F
:1033A000B12CA12C86010A0D1B1DAE14BF0408F020
:1033B0009DC00E948F08882381F0C8010E94AD083B
:1033C000882359F08DE10E948308882331F0888199
:1033D0000E949B08811137C02196F3E0F41508F490
:1033E00047C00E948F081DC00E948F088823C9F023
:1033F000C60181600E94AD08882399F084E10E9493
:103400008308882371F08FEF0E949B08882349F07E
:103410000E948F08882329F080E00E948308811190
:10342000BFCFC401DF91CF911F910F91FF90EF901B
:10343000DF90CF90BF90AF909F908F907F906F90D4
:103440005F904F9008958E010E5F1F4F89810E94FB
:103450009B08582E43E0E801441558F00E948F085D
:103460005520F9F28823E9F2A60CB71CE8019ACF9F
:10347000512C80E190E00E94C50888810E949B0841
:103480008E01811121C00F5F1F4F582288E0481222
:10349000E5CF80E190E00E94C508F80180810E949C
:1034A0009B08E801811116C02196582280E190E026
:1034B0000E94C50888810E949B088E01811110C05E
:1034C0000F5F1F4F5822CACF0E5F1F4F89810E9486
:1034D0009B08DBCF2296F80181810E949B08E5CFF3
:1034E0000E5F1F4F89810E949B08ECCF80E00E94F5
:1034F0008308882E912C95CF0F931F93CF93DF9342
:103500008091E5609091E660C091E760D091E860BD
:10351000DC27CD27DC279827892798270E94AD082C
:103520000CED10E6C8018C5D90468C179D0750F499
:103530000E94A7080F5F1F4F882359F08DB3F80131
:103540008683F0CFCE010196DF91CF911F910F912D
:10355000089590E080E0F8CF1F920F920FB60F927F
:1035600011242F933F934F935F936F937F938F9388
:103570009F93AF93BF93CF93EF93FF93C0910108B5
:10358000209100088C2F8674A9F4F29928C082EF4C
:1035900093E6E091756431E03E0F30937564E80F77
:1035A000F92FF11D2083809175648034D8F48EE169
:1035B000809372648CB3C82BCCBBFF91EF91CF91F9
:1035C000BF91AF919F918F917F916F915F914F913B
:1035D0003F912F910F900FBE0F901F90189582E38F
:1035E00094E6D7CF0E949F05E5CF11241092000BDF
:1035F00081E08093060B62E070E083EC90E60E942D
:1036000075288FB7F8941092000B91E09093060BF9
:103610008FBF1895CF93DF93CDB7DEB72897CDBF77
:10362000DEBF8D839E836B837C834F835887198293
:103630001A8289819A81892B09F583EC90E60E9490
:103640005528892B19F59FB7F89410920A0B109200
:103650000B0B2F81388520930C0B30930D0B81E0E1
:103660008093050B8093060B8FE08093000B9FBF28
:10367000ED81FE81099589839A83C3DF89819A81CF
:103680002896CDBFDEBFDF91CF910895BADF23EF3B
:1036900037E03F932F93E3EBF0E6FF93EF930E9425
:1036A000850C0F900F900F900F908B819C81892B30
:1036B00029F3A895EB81FC810995892B09F0B9CFF5
:1036C000DDCF1F920F920FB60F9211248F938FEFC1
:1036D0008093C701F79A8F910F900FBE0F901F90A4
:1036E00018951F920F920FB60F9211248F938FEFA0
:1036F00087BBF69A8F910F900FBE0F901F90189571
:10370000E3EBF0E680E298E08283938384EA90E63C
:10371000808391838FED99E0858396830895CF937D
:10372000DF93CDB7DEB72797CDBFDEBF37E33CB918
:1037300094E094BB639A28E0E22EE0921204E092B7
:103740001304E09210048CE080931104109214048E
:10375000909316048AE08093B60484E88093B204C0
:103760008093740486E08093B80420E320931804C7
:1037700043E0D42ED092E70522E12093130221E406
:10378000209314024AE44093150290932B0295E093
:10379000909326028093200212E01093CB01D092E6
:1037A000C90191E29093C8011093C50197E09093ED
:1037B000D7013093D5012093D4018093D30189EAB6
:1037C0008093D101FF24F394F092D001F092C001D4
:1037D000F092030A83EC8093260A82E68093280AFB
:1037E00087E48093110B89EA95E080931C0B9093FA
:1037F0001D0B8FE08093100B0E94D5088093BE6054
:103800009093BF6084E680935601E092100289E0B5
:1038100080931102F092310210933302F092500122
:1038200003EB10E68091B8609091B960FC01A5911E
:10383000B4912C91FC01329634913196E49123237A
:103840002E2B2C93FC013496A591B491FC01369655
:10385000E4911196EC931197FC013796E49112963E
:10386000EC93FC013896A591B491EC92E091B5608F
:10387000F091B66080EA90E0808791871582D782C8
:1038800080EC86832FEF3EE944E2215030404040F7
:10389000E1F700C000008DE797E09F938F931F939F
:1038A0000F930E94850CFF9281E38F938DE28F939B
:1038B0001F928FE697E09F938F931F930F930E9421
:1038C000850C8FE497E09F938F931F930F930E9433
:1038D000850C1F9286E68F938BE397E09F938F93DF
:1038E0001F930F930E94850C89E197E09F938F931C
:1038F0001F930F930E94850C8091B5609091B660E4
:103900000E94EB050E940610CDBFDEBF8091010131
:1039100080FDFCCF88ED98E084BF909300018FEF8D
:1039200087BB8093C70178949FE1E1EAF7E091506B
:10393000E040F040E1F700C000002FE131EA47E04D
:10394000215030404040E1F700C000008091AB6062
:10395000833011F00E9441091092030C8091000CF9
:103960000E94B10F8DE097E09F938F9383EB90E6D9
:103970009F938F930E94850C0F900F900F900F9044
:10398000DD24D39403EB10E6B0E88B2EB5E29B2E3A
:10399000A12CB12C66246394712CCE0105968D83E5
:1039A0009E83DD2019F0A895DD24D394F0900A0CB5
:1039B000F0920A0CF7FE14C080917264882381F0A3
:1039C00080917264815080937264811109C08091EA
:1039D000B86481FF05C08091756481110E949F05C4
:1039E0008F2D8076C1F0F09B14C08091010C8E7FEA
:1039F0008093010CF098A8959FE1E1EAF7E09150DF
:103A0000E040F040E1F700C000001092000C0E947E
:103A1000DC0D6894F4F8F4FE0DC08091AB60833047
:103A200011F00E9441091092030C8091000C811149
:103A30000E94B10F8091806484FF06C1F0905A63A8
:103A4000809182649091836420918064309161635D
:103A50003F93309160633F9330915F633F93309128
:103A60005E633F9330915D633F9330915C633F931E
:103A700030915B631F923F931F92FF929F938F93AE
:103A80001F922F9325E632E03F932F931F930F93BE
:103A90000E94850CCDBFDEBFF7FE0E94DF058F2D93
:103AA000807609F08FC280915B6381110FC0109204
:103AB00062631092636382E090E080938A649093E3
:103AC0008B640E94D3050E94DF05B9C0813079F56F
:103AD00080915F638F9380915E638F9380915D632C
:103AE0008F9380915C638F9386E292E09F938F9394
:103AF0001F930F930E94850CCDBFDEBF80915C6346
:103B0000811110C0E0915E63E29580910B0C82FD03
:103B1000FCCFF0E0F595E795F595E795E05CF34F80
:103B20008BE0808310928A6410928B64CACF8430B9
:103B3000D9F480915F638F9380915E638F938091BE
:103B40005D638F9380915C638F9386E192E09F9396
:103B50008F931F930F930E94850C10928A6410928A
:103B60008B64CDBFDEBFADCF8530A1F480915C63A7
:103B7000F82EE894F7F80E94D3058091886481FFBD
:103B8000FCCFF092030C1F92FF9286E092E09F938D
:103B90008F93ECC1863009F0BDC1309160633F83E3
:103BA000C090616380915C6390915D63913009F096
:103BB000CEC042E150E067EC71E082E693E60E94FD
:103BC00095288091001490910114A0910214B09155
:103BD00003148F3F4FEF9407A407B40741F080937D
:103BE0006A6390936B63A0936C63B0936D638091F1
:103BF0006D638F9380916C638F9380916B638F93D0
:103C000080916A638F9382EB91E09F938F931F93D0
:103C10000F930E94850CCDBFDEBF72E1E72EF12C21
:103C20008F819C2DE816F90608F4C70197017C01E5
:103C3000E0928A64F0928B64232B09F042CF80914A
:103C40000B0C846080930B0CF09BABCEF89931C0C9
:103C5000F79B97C2F5992CC08091AB60833081F0BF
:103C60001092000A10921A0B89EA95E580931C0BBA
:103C700090931D0B8FE08093100B83E08093AB60DB
:103C8000019A8EE290E60E944D058DE892E09F93A6
:103C90008F931F930F930E94850C8091B560909134
:103CA000B6600E94EB05F59A0F900F900F900F9061
:103CB000F798F09B76CEF19BAFC2F39914C0809138
:103CC000040885FF10C08091B06481FF0CC0F19B97
:103CD0000AC02091B2643091B364809174648213FD
:103CE0007CC20E948E05F39B28C0809176649091DF
:103CF00077649C012F5F3F4F22303105F0F0853013
:103D0000910508F48EC22091A86421FF16C0049783
:103D100080937664909377648AE090E08093AA64BD
:103D20009093AB641092AE641092AF6480910B0CD0
:103D300082FDFCCF8EEF80934A0C8091A06481FDC0
:103D400077C2F99B2ECEF699D12CF6982ACE9230D6
:103D500009F4C3C0963009F4CBC0913209F4CEC047
:103D6000923209F4D1C08115E3E09E0779F484E032
:103D70008093626393E09093636399E090936463AC
:103D80008093656364E0E62EF12C4ACF8230F3E045
:103D90009F0751F168F474E3E72EF12C66EE70E0B2
:103DA0008130934081F0F12CE12C70E060E00BC099
:103DB00083309807F9F048E1E42EF12C68E870E0D0
:103DC0008430934081F7E092626383E08093636381
:103DD000A7014250510984E693E6E114F10409F089
:103DE00084C030E020E024CF56E4E52EF12C60EAD8
:103DF00070E0E9CF409104145091051460910614CD
:103E00007091071449835A836B837C834F3FFFEF84
:103E10005F076F077F0751F5E0E8F0E1CF010196FA
:103E20002081422728E01A012B01569447943794A9
:103E30002794417055276627772770956095509590
:103E400041955F4F6F4F7F4F40725378687B7D7E07
:103E50004225532564257525215029F7FC01803A18
:103E60009041E1F649835A836B837C8386E180939A
:103E7000626383E0809363638DE480936463109254
:103E8000656388E58093666310926763E8E6F3E60E
:103E9000DE0111968D91282F30E094E0359527951D
:103EA0009A95E1F790E3920F9A3310F097E3920F0F
:103EB000908311828F7090E3980F9A3310F097E3FC
:103EC000980F9283138234968D819E818A179B0767
:103ED00009F7E6E1EE2EF12CA3CE6BE6E62EF12CEF
:103EE0006DE371E0A70182E693E60E94952898CEE3
:103EF0005AE0E52EF12C68EA71E0F4CF49E0E42EB7
:103F0000F12C6FE471E0EECF33E2E32EF12C6AE1A5
:103F100071E0E8CF8830C9F4809173648093626364
:103F20001F928F938AEF91E09F938F931F930F932C
:103F30000E94850C60928A6470928B640F900F903F
:103F40000F900F900F900F90BCCD8930C1F48091ED
:103F50005C6380937364F09A0E9456098091736445
:103F60001F928F93EEEEF1E0FF93EF931F930F9369
:103F70000E94850C10928A6410928B64DFCF8A3085
:103F800099F485EE91E09F938F931F930F930E9476
:103F9000850C1092626360928A6470928B640F90B9
:103FA0000F900F900F908DCD8B3009F048CE8091FF
:103FB0005D638F9380915C638F9329ED31E03F9334
:103FC0002F93D4CF803209F03ACE80915B638A3050
:103FD00059F480915C6390915D6399279F938F93CF
:103FE00089E592E09F93D4CD8032E1F580918064A1
:103FF00081FFFCCF47E050E062E673E68CEA90E692
:104000000E94AB2B892B91F08091B06481FD0E94BE
:104010008E050E94061087E0E2E6F3E6ACEAB0E621
:1040200001900D928A95E1F70E94A90C23E532E0F8
:104030003F932F931F930F930E94850C67E070E0CE
:104040008CEA90E60E942B0C0E94790CF49A109254
:104050007564109274641092726410928A64109263
:104060008B649DCF8132B9F587E0ECEAF0E6A2E6F9
:10407000B3E601900D928A95E1F780916263909189
:104080006363A0916463B0916563892B8A2B8B2B4A
:1040900059F48092626390926363A0926463B092D9
:1040A000656388E0809368638DE492E09F938F93CB
:1040B0001F930F930E94850C67E070E082E693E601
:1040C0000E942B0C0E94790C87E090E080938A6418
:1040D00090938B6464CF823211F580915C639091F0
:1040E0005D6399279F938F9321E432E03F932F9351
:1040F0001F930F930E94850C80915C639091AA603E
:104100000F900F900F900F900F900F9090FD04C0A4
:1041100080FF02C0F79AF69A8093AA6003CD83329B
:1041200009F08DCD80915D638F9380915C638F9357
:1041300086E392E09F938F931F930F930E94850CC9
:1041400080915C6390915D638093766490937764D3
:104150000F900F900F900F900F900F90892B71F090
:10416000F19B0AC0F39908C0F49810927264809190
:10417000060881110E94EF0FF39AD4CC0E94740DAF
:10418000D1CCF69B96CDF59B24C08CE390E60E94A3
:104190004D050198FFE121EA37E0F1502040304021
:1041A000E1F700C0000088E992E09F938F931F938E
:1041B0000F930E94850C8091B5609091B6600E942B
:1041C000EB050F900F900F900F90F09B20CC0E946A
:1041D00056098EB38F718EBB6CCD4091B2645091F5
:1041E000B364282F30E0F12C4217530739F08F5F6A
:1041F000809374642E543C49F901F0808091B2643C
:104200009091B364209174642817190611F40E94E8
:104210008E05F092020867CD8091B06481FF63CD76
:1042200060CD10927664109277640E94740D85CDF3
:1042300090917263809173632091986421FFFCCF09
:10424000903809F0DAC0F82FFF704F2E29E02F17B1
:1042500078F481EC92E09F938F931F930F930E94C9
:10426000850C109273630F900F900F900F9028C0E1
:1042700090E024E0959587952A95E1F7382EC09037
:10428000756331E0831302C01092BA6001972CE38A
:10429000289F7001299FF00C11245090BA6053940C
:1042A0005092BA60D12CA60166E773E6C70184522A
:1042B0009F490E94B82B81E080937363431411F0EF
:1042C000E12C0CC0EC0CFD1CE092F862F092F9625B
:1042D000451090C01092C160EE24E39480E490E019
:1042E00080939A6490939B6410929E6410929F6452
:1042F00080910B0C82FDFCCF8EEF8093460C1092C8
:10430000A2641092A36480910B0C82FDFCCF8EEF0F
:104310008093480CEE2009F446CBF090E060809149
:10432000E4601F928F938091E3601F928F9380913E
:10433000E1601F928F931F92FF928091F9628F9399
:104340008091F8628F938091DF608F938091DE601F
:104350008F9382EE96E09F938F931F930F930E940B
:10436000850CCDBFDEBF91E0F91229C18091E160DB
:104370004090E3605090E4603090E560823009F056
:10438000E4C0E32CF12CC52CD12C1F923F921F923C
:104390005F921F924F928FE393E09F938F931F93AF
:1043A0000F930E94850CCDBFDEBF411091C0B601B6
:1043B000665C7C4FA70183EE90E6B7D680E393E07E
:1043C0009F938F931F930F930E94850CB70183EEE9
:1043D00090E60E942B0C0E94790C0F900F900F908A
:1043E0000F9084E891E08093E1609093E260C701D0
:1043F000019643C283EB92E02ECF9138E9F51092FB
:1044000074639091C16091110DC084EA92E09F9312
:104410008F931F930F930E94850C109273631092D9
:10442000756321CF8091C2602CE3829FF00111243B
:10443000E352FF49A6E7B3E601900D922A95E1F712
:104440008F5F8093C26040E1849F90011124292BEB
:10445000209373632091F8623091F962981751F0BC
:104460008CE3809375632C5331092093F862309369
:10447000F96226CF822FF5CF91111CC08F3F21F01A
:1044800095E0980F923048F482E08093736380E463
:10449000809374631092756313CF813F09F010CF3E
:1044A00082E08093736380E88093746381E08093FB
:1044B000756306CF923009F403CF913031F488232D
:1044C00009F4FECE10927363FBCE9330D9F7F8CE89
:1044D000F1E04F1286CF852D8F7DF9F40E94D5082B
:1044E0008093BE609093BF609F938F9382E293E02E
:1044F0009F938F931F930F930E94850C8091BE60B2
:104500009091BF608093E3609093E4600F900F9070
:104510000F900F900F900F9064CF1F923F921F92B9
:104520005F928CE093E09F938F931F930F930E9471
:10453000850C652D677070E06C5F7C4FA70183EE82
:1045400090E6F3D5CDBFDEBF4CCF8031E1F485EFEF
:1045500092E09F938F931F930F930E94850C1FBA35
:104560001092DB6010925663F092C06080E890E099
:104570008093E1609093E2600F900F900F900F9006
:1045800090E080E07AC1813149F485EE92E09F931A
:104590008F931F930F930E94850CE8CF1F923F9239
:1045A0001F925F921F924F928FEC92E09F938F9396
:1045B0001F930F930E94850CCDBFDEBFE1CF92E128
:1045C000F912D8C38091E160D090E360C090E460BC
:1045D0005090E560813009F0D4C0E52DF0E0E45260
:1045E000FF491286E090E660F090E760FF92EF925C
:1045F0001F925F921F92CF921F92DF928EE895E0FA
:104600009F938F931F930F930E94850CCDBFDEBFA6
:10461000D1103BC0C11031C0FF92EF9281E895E00C
:104620009F938F931F930F930E94850CE092566384
:104630000F900F900F900F900F900F90F3E0EF12EC
:1046400001C0049A81EE90E025E0E216F10411F039
:1046500084EC99E080935763909358638093BC6097
:104660009093BD609F938F9386E795E09F938F9380
:104670001F930F930E94850C19C031E0C31246C0EE
:10468000FF92EF9281E695E0F1CF41E0D41245C070
:10469000C11013C0FF92EF928EE495E09F938F9329
:1046A0001F930F930E94850CE092BB600F900F90B8
:1046B0000F900F900F900F9029C081E3C81226C071
:1046C00094E6E916F10418F494E6E92EF12C8091B1
:1046D000576390915863E816F90681F09F938F9382
:1046E0008FE395E09F938F931F930F930E94850C08
:1046F0000F900F900F900F900F900F90E092BC6072
:10470000F092BD60E0925763F092586380E890E0C9
:104710008093E1609093E26033CFE2E0DE1216C056
:10472000C110F4CF1F925F928EE295E09F938F931A
:104730001F930F930E94850C452D4F7350E066EE3A
:1047400070E68AEF92E60E94B82BB0CFF3E0DF125A
:10475000DDCF26E0C2120DC0FF92EF928DE195E011
:104760009F938F931F930F930E94850CE092DB60C1
:104770009DCF37E0C312CACFFF92EF928CE095E055
:1047800075CF823009F051C0E52CF12C1F925F9259
:104790001F92CF921F92DF9288EE94E09F938F93A7
:1047A0001F930F930E94850CCDBFDEBFD11013C0A5
:1047B000C11017CE809156631F928F938BED94E0BA
:1047C0009F938F931F930F930E94850C8091566344
:1047D0008093E3609BCE91E0D91203CEC1100FC04D
:1047E0008091BB601F928F9388EC94E09F938F938E
:1047F0001F930F930E94850C8091BB60E9CFE1E38A
:10480000CE12EFCD809158638F93809157638F9331
:104810008DEB94E09F938F931F930F930E94850CD1
:1048200080915763909158636DCE90915663933009
:1048300009F021C18031C9F51F92DF9284EE93E027
:104840009F938F931F930F930E94850C40E253E038
:104850006BE27EE088E096E10E940A1B0F900F90C9
:104860000F900F900F900F90009709F4DBC024E891
:1048700030E02093E1603093E2609C012A5F3F4F7B
:104880002093F8623093F9621092C2608F5B9F4F61
:104890006CE370E001D76093C1608EE08093DD60CF
:1048A00024523F49F90110827EC88131C1F584ED5F
:1048B00093E09F938F931F930F930E94850C40E288
:1048C00053E070E060E086E39AE00E940A1B7C01FE
:1048D00083EF91E00197F1F700C000000E940610FD
:1048E0000498109216040E98069A0F900F900F904D
:1048F0000F90F99B0AC061E081E00E94E015E3EDB2
:10490000F0E33197F1F700C0000006981FBA0E944B
:10491000A90CC7019927009709F484C02EC08531DE
:10492000E1F482EC93E09F938F931F930F930E9487
:10493000850C40E253E06BE27EE084EF9DE00E9454
:104940000A1B0F900F900F900F90892B09F019C13F
:10495000EFB2FE2DF170EF2E14C1863189F480EB99
:1049600093E09F938F931F930F930E94850C0F905A
:104970000F900F900F9081E090E020E830E079CF29
:10498000F99BDEC1803209F58091E7608F938091B9
:10499000E6608F938091E5608F938091E4608F93C0
:1049A0001F92DF9288E993E09F938F931F930F9359
:1049B0000E94850C40E253E06BE27EE086E99AE0DB
:1049C0000E940A1BCDBFDEBFA6CF813271F5809158
:1049D000E9608F938091E8608F938091E7608F9377
:1049E0008091E6608F938091E5608F938091E46081
:1049F0008F931F92DF928CE793E09F938F931F9387
:104A00000F930E94850C40E253E06BE27EE080E26F
:104A10009FE00E940A1BCDBFDEBF24E831E0009773
:104A200009F027CF20EA30E024CF833209F088C193
:104A30008091E9608F938091E8608F938091E76027
:104A40008F938091E6608F938091E5608F93809142
:104A5000E4608F931F92DF928FE593E09F938F9393
:104A60001F930F930E94850C40E253E06BE27EE0BF
:104A700081E59EE0A5CF953009F065C1803109F050
:104A80004EC01F92DF9287E994E09F938F931F930C
:104A90000F930E94850C0F900F900F900F900F9026
:104AA0000F90F59904C08091DB608823B1F180916B
:104AB000BC609091BD608E37910578F18DE790E0F4
:104AC0008093BC609093BD6089E12091BC6030917F
:104AD000BD602093576330935863C82ED12C8091CA
:104AE0005763909158638B34910508F429C140EACB
:104AF00050E070E060E086E697E10E940A1B0097B4
:104B000009F0B5CE80915763909158638C199D0937
:104B10008093576390935863E2CF82E3D6CF81317D
:104B2000B1F586E894E09F938F931F930F930E94B3
:104B3000850C0F900F900F900F90F89B25C040E2CE
:104B400053E070E060E089E296E00E940A1BE82EE4
:104B50000E94300883EF91E00197F1F700C0000058
:104B60000E940610019A61E081E00E94E015E3EDE9
:104B7000F0E33197F1F700C0000001981FBA0E94DE
:104B8000A90C8E2D90E0C7CEEE24E394E1CF8531C1
:104B900079F483E794E09F938F931F930F930E9480
:104BA000850C40E951E06AE678E082EA90E1C7CE00
:104BB0008631C9F480E694E09F938F931F930F93FF
:104BC0000E94850C809158638F93809157638F93D7
:104BD00080E594E09F938F931F930F930E94850C21
:104BE000CDBFDEBFC8CE8032F9F48091E7608F93ED
:104BF0008091E6608F938091E5608F938091E4606F
:104C00008F931F92DF9287E394E09F938F931F937C
:104C10000F930E94850C40E253E06AE678E08091B1
:104C2000526390915363CCCEF89B8AC0813209F0D5
:104C300060C08091E9608F938091E8608F9380914C
:104C4000E7608F938091E6608F938091E5608F930A
:104C50008091E4608F931F92DF928AE194E09F93AA
:104C60008F931F930F930E94850C8091E360E090D7
:104C7000E860F090E960CDBFDEBF833D99F480919C
:104C8000E4608F7190E0A701415051094F715527A1
:104C90004F5F5F4F6EE273E68D519F4969D5C70143
:104CA0000196BBCEF99B0BC040E951E06AE678E083
:104CB00080915063909151630E940A1BAECE843B59
:104CC00089F480912E63882369F09EE19093E360DC
:104CD000803209F481E48093E460809138638093AA
:104CE000E560DDCFA7016FEF70E083EE90E649D578
:104CF000D6CF833229F58091E9608F938091E86067
:104D00008F938091E7608F938091E6608F9380917D
:104D1000E5608F938091E4608F931F92DF928CEF18
:104D200093E09F938F931F930F930E94850C40E213
:104D300053E06AE678E0809154639091556340CEE9
:104D400090E080E06FCE1F929F9380EB94E09F9362
:104D50008F931F930F930E94850C80EA90E08093BD
:104D6000E1609093E2600F900F900F900F900F9082
:104D70000F9006CCF4E1FF121FC18091E1608130F9
:104D800009F03FC08DE496E09F938F931F930F939C
:104D90000E94850C0E94D5088093BE609093BF60EE
:104DA0009F938F938FE396E09F938F931F930F931F
:104DB0000E94850C1092566340E253E070E060E080
:104DC00080E696E10E940A1B7C01CDBFDEBF81E038
:104DD000E114F10409F080E08093E260FF92EF9229
:104DE0008FEB95E09F938F931F930F930E94850CF9
:104DF000C70101960F900F900F900F900F900F909A
:104E00003CCD823009F043C089E296E09F938F93B6
:104E10001F930F930E94850C0F900F900F900F908F
:104E2000F89B20C080EC0E940506882319F080E0E2
:104E30000E9482088CE190E00E94C508FE9B12C08F
:104E40001092010A1092000A6998FE9883EB95E08F
:104E50009F938F931F930F930E94850C0F900F9039
:104E60000F900F900298019861E081E00E94E01598
:104E700083ED90E30197F1F700C000001FBA0E9494
:104E800006100E94A90CEE24E394F12CA0CF8730E9
:104E9000D1F3863079F48EE196E09F938F931F9340
:104EA0000F930E94850C0F900F900F900F90F12C94
:104EB000E12C8DCFF89BFBCF853049F52091E76041
:104EC0003091E8603227232732276091E3607091A8
:104ED000E4608091E5609091E66030D43F932F9339
:104EE0009F938F937F936F938091E2601F928F9334
:104EF00082E096E09F938F931F930F930E94850CFF
:104F000040E253E070E060E08CE79AE15BCF2091F3
:104F1000BE603091BF602836304148F2833001F5E1
:104F20006091E3607091E4608091E5609091E6604B
:104F300005D49F938F937F936F938091E2601F922C
:104F40008F938AEE95E09F938F931F930F930E9408
:104F5000850C40E253E070E060E08FE299E132CFEF
:104F6000843009F0A4CF2091E8603091E9603227C5
:104F7000232732276091E4607091E5608091E660BC
:104F80009091E760DBD33F932F939F938F937F9311
:104F90006F938091E2601F928F938DEC95E09F93C9
:104FA0008F931F930F930E94850C40E253E070E0B3
:104FB00060E089E899E106CF90E2F9126BC0909128
:104FC000E160C090E360D090E4608091E560913052
:104FD000C1F5E090E660F090E760FF92EF921F92DB
:104FE0008F931F92DF921F92CF928DEA96E09F934C
:104FF0008F931F930F930E94850CCDBFDEBFC1100E
:1050000085CBF0E1DF1282CBFF92EF9288E996E048
:105010009F938F931F930F930E94850CE092C06023
:1050200060E081E00E94E0150F900F900F900F90CC
:105030000F900F90EF2809F469CB80E00E94B11522
:1050400065CB923009F09CCAE82EF12C1F928F9309
:105050001F92DF921F92CF9288E796E09F938F93E3
:105060001F930F930E94850CCDBFDEBFC110B9C93D
:1050700030E1D312B6C98091C0601F928F9383E64E
:1050800096E09F938F931F930F930E94850C8091BE
:10509000C0609ECB1F92FF9282ED96E09F938F930C
:1050A0001F930F930E94850C5ECEDC012D923D92E2
:1050B0004D925D926D927D928D929D92AD92BD9238
:1050C000CD92DD92ED92FD920D931D93CD93DD93E4
:1050D000FF91EF918DB78D938EB78D938FB78D9391
:1050E000ED93FD93882799270994DC01CB0181304A
:1050F0009105811D2D903D904D905D906D907D901E
:105100008D909D90AD90BD90CD90DD90ED90FD90F7
:105110000D911D91CD91DD91ED91FD910D900FBE01
:10512000EDBFFEBFED91FD910994FB01DC0102C0D2
:1051300005900D9241505040D8F70895CF93DF93DA
:10514000EC018B8188608B83CE0106D02B81277F79
:105150002B83DF91CF910895ABE0B0E0E1EBF8E273
:105160006AC27C013B018A01FC011682178283819D
:1051700081FFBAC1CE0101965C01F7019381F30171
:1051800093FD859193FF81913F01882309F449C1E3
:10519000853239F493FD859193FF81913F018532EA
:1051A00021F4B70190E0B9D1E8CF912C212C312C1A
:1051B000FFE1F31538F08B3211F190F4803209F1F0
:1051C000833229F137FC3CC020ED280F2A3050F5FE
:1051D00036FE20C08AE0989E200D1124922E06C033
:1051E0008D3291F0803371F7689430F8F30193FDBC
:1051F000859193FF81913F018111DACF21C068949D
:1052000031F8689432F8F2CF689433F8EFCF6894AD
:1052100034F8ECCFEAE02E9E200D1124222E689463
:1052200035F8E4CF8E3229F436FCFBC0689436F8AA
:10523000DDCF8C3619F4689437F8D8CF8836B1F2C0
:10524000982F9F7D95549330D8F0833691F1833712
:10525000B1F1833509F05EC02801F2E04F0E511C18
:10526000F801C080D180692D70E036FC02C06FEF7C
:105270007FEFC6013CD14C01689437F882010AC027
:105280000C5F1F4FFFE3F98388248394912C650101
:10529000E89437F833FE2AC0522C8114910459F552
:1052A000552009F46ACFB70180E290E036D15A94D4
:1052B000F7CFF801808189830E5F1F4FE5CF28016A
:1052C000F2E04F0E511CF801C080D180692D70E0D2
:1052D00036FC02C06FEF7FEFC60114D14C01820192
:1052E000D7CFB70180E290E018D12A94281419048E
:1052F00009F0B8F7D1CFF60137FC859137FE8191DF
:105300006F01B70190E009D151105A94F1E08F1A62
:105310009108C3CF843619F0893609F073C0F801BB
:1053200037FE67C060817181828193810C5F1F4F5E
:10533000F32DFF763F2E97FF09C0909580957095CD
:1053400061957F4F8F4F9F4F689437F82AE030E088
:10535000A50113D1C82ECA188C2C432C36FE0CC0C4
:10536000E89440F8C91440F434FE05C032FC03C090
:10537000F32DFE7E4F2E892C44FE90C0FE01EC0DD5
:10538000F11D8081803309F082C0242D297E422EB8
:10539000842D8870582E43FC8FC040FE89C09C2C01
:1053A000821418F42C0C922C981844FE8BC0B70170
:1053B00080E390E0B2D042FE08C088E790E041FE72
:1053C00002C088E590E0B701A8D0C91408F486C0EF
:1053D000CA94D12C9FEFC91AD90ACA0CDB1CF6015A
:1053E00082916F01B70190E098D0AC14BD04B9F779
:1053F00057CF60817181072E000C880B990B0E5FCF
:105400001F4F96CFD32CE894D4F82AE030E08537AC
:1054100031F1232D297FD22E8F36F9F040F48835D3
:10542000A1F0F701868197812B96E2E11DC18037BB
:1054300049F08837B1F7D4FE02C06894D2F820E171
:1054400030E00DC06894D4F8F6CF34FE03C0822F4C
:105450008660D82E20E132E002C028E030E0F8017A
:10546000D7FE0EC060817181828193810C5F1F4FD6
:10547000A50183D0C82ECA183D2CE89437F86CCF0C
:105480006081718190E080E00E5F1F4FF1CF42FCA0
:1054900002C083947DCF839483947ACF842D8678C1
:1054A00009F476CFF6CFB70180E290E036D083944E
:1054B0008214C8F3512C79CF522C5818821408F456
:1054C00074CFF8CF842D867809F47FCF8BE241FE2C
:1054D00080E247FC8DE2B70190E076CFB70180E330
:1054E00090E01BD09A9471CF8FEF9FEF9DCFFC017E
:1054F0000590615070400110D8F7809590958E0FFF
:105500009F1F0895FC016150704001900110D8F771
:10551000809590958E0F9F1F08950F931F93CF93A3
:10552000DF93182F092FEB018B8181FD09C01FEF3D
:105530000FEF812F902FDF91CF911F910F91089541
:1055400082FF14C02E813F818C819D8128173907ED
:105550003CF4E881F981CF01019688839983108317
:105560008E819F8101968E839F83E3CFE885F985A5
:10557000812F0995892BA1F3DACFFA01AA272830C8
:1055800051F1203181F1E8946F936E7F6E5F7F4F10
:105590008F4F9F4FAF4FB1E03ED0B4E03CD0670F8C
:1055A000781F891F9A1FA11D680F791F8A1F911DDF
:1055B000A11D6A0F711D811D911DA11D20D009F42F
:1055C00068943F912AE0269F11243019305D319371
:1055D000DEF6CF010895462F4770405D4193B3E05A
:1055E0000FD0C9F7F6CF462F4F70405D4A3318F001
:1055F000495D31FD4052419302D0A9F7EACFB4E0B2
:10560000A6959795879577956795BA95C9F7009769
:105610006105710508959B01AC010A2E069457950A
:10562000479537952795BA95C9F7620F731F841F61
:10563000951FA01D08952F923F924F925F926F92F7
:105640007F928F929F92AF92BF92CF92DF92EF9212
:10565000FF920F931F93CF93DF93CDB7DEB7CA1B93
:10566000DB0BCDBFDEBF09942A88398848885F8468
:105670006E847D848C849B84AA84B984C884DF80F2
:10568000EE80FD800C811B81AA81B981CE0FD11DD6
:10569000CDBFDEBFED010895AA1BBB1B51E107C0C2
:1056A000AA1FBB1FA617B70710F0A61BB70B881FB2
:1056B000991F5A95A9F780959095BC01CD01089541
:1056C000A1E21A2EAA1BBB1BFD010DC0AA1FBB1F06
:1056D000EE1FFF1FA217B307E407F50720F0A21B78
:1056E000B30BE40BF50B661F771F881F991F1A94E5
:1056F00069F760957095809590959B01AC01BD010F
:10570000CF010895052E97FB16F400940FD057FD96
:1057100005D0D6DF07FC02D046F408C0509540956E
:10572000309521953F4F4F4F5F4F0895909580954D
:10573000709561957F4F8F4F9F4F089569279627EA
:1057400069277827872778270895EE0FFF1F059090
:10575000F491E02D0994FB01DC0104C08D910190CE
:10576000801921F441505040C8F7881B990B0895C7
:10577000FB01DC0102C001900D9241505040D8F76E
:105780000895DC0101C06D9341505040E0F7089549
:04579000F894FFCFBB
:105794004C000000000C00000000A10000006B00A1
:1057A40000000055080000000055480000000055A6
:1057B400A0005504556A00000000003020000000DD
:1057C4000000FFFF7F557EC87F59FEFF7F557EC8CE
:1057D4007F00FE7F557EC37E04FFC205C15982C08F
:1057E40002C100E0FF88D8CD45AB891255C21D55D2
:1057F40087558B55E020676F72504D564E55E065C6
:10580400736172454D564E55E065742673554D5679
:105814004E55C72055CA0355C21555E655C85955A6
:10582400C30855C215558255C85955C80055C304F7
:0A583400000000007D050D0A0000D1
:00000001FF
