:02000004008179
:020000040000FA
:2000000025C100005BC1000059C1000057C100000C947C1753C1000051C100004FC1000043 // 00000> %A..[A..YA..WA....|.SA..QA..OA.. flash
:200020004DC100004BC1000049C1000047C1000045C1000043C1000041C100003FC1000088 // 00020> MA..KA..IA..GA..EA..CA..AA..?A..
:200040003DC100003BC1000039C100000C94FE1635C1000033C1000031C100002FC100002C // 00040> =A..;A..9A....~.5A..3A..1A../A..
:200060000C94EF182BC1000029C1000027C1000025C1000023C1000021C100001FC100008F // 00060> ..o.+A..)A..'A..%A..#A..!A...A..
:200080001DC100001BC1000055504449344156522D55534220312E33352E35332048414CCE // 00080> .A...A..UPDI4AVR-USB 1.35.53 HAL
:2000A0002F41565244555F434E414E4F2E68004300440043002D00410043004D002F0056DE // 000a0> /AVRDU_CNANO.h.C.D.C.-.A.C.M./.V
:2000C00000430050000000550050004400490034004100560052002D005500530042003AED // 000c0> .C.P...U.P.D.I.4.A.V.R.-.U.S.B.:
:2000E000004100560052002D00440055003A0045004400420047002F0043004D00530049AA // 000e0> .A.V.R.-.D.U.:.E.D.B.G./.C.M.S.I
:200100000053002D0044004100500000004D0075006C007400690058002E006A00700020FF // 00100> .S.-.D.A.P...M.u.l.t.i.X...j.p. 
:20012000004F005300530057002F004F005300480057002000500072006F0064002E000020 // 00120> .O.S.S.W./.O.S.H.W. .P.r.o.d....
:20014000000600FF0901A101150026FF0075089640000901810296400009019102950409BF // 00140> ......!...&..u..@......@........
:2001600001B102C009026B0003010080320904000002030000000921110100012223000744 // 00160> .1.@..k.....2..........!...."#..
:2001800005020340000107058103400001080B0102020201040904010001020201000524E7 // 00180> ...@......@....................$
:2001A00000100104240206052406010205240103020705820310000409040200020A0000DD // 001a0> ....$...$....$..................
:2001C0000007050302400000070583024000000A060002EF020140000012010002EF0201B2 // 001c0> .....@......@......o..@......o..
:2001E00040D804150B00010102030108555044493441565200902800183800000000012338 // 001e0> @X..........UPDI4AVR..(..8.....#
:2002000035000000000000000000004B000054630000007B00005C6300000000000000006D // 00200> 5..........K..Tc...{..\c........
:20022000000000BB40006C630000008B00006C63400000B900005C630000008B0000AC6348 // 00220> ...;@.lc......lc@..9..\c......,c
:20024000400002BB0000EC630000000011241FBECFEFCDBFDFE7DEBF98ED80E294BF809346 // 00240> @..;..lc.....$.>OoM?_g^?.m.b.?..
:20026000680080E094BF80936100E0E0F4E084E083878FEF848780934C0480936C0480936B // 00260> h..`.?..a.``t`.`...o....L...l...
:20028000AC0480916800826494BF8093680010E6A0E0B0E6E8EDF2E402C005900D92A03AFA // 00280> ,...h..d.?..h..f `0fhmrd.@.... :
:2002A000B107D9F720E6A0EAB0E601C01D92A83AB207E1F70E94FA180C946A21A1CE80E0FF // 002a0> 1.Yw f j0f.@..(:2.aw..z...j!!N.`
:2002C00094E02091040827FF04C000900108009000080197B1F70895DC018FB7F8941092A4 // 002c0> .` ...'..@..........1w..\..7x...
:2002E000000A90912C0A9093200A90912C0A9093260A91E09093000A90910B0A90FFFCCF78 // 002e0> ....,... ...,...&..`..........|O
:2003000090910B0A916090930B0A30E020E064E0F90193E0F595E7959A95E1F7EA0FFB1F9D // 00300> .....`....0` `d`y..`u.g...awj.{.
:20032000408150E0922F977002C0559547959A95E2F790910B0A90FFFCCF40FF16C0009837 // 00320> @.P`./.p.@U.G...bw......|O@..@..
:20034000609303046093000290910B0A916090930B0A2F5F3F4F20373105D1F61092000A33 // 00340> `...`........`..../_?O 71.Qv....
:200360009FE09093000A8FBF0895009AE9CF8FB7F89410926F641092AE641092AF648FBF96 // 00360> .`.....?....iO.7x...od...d../d.?
:2003800080910B0C82FDFCCF8EEF80934C0C0895F49B0BC08091B46481FF07C02FB7F8942A // 00380> .....}|O.o..L...t..@..4d...@/7x.
:2003A000F2990AC08CEE93E609C080917064803411F51092706408958CE294E68093B86463 // 003a0> r..@.n.f.@..pd.4.u..pd...b.f..8d
:2003C0009093B9648091706490E08093B6649093B7641092BA641092BB64109270648EB3E5 // 003c0> ..9d..pd.`..6d..7d..:d..;d..pd.3
:2003E00094E089278EBB2FBF80910B0C82FDFCCF8EEF80934E0C08958091716490917264CC // 003e0> .`.'.;/?.....}|O.o..N.....qd..rd
:200400009C01255031092A3F3F4F28F4049780937164909372648AE090E08093A6649093E7 // 00400> ..%P1.*??O(t....qd..rd.`.`..&d..
:20042000A7641092AA641092AB6480910B0C82FDFCCF8EEF80934A0C089510928A64109229 // 00420> 'd..*d..+d.....}|O.o..J......d..
:200440008B6480910B0C82FDFCCF8EEF8093420C089510927E6410927F6480910B0C82FD10 // 00440> .d.....}|O.o..B.....~d...d.....}
:20046000FCCF8EEF8093400C0895CF93CFB7F89481E18093E20580E880931604069A80E2D1 // 00460> |O.o..@...O.O7x..a..b..h.......b
:2004800080930408209152633091536350E040E060E27EE480E090E00E942A21DA01C9010A // 00480> .... .Rc0.ScP`@``b~d.`.`..*!Z.I.
:2004A0000196A11DB11DB595A7959795879536E0880F991FAA1FBB1F3A95D1F7009721E014 // 004a0> ..!.1.5.'.....6`....*.;.:.Qw..!`
:2004C000A207B10520F08FEF9FEFA0E0B0E080349105A105B10520F480E490E0A0E0B0E0F3 // 004c0> ".1. p.o.o `0`.4..!.1. t.d.` `0`
:2004E00080930808909309088BE6809307088AE08093050880E880930608CFBFCF91089574 // 004e0> .........f.....`.....h....O?O...
:2005000090E080E00895809101088CBB8CB38823D1F3809100088DBB8CB380588CBB9CB351 // 00500> .`.`.......;.3.#Qs.....;.3.X.;.3
:2005200081E0911180E00895EECFCF93C82F8091040885FFFCCFC0930208E5DF882321F05C // 00520> .`...`..nOO.H/......|O@...e_.#!p
:200540009DB381E09C1380E0CF9108950F931F93CF93DF93EB018C01F80181918F01E5DFDE // 00540> .3.`...`O.......O._.k...x.....e_
:20056000882311F02197C1F7DF91CF911F910F91089569E070E087E990E6E8DF90E008954F // 00560> .#.p!.Aw_.O.......i`p`.i.fh_.`..
:2005800062E070E081E690E6E1DF8111CDCF80E0089562E070E08FE590E6D8DF8111C4CFA9 // 00580> b`p`.f.fa_..MO.`..b`p`.e.fX_..DO
:2005A00080E008956093156070931660809317609093186065E070E083E190E6C7DF811191 // 005a0> .`..`..`p..`...`...`e`p`.a.fG_..
:2005C000B3CF80E008959FDF882329F09DB381E0903409F080E00895CF93DF93EA0160933D // 005c0> 3O.`..._.#)p.3.`.4.p.`..O._.j.`.
:2005E0002660709327608093286090932960CA019695879581508093216085E6809323602C // 005e0> &`p.'`..(`..)`J......P..!`.f..#`
:2006000065E070E084E290E6A1DF8823F9F0DBDF8823E1F063E070E08CE590E697DF882384 // 00600> e`p`.b.f!_.#yp[_.#apc`p`.e.f._.#
:20062000A9F065E070E08FE190E690DF882371F0BE016E7F86EE90E689DF882339F063E016 // 00620> )pe`p`.a.f._.#qp>.n..n.f._.#9pc`
:2006400070E087E890E6DF91CF9180CF80E0DF91CF910895CF93C42F60931B6070931C6037 // 00640> p`.h.f_.O..O.`_.O...O.D/`..`p..`
:2006600080931D6090931E6065E070E089E190E66DDF882349F0A7DF882331F08C2F55DF63 // 00660> ...`...`e`p`.a.fm_.#Ip'_.#1p./U_
:20068000882311F0CF919FCF80E0CF910895482F60E070E180E090E0DDCFCF92DF92EF92AC // 00680> .#.pO..O.`O...H/``pa.`.`]OO._.o.
:2006A000FF920F931F93CF93DF93C5EDD0E68A010B521F49C017D107C1F06B017C012FEF62 // 006a0> ......O._.EmPf...R.I@.Q.Apk.|./o
:2006C000C21AD20AE20AF20A4989C4DF2196811109C0DF91CF911F910F91FF90EF90DF9056 // 006c0> B.R.b.r.I.D_!....@_.O.......o._.
:2006E000CF900895C701B601E5CF81E0F2CFCF93DF934130510529F44091E660DF91CF910A // 006e0> O...G.6.eO.`rOO._.A0Q.)t@.f`_.O.
:20070000A9CFEA0160932660709327608093286090932960842F81508093216084E6809397 // 00700> )Oj.`.&`p.'`..(`..)`./.P..!`.f..
:20072000236065E070E084E290E610DF8823F1F04ADF8823D9F063E070E08CE590E606DF4E // 00720> #`e`p`.b.f._.#qpJ_.#Ypc`p`.e.f._
:200740008823A1F065E070E08FE190E6FFDE882369F0BE0186EE90E6F9DE882339F063E06A // 00740> .#!pe`p`.a.f.^.#ip>..n.fy^.#9pc`
:2007600070E087E890E6DF91CF91F0CE80E0DF91CF9108950F931F93CF93DF93EB018C0148 // 00760> p`.h.f_.O.pN.`_.O.......O._.k...
:20078000C2DE882331F09DB3F80191938F012197B9F7DF91CF911F910F910895CF93DF93F7 // 00780> B^.#1p.3x.....!.9w_.O.......O._.
:2007A000EA0160932660709327608093286090932960CA019695879581508093216085E226 // 007a0> j.`.&`p.'`..(`..)`J......P..!`.b
:2007C0008093236065E070E084E290E6BFDE882389F0F9DE882371F065E070E08FE190E6F3 // 007c0> ..#`e`p`.b.f?^.#.py^.#qpe`p`.a.f
:2007E000B5DE882339F0BE016E7F8CED90E6DF91CF91C0CF80E0DF91CF910895CF93DF93F7 // 007e0> 5^.#9p>.n..m.f_.O.@O.`_.O...O._.
:20080000EA014130510559F4CDDE811104C080E0DF91CF9108959DB39093DC60F9CF6093A1 // 00800> j.A0Q.YtM^...@.`_.O....3..\`yO`.
:200820002660709327608093286090932960842F81508093216084E28093236065E070E0B8 // 00820> &`p.'`..(`..)`./.P..!`.b..#`e`p`
:2008400084E290E683DE882311F3BDDE8823F9F265E070E08FE190E679DE8823C1F2BE018C // 00840> .b.f.^.#.s=^.#yre`p`.a.fy^.#Ar>.
:200860008CED90E6DF91CF9185CFCF93DF938091DC606091DD603091DE60843B51F46F772D // 00860> .m.f_.O..OO._...\``.]`0.^`.;Qtow
:2008800070E07F5EF9990FC090E080E0DF91CF910895732F803BB1F78091F3629091F462AB // 00880> p`.^y..@.`.`_.O...s/.;1w..sb..tb
:2008A000680F791FEFCFC091E160D091E26090E080E0AE01A3DF882339F3CE010196E6CF43 // 008a0> h.y.oO@.a`P.b`.`.`..#_.#9sN...fO
:2008C000CF93DF93F99905C090E080E0DF91CF9108952091DC606091DD607091DE60809145 // 008c0> O._.y..@.`.`_.O... .\``.]`p.^`..
:2008E000DF609091E060C091E160D091E260203B49F480589F4FAE0151DF882329F3CE0150 // 008e0> _`..``@.a`P.b` ;It.X.O..Q_.#)sN.
:200900000196E4CF243B39F46F7770E07F5E072E000C880B990BAE0171DFEFCFD1CFCF93B7 // 00900> ..dO$;9towp`.^..........q_oOQOO.
:20092000DF93F99905C090E080E0DF91CF9108952091DC606091DD607091DE608091DF6007 // 00920> _.y..@.`.`_.O... .\``.]`p.^`.._`
:200940009091E060C091E160D091E260203B49F480589F4FAE0122DF882329F3CE010196C6 // 00940> ..``@.a`P.b` ;It.X.O.."_.#)sN...
:20096000E4CF243B41F46F7770E060587F4E072E000C880B990BAE0141DFEECFD0CFCFCF34 // 00960> dO$;Atowp``X.N..........A_nOPOOO
:200980008091080890910908880F991F809308089093090880E0C9DD20915263309153637B // 00980> .....................`I] .Rc0.Sc
:2009A00050E040E060E071E782E090E00E942A21DA01C9010196A11DB11DB595A795979516 // 009a0> P`@```qg.`.`..*!Z.I...!.1.5.'...
:2009C000879580349105A105B1057CF0009721E0A207B10520F08FEF9FEFA0E0B0E08093B3 // 009c0> ...4..!.1.|p..!`".1. p.o.o `0`..
:2009E00008089093090881E0089580E490E0A0E0B0E0F5CF8091526389518DBB8DB388322B // 009e0> .......`...d.` `0`uO..Rc.Q.;.3.2
:200A000070F08DB390E08093526390935363B8DF63E070E087E890E699DD90E0089590E023 // 00a00> pp.3.`..Rc..Sc8_c`p`.h.f.].`...`
:200A200080E0089582CDCF93C82F83EF7EDD882319F08C2FCF91F6CF80E0CF91089582E7EA // 00a20> .`...MO.H/.o~].#.p./O.vO.`O....g
:200A400074DD882331F070DD882319F08DB38111F6CF81E00895CF93C82F84E666DD882332 // 00a40> t].#1pp].#.p.3..vO.`..O.H/.ff].#
:200A600019F08C2FCF91DECF80E0CF91089584E25CDD811159CD80E00895CF93DF93D82F19 // 00a60> .p./O.^O.`O....b\]..YM.`..O._.X/
:200A8000C92F88E652DD882361F08D2F4EDD882341F089E64ADD882321F08C2FDF91CF9125 // 00a80> I/.fR].#ap./N].#Ap.fJ].#!p./_.O.
:200AA00044CD80E0DF91CF91089530E020E04091080442FFFCCF4091080442FDFCCF2F5FEA // 00aa0> DM.`_.O...0` `@...B.|O@...B}|O/_
:200AC0003F4F8217930799F7089580910A06816080930A068091070681FFFCCF80910C0677 // 00ac0> ?O.....w.......`..........|O....
:200AE00090910D069C013695279536952795820F931F0895CF92DF92EF92FF92AB01BC01EA // 00ae0> ......6.'.6.'.......O._.o...+.<.
:200B000080912063282F30E0322F22278091F562820F932F911D919581959109B0E0A0E0E1 // 00b00> .. c(/0`2/"'..ub.../........0` `
:200B200084239523A623B72321E0C0902463D0902563E0902663F0902763C816D906EA0643 // 00b20> .#.#&#7#!`@.$cP.%c`.&cp.'cH.Y.j.
:200B4000FB0609F420E08093246390932563A0932663B0932763822FFF90EF90DF90CF903C // 00b40> {..t `..$c..%c .&c0.'c./..o._.O.
:200B60000895809150638230B1F010922A0A8FE08093000A2EE030E020930A0B30930B0BA0 // 00b60> ....Pc.01p..*..`.....`0` ...0...
:200B800090E290930C0B90E190930D0B8093000B82E0809350630895809150638130C1F0F4 // 00b80> .b.....a.........`..Pc....Pc.0Ap
:200BA00084EC8093260A82E680932A0A9FE09093000A10920A0B10920B0B95EC90930C0BFD // 00ba0> .l..&..f..*..`.............l....
:200BC00080930D0B85E08093000B81E08093506308950F931F93CF93DF9300D000D0CDB757 // 00bc0> .....`.....`..Pc......O._..P.PM7
:200BE000DEB72091A1603091A2604091A3605091A460211531054105510521F420E835E2F6 // 00be0> ^7 .!`0."`@.#`P.$`!.1.A.Q.!t h5b
:200C000040E050E060E078E689E899E00E940821DA01C9010196A11DB11DAC01BD017695F3 // 00c00> @`P```xf.h.`...!Z.I...!.1.,.=.v.
:200C2000679557954795403651056105710508F055C0AC01BD014E7FAAEC8A019B010054F2 // 00c20> g.W.G.@6Q.a.q..pU@,.=.N.*l.....T
:200C4000110921093109003C1F4F21053105C0F59091A760955000912A6010912B60209156 // 00c40> ..!.1..<.O!.1.@u..'`.P..*`..+` .
:200C60002C6030912D6009831A832B833C83E091A660E370EC0FFD2FF11D21818091A5604D // 00c60> ,`0.-`....+.<.`.&`cpl.}/q.!...%`
:200C8000280F3327331F80E0232B09F088E0943038F5890F9FB7F89422E12093E20520E258 // 00c80> (.3'3..`#+.p.`.08u...7x."a .b. b
:200CA0002093040840930808509309088093070880E880930508A0930608F19A9FBFFFDAF1 // 00ca0>  ...@...P........h.... ...q..?.Z
:200CC0008EB38F738EBBA698F09B0CC02496CDBFDEBFDF91CF911F910F915ECFA8ECADCFB3 // 00cc0> .3.s.;&.p..@$.M?^?_.O.....^O(l-O
:200CE0008D5FD8CF2496CDBFDEBFDF91CF911F910F9137CFF19B04C0F39B02C06ADFF49AE1 // 00ce0> ._XO$.M?^?_.O.....7Oq..@s..@j_t.
:200D0000F3980895823249F46091FB627091FC628091FD629091FE620895803B49F4609196 // 00d00> s....2It`.{bp.|b..}b..~b...;It`.
:200D2000F7627091F8628091F9629091FA620895813B51F3823B49F46091FF6270910063C9 // 00d20> wbp.xb..yb..zb...;Qs.;It`..bp..c
:200D400080910163909102630895833B49F4609103637091046380910563909106630895A1 // 00d40> ...c...c...;It`..cp..c...c...c..
:200D6000843B89F4209120633091216360910F63709110638091116390911263620F731FC9 // 00d60> .;.t . c0.!c`..cp..c...c...cb.s.
:200D8000811D911D0895803C49F46091F3627091F4628091F5629091F6620895813C09F49C // 00d80> .......<It`.sbp.tb..ub..vb...<.t
:200DA000BECF843C09F4B0CF853C49F460910763709108638091096390910A630895863C3B // 00da0> >O.<.t0O.<It`..cp..c...c...c...<
:200DC00049F460910B6370910C6380910D6390910E63089560910F637091106380911163FB // 00dc0> It`..cp..c...c...c..`..cp..c...c
:200DE00090911263089530E020E04091080446FFFCCF4091080446FDFCCF2F5F3F4F821723 // 00de0> ...c..0` `@...F.|O@...F}|O/_?O..
:200E0000930799F781E00895FB9B08C081E090E0EADF049888E880930608FB9881E00895F4 // 00e00> ...w.`..{..@.`.`j_...h....{..`..
:200E2000F3DF811181CB80E00895FB9909C081E090E0D9DF0C9A049A80EC80930608FB9AB9 // 00e20> s_...K.`..{..@.`.`Y_.....l....{.
:200E400081E0089582E090E0CEDFEFDF811102C080E0089580E8E6DD8823D1F3E1DF8823F1 // 00e40> .`...`.`N_o_...@.`...hf].#Qsa_.#
:200E600089F3E99BEFCF0895EF92FF920F931F93CF93DF937C018B01D8DFE701899155DBEB // 00e60> .si.oO..o.......O._.|...X_g...U[
:200E8000882319F001501109C9F7DF91CF911F910F91FF90EF900895F9990EC069E070E0AF // 00e80> .#.p.P..Iw_.O.......o...y..@i`p`
:200EA00083E590E6E1DF811103C090E080E00895C9DF8823D1F3F99A81E090E00895F89929 // 00ea0> .e.fa_...@.`.`..I_.#Qsy..`.`..x.
:200EC00007C064E070E08FE490E6CEDF90E0089581E090E00895CF92DF92EF92FF928FEC47 // 00ec0> .@d`p`.d.fN_.`...`.`..O._.o....l
:200EE000C82EDD24D394E12CFD2CC0920660D0920760E0920860F092096065E070E085E01E // 00ee0> H.]$S.a,},@..`P..``..`p..`e`p`.`
:200F000090E6B2DF81118CDF8DB3807C71F781E0FF90EF90DF90CF9008958BEC91E0A0E0E7 // 00f00> .f2_..._.3.|qw.`..o._.O....l.` `
:200F2000B1E08093016090930260A0930360B093046065E070E080E090E696DF882311F05E // 00f20> 1`...`...` ..`0..`e`p`.`.f._.#.p
:200F400081E070CD80E00895CF93C82F8AEC91E0A0E0B1E08093016090930260A093036016 // 00f40> .`pM.`..O.H/.l.` `1`...`...` ..`
:200F6000B093046065E070E080E090E67DDF882319F08C2FCF9156CD80E0CF910895CF9253 // 00f60> 0..`e`p`.`.f}_.#.p./O.VM.`O...O.
:200F8000DF92EF92FF920F931F93CF93DF93C091DC60C090DD60D090DE60E090DF60F090BF // 00f80> _.o.......O._.@.\`@.]`P.^``._`p.
:200FA000E0608C2FAFDE0091E1601091E260C60ED71EE81EF91EC0920F60D0921060E09209 // 00fa0> ``.//^..a`..b`F.W.h.y.@..`P..``.
:200FC0001160F0921260C801019780930B6090930C6084E680930D607EDFC03C09F43FC0FF // 00fc0> .`p..`H......`...`.f...`~_@<.t?@
:200FE000C03B09F478C0C13C09F475C0C23209F476C0C13B09F473C0C43C09F470C0C53C11 // 00fe0> @;.tx@A<.tu@B2.tv@A;.ts@D<.tp@E<
:2010000009F471C0C23B31F088E0C33B21F090E080E006C08CE498DF81110BC080E090E063 // 01000> .tq@B;1p.`C;!p.`.`.@.d._...@.`.`
:20102000DF91CF911F910F91FF90EF90DF90CF90089565E070E08EE090E616DF882371F39A // 01020> _.O.......o._.O...e`p`.`.f._.#qs
:2010400064E070E08AE090E60FDF882339F3B80186EE90E609DF882309F33DDFE0CFD3E2A5 // 01040> d`p`.`.f._.#9s8..n.f._.#.s=_`OSb
:2010600086E2C5E271DF8823C9F257DF8823B1F232DF882399F28D2F67DF882379F265E083 // 01060> .bEbq_.#IrW_.#1r2_.#.r./g_.#yre`
:2010800070E08EE090E6F0DE882309F4C7CF64E070E08AE090E6E8DE882309F4BFCFB801E7 // 01080> p`.`.fp^.#.tGOd`p`.`.fh^.#.t?O8.
:2010A00086EE90E6E1DE882309F4B8CF8C2F4CDF882309F4B3CF65E070E08EE090E6D4DE1D // 010a0> .n.fa^.#.t8O./L_.#.t3Oe`p`.`.fT^
:2010C000882309F4ABCF84E630DA882309F4A6CF8FEF2BDAC0CFD3E286E2CDE2C3CFD3E337 // 010c0> .#.t+O.f0Z.#.t&O.o+Z@OSb.bMbCOSc
:2010E00086E3C5E3BFCFD3E286E2CAE1BBCF4F925F926F927F928F929F92AF92BF92CF92D6 // 010e0> .cEc?OSb.bJa;OO._.o......./.?.O.
:20110000DF92EF92FF920F931F93CF93DF938090DD609090DE60A090DF60B090E060809179 // 01100> _.o.......O._...]`..^` ._`0.``..
:20112000DC60F0DD2B013C01C090E160D090E260E090E360F090E46083E406DF882309F49F // 01120> \`p]+.<.@.a`P.b``.c`p.d`.d._.#.t
:2011400064C0840C951CA61CB71CE601C130D10551F58092066090920760A0920860B092C4 // 01140> d@....&.7.f.A0Q.Qu...`...` ..`0.
:20116000096065E070E085E090E67EDE882309F44CC056DE882309F448C08DB38093DC6013 // 01160> .`e`p`.`.f~^.#.tL@V^.#.tH@.3..\`
:2011800082E090E0DF91CF911F910F91FF90EF90DF90CF90BF90AF909F908F907F906F9097 // 01180> .`.`_.O.......o._.O.?./.......o.
:2011A0005F904F90089580920F6090921060A0921160B0921260C601019780930B6090935A // 011a0> _.O......`...` ..`0..`F......`..
:2011C0000C6084E280930D6065E070E08EE090E64BDE8823D1F064E070E08AE090E644DE19 // 011c0> .`.b...`e`p`.`.fK^.#Qpd`p`.`.fD^
:2011E000882399F011DE05ED10E6CB52DF498BD9882359F08DB3F80187830F5F1F4F0C1705 // 011e0> .#.p.^.m.fKR_I.Y.#Yp.3x...._.O..
:201200001D07A9F7C6010196BDCF90E080E0BACFCF93C091DC608091DD609091DE60A091FA // 01200> ..)wF...=O.`.`:OO.@.\`..]`..^` .
:20122000DF60B091E06080930F6090931060A0931160B09312604FDEC11111C080E484DEEA // 01220> _`0.``...`...` ..`0..`O^A..@.d.^
:20124000811104C090E080E0CF91089566DE8823C9F3F8DD8823B1F33EDE90E0F5CF81E0EB // 01240> ...@.`.`O...f^.#Isx].#1s>^.`uO.`
:2012600090E0C73089F788E16FDE882359F365E070E08EE090E6F8DD882321F384E655D935 // 01260> .`G0.w.ao^.#Yse`p`.`.fx].#!s.fUY
:20128000882301F38FEF51D9E5CFBEDD0C98049A80E190E0A8DD0C9A82E090E0A4DD0C9883 // 01280> .#.s.oQYeO>].....a.`(]...`.`$]..
:2012A00080E190E0A0DDC1CD8091526390915363845F91408093526390935363843F9140CC // 012a0> .a.` ]AM..Rc..Sc._.@..Rc..Sc.?.@
:2012C00020F0D3D8E2DF90E0089590E080E0089567E070E180E090E065D98DB38370C1F787 // 012c0>  pSXb_.`...`.`..g`pa.`.`eY.3.pAw
:2012E0008DB30895CF93C82FF3DF60E070E180E090E058D9882331F08DB38C1303C081E085 // 012e0> .3..O.H/s_``pa.`.`XY.#1p.3...@.`
:20130000CF91089580E0C3D98823D1F3CC23B9F38C2FCF91BCC980E0E5DF90E0089580E099 // 01300> O....`CY.#QsL#9s./O.<I.`e_.`...`
:20132000E1CFCF92DF92EF92FF926B017C0188E0D9DF882371F04FEFC701B6018BD9882338 // 01320> aOO._.o...k.|..`Y_.#qpOoG.6..Y.#
:2013400041F0C6DF837729F4FF90EF90DF90CF90E6CF80E0FF90EF90DF90CF90089566E0F0 // 01340> ApF_.w)t..o._.O.fO.`..o._.O...f`
:2013600070E180E090E01ED98DB38370C1F78DB30895F5DF982F937781E009F080E0089591 // 01360> pa.`.`.Y.3.pAw.3..u_./.w.`.p.`..
:20138000CF93C82FECDF60E070E180E090E00AD9882331F08DB38C1303C081E0CF91089519 // 01380> O.H/l_``pa.`.`.Y.#1p.3...@.`O...
:2013A00080E075D98823D1F3CC23B9F38C2FCF916EC980E0E5DF90E0089580E0E1CF8FE073 // 013a0> .`uY.#QsL#9s./O.nI.`e_.`...`aO.`
:2013C000DFDF8FE1DDDF80E0DBDF90E00895F7CFCF92DF92EF92FF92CF93DF936B017C0195 // 013c0> __.a]_.`[_.`..wOO._.o...O._.k.|.
:2013E000EA0180E0CDDF882389F0AE01C701B6017ED9882359F085E0C3DF882339F0DF910E // 013e0> j..`M_.#.p..G.6.~Y.#Yp.`C_.#9p_.
:20140000CF91FF90EF90DF90CF90B3CF80E0DF91CF91FF90EF90DF90CF900895CF92DF9293 // 01400> O...o._.O.3O.`_.O...o._.O...O._.
:20142000EF92FF92CF93DF936B017C01EA0180E0A7DF882389F0AE01C701B601CDD888236A // 01420> o...O._.k.|.j..`'_.#.p..G.6.MX.#
:2014400059F085E09DDF882339F0DF91CF91FF90EF90DF90CF908DCF80E0DF91CF91FF90C7 // 01440> Yp.`._.#9p_.O...o._.O..O.`_.O...
:20146000EF90DF90CF900895CF92DF92EF92FF926B017C0188E084DF882371F04FEFC701D8 // 01460> o._.O...O._.o...k.|..`._.#qpOoG.
:20148000B601E8D8882341F06ADF837729F4FF90EF90DF90CF9091CF80E0FF90EF90DF9080 // 01480> 6.hX.#Apj_.w)t..o._.O..O.`..o._.
:2014A000CF90089562E070E180E090E07BD88DB38370C1F78DB30895F5DF84E0E8D8F2DFE9 // 014a0> O...b`pa.`.`{X.3.pAw.3..u_.`hXr_
:2014C00080E0E5D890E00895CF93C82FEBDF60E070E180E090E066D8882331F08DB38C1375 // 014c0> .`eX.`..O.H/k_``pa.`.`fX.#1p.3..
:2014E00003C081E0CF91089580E0D1D88823D1F3CC23B9F38C2FCF91CAC880E0E5DF90E077 // 014e0> .@.`O....`QX.#QsL#9s./O.JH.`e_.`
:20150000089580E0E1CFCF92DF92EF92FF926B017C0188E0D9DF882371F04FEFC701B60168 // 01500> ...`aOO._.o...k.|..`Y_.#qpOoG.6.
:2015200099D8882341F0BEDF837729F4FF90EF90DF90CF90E6CF80E0FF90EF90DF90CF90DD // 01520> .X.#Ap>_.w)t..o._.O.fO.`..o._.O.
:20154000089590E080E0089590E080E0089590E080E0089598E087FF1BC0089A20910B0A66 // 01540> ...`.`...`.`...`.`...`...@.. ...
:2015600020FFFCCF0A9A880F20910B0A216020930B0A1399816020910B0A20FFFCCF0A9858 // 01560>  .|O.... ...!` ......` ... .|O..
:2015800020910B0A216020930B0A915021F708950898E4CF1F93CF93DF93EC0180910B0ABA // 01580>  ...!` ....P!w....dO..O._.l.....
:2015A00080FFFCCF80910B0A816080930B0A1FB7F8948881CFDF8093AC608981CBDF8093B3 // 015a0> ..|O.....`.....7x...O_..,`..K_..
:2015C000AD608A81C7DF8093AE608B81C3DF8093AF601FBFDF91CF911F9108958BED90E673 // 015c0> -`..G_...`..C_../`.?_.O......m.f
:2015E000D9DF81E090E008958CED90E6D3DFA5EDB0E61696EC911697F0E0E555FF498081D3 // 015e0> Y_.`.`...m.fS_%m0f..l...p`eU.I..
:2016000017968C93179718961C9282E090E00895CF93DF93C0E0DCE018821092040C8CE796 // 01600> ...........`.`..O._.@`\`.......g
:2016200094E68093060C9093070C81E08093010C8EB3807C8EBB1FBA1CBA10927164109206 // 01620> .f.........`.....3.|.;.:.:..qd..
:2016400072641092706410926F6410926E6410926D644AE450E062E072E084E794E60E9469 // 01640> rd..pd..od..nd..mdJdP`b`r`.g.f..
:20166000EB2010926C64E4E5F3E681EA808780E281871286138681E090E08487958782E0E4 // 01660> k ..lddesf.j...b.......`.`.....`
:2016800090E086879787108A118A83E88883DF91CF9108958AE18A95F1F700C08FB7F89493 // 01680> .`.........h.._.O....a..qw.@.7x.
:2016A00010920608109205081CBA1DBA95E19093E205F1988FBF88E0809312040298039801 // 016a0> .........:.:.a..b.q..?.`........
:2016C0000895809150638430B1F010922A0A8FE08093000A24E030E020930A0B30930B0B3D // 016c0> ....Pc.01p..*..`....$`0` ...0...
:2016E0009CE090930C0B96E090930D0B8093000B84E080935063809106088111CBDF009848 // 016e0> .`.....`.........`..Pc......K_..
:201700000198029880915163833019F4049A069808950498FCCFCF93DF93E2E1F1E03197A1 // 01700> ......Qc.0.t........|OO._.baq`1.
:20172000F1F700C00000C1E0D0E002C0CC0FDD1F8A95E2F70E94C0028DB390E08C239D239C // 01720> qw.@..A`P`.@L.]...bw..@..3.`.#.#
:20174000892BC1F781E0DF91CF910895CF93DF93E2E1F1E03197F1F700C00000C1E0D0E026 // 01740> .+Aw.`_.O...O._.baq`1.qw.@..A`P`
:2017600002C0CC0FDD1F8A95E2F70E94C0028DB390E08C239D23892BC1F381E0DF91CF91BC // 01760> .@L.]...bw..@..3.`.#.#.+As.`_.O.
:201780000895CF93DF93E2E1F1E03197F1F700C00000C1E0D0E002C0CC0FDD1F8A95E2F7F2 // 01780> ..O._.baq`1.qw.@..A`P`.@L.]...bw
:2017A0000E94C9028DB390E08C239D23892BC1F381E0DF91CF910895CF93C82F6AE070E074 // 017a0> ..I..3.`.#.#.+As.`_.O...O.H/j`p`
:2017C00083E690E60E94A602811103C080E0CF91089584E0D6DF8823C9F3CC23C1F366E0C5 // 017c0> .f.f..&....@.`O....`V_.#IsL#Asf`
:2017E00070E087E990E6CF910C94A602F99B03C081E090E0089581E0DFDF8823B9F082E170 // 017e0> p`.i.fO...&.y..@.`.`...`__.#9p.a
:2018000091E00197F1F700C000000E94C902EC99FCCF0E94C002882359F3E899E9CFF99A33 // 01800> .`..qw.@....I.l.|O..@..#Ysh.iOy.
:20182000E0914863F09149630995E2CF90E080E00895CF92DF92EF92FF92CF93DF93F8995A // 01820> `.Hcp.Ic..bO.`.`..O._.o...O._.x.
:2018400009C0C0E08C2FDF91CF91FF90EF90DF90CF9008958091DC60853C99F7C0910B63BE // 01840> .@@`./_.O...o._.O.....\`.<.w@..c
:20186000D0910C638091E1609091E260C817D90741F7C090DD60D090DE60E090DF60F09092 // 01860> P..c..a`..b`H.Y.Aw@.]`P.^``._`p.
:20188000E06080911563909116638C159D05C9F60E945F016AE070E087E790E60E94A60219 // 01880> ``...c...c....Iv.._.j`p`.g.f..&.
:2018A000882379F285E06DDF882359F266E070E087E990E60E94A602882319F282E046DF68 // 018a0> .#yr.`m_.#Yrf`p`.i.f..&..#.r.`F_
:2018C000AE01C701B6010E94EC0283EF91E00197F1F700C0000063E070E084E890E60E9410 // 018c0> ..G.6...l..o.`..qw.@..c`p`.h.f..
:2018E000A60282E018DF63E070E081E890E60E94A602F9990CC066E070E087E990E6DF91E1 // 018e0> &..`._c`p`.h.f..&.y..@f`p`.i.f_.
:20190000CF91FF90EF90DF90CF900C94A60281E053DFC82F882379F383E018DF93CF4F9205 // 01900> O...o._.O...&..`S_H/.#ys.`._.OO.
:201920005F926F927F92AF92BF92CF92DF92EF92FF920F931F93CF93DF9300D000D0CDB7E2 // 01920> _.o.../.?.O._.o.......O._..P.PM7
:20194000DEB7F99914C075DF90E02496CDBFDEBFDF91CF911F910F91FF90EF90DF90CF90E9 // 01940> ^7y..@u_.`$.M?^?_.O.......o._.O.
:20196000BF90AF907F906F905F904F9008958091DC60C090DD60D090DE60E090DF60F090B9 // 01960> ?./...o._.O.....\`@.]`P.^``._`p.
:20198000E06096010091E1601091E2609EE4980F923008F046C085EDE82E80E6F82EC901F4 // 01980> ``....a`..b`.d...0.pF@.mh..fx.I.
:2019A000855D90466C01C701855D904680179107B0F5F701818990E089839A83C6018E0DB1 // 019a0> .].Fl.G..].F....0uw....`....F...
:2019C0009F1D8B839C836EDDCE0101965C0166E070E180E090E0F50141915F012B013C0118 // 019c0> ......n]N...\.f`pa.`.`u.A._.+.<.
:2019E000FFEF4F1A5F0A6F0A7F0A0E942A03811102C080E0A9CFC301B2016A3020E172079F // 019e0> .oO._.o.....*....@.`)OC.2.j0 ar.
:201A00008105910541F787E00E944703882389F349DD9FEFE91AF90A877029F2EACF81E012 // 01a00> ....Aw.`..G..#.sI].oi.y..p)rjO.`
:201A200093CF823221F09CE3980F923060F43ADDC701B60188279927A8010E9477038111E7 // 01a20> .O.2!p.c...0`t:]G.6..'.'(...w...
:201A40001CC090E023C0803B11F0803C09F56091F3627091F462C60ED71EF12CE12CC70189 // 01a40> .@.`#@.;.p.<.u`.sbp.tbF.W.q,a,G.
:201A6000B60148D8882321F01DDD84E00E94470319DDA801C701B601E0CF83E00E9447036D // 01a60> 6.HX.#!p.].`..G..](.G.6.`O.`..G.
:201A80008823F9F20FDD877091E0D9F6892F5CCFC701B60188279927A8010E94770354CFD4 // 01a80> .#yr.].p.`Yv./\OG.6..'.'(...w.TO
:201AA000CF92DF92EF92FF92CF93DF93F99909C0C0DE90E0DF91CF91FF90EF90DF90CF9059 // 01aa0> O._.o...O._.y..@@^.`_.O...o._.O.
:201AC00008958091DC60C090DD60D090DE60E090DF60F090E060C091E160D091E260823299 // 01ac0> ....\`@.]`P.^``._`p.``@.a`P.b`.2
:201AE00031F09EE4980F923010F0843C91F483E1EBDC811102C080E0DCCFAE01C701B601DD // 01ae0> 1p.d...0.p.<.t.ak\...@.`\O..G.6.
:201B00000E944D038823B9F3CDDC8377A1F7F9DCD0CF803C11F0853CC9F4C701B6010E9471 // 01b00> ..M..#9sM\.w!wy\PO.<.p.<ItG.6...
:201B20007A05882319F0C701B601EDDC82E0CCDC882309F3AE01C701B6010E944D038823AE // 01b20> z..#.pG.6.m\.`L\.#.s..G.6...M..#
:201B4000D1F2B0DC8377B9F6DCDCB3CF803B09F580E8E80EF11CFA9909C0C701B6010E94B2 // 01b40> Qr0\.w9v\\3O.;.u.hh.q.z..@G.6...
:201B60007A05882319F0C701B601CDDC82E0ACDC882309F4C0CFAE01C701B6010E94EC022B // 01b60> z..#.pG.6.M\.`,\.#.t@O..G.6...l.
:201B8000882309F4B8CF8EDC837709F0B4CFB9DC90CFAE01C701B6010E9477038ACFCF923E // 01b80> .#.t8O.\.w.p4O9\.O..G.6...w..OO.
:201BA000DF92EF92FF92CF93DF93F99909C041DE90E0DF91CF91FF90EF90DF90CF9008959B // 01ba0> _.o...O._.y..@A^.`_.O...o._.O...
:201BC0008091DC60C090DD60D090DE60E090DF60F090E060C091E160D091E260823231F014 // 01bc0> ..\`@.]`P.^``._`p.``@.a`P.b`.21p
:201BE0009EE4980F923010F0843C99F480E1C8DB811102C080E0DCCFAE01C701B6010E947A // 01be0> .d...0.p.<.t.aH[...@.`\O..G.6...
:201C000077038823B9F385E1BBDB882399F3B1DBCFCF803C11F0853C29F4AE01C701B601CD // 01c00> w..#9s.a;[.#.s1[OO.<.p.<)t..G.6.
:201C2000D7DBC6CF803B39F4C701B60180589F4FAE01F4DBBDCFAE01C701B6010E947703DC // 01c20> W[FO.;9tG.6..X.O..t[=O..G.6...w.
:201C4000B7CFCF92DF92EF92FF92CF93DF93F99909C0EFDD90E0DF91CF91FF90EF90DF9062 // 01c40> 7OO._.o...O._.y..@o].`_.O...o._.
:201C6000CF9008958091DC60C090DD60D090DE60E090DF60F090E060C091E160D091E2604C // 01c60> O.....\`@.]`P.^``._`p.``@.a`P.b`
:201C8000823231F09EE4980F923010F0843C91F483E176DB811102C080E0DCCFAE01C701B4 // 01c80> .21p.d...0.p.<.t.av[...@.`\O..G.
:201CA000B6010E944D038823B9F359DB8377A1F784DBD0CF803C11F0853CC9F4C701B601A6 // 01ca0> 6...M..#9sY[.w!w.[PO.<.p.<ItG.6.
:201CC0000E947A05882319F0C701B601CDDB82E057DB882309F3AE01C701B6010E944D03AD // 01cc0> ..z..#.pG.6.M[.`W[.#.s..G.6...M.
:201CE0008823D1F23CDB8377B9F667DBB3CF803B09F580E8E80EF11CFA9909C0C701B601F3 // 01ce0> .#Qr<[.w9vg[3O.;.u.hh.q.z..@G.6.
:201D00000E947A05882319F0C701B601ADDB82E037DB882309F4C0CFAE01C701B6010E946C // 01d00> ..z..#.pG.6.-[.`7[.#.t@O..G.6...
:201D2000EC02882309F4B8CF1ADB837709F0B4CF44DB90CFAE01C701B6010E9477038ACFFA // 01d20> l..#.t8O.[.w.p4OD[.O..G.6...w..O
:201D4000CF92DF92EF92FF92CF93DF93F99909C070DD90E0DF91CF91FF90EF90DF90CF9007 // 01d40> O._.o...O._.y..@p].`_.O...o._.O.
:201D600008958091DC60C090DD60D090DE60E090DF60F090E060C091E160D091E2608232F6 // 01d60> ....\`@.]`P.^``._`p.``@.a`P.b`.2
:201D800031F09EE4980F923010F0843C99F480E0F7DA811102C080E0DCCFAE01C701B6012C // 01d80> 1p.d...0.p.<.t.`wZ...@.`\O..G.6.
:201DA0000E9477038823B9F385E1EADA882399F3E0DACFCF803C11F0853C29F4AE01C701E5 // 01da0> ..w..#9s.ajZ.#.s`ZOO.<.p.<)t..G.
:201DC000B60106DBC6CF803B39F4C701B60180589F4FAE0123DBBDCFAE01C701B6010E94A0 // 01dc0> 6..[FO.;9tG.6..X.O..#[=O..G.6...
:201DE0007703B7CFCF92DF92EF92FF92CF93DF93F99909C01EDD90E0DF91CF91FF90EF9087 // 01de0> w.7OO._.o...O._.y..@.].`_.O...o.
:201E0000DF90CF9008958091DC60C090DD60D090DE60E090DF60F090E060C091E160D0917D // 01e00> _.O.....\`@.]`P.^``._`p.``@.a`P.
:201E2000E260823231F09EE4980F923010F0843C91F483E157DA811102C080E0DCCFAE01B8 // 01e20> b`.21p.d...0.p.<.t.aWZ...@.`\O..
:201E4000C701B6010E944D038823B9F341DA8377A1F765DAD0CF803C11F0853CC9F4C7012C // 01e40> G.6...M..#9sAZ.w!weZPO.<.p.<ItG.
:201E6000B6010E947A05882319F0C701B60159DA82E038DA882309F3AE01C701B6010E9439 // 01e60> 6...z..#.pG.6.YZ.`8Z.#.s..G.6...
:201E80004D038823D1F224DA8377B9F648DAB3CF803B09F580E8E80EF11CFA9909C0C701F1 // 01e80> M..#Qr$Z.w9vHZ3O.;.u.hh.q.z..@G.
:201EA000B6010E947A05882319F0C701B60139DA82E018DA882309F4C0CFAE01C701B6014B // 01ea0> 6...z..#.pG.6.9Z.`.Z.#.t@O..G.6.
:201EC0000E94EC02882309F4B8CF02DA837709F0B4CF25DA90CFAE01C701B6010E94770349 // 01ec0> ..l..#.t8O.Z.w.p4O%Z.O..G.6...w.
:201EE0008ACF0E945F01F99902C080E065DC6AE070E08DE690E60E94A602811102C020E071 // 01ee0> .O.._.y..@.`e\j`p`.f.f..&....@ `
:201F000045C083E03EDC8823D1F366E070E087E990E60E94A602882391F32FE181EA97E0E9 // 01f00> E@.`>\.#Qsf`p`.i.f..&..#.s/a.j.`
:201F2000215080409040E1F700C000002FE181EA97E0215080409040E1F700C000000E94DB // 01f20> !P.@.@aw.@../a.j.`!P.@.@aw.@....
:201F40005F0185E0E8DB80E0E6DB82E191E00197F1F700C000000E94C902EB99FCCF0E9466 // 01f40> _..`h[.`f[.a.`..qw.@....I.k.|O..
:201F6000C002882341F0EB9906C081E025DC882331F283E0EBDBFA9AF99AE0914863F0915C // 01f60> @..#Apk..@.`%\.#1r.`k[z.y.`.Hcp.
:201F80004963099521E0892B09F4B9CF822F08958091DC60811103C0A4DF90E0089581E0DC // 01f80> Ic..!`.+.t9O./....\`...@$_.`...`
:201FA00090E00895F5CFF4CF8091DC60811103C098DF90E00895873051F46091DD6070913C // 01fa0> .`..uOtO..\`...@._.`...0Qt`.]`p.
:201FC000DE608091DF609091E0609DDAF2CF81E090E008958091DC60811103C082DF90E0F9 // 01fc0> ^`.._`..``.ZrO.`.`....\`...@._.`
:201FE0000895873051F46091DD607091DE608091DF609091E06038DAF2CF81E090E00895E9 // 01fe0> ...0Qt`.]`p.^`.._`..``8ZrO.`.`..
:202000008091DC60811103C06CDF90E00895873051F46091DD607091DE608091DF609091EC // 02000> ..\`...@l_.`...0Qt`.]`p.^`.._`..
:20202000E0607FD9F2CF81E090E00895882349F02FE788E391E0215080409040E1F700C06A // 02020> ``.YrO.`.`...#Ip/g.c.`!P.@.@aw.@
:2020400000006B9880911204886080931204809113048860809313048091100488608093EB // 02040> ..k......`.........`.........`..
:2020600010048091110488608093110408958823A9F06B9A90911104977F9093110490918B // 02060> .......`.......#)pk.............
:202080001004977F9093100490911204977F9093120490911304977F909313046111C6CFCA // 02080> ............................a.FO
:2020A00008950F931F93CF93DF9300D0CDB7DEB71FBA07DBFF9A019A80912363811105C095 // 020a0> ......O._..PM7^7.:.[......#c...@
:2020C00081E08093236380E0B1DF83ED90E30197F1F700C000008091F1629091F26207977C // 020c0> .`..#c.`1_.m.c..qw.@....qb..rb..
:2020E00020F08091DB60811102C0F69B11C0019880E68093010A1092210A81E08093000A66 // 020e0>  p..[`...@v..@...f......!..`....
:20210000E3EFF1E03197F1F700C00000699AFC9AFFE121EA87E0F15020408040E1F700C0C8 // 02100> coq`1.qw.@..i.|..a!j.`qP @.@aw.@
:2021200000008FB7F89490E19093E20590E890931204029A90E29093040820E03AE0209397 // 02120> ...7x..a..b..h.......b.... `:` .
:202140000808309309089BE6909307089AE09093050898EC909306088FBF84E190E00E94C4 // 02140> ..0....f.....`.....l.....?.a.`..
:20216000550582EC0E949502811109C090E080E00F900F90DF91CF911F910F91089585E0D3 // 02160> U..l.......@.`.`...._.O........`
:202180000E941205882391F38FE80E9495028823D9F30E9494028823B9F38DB38038A1F711 // 02180> .....#.s.h.....#Ys.....#9s.3.8!w
:2021A000F89AFF9803E510E6F80181918F010E9495028823D9F2F0E60C351F07A9F718E0F9 // 021a0> x....e.fx..........#Yrpf.5..)w.`
:2021C00084E190E00E94550580E80E949502811103C01150A9F7E6CF0E9494028823C9F3E3 // 021c0> .a.`..U..h.......@.P)wfO.....#Is
:2021E0008DB38230B1F719821A8281EC9FE30E943D058823A9F00E943705882389F08DB3B5 // 021e0> .3.01w.....l.c..=..#)p..7..#.p.3
:202200008A830E943705882311F08DB3898389819A818E3022E9920729F08F30914949F069 // 02200> ....7..#.p.3.......0"i..)p.0.IIp
:2022200082E001C088E08093D360F99A81E090E09FCF84E0F8CF45DAFF9A109214040C98BA // 02220> .`.@.`..S`y..`.`.O.`xOEZ........
:20224000049A069A80912363811105C081E08093236380E0EBDE0C9A82E191E00197F1F735 // 02240> ......#c...@.`..#c.`k^...a.`..qw
:2022600000C000000E94350280E190E00E94F30665E070E08AE490E60E943407811103C0AE // 02260> .@....5..a.`..s.e`p`.d.f..4....@
:2022800004D803D8F5CF0E9410078823C9F38DB38530B1F7F89AFF9881E090E008952091BE // 02280> .X.XuO.....#Is.3.01wx....`.`.. .
:2022A00052633091536350E040E060E177E280E090E00E942A21822F632F772767FD7A95F7 // 022a0> Rc0.ScP`@``awb.`.`..*!./c/w'g}z.
:2022C00091E06115710581F0C90144E0959587954A95E1F720E13202212D330B112499E0D6 // 022c0> .`a.q..pI.D`....J.aw a2.!-3..$.`
:2022E000232B11F0862F9DE01092000A1092010A81508093200A8093260A9093000A0198ED // 022e0> #+.p./.`.........P.. ...&.......
:202300008FE99FE00197F1F700C00000019A9FE728E381E0915020408040E1F700C0000060 // 02300> .i.`..qw.@.....g(c.`.P @.@aw.@..
:2023200082EE90E637D9E091E160F0E0E555FF4990818091E0609817F1F001988FE99FE021 // 02320> .n.f7Y`.a`p`eU.I....``..qp...i.`
:202340000197F1F700C00000019A9FE728E381E0915020408040E1F700C0000082EE90E631 // 02340> ..qw.@.....g(c.`.P @.@aw.@...n.f
:2023600019D9E091E160F0E0E555FF4990818091E0609813FFCF83E08FBB81E090E0089571 // 02360> .Y`.a`p`eU.I....``...O.`.;.`.`..
:20238000CF93109228638FEF9FEFDC018093246390932563A0932663B093276380E892E01D // 02380> O...(c.o.o\...$c..%c .&c0.'c.h.`
:2023A000809348639093496384EA9AE080934A6390934B6387EA9AE080934C6390934D6397 // 023a0> ..Hc..Ic.j.`..Jc..Kc.j.`..Lc..Mc
:2023C00081EA9AE080934E6390934F637AD9FF9A0898099880912363811105C081E08093F0 // 023c0> .j.`..Nc..OczY........#c...@.`..
:2023E000236380E023DE8091F1629091F262079740F08091DC60882321F08091D46081116F // 023e0> #c.`#^..qb..rb..@p..\`.#!p..T`..
:2024000002C0F69B22C0809122638130F1F090E69093010A1092210A91E09093000AE3EF7E // 02400> .@v."@.."c.0qp.f......!..`....co
:20242000F1E03197F1F700C0000081116CC0689A8FE99FE00197F1F700C000001092010AB7 // 02420> q`1.qw.@....l@h..i.`..qw.@......
:202440008FE08093000A68986A98009AE3EDF0E33197F1F700C000000098109BFECFCFB7AB // 02440> .`....h.j...cmpc1.qw.@......~OO7
:20246000F89480E18093E20580E280930408209152633091536350E040E060E071E782E0CD // 02460> x..a..b..b.... .Rc0.ScP`@```qg.`
:2024800090E00E942A21DA01C9010196A11DB11DB595A7959795879580349105A105B105A3 // 02480> .`..*!Z.I...!.1.5.'......4..!.1.
:2024A000BCF10097F1E0AF07B10520F08FEF9FEFA0E0B0E080930808909309088BE2809398 // 024a0> <q..q`/.1. p.o.o `0`.........b..
:2024C00007088AE08093050888EC80930608CFBF6BE070E08CE890E60E94A6028823E9F0ED // 024c0> ...`.....l....O?k`p`.h.f..&..#ip
:2024E0000E9483028823C9F08DB38531B1F462E070E08AE890E60E94A602811111C090E01F // 024e0> .....#Ip.3.11tb`p`.h.f..&....@.`
:2025000080E0CF910895823009F092CF6A9A90CF80E490E0A0E0B0E0CDCF0E94C004D8CF62 // 02500> .`O....0.p.Oj..O.d.` `0`MO..@.XO
:2025200060E270E088E293E60E94BA03882339F380913263863361F58BE899E08093486391 // 02520> `bp`.b.f..:..#9s..2c.3au.h.`..Hc
:20254000909349638FEB94E080934A6390934B6380E090E180934C6390934D6382EF9EE0D8 // 02540> ..Ic.k.`..Jc..Kc.`.a..Lc..Mc.o.`
:2025600080934E6390934F6380912863E8E2F3E6803211F4ECE2F3E684E0ACEDB0E6019001 // 02560> ..Nc..Oc..(chbsf.2.tlbsf.`,m0f..
:202580000D928A95E1F7F89AFF9885E090E0B9CF8533A9F487EE99E080934863909349634F // 02580> ....awx....`.`9O.3)t.n.`..Hc..Ic
:2025A0008EEB94E080934A6390934B6383ED9FE080934C6390934D6380EA9EE0D1CF8433DA // 025a0> .k.`..Jc..Kc.m.`..Lc..Mc.j.`QO.3
:2025C000A9F489ED99E080934863909349638FE894E080934A6390934B638AEE9FE080935C // 025c0> )t.m.`..Hc..Ic.h.`..Jc..Kc.n.`..
:2025E0004C6390934D6381E29EE0BACF8333A9F48FED99E080934863909349638EE894E030 // 025e0> Lc..Mc.b.`:O.3)t.m.`..Hc..Ic.h.`
:2026000080934A6390934B6382ED9FE080934C6390934D638FEC9DE0A3CF8233A9F48DE776 // 02600> ..Jc..Kc.m.`..Lc..Mc.l.`#O.3)t.g
:202620009AE0809348639093496380E694E080934A6390934B6384ED9FE080934C63909353 // 02620> .`..Hc..Ic.f.`..Jc..Kc.m.`..Lc..
:202640004D6380E59DE08CCF803309F058CF8CE59AE0809348639093496385E394E0809353 // 02640> Mc.e.`.O.3.pXO.e.`..Hc..Ic.c.`..
:202660004A6390934B6388EC9FE080934C6390934D638FE89CE074CF4F925F926F927F923A // 02660> Jc..Kc.l.`..Lc..Mc.h.`tOO._.o...
:202680008F929F92AF92BF92CF92DF92EF92FF920F931F93CF93DF932091DB60C090DF60CF // 02680> ..../.?.O._.o.......O._. .[`@._`
:2026A000D090E060DC24CD24DC24E090E160F090E260FE24EF24FE244090D360642C712C8F // 026a0> P.``\$M$\$`.a`p.b`~$o$~$@.S`d,q,
:2026C000C3010197C3EED0E63FEFAC014C215D21452B79F43FEF4C018E209F208114910482 // 026c0> C...CnPf?o,.L!]!E+yt?oL.. . ....
:2026E00081F0F601EE0DFF1D3083FFEFEF1AFF0AF2CF41E0C41AD108EFEFEE1AFE0A3A9354 // 026e0> .pv.n...0..oo...rOA`D.Q.oon.~.:.
:20270000E4CF213021F5B12CA12C86010A0D1B1DAE14BF0408F09DC00E941F05882381F063 // 02700> dO!0!u1,!,........?..p.@.....#.p
:20272000C8010E943D05882359F08DE10E941305882331F088810E942B05811137C02196E9 // 02720> H...=..#Yp.a.....#1p....+...7@!.
:20274000F3E0F41508F447C00E941F051DC00E941F058823C9F0C60181600E943D05882396 // 02740> s`t..tG@.....@.....#IpF..`..=..#
:2027600099F084E10E941305882371F08FEF0E942B05882349F00E941F05882329F080E087 // 02760> .p.a.....#qp.o..+..#Ip.....#)p.`
:202780000E9413058111BFCFC401DF91CF911F910F91FF90EF90DF90CF90BF90AF909F90E1 // 02780> ......?OD._.O.......o._.O.?./...
:2027A0008F907F906F905F904F9008958E010E5F1F4F89810E942B05582E43E0E801441550 // 027a0> ....o._.O......_.O....+.X.C`h.D.
:2027C00058F00E941F055520F9F28823E9F2A60CB71CE8019ACF512C80E190E00E945505E4 // 027c0> Xp....U yr.#ir&.7.h..OQ,.a.`..U.
:2027E00088810E942B058E01811121C00F5F1F4F582288E04812E5CF80E190E00E94550563 // 027e0> ....+.....!@._.OX".`H.eO.a.`..U.
:20280000F80180810E942B05E801811116C02196582280E190E00E94550588810E942B05C2 // 02800> x.....+.h....@!.X".a.`..U.....+.
:202820008E01811110C00F5F1F4F5822CACF0E5F1F4F89810E942B05DBCF2296F8018181A4 // 02820> .....@._.OX"JO._.O....+.[O".x...
:202840000E942B05E5CF0E5F1F4F89810E942B05ECCF80E00E941305882E912C95CF0F93ED // 02840> ..+.eO._.O....+.lO.`.......,.O..
:202860001F93CF93DF938091DE609091DF60C091E060D091E160DC27CD27DC279827892787 // 02860> ..O._...^`.._`@.``P.a`\'M'\'.'.'
:2028800098270E943D0505ED10E6C801855D90468C179D0760F40E9437050F5F1F4F88232C // 02880> .'..=..m.fH..].F....`t..7.._.O.#
:2028A00021F08DB3F8018683F0CFD0E0C0E0CE01DF91CF911F910F910895CF93DF93C09105 // 028a0> !p.3x...pOP`@`N._.O.......O._.@.
:2028C000DE60D091DF60DC27CD27DC278091DB608130E9F40E941F05811105C090E080E059 // 028c0> ^`P._`\'M'\'..[`.0it.......@.`.`
:2028E000DF91CF910895CE0181600E943D058823A9F380E10E941305882381F38FEF0E9436 // 028e0> _.O...N..`..=..#)s.a.....#.s.o..
:202900002B05882359F30E941F0590E0E9CF0E941F05882319F3CE0181600E943D058823E6 // 02900> +..#Ys.....`iO.....#.sN..`..=..#
:20292000E9F284E1E7CFCF92DF92EF92FF920F931F93CF93DF9300D0CDB7DEB78091B0608B // 02920> ir.agOO._.o.......O._..PM7^7..0`
:202940009091B16089839A830091DB601091DC60102701271027D090DD6085EDE82E80E652 // 02940> ..1`......[`..\`.'.'.'P.]`.mh..f
:20296000F82ECD2C6894C3F8C701855D90468017910728F5D092A8608A818093A96089811A // 02960> x.M,h.CxG..].F....(uP.(`....)`..
:202980008093AA601092AB6088EA90E60E94CA0A8091AF60F7018783C092A86088EA90E6AB // 02980> ..*`..+`.j.f..J.../`w...@.(`.j.f
:2029A0000E94CA0A8091AF60F701808789819A81019689839A83F2E0EF0EF11CD5CFF80124 // 029a0> ..J.../`w.............r`o.q.UOx.
:2029C000EB52FF491782C80101960F900F90DF91CF911F910F91FF90EF90DF90CF900895A2 // 029c0> kR.I..H......._.O.......o._.O...
:2029E000DF92EF92FF920F931F93CF93DF9300D0CDB7DEB78091B0609091B16089839A83C7 // 029e0> _.o.......O._..PM7^7..0`..1`....
:202A00000091DB601091DC60102701271027D090DD6085EDE82E80E6F82EC701855D904646 // 02a00> ..[`..\`.'.'.'P.]`.mh..fx.G..].F
:202A200080179107D8F4D092A8608A818093A96089818093AA601092AB6088EA90E60E94AC // 02a20> ....XtP.(`....)`....*`..+`.j.f..
:202A4000CA0A8091AF60F701878389819A81019689839A83FFEFEF1AFF0ADFCFF801EB52B7 // 02a40> J.../`w..............oo..._Ox.kR
:202A6000FF491782C80101960F900F90DF91CF911F910F91FF90EF90DF90089520914101AA // 02a60> .I..H......._.O.......o._... .A.
:202A80002111FCCF2091480130914901820F931F20914801309149012817390711F0A8952F // 02a80> !.|O .H.0.I..... .H.0.I.(.9..p(.
:202AA000F7CF08958DED90E60E94CA0A8091DC6090E08930910510F489E090E0DFDF81E045 // 02aa0> wO...m.f..J...\`.`.0...t.`.`__.`
:202AC00090E00895CF93DF93C42F86FF12C080EF8093A8601092A9601092AA6088EA90E602 // 02ac0> .`..O._.D/...@.o..(`..)`..*`.j.f
:202AE0000E94CA0A8091AB6080FDF8CFDF91CF91089585FF06C08091AB60D091E1608F3FBD // 02ae0> ..J...+`.}xO_.O......@..+`P.a`.?
:202B000029F4862F90E0DF91CF91B8CFD093A86088EA90E60E94CA0A8091AF608C17B1F3EC // 02b00> )t./.`_.O.8OP.(`.j.f..J.../`..1s
:202B2000E5CF2F923F924F925F926F927F928F929F92AF92BF92CF92DF92EF92FF920F9301 // 02b20> eO/.?.O._.o......./.?.O._.o.....
:202B40001F93CF93DF9300D0CDB7DEB78091B0609091B16089839A830091DB601091DC60E1 // 02b40> ..O._..PM7^7..0`..1`......[`..\`
:202B60001027012710276090DD607090DF604090E0605090E3607801F694E79433243A947D // 02b60> .'.'.'`.]`p._`@.``P.c`x.v.g.3$:.
:202B80003E0CA090DE6085E0A81610F425E0A22E85EDC82E80E6D82E99E0892E912C075F5A // 02b80> >. .^`.`(..t%`"..mH..fX..`...,._
:202BA0001F4F272C689423F8E2E0CE0ED11C8016910640F57092A8601092A960B980B3208F // 02ba0> .O',h.#xb`N.Q.....@up.(`..)`9.3 
:202BC000B092AA60F60185858093AB6088EA90E60E94CA0A2092A8608A818093A960B09209 // 02bc0> 0.*`v.....+`.j.f..J. .(`....)`0.
:202BE000AA60F2E08F0E911CF60186858093AB6088EA90E60E94CA0A89819A810196898369 // 02be0> *`r`....v.....+`.j.f..J.........
:202C00009A83D2CF4092A8608091B1608093A960E1948091B060E822E092AA601092AB6015 // 02c00> ..RO@.(`..1`..)`a...0`h"`.*`..+`
:202C200088EA90E60E94CA0A452D6A2D862D4ADF81E090E00F900F90DF91CF911F910F9122 // 02c20> .j.f..J.E-j-.-J_.`.`...._.O.....
:202C4000FF90EF90DF90CF90BF90AF909F908F907F906F905F904F903F902F9008954F92D4 // 02c40> ..o._.O.?./.......o._.O.?./...O.
:202C60005F926F927F928F929F92AF92BF92CF92DF92EF92FF920F931F93CF93DF9300D091 // 02c60> _.o......./.?.O._.o.......O._..P
:202C8000CDB7DEB78091B0609091B16089839A83E090DB60F090DC60FE24EF24FE24009150 // 02c80> M7^7..0`..1`....`.[`p.\`~$o$~$..
:202CA000DD601091DE606090DF607090E360C70109966C0100FF57C05090E0604E2C1430BE // 02ca0> ]`..^``._`p.c`G...l...W@P.``N,.0
:202CC00008F414E024EE822E20E6922E39E0A32EB12C4A94AC14BD04D0F46092A8601092F6 // 02cc0> .t.`$n.. f..9`#.1,J.,.=.Pt`.(`..
:202CE000A960898184218093AA609FEFA91AB90AF40181914F018093AB6088EA90E60E94EC // 02ce0> )`...!..*`.o).9.t...O...+`.j.f..
:202D0000CA0A89819A81019689839A83E3CF5092A8608091B1608093A9609E2D919580911E // 02d00> J...........cOP.(`..1`..)`.-....
:202D2000B06098239093AA601092AB6088EA90E60E94CA0A472D612F802FC4DE81E090E06A // 02d20> 0`.#..*`..+`.j.f..J.G-a/./D^.`.`
:202D40000F900F90DF91CF911F910F91FF90EF90DF90CF90BF90AF909F908F907F906F904F // 02d40> ...._.O.......o._.O.?./.......o.
:202D60005F904F900895000F000F000F143008F419E084EEA82E80E6B82E99E0E92EF12C41 // 02d60> _.O..........0.t.`.n(..f8..`i.q,
:202D8000EC14FD04D8F66092A8608A818093A96089818093AA60FFEFEF1AFF0AF501819114 // 02d80> l.}.Xv`.(`....)`....*`.oo...u...
:202DA0005F018093AB6088EA90E60E94CA0A89819A81019689839A83472D612F802F82DE3F // 02da0> _...+`.j.f..J...........G-a/./.^
:202DC000DFCFA8958091B26081508093B260882391F080915263909153639C013695279502 // 02dc0> _O(...2`.P..2`.#.p..Rc..Sc..6.'.
:202DE00036952795821B930B809352639093536381E090E0089590E080E008951F920F9243 // 02de0> 6.'.......Rc..Sc.`.`...`.`......
:202E00000FB60F9211242F933F934F935F936F937F938F939F93AF93BF93CF93EF93FF933D // 02e00> .6...$/.?.O._.o......./.?.O.o...
:202E2000C0910108209100088C2F8674B1F4F2995DC08CEE93E6E091706431E03E0F309324 // 02e20> @... ..../.t1tr.]@.n.f`.pd1`>.0.
:202E40007064E80FF92FF11D208380917064803408F04FC08EE180936D648CB3C82BCCBB22 // 02e40> pdh.y/q. ...pd.4.pO@.a..md.3H+L;
:202E60008091A46481FF30C080E0E29980E1E1998062E69980641CBAF49B26C090916C6492 // 02e60> ..$d..0@.`b..aa..bf..d.:t.&@..ld
:202E8000891711F180936C6491EA90935C6390E290935D6310925E6310925F6321E030E023 // 02e80> ...q..ld.j..\c.b..]c..^c.._c!`0`
:202EA000209360633093616322E030E0209362633093636390E080936463909365638091BC // 02ea0>  .`c0.ac"`0` .bc0.cc.`..dc..ec..
:202EC000A46481FD0E94FC01FF91EF91CF91BF91AF919F918F917F916F915F914F913F91CD // 02ec0> $d.}..|...o.O.?./.......o._.O.?.
:202EE0002F910F900FBE0F901F9018958CE294E6A2CF0E94C801B1CF112462E070E08CEB29 // 02ee0> /....>.......b.f"O..H.1O.$b`p`.k
:202F000090E60E94CB201092420182E0809343011895CF93DF93CDB7DEB72897CDBFDEBF8E // 02f00> .f..K ..B..`..C...O._.M7^7(.M?^?
:202F20008D839E836B837C834F83588719821A8289819A81892B11F58CEB90E60E94AB2052 // 02f20> ....k.|.O.X..........+.u.k.f..+ 
:202F4000892B21F5E1E4F1E080818111FDCF80914801909149012F813885820F931F80932A // 02f40> .+!uadq`....}O..H...I./.8.......
:202F60004C0190934D0182E08093430180934201ED81FE81099589839A83C5DF89819A8107 // 02f60> L...M..`..C...B.m.~.......E_....
:202F80002896CDBFDEBFDF91CF910895BCDF2B813C812115310591F3F9010995892B41F666 // 02f80> (.M?^?_.O...<_+.<.!.1..sy....+Av
:202FA000EDCFCF938091DA60803109F065C0C091F162FF993FC01092B0601092B1600E9497 // 02fa0> mOO...Z`.1.pe@@.qb..?@..0`..1`..
:202FC000610B109250638091E10581608093E1051092C00182E08093CB018AE08093C90174 // 02fc0> a...Pc..a..`..a...@..`..K..`..I.
:202FE00091E49093C80191E09093C0011092000B10920A0B10920B0B29E020930C0B24E028 // 02fe0> .d..H..`..@.............)` ...$`
:2030000020930D0B27E02093010B9093000B2FE738E391E0215030409040E1F700C0000006 // 03000>  ...'` ......./g8c.`!P0@.@aw.@..
:20302000809302048FE08093060485E08093010480E88FBBC650CB3038F480E88093DB60C9 // 03020> .....`.....`.....h.;FPK08t.h..[`
:2030400081E090E0CF91089584E08093B2604091DB6050E061EE76E18FE491E15ADF009782 // 03040> .`.`O....`..2`@.[`P`anva.d.aZ_..
:2030600061F3FC01EB52FF4917828230910580F101961092DB60E6CF813169F58FB3882302 // 03060> as|.kR.I...0...q....[`fO.1iu.3.#
:2030800029F11092000A8FE08093000A8093060480930204109250638091E1058E7F80933C // 03080> )q.....`..............Pc..a.....
:2030A000E1051092C0011092CB011092C9011092C80181E08093C0011092000B61E00E94BD // 030a0> a...@...K...I...H..`..@.....a`..
:2030C00037101FBA0E94610B0E94E9051092DD6081E090E0CECF8D3181F46091DB60709185 // 030c0> 7..:..a...i...]`.`.`NO.1.t`.[`p.
:2030E000DC606115710591F388EE93E00E94F4206093526370935363E9CF8E3159F480914F // 030e0> \`a.q..s.n.`..t `.Rcp.SciO.1Yt..
:203100005263909153638093DB609093DC6082E090E098CFF99902C080EC90CF863079F4FB // 03100> Rc..Sc..[`..\`.`.`.Oy..@.l.O.0yt
:203120006091DB607091DC608091DD609091DE600E9446216093B0607093B160C7CF823110 // 03120> `.[`p.\`..]`..^`..F!`.0`p.1`GO.1
:2031400039F440E253E070E060E082E595E186CF833139F440E253E070E060E081E995E185 // 03140> 9t@bS`p```.e.a.O.19t@bS`p```.i.a
:203160007DCF843139F440E253E070E060E083E994E174CF853139F440E253E070E060E050 // 03160> }O.19t@bS`p```.i.atO.19t@bS`p```
:203180008FE296E16BCF863139F440E253E070E060E080EF94E162CF873111F0893189F43F // 03180> .b.akO.19t@bS`p```.o.abO.1.p.1.t
:2031A00040E253E070E060E08EEE9AE0B2DE1092DC60892B21F480E88093DB60A8CF80E070 // 031a0> @bS`p```.n.`2^..\`.+!t.h..[`(O.`
:2031C000FBCF883119F08A51833038F440E253E070E060E084EF9AE041CF89EC2FCF1F92A3 // 031c0> {O.1.p.Q.08t@bS`p```.o.`AO.l/O..
:2031E0000F920FB60F921124F79A0F900FBE0F901F901895CF93DF93CDB7DEB72597CDBF66 // 031e0> ...6...$w....>......O._.M7^7%.M?
:20320000DEBF67E36CB9639A88E08093120480931304809310048CE0809311048BE08093B1 // 03200> ^?gcl9c..`.............`.....`..
:20322000B60484E88093B2048093740483E28093180493E09093E70589E08093110281E10D // 03220> 6..h..2...t..b.....`..g..`.....a
:203240008093120282E18093130280E48093140271E47093150254E050932B0225E02093C4 // 03240> .....a.....d....qdp...T`P.+.%` .
:2032600022022093260236E0309327029093320242E0409331029093CF016093CD0181E0B9 // 03260> ". .&.6`0.'...2.B`@.1...O.`.M..`
:203280008093CC0166EF6093D7016AE06093D601E3E4E093D5017093D4013093D3016093A8 // 03280> ..L.fo`.W.j``.V.cd`.U.p.T.0.S.`.
:2032A000D2016AE96093D1018093D0018093C0018093030A60E560932C0A40932B0A409302 // 032a0> R.ji`.Q...P...@.....`e`.,.@.+.@.
:2032C0002D0A9093270A47E04093010B63EC74E060931C0B70931D0B8093140B3093110B64 // 032c0> -...'.G`@...clt``...p.......0...
:2032E0002093100B24E7209356018093500129E22093400124E1209366008093000690932E // 032e0>  ...$g .V...P.)b .@.$a .f.......
:203300000106509302068AEF809304069093050684E480930B068091080680FDFCCF80E3A1 // 03300> ..P....o.........d.........}|O.c
:2033200080930A060E9465050E94B1050E94610B88ED98E084BF909300018FEF87BB8093D1 // 03320> ......e...1...a..m.`.?.....o.;..
:20334000C70178948AEF90E099DB80915063833011F00E94B1051092030C8091000C0E94FC // 03340> G.x..o.`.[..Pc.0.p..1...........
:20336000080BFF24F394B7E04B2E512C10E8812E15E2912EA12CB12CCC24C394D12C3E0179 // 03360> ...$s.7`K.Q,.h...b..!,1,L$C.Q,>.
:2033800025E0620E711CFF2019F0A895FF24F39410910A0C10930A0C17FF14C080916D64E0 // 03380> %`b.q.. .p(..$s............@..md
:2033A000882381F080916D64815080936D64811109C08091B46481FF05C08091706481111A // 033a0> .#.p..md.P..md...@..4d...@..pd..
:2033C0000E94C801812F8076D9F0F09B18C08091010C8E7F8093010CF098A8954FE181EA05 // 033c0> ..H../.vYpp..@..........p.(.Oa.j
:2033E00097E0415080409040E1F700C000001092000C88ED91E084BF90930001FFCF106163 // 033e0> .`AP.@.@aw.@.......m.`.?.....O.a
:2034000014FF0DC080915063833011F00E94B1051092030C8091000C81110E94080B8091D6 // 03400> ...@..Pc.0.p..1.................
:203420007C6484FFA8C01091546384E08093000217FF0E942902107609F0C9C1809155633B // 03420> |d..(@..Tc.`........)..v.pIA..Uc
:2034400081110FC010925C6310925D6382E090E080938664909387640E941D020E942902DD // 03440> ...@..\c..]c.`.`...d...d......).
:2034600085C08130C9F480915663811110C0E0915863E29580910B0C82FDFCCFF0E0F595FE // 03460> .@.0It..Vc...@`.Xcb......}|Op`u.
:20348000E795F595E795E05CF34F8BE080831092866410928764E0CF8430C9F3853061F47C // 03480> g.u.g.`\sO.`.....d...d`O.0Is.0at
:2034A000109156631F770E941D028091846481FFFCCF1093030CEBCF863009F06AC1309011 // 034a0> ..Vc.w.......d..|O....kO.0.pjA0.
:2034C0005A63E0905B638091566390915763913001F542E150E069ED71E08CE593E67BD670 // 034c0> Zc`.[c..Vc..Wc.0.uBaP`imq`.e.f{V
:2034E0008091001490910114A0910214B09103148F3FEFEF9E07AE07BE0741F080936463FC // 034e0> ........ ...0....?oo....>.Ap..dc
:2035000090936563A0936663B093676302E110E01EC0923009F425C1963009F42BC19132EF // 03500> ..ec .fc0.gc.a.`.@.0.t%A.0.t+A.2
:2035200009F42DC1923209F42FC18115F3E09F0709F075C084E080935C6393E090935D6326 // 03520> .t-A.2.t/A..s`...pu@.`..\c.`..]c
:2035400099E090935E6380935F6304E010E0832D9E2D0817190708F4C80198018C0100932D // 03540> .`..^c.._c.`.`.-.-.....tH.......
:20356000866410938764232B09F076CF80910B0C846080930B0C8FB38370B9F4F69BADC130 // 03560> .d...d#+.pvO.....`.....3.p9tv.-A
:20358000B69B13C001988EE290E60E946C018DE790E074DA8091B36080931402F09B9AC114 // 03580> 6..@...b.f..l..g.`tZ..3`....p..A
:2035A0000E94CC058EB38F738EBBF09BECCEF19BE0C1F39914C08091040885FF10C08091B8 // 035a0> ..L..3.s.;p.lNq.`As..@.......@..
:2035C000AC6481FF0CC0F19B0AC02091AE643091AF6480916F648213ADC10E94B701F39BD3 // 035c0> ,d...@q..@ ..d0./d..od..-A..7.s.
:2035E00012C080917164909172649C012F5F3F4F2230310540F0059708F4C0C18091A46479 // 035e0> .@..qd..rd../_?O"01.@p...t@A..$d
:2036000081FD0E94FC0180919C6481FDBEC1F99BBACEF799F12C8EB38F738EBBB4CE8230F6 // 03600> .}..|....d.}>Ay.:Nw.q,.3.s.;4N.0
:2036200023E0920741F160F404E310E06DE071E08130934079F010E000E070E060E00AC0DC // 03620> #`..Aq`t.c.`m`q`.0.@yp.`.`p```.@
:2036400083309807E9F008E110E06FEA70E08430934089F700935C6383E080935D63A80185 // 03640> .0..ip.a.`ojp`.0.@.w..\c.`..]c(.
:20366000425051098EE593E60115110509F080C030E020E074CF06E410E067EC70E0EACF84 // 03660> BPQ..e.f.....p.@0` `tO.d.`glp`jO
:203680004091041450910514609106147091071449835A836B837C834F3F8FEF58076807B0 // 03680> @...P...`...p...I.Z.k.|.O?.oX.h.
:2036A000780759F5E0E8F0E1CF01019620814227E8E08A019B0136952795179507954170C4 // 036a0> x.Yu`hpaO... .B'h`....6.'.....Ap
:2036C00055276627772770956095509541955F4F6F4F7F4F40725378687B7D7E402751271A // 036c0> U'f'w'p.`.P.A._OoO.O@rSxh{}~@'Q'
:2036E00062277327E15029F7FC01E03A90E1F907D9F649835A836B837C8386E180935C6330 // 036e0> b's'aP)w|.`:.ay.YvI.Z.k.|..a..\c
:2037000083E080935D638DE480935E6310925F6388E58093606310926163E2E6F3E6DE01A1 // 03700> .`..]c.d..^c.._c.e..`c..acbfsf^.
:2037200011968D91282F30E044E0359527954A95E1F790E3920F9A3310F097E3920F9083ED // 03720> ....(/0`D`5.'.J.aw.c...3.p.c....
:2037400011828F7090E3980F9A3310F097E3980F9283138234966A167B0619F706E110E073 // 03740> ...p.c...3.p.c......4.j.{..w.a.`
:20376000F6CE0BE610E064E671E0A8018CE593E632D5EDCE0AE010E06FEC71E0F6CF09E080 // 03760> vN.f.`dfq`(..e.f2UmN.`.`olq`vO.`
:2037800010E066E771E0F1CF03E210E061E471E0ECCF883049F480916E6480935C63C092B9 // 03780> .`fgq`qO.b.`adq`lO.0It..nd..\c@.
:2037A0008664D092876458CE893041F48091566380936E64F09A0E94CC0569CE8A3019F414 // 037a0> .dP..dXN.0At..Vc..ndp...L.iN.0.t
:2037C00010925C63ECCF8B3009F0D0CE60CE103209F0CCCE809155638A3009F458CE803220 // 037c0> ..\clO.0.pPN`N.2.pLN..Uc.0.tXN.2
:2037E00039F580917C6481FFFCCF47E050E06CE573E681EA90E651D5892B91F08091AC6401 // 037e0> 9u..|d..|OG`P`lesf.j.fQU.+.p..,d
:2038000081FD0E94B7010E94610B87E0ECE5F3E6A1EAB0E601900D928A95E1F70E94E905D9 // 03800> .}..7...a..`lesf!j0f......aw..i.
:20382000F49A1092706410926F6410926D642FCE813229F587E0E1EAF0E6ACE5B3E601900B // 03820> t...pd..od..md/N.2)u.`ajpf,e3f..
:203840000D928A95E1F780915C6390915D63A0915E63B0915F63892B8A2B8B2B59F48092AE // 03840> ....aw..\c..]c .^c0._c.+.+.+Yt..
:203860005C6390925D63A0925E63B0925F6388E0809362634092866450928764EDCD823279 // 03860> \c..]c .^c0._c.`..bc@..dP..dmM.2
:2038800059F4809156639091A06090FD02C080FDF79A8093A060FBCD833209F067CE8091C4 // 03880> Yt..Vc.. `.}.@.}w... `{M.2.pgN..
:2038A0005663909157638093716490937264892B71F0F19B0AC0F39908C0F49810926D64D5 // 038a0> Vc..Wc..qd..rd.+qpq..@s..@t...md
:2038C0008091060881110E944A0BF39AE0CD0E947A06DDCD0E94B10565CEF79B66CEF6995A // 038c0> ........J.s.`M..z.]M..1.eNw.fNv.
:2038E00064CE809114028093B36082E180931402809150638330B1F010922A0A8FE080934D // 038e0> dN......3`.a......Pc.01p..*..`..
:20390000000A2EE130E020930A0B30930B0B90E490930C0B90E290930D0B8093000B83E001 // 03900> ...a0` ...0....d.....b.........`
:2039200080935063019A8CE390E60E946C01F69ABE983BCE4091AE645091AF64282F30E005 // 03920> ..Pc...c.f..l.v.>.;N@..dP./d(/0`
:2039400010E04217530739F08F5F80936F6424553C49F90110818091AE649091AF64209136 // 03940> .`B.S.9p._..od$U<Iy......d../d .
:203960006F642817190611F40E94B7011093020836CE8091AC6481FF32CE2FCE10927164F1 // 03960> od(....t..7.....6N..,d..2N/N..qd
:20398000109272640E947A063ECE90916C6380916D6324E0209300022091946421FFFCCF63 // 03980> ..rd..z.>N..lc..mc$` ... ..d!.|O
:2039A000903809F079C0F82FFF70FD8390E024E0959587952A95E1F7282EE0906F63019776 // 039a0> .8.py@x/.p}..`$`....*.aw(.`.oc..
:2039C0002CE3289F8001299F100D1124FA3020F010926D6300E026C021E0221202C010926B // 039c0> ,c(...)....$z0 p..mc.`&@!`"..@..
:2039E000B4608091B46033243394380E3092B460F12CA70160E773E6C8018B529F495AD433 // 039e0> 4`..4`3$3.8.0.4`q,'.`gsfH..R.IZT
:203A000081E080936D634D814211E4CF0E0D1F1D0093F1621093F2628D818311D9CF10926E // 03a00> .`..mcM.B.dO......qb..rb....YO..
:203A2000BA6001E080E490E0809396649093976410929A6410929B6480910B0C82FDFCCFD9 // 03a20> :`.`.d.`...d...d...d...d.....}|O
:203A40008EEF8093460C10929E6410929F6480910B0C82FDFCCF8EEF8093480C002309F4C5 // 03a40> .o..F....d...d.....}|O.o..H..#.t
:203A600094CC9091D960913009F0D9C02091DA603091DC606091DD600091DE60223009F009 // 03a60> .L..Y`.0.pY@ .Z`0.\``.]`..^`"0.p
:203A800087C010E0311167C070E063507E4FA8018CED90E6A0D36EC09138A9F510926E63A3 // 03a80> .@.`1.g@p`cP~O(..m.f Sn@.8)u..nc
:203AA0009091BA60911105C010926D6310926F6391CF8091BB602CE3829FF0011124EA5260 // 03aa0> ..:`...@..mc..oc.O..;`,c..p..$jR
:203AC000FF49A0E7B3E601900D922A95E1F78F5F8093BB60E0E18E9F90011124292B2093E0 // 03ac0> .I g3f....*.aw._..;``a.....$)+ .
:203AE0006D632091F1623091F262981751F08CE380936F632C5331092093F1623093F262C3 // 03ae0> mc .qb0.rb..Qp.c..oc,S1. .qb0.rb
:203B000069CF822FF5CF91111AC08F3F21F095E0980F923038F482E080936D6380E48093D7 // 03b00> iO./uO...@.?!p.`...08t.`..mc.d..
:203B20006E63C4CF813F09F055CF82E080936D6380E880936E6381E080936F634BCF923091 // 03b20> ncDO.?.pUO.`..mc.h..nc.`..ocKO.0
:203B400009F448CF913019F4811142CF43CF933009F03ECF3FCF313069F4862F8F7D99F4EB // 03b40> .tHO.0.t..BOCO.0.p>O?O10it./.}.t
:203B60000E9465058093B8609093B9608093DC609093DD6084E891E08093DA609093DB609B // 03b60> ..e...8`..9`..\`..]`.h.`..Z`..[`
:203B8000C801019623C0677070E06B507E4F7FCF2031A1F51FBA1092D460109251639093D6 // 03b80> H...#@gpp`kP~O.O 1!u.:..T`..Qc..
:203BA000236388EC90E0809352639093536380E890E08093DA609093DB604AE050E06BEEC4 // 03ba0> #c.l.`..Rc..Sc.h.`..Z`..[`J`P`kn
:203BC00071E08CED90E607D38AE090E09C012A5F3F4F2093F1623093F2621092BB608F5B79 // 03bc0> q`.m.f.S.`.`..*_?O .qb0.rb..;`.[
:203BE0009F4F6CE370E000D36093BA608EE08093D6602B523F49F9011082C7CB213161F4D7 // 03be0> .Olcp`.S`.:`.`..V`+R?Iy...GK!1at
:203C0000F19904C00E94610B0E94E90580E890E08093DA609093DB6090E080E0D7CF9131FD // 03c00> q..@..a...i..h.`..Z`..[`.`.`WO.1
:203C200011F4BFD9D3CF923109F0E6C19091DA602091DC603091DD604091DE60913009F0D3 // 03c20> .t?YSO.1.pfA..Z` .\`0.]`@.^`.0.p
:203C400054C0E42FF0E0EB52FF4912866091DF607091E060211119C03111D8CF6093516344 // 03c40> T@d/p`kR.I..`._`p.``!..@1.XO`.Qc
:203C6000633021F4049A84EC99E006C0633070F26530C9F781EE90E0809352639093536385 // 03c60> c0!t...l.`.@c0pre0Iw.n.`..Rc..Sc
:203C80008093B6609093B760C1CF2130C9F4311103C06093B560BACF313309F0B7CF611534 // 03c80> ..6`..7`AO!0It1..@`.5`:O13.p7Oa.
:203CA000710511F461E070E088EE93E09DD26093B6607093B7606093526370935363A6CFA7 // 03ca0> q..ta`p`.n.`.R`.6`p.7``.Rcp.Sc&O
:203CC000223051F43111A2CF4F7350E06FED70E683EF92E6EFD29ACF233009F097CF3630CA // 03cc0> "0Qt1."OOsP`ompf.o.foR.O#0.p.O60
:203CE00009F094CF6093D46091CF923019F521110DC080915163332379F084E891E080939E // 03ce0> .p.O`.T`.O.0.u!..@..Qc3#yp.h.`..
:203D0000DA609093DB60842F90E03BCF2130A9F7311105C08091B5608093DC60EECF313350 // 03d00> Z`..[`./.`;O!0)w1..@..5`..\`nO13
:203D200061F780915263909153638093DC609093DD60E3CF80915163853009F0DCC090315D // 03d20> aw..Rc..Sc..\`..]`cO..Qc.0.p\@.1
:203D400099F5F69904C08091D460882369F08091B6609091B7608E37910530F08DE790E07B // 03d40> .uv..@..T`.#ip..6`..7`.7..0p.g.`
:203D60008093B6609093B7608091B6609091B7608093526390935363809152639091536343 // 03d60> ..6`..7`..6`..7`..Rc..Sc..Rc..Sc
:203D80008436910508F426C146E450E070E060E080EC91E1BED8009709F0BCC080915263C0 // 03d80> .6...t&AFdP`p```.l.a>X...p<@..Rc
:203DA000909153634997E4CF913189F58FB3882309F4E3C0F89B29C040E253E070E060E06B // 03da0> ..ScI.dO.1.u.3.#.tc@x.)@@bS`p```
:203DC00089EB92E0A6D8082F0E94C00483EF91E00197F1F700C000000E94610B019A61E0D5 // 03dc0> .k.`&X./..@..o.`..qw.@....a...a`
:203DE00081E00E943710E3EDF0E33197F1F700C0000001981FBA0E94E905802F90E00097AE // 03de0> .`..7.cmpc1.qw.@.....:..i../.`..
:203E000009F444C020E830E087C001E0DDCF953161F44AEF50E06AEF74E086EF9BE079D843 // 03e00> .tD@ h0`.@.`]O.1atJoP`jot`.o.`yX
:203E2000892B59F70FB30170E8CF963109F4CFC0903251F440E253E06AEF74E080914C6378 // 03e20> .+Yw.3.phO.1.tO@.2Qt@bS`jot`..Lc
:203E400090914D6366D8DBCFF89BC4C0913209F046C00091E1601091E260233DD1F48091E5 // 03e40> ..McfX[Ox.D@.2.pF@..a`..b`#=Qt..
:203E6000DD608F7190E0A801415051094F7155274F5F5F4F68E273E684529F491BD2C80152 // 03e60> ]`.q.`(.APQ.OqU'O__Ohbsf.R.I.RH.
:203E8000019624E831E0009709F046C020EA30E043C0F99B0AC040E951E06AEF74E0809145 // 03e80> ..$h1`...pF@ j0`C@y..@@iQ`jot`..
:203EA0004A6390914B6335D8ECCF243B89F480912863882369F09EE19093DC60803209F4B5 // 03ea0> Jc..Kc5XlO$;.t..(c.#ip.a..\`.2.t
:203EC00081E48093DD60809132638093DE60D7CFA8016FEF70E08CED90E6F5D1D0CF933220 // 03ec0> .d..]`..2c..^`WO(.oop`.m.fuQPO.2
:203EE00009F078C040E253E06AEF74E080914E6390914F63A7CF833009F06FC0903189F46B // 03ee0> .px@@bS`jot`..Nc..Oc'O.0.po@.1.t
:203F000040E253E064E579E08BE191E102D8009709F4BCCF24E830E02093DA603093DB60CC // 03f00> @bS`dey`.a.a.X...t<O$h0` .Z`0.[`
:203F200055CE913161F58FB3882339F140E253E070E060E08FE597E00E948917082F83EF74 // 03f20> UN.1au.3.#9q@bS`p```.e.`...../.o
:203F400091E00197F1F700C000000E94610B0498109216040E98069AF99B0AC061E081E004 // 03f40> .`..qw.@....a...........y..@a`.`
:203F60000E943710E3EDF0E33197F1F700C00000069884E0809314043DCF01E03ECF953158 // 03f60> ..7.cmpc1.qw.@.....`....=O.`>O.1
:203F800039F440E253E064E579E08CE497E047CF9631E9F0F99B1EC0903239F440E253E0AA // 03f80> 9t@bS`dey`.d.`GO.1ipy..@.29t@bS`
:203FA00064E579E088E099E04DCF913239F440E253E064E579E087E798E075CF933251F447 // 03fa0> dey`.`.`MO.29t@bS`dey`.g.`uO.2Qt
:203FC00040E253E064E579E08FEB97E03BCF81E090E018CF90E080E059CF913109F416CE9C // 03fc0> @bS`dey`.k.`;O.`.`.O.`.`YO.1.t.N
:203FE000823009F41ECE903109F410CE933109F413CE80EA90E00CCE943109F076C080912F // 03fe0> .0.t.N.1.t.N.1.t.N.j.`.N.1.pv@..
:20400000DA608130B9F40E9465058093B8609093B9601092516340E253E070E060E081E5F4 // 04000> Z`.09t..e...8`..9`..Qc@bS`p```.e
:2040200090E10E94891721E0009709F020E02093DB60A7CD823071F58FB3882341F1F89B10 // 04020> .a....!`...p ` .[`'M.0qu.3.#Aqx.
:2040400015C080EC0E949502882319F080E00E9412058CE190E00E945505FC9B07C0109240 // 04040> .@.l.....#.p.`.....a.`..U.|..@..
:20406000010A8FE08093000A6998FC980298019861E081E00E94371083ED90E30197F1F7F3 // 04060> ...`....i.|.....a`.`..7..m.c..qw
:2040800000C000001FBA0E94610B0E94E90581E090E0C9CF8730D9F3863021F1F89B22C0C0 // 04080> .@...:..a...i..`.`IO.0Ys.0!qx."@
:2040A000853039F440E253E070E060E08FE294E1B8CF2091B8603091B9602836304190F0DA // 040a0> .09t@bS`p```.b.a8O .8`0.9`(60A.p
:2040C000833039F440E253E070E060E08DE594E1A8CF843039F440E253E070E060E08CE388 // 040c0> .09t@bS`p```.e.a(O.09t@bS`p```.c
:2040E00093E19FCF90E080E09ECF903209F094CD2091DA609091DC608091DD600091DE6020 // 040e0> .a.O.`.`.O.2.p.M .Z`..\`..]`..^`
:204100002130B1F40091DF601091E06091117ECD803109F07BCD0093236360E081E00E94BD // 04100> !01t.._`..``..~M.1.p{M..#c``.`..
:204120003710012B09F472CD80E00E9416106ECD223009F071CD911106C0803121F48091A5 // 04120> 7..+.trM.`....nM"0.pqM...@.1!t..
:2041400023638093DC6084E891E08093DA609093DB60802FD9CDDC012D923D924D925D9274 // 04140> #c..\`.h.`..Z`..[`./YM\.-.=.M.].
:204160006D927D928D929D92AD92BD92CD92DD92ED92FD920D931D93CD93DD93FF91EF9149 // 04160> m.}.....-.=.M.].m.}.....M.]...o.
:204180008DB78D938EB78D938FB78D93ED93FD93882799270994DC01CB0181309105811D46 // 04180> .7...7...7..m.}..'.'..\.K..0....
:2041A0002D903D904D905D906D907D908D909D90AD90BD90CD90DD90ED90FD900D911D91AD // 041a0> -.=.M.].m.}.....-.=.M.].m.}.....
:2041C000CD91DD91ED91FD910D900FBEEDBFFEBFED91FD910994FB01DC0102C005900D92BC // 041c0> M.].m.}....>m?~?m.}...{.\..@....
:2041E00041505040D8F70895AA1BBB1B51E107C0AA1FBB1FA617B70710F0A61BB70B881F56 // 041e0> APP@Xw..*.;.Qa.@*.;.&.7..p&.7...
:20420000991F5A95A9F780959095BC01CD010895A1E21A2EAA1BBB1BFD010DC0AA1FBB1F21 // 04200> ..Z.)w....<.M...!b..*.;.}..@*.;.
:20422000EE1FFF1FA217B307E407F50720F0A21BB30BE40BF50B661F771F881F991F1A9457 // 04220> n...".3.d.u. p".3.d.u.f.w.......
:2042400069F760957095809590959B01AC01BD01CF010895052E97FB16F400940FD057FDC0 // 04240> iw`.p.......,.=.O......{.t...PW}
:2042600005D0D6DF07FC02D046F408C050954095309521953F4F4F4F5F4F089590958095F7 // 04260> .PV_.|.PFt.@P.@.0.!.?OOO_O......
:20428000709561957F4F8F4F9F4F08956927962769277827872778270895FB01DC0104C0E9 // 04280> p.a..O.O.O..i'.'i'x'.'x'..{.\..@
:2042A0008D910190801921F441505040C8F7881B990B0895FB01DC0102C001900D92415081 // 042a0> ......!tAPP@Hw......{.\..@....AP
:2042C0005040D8F70895DC0101C06D9341505040E0F70895F894FFCF4C000000000C0000FD // 042c0> P@Xw..\..@m.APP@`w..x..OL.......
:2042E0000000A10000006B0000000055080000000055480000000055A0005504556A0000AB // 042e0> ..!...k....U.....UH....U .U.Uj..
:204300000000003020007F557EC87F00FE7F557EC37E04FF00000000FFFF7F557EC87F5930 // 04300> ...0 ..U~H..~.U~C~.........U~H.Y
:20432000FEFFC205C15982C002C100E0FF88D8CD45AB891255C21D5587558B55E020676FE8 // 04320> ~.B.AY.@.A.`..XME+..UB.U.U.U` go
:2043400072504D564E55E065736172454D564E55E065742673554D564E55C72055CA0355F4 // 04340> rPMVNU`esarEMVNU`et&sUMVNUG UJ.U
:20436000C21555E655C85955C30855C215558255C85955C80055C304FFFFFFFFFFFFFFFFEB // 04360> B.UfUHYUC.UB.U.UHYUH.UC.........
:02000004008278
:100000000000000000D1080000000300FFFFFFFF18                                 // 820000> .....Q.......... fuses
:02000004008377
:02000004008476
:02000004008674
:02000004008575
:02000004008476
:00000001FF
