:02000004008179
:020000040000FA
:2000000090C60000C8C60000C6C60000C4C600000C94BB21C0C60000BEC60000BCC60000DE
:20002000BAC60000B8C60000B6C60000B4C60000B2C60000B0C60000AEC60000ACC60000F8
:20004000AAC60000A8C60000A6C600000C942321A2C60000A0C600009EC600009CC60000DE
:200060000C94B22498C6000096C6000094C6000092C6000090C600008EC600008CC60000A2
:200080008AC6000088C6000055504449344156522D55534220312E33352E35342048414CE9
:2000A0002F41565244555F434E414E4F2E680020522F0020532F00204D3D24253034582C0D
:2000C000204C3D25642C20543D24253032580D0A00204D3D24253034582C204C3D25642CBE
:2000E00020543D24253032580D0A0020522F0020532F00204D3D24253034582C204C3D2549
:20010000640D0A00204D3D24253034582C204C3D25640D0A002050474D204F4B0D0A00204B
:2001200058434B3D25643E25642C253032580D0A00204661696C0D0A00204953505F524575
:2001400053204C3D25640D0A202000204953505F434D445F3F5B253032585D0D0A002049CF
:2001600053505F434D445F524541445F25730D0A00204953505F524553204C3D25640D0A82
:20018000202000204953505F434D445F50524F4752414D5F25730D0A00204953505F434D60
:2001A000445F524541445F454550524F4D0D0A00204953505F434D445F50524F4752414D8C
:2001C0005F454550524F4D0D0A00204953505F434D445F524541445F464C4153480D0A0043
:2001E000204953505F434D445F50524F4752414D5F464C4153480D0A00204953505F434D6A
:20020000445F434849505F45524153450D0A00204953505F434D445F4C4F41445F4144444B
:20022000524553533D24253034580D0A00205049435F524553204C3D320D0A202000205041
:2002400049435F434D445F4745545F53434B3D25640D0A002058434C4B3D25640D0A002034
:200260005049435F434D445F5345545F53434B3D25640D0A00204953505F434D445F4C45D8
:200280004156455F50524F474D4F44450D0A00204953505F434D445F454E5445525F505292
:2002A0004F474D4F44450D0A000D0A00204C3D25640D0A2020003C5245424F4F543E0D0A70
:2002C000004300440043002D00410043004D002F005600430050000000550050004400490C
:2002E0000034004100560052002D005500530042003A004100560052002D00440055003AA7
:200300000045004400420047002F0043004D005300490053002D0044004100500000004DCE
:200320000075006C007400690058002E006A00700020004F005300530057002F004F005362
:2003400000480057002000500072006F0064002E0000000600FF0901A101150026FF0075BB
:2003600008964000090181029640000901910295040901B102C009026B0003010080320954
:200380000400000203000000092111010001222300070502034000010705810340000108A7
:2003A0000B010202020104090401000102020100052400100104240206052406010205244D
:2003C0000103020705820310000409040200020A0000000705030240000007058302400035
:2003E000000A060002EF0201400000205649443A5049443D253034583A253034580D0A004F
:2004000012010002EF020140D804150B0001010203013C47493A253032583E0D0A003C53C8
:20042000493A303E0D0A003C53433A253032583E0D0A003C47433A253032583E0D0A002020
:20044000555342305F414444523D25640D0A002053463D253032583A253032580D0A002006
:2004600043463D253032583A253032580D0A002053423D253034580D0A0020534C533D2549
:200480003032580D0A0020474C453D0020534C453D002049444C3D253032580D0A00525146
:2004A0003D253032583A253034583A253032583A253032583A253034583A253034583A253E
:2004C0003034580D0A003C5253543A4F55543E0D0A003C5253543A494E3E0D0A003C45446D
:2004E00042475F454D5054593E0D0A003C454442475F4641494C3E0D0A003C454442475F65
:200500004641494C3E0D0A00203F47454E3D253032583A253032583A253032580D0A0020AC
:2005200047454E5F5349474E5F4F46460D0A00085550444934415652002047454E5F5349B4
:20054000474E5F4F4E0D0A00902800183800000020504859534943414C0D0A00205654414C
:20056000524745543D25640D0A002056455352494F4E3D0000012336002047454E5F4745AA
:20058000545F504152414D0D0A002C533D253032582C493D253032582C4C3D253032580D53
:2005A0000A0020555044495F57524954453D253032583A2530366C583A253034580D0A001E
:2005C00020555044495F524541443D253032583A2530366C583A253034580D0A00205550B2
:2005E00044495F45524153453D253032583A2530366C580D0A00204C4153545F58434C4BFE
:200600003D25640D0A0020555044495F4C454156455F50524F470D0A0020555044495F453B
:200620004E5445525F50524F470D0A0020555044495F5349474E5F4F46460D0A00205550DB
:2006400044495F5349474E5F4F4E3D4558543A253032580D0A00205044495F57524954453C
:200660003D253032583A2530386C583A253034580D0A00205044495F524541443D25303265
:20068000583A2530386C583A253034580D0A00205044495F45524153453D253032583A25FE
:2006A00030386C580D0A00205044495F4C454156455F50524F470D0A00205044495F454E91
:2006C0005445525F50524F470D0A00205044495F5349474E5F4F46460D0A00205044495F47
:2006E0005349474E5F4F4E3D4558543A253032580D0A00204156525F434D443F5B25303212
:20070000585D20415243483D25640D0A00204156525F53544152545F44575F444542554753
:200720003A415243483D25643A4641494C45440D0A00204156525F5349474E5F4F4E3A4195
:200740005243483D25640D0A00204156525F5349474E5F4F46463A415243483D25640D0AD7
:20076000002058434C4B3D25640D0A0020434F4E4E454354494F4E3D253032580D0A0020E7
:200780004745545F415243483D253032580D0A00204156525F4745545F504152414D455418
:2007A00045520D0A002C533D253032582C493D253032582C4C3D253032580D0A0020554EF1
:2007C0004C4F434B454E3D253032580D0A002048564354524C454E3D253032580D0A002051
:2007E000444556494345444553433D25580D0A00204649585F58434C4B3D25640D0A0020C4
:20080000434F4E4E454354494F4E3D253032580D0A0020534553535F505552504F53453D8D
:20082000253032580D0A002058434C4B3D25640D0A00205345545F415243483D25303258EE
:200840000D0A00204156525F5345545F504152414D3D253034580D0A00204156525F534528
:20086000545F504152414D3D253032580D0A00204156525F5345545F504152414D0D0A00E6
:200880002C533D253032582C493D253032582C4C3D253032580D0A003C4856433A4F46464F
:2008A0003E0D0A00203C5245533A253032583E0D0A00205450495F57524954453D25303274
:2008C000583A2530386C583A25640D0A00205450495F45524153453D253032583A2530389C
:2008E0006C580D0A00205450495F434D443D25642C205654474C4F573D25640D0A00205497
:2009000050495F524541443D253032583A2530386C583A25640D0A00205450495F435243FE
:200920000D0A00205450495F4C454156455F50524F474D4F44450D0A00205654415247450B
:20094000543D25640D0A00205450495F454E5445525F50524F474D4F44450D0A00205441F4
:20096000524745545F504F5745523D253032580D0A00204156525F4745545F504152414D0E
:200980000D0A00205441524745545F504F5745523D253032580D0A00204156525F534554E6
:2009A0005F504152414D3D253034580D0A002C533D2530322C493D253032582C4C3D253054
:2009C00032580D0A00203F3A53434F50453D253032580D0A0053513D25643A25643E53432F
:2009E0004F50453D253032582C433D25303258003C57414954494E473E0D0A0048414C5F94
:200A000050524F46494C453D48414C2F41565244555F434E414E4F2E680D0A005F5F415632
:200A2000525F415243485F5F3D25640D0A005F4156525F494F5858585F485F3D696F617613
:200A4000723634647533322E680D0A00465F4350553D256C640D0A000A3C73746172747510
:200A6000703E0D0A00204C3D253034582C413D2530386C582C00204C3D253034582C413DCC
:200A80002530386C582C00204661696C0D0A0020205044495F4F4E3A4756414C3D253032E5
:200AA000580D0A0020204E564D505F4F4E3A253032580D0A0020204661696C3A2530325845
:200AC0000D0A00204C45443D48420D0A00204C45443D25640D0A005B544F5D002053454304
:200AE00054494F4E5F45524153453D253034580D0A0020434849505F45524153453D253013
:200B000034580D0A0020524541443D253034583A2564200020434F44455F57524954453D93
:200B2000253034583A253032580D0A002053454354494F4E5F45524153453D253034580D75
:200B40000A002057524954453D253034583A256420002055534152543D545049204241550E
:200B6000443D253034580D0A00205349473E253034583A253032580D0A0020534B45590D41
:200B80000A003C4856454E3E002050524F475F4B45593D002045524153455F4B45593D00AE
:200BA0002050524F4753544152543D253032580D0A00203C5359533A253032583E0D0A0053
:200BC00020574149540020434849505F4552415345002055524F575F4B45593D0020524504
:200BE0005F50524F4753544152543D253032580D0A003C5359533A253032583A25643E0D3B
:200C00000A003C5359533A253032583A25643E0D0A0020454E5445525F55524F573D253082
:200C2000346C583A253034580D0A002055534152543D555044492058434C4B3D25642042F2
:200C40004155443D253034580D0A00204641494C3A253032582C253032580D0A00204E564A
:200C60004D3A253032582C5349423D222573220D0A003C4856433A5625643E002530325881
:200C80000D0A002055534152543D50444920424155443D253034580D0A00205643503D4677
:200CA00041494C0D0A002055534152543D5643500D0A002D3E253034580D0A002042415500
:200CC000443D256C6400204343493D000000000000000000004B000086630000007B0000C3
:200CE0008E630000000000000000000000BB40009E630000008B00009E63400000B9000082
:200D00008E630000008B0000DE63400002BB00001E6400000000E2051810600440807704E9
:200D2000BD2411241FBECFEFCDBFDFE7DEBF88ED22E630E084BF20936800E0E0F4E084E030
:200D400083878FEF848780934C0480936C048093AC0410E6A0E0B0E6EEE6FBE602C005903F
:200D60000D92AA3CB107D9F720E6AAECB0E601C01D92A93DB207E1F716E0C1E9D6E004C033
:200D80002197FE010E949235C039D107C9F70E94CC240C94B53534C9FB01A485B585ED91AC
:200DA000FC9111970190F081E02D682FCD01099480E094E02091040827FF04C000900108D9
:200DC000009000080197B1F70895DC018FB7F8941092000A90912C0A9093200A90912C0A48
:200DE0009093260A91E09093000A90910B0A90FFFCCF90910B0A916090930B0A30E020E003
:200E000064E0F90193E0F595E7959A95E1F7EA0FFB1F408150E0922F977002C055954795C0
:200E20009A95E2F790910B0A90FFFCCF40FF16C00098609303046093000290910B0A916057
:200E400090930B0A2F5F3F4F20373105D1F61092000A9FE09093000A8FBF0895009AE9CF55
:200E6000DC011296ED91FC91248125FFFDCF20E42483DC011296ED91FC91628381E090E05C
:200E800008958FB7F8941092A1641092E0641092E1648FBF80910B0C82FDFCCF8EEF80931F
:200EA0004C0C0895F49B0BC08091E66481FF07C02FB7F894F2990AC08EE194E609C08091B7
:200EC000A264803411F51092A26408958EE594E68093EA649093EB648091A26490E08093B3
:200EE000E8649093E9641092EC641092ED641092A2648EB394E089278EBB2FBF80910B0CE5
:200F000082FDFCCF8EEF80934E0C08958091A3649091A4649C01255031092A3F3F4F28F460
:200F200004978093A3649093A4648AE090E08093D8649093D9641092DC641092DD64809172
:200F40000B0C82FDFCCF8EEF80934A0C08951092BC641092BD6480910B0C82FDFCCF8EEF39
:200F60008093420C08951092B0641092B16480910B0C82FDFCCF8EEF8093400C0895FC011E
:200F8000948196FFFDCF089590E080E00895809101088CBB8CB38823D1F3809100088DBB61
:200FA0008CB380588CBB9CB381E0911180E00895EECFCF93C82F8091040885FFFCCFC093AF
:200FC0000208E5DF882321F09DB381E09C1380E0CF9108950F931F93CF93DF93EB018C0129
:200FE000F80181918F01E5DF882311F02197C1F7DF91CF911F910F91089569E070E087E9B0
:2010000090E6E8DF90E0089562E070E081E690E6E1DF8111CDCF80E0089562E070E08FE526
:2010200090E6D8DF8111C4CF80E008956093156070931660809317609093186065E070E0C6
:2010400083E190E6C7DF8111B3CF80E008959FDF882329F09DB381E0903409F080E0089552
:20106000CF93DF93EA0160932660709327608093286090932960CA01969587958150809371
:20108000216085E68093236065E070E084E290E6A1DF8823F9F0DBDF8823E1F063E070E080
:2010A0008CE590E697DF8823A9F065E070E08FE190E690DF882371F0BE016E7F88E191E60D
:2010C00089DF882339F063E070E087E890E6DF91CF9180CF80E0DF91CF910895CF93C42F1B
:2010E00060931B6070931C6080931D6090931E6065E070E089E190E66DDF882349F0A7DFA7
:20110000882331F08C2F55DF882311F0CF919FCF80E0CF910895482F60E070E180E090E065
:20112000DDCFCF92DF92EF92FF920F931F93CF93DF93C7E0D1E68A01095F1E49C017D10790
:20114000C1F06B017C012FEFC21AD20AE20AF20A4989C4DF2196811109C0DF91CF911F9130
:201160000F91FF90EF90DF90CF900895C701B601E5CF81E0F2CFCF93DF934130510529F449
:2011800040911861DF91CF91A9CFEA0160932660709327608093286090932960842F815004
:2011A0008093216084E68093236065E070E084E290E610DF8823F1F04ADF8823D9F063E0CF
:2011C00070E08CE590E606DF8823A1F065E070E08FE190E6FFDE882369F0BE0188E191E6BC
:2011E000F9DE882339F063E070E087E890E6DF91CF91F0CE80E0DF91CF9108950F931F931D
:20120000CF93DF93EB018C01C2DE882331F09DB3F80191938F012197B9F7DF91CF911F9130
:201220000F910895CF93DF93EA0160932660709327608093286090932960CA019695879556
:2012400081508093216085E28093236065E070E084E290E6BFDE882389F0F9DE882371F017
:2012600065E070E08FE190E6B5DE882339F0BE016E7F8EE091E6DF91CF91C0CF80E0DF91CC
:20128000CF910895CF93DF93EA014130510559F4CDDE811104C080E0DF91CF9108959DB360
:2012A00090930E61F9CF60932660709327608093286090932960842F81508093216084E20C
:2012C0008093236065E070E084E290E683DE882311F3BDDE8823F9F265E070E08FE190E64B
:2012E00079DE8823C1F2BE018EE091E6DF91CF9185CFCF93DF9380910E6160910F613091FB
:201300001061843B51F46F7770E07F5EF9990FC090E080E0DF91CF910895732F803BB1F7A2
:201320008091256390912663680F791FEFCFC0911361D091146190E080E0AE01A3DF882356
:2013400039F3CE010196E6CFCF93DF93F99905C090E080E0DF91CF91089520910E616091CD
:201360000F61709110618091116190911261C0911361D0911461203B49F480589F4FAE01CC
:2013800051DF882329F3CE010196E4CF243B39F46F7770E07F5E072E000C880B990BAE0177
:2013A00071DFEFCFD1CFCF93DF93F99905C090E080E0DF91CF91089520910E6160910F6196
:2013C000709110618091116190911261C0911361D0911461203B49F480589F4FAE0122DFDB
:2013E000882329F3CE010196E4CF243B41F46F7770E060587F4E072E000C880B990BAE0197
:2014000041DFEECFD0CFCFCF8091080890910908880F991F809308089093090880E0C9DDB3
:20142000209184633091856350E040E060E071E782E090E00E946F35DA01C9010196A11D71
:20144000B11DB595A7959795879580349105A105B1057CF0009721E0A207B10520F08FEF59
:201460009FEFA0E0B0E0809308089093090881E0089580E490E0A0E0B0E0F5CF80918463D9
:2014800089518DBB8DB3883270F08DB390E08093846390938563B8DF63E070E087E890E60C
:2014A00099DD90E0089590E080E0089582CDCF93C82F83EF7EDD882319F08C2FCF91F6CF33
:2014C00080E0CF91089582E774DD882331F070DD882319F08DB38111F6CF81E00895CF9331
:2014E000C82F84E666DD882319F08C2FCF91DECF80E0CF91089584E25CDD811159CD80E0B8
:201500000895CF93DF93D82FC92F88E652DD882361F08D2F4EDD882341F089E64ADD8823BE
:2015200021F08C2FDF91CF9144CD80E0DF91CF91089530E020E04091080442FFFCCF409167
:20154000080442FDFCCF2F5F3F4F8217930799F7089580910A06816080930A0680910706B6
:2015600081FFFCCF80910C0690910D069C013695279536952795820F931F0895CF92DF926C
:20158000EF92FF92AB01BC0180915263282F30E0322F222780912763820F932F911D919537
:2015A00081959109B0E0A0E084239523A623B72321E0C0905663D0905763E0905863F0909A
:2015C0005963C816D906EA06FB0609F420E08093566390935763A0935863B0935963822F5D
:2015E000FF90EF90DF90CF900895823249F460912D6370912E6380912F639091306308957A
:20160000803B49F46091296370912A6380912B6390912C630895813B51F3823B49F46091F0
:2016200031637091326380913363909134630895833B49F4609135637091366380913763BB
:20164000909138630895843B89F42091526330915363609141637091426380914363909105
:201660004463620F731F811D911D0895803C49F46091256370912663809127639091286394
:201680000895813C09F4BECF843C09F4B0CF853C49F46091396370913A6380913B63909131
:2016A0003C630895863C49F460913D6370913E6380913F6390914063089560914163709112
:2016C00042638091436390914463089530E020E04091080446FFFCCF4091080446FDFCCF61
:2016E0002F5F3F4F8217930799F781E00895FB9B08C081E090E0EADF049888E880930608E8
:20170000FB9881E00895F3DF811152CC80E00895FB9909C081E090E0D9DF0C9A049A80EC23
:2017200080930608FB9A81E0089582E090E0CEDFEFDF811102C080E0089580E8B7DE8823AF
:20174000D1F3E1DF882389F3E99BEFCF0895EF92FF920F931F93CF93DF937C018B01D8DF05
:20176000E701899126DC882319F001501109C9F7DF91CF911F910F91FF90EF900895F8992A
:2017800007C064E070E08FE490E6E1DF90E0089581E090E00895CF92DF92EF92FF928FEC6B
:2017A000C82EDD24D394E12CFD2CC0920660D0920760E0920860F092096065E070E085E055
:2017C00090E6C5DF81119FDF8DB3807C71F781E0FF90EF90DF90CF9008958BEC91E0A0E0F9
:2017E000B1E08093016090930260A0930360B093046065E070E080E090E6A9DF882311F083
:2018000081E054CE80E00895CF93C82F8AEC91E0A0E0B1E08093016090930260A093036068
:20182000B093046065E070E080E090E690DF882319F08C2FCF913ACE80E0CF910895CF9391
:20184000C0910E6180910F6190911061A0911161B091126180930F6090931060A0931160A5
:20186000B093126098DFC11111C080E4CDDF811104C090E080E0CF910895AFDF8823C9F371
:2018800054DF8823B1F387DF90E0F5CF81E090E0C73089F788E1B8DF882359F365E070E058
:2018A0008EE090E654DF882321F384E682DB882301F38FEF7EDBE5CF1ADF0C98049A80E1C5
:2018C00090E004DF0C9A82E090E000DF0C9880E190E0FCDE1DCF67E070E180E090E0A6DB3A
:2018E0008DB38370C1F78DB30895CF93C82FF3DF60E070E180E090E099DB882331F08DB314
:201900008C1303C081E0CF91089580E004DC8823D1F3CC23B9F38C2FCF91FDCB80E0E5DFB6
:2019200090E0089580E0E1CFCF92DF92EF92FF926B017C0188E0D9DF882371F04FEFC7018B
:20194000B601CCDB882341F0C6DF837729F4FF90EF90DF90CF90E6CF80E0FF90EF90DF9023
:20196000CF90089566E070E180E090E05FDB8DB38370C1F78DB30895F5DF982F937781E0FC
:2019800009F080E00895CF93C82FECDF60E070E180E090E04BDB882331F08DB38C1303C038
:2019A00081E0CF91089580E0B6DB8823D1F3CC23B9F38C2FCF91AFCB80E0E5DF90E0089508
:2019C00080E0E1CF8FE0DFDF8FE1DDDF80E0DBDF90E00895F7CFCF92DF92EF92FF92CF936B
:2019E000DF936B017C01EA0180E0CDDF882389F0AE01C701B601BFDB882359F085E0C3DFAE
:201A0000882339F0DF91CF91FF90EF90DF90CF90B3CF80E0DF91CF91FF90EF90DF90CF90B8
:201A20000895CF92DF92EF92FF92CF93DF936B017C01EA0180E0A7DF882389F0AE01C701FC
:201A4000B6010EDB882359F085E09DDF882339F0DF91CF91FF90EF90DF90CF908DCF80E0D5
:201A6000DF91CF91FF90EF90DF90CF900895CF92DF92EF92FF926B017C0188E084DF8823DA
:201A800071F04FEFC701B60129DB882341F06ADF837729F4FF90EF90DF90CF9091CF80E04C
:201AA000FF90EF90DF90CF90089562E070E180E090E0BCDA8DB38370C1F78DB30895F5DF18
:201AC00084E029DBF2DF80E026DB90E00895CF93C82FEBDF60E070E180E090E0A7DA8823AF
:201AE00031F08DB38C1303C081E0CF91089580E012DB8823D1F3CC23B9F38C2FCF910BCB7D
:201B000080E0E5DF90E0089580E0E1CFCF92DF92EF92FF926B017C0188E0D9DF882371F08B
:201B20004FEFC701B601DADA882341F0BEDF837729F4FF90EF90DF90CF90E6CF80E0FF9024
:201B4000EF90DF90CF90089590E080E0089590E080E0089590E080E0089598E087FF1BC07B
:201B6000089A20910B0A20FFFCCF0A9A880F20910B0A216020930B0A1399816020910B0A76
:201B800020FFFCCF0A9820910B0A216020930B0A915021F708950898E4CFDC01ED91FC91D9
:201BA0000190F081E02D09948F929F92AF92BF92CF92DF92EF92FF920F931F93CF93DF9389
:201BC0005A01922E832E7C01D0E0C0E06B0181E0C81AD108672BB9F1F70111917F01812FDE
:201BE00082958F7060E3680F6A3310F067E3680F82ED90E6D2DF1F7060E3610F6A3310F042
:201C000067E3610F82ED90E6C8DFC114D104A1F02196AC16BD0691F4092D182DF80161911C
:201C20008F01662339F082ED90E6B7DFEC01892BA9F702C0D0E0C0E0B601C8CF6AE382ED8A
:201C400090E6ABDFF9CF82ED90E6DF91CF911F910F91FF90EF90DF90CF90BF90AF909F901E
:201C60008F900895CF93DF93EC016DE096DF6AE0CE0193DFCE01DF91CF910895CF93DF938A
:201C8000CDB7DEB72E97CDBFDEBF8CEC96E089879A871B861C8682E08C8382ED90E68D8771
:201CA0009E87AE01495E5F4F6D897E89CE0101960E948B3282ED90E62E96CDBFDEBFDF91F7
:201CC000CF910895CF93CFB7F89481E18093E20580E880931604069A80E2809304082091D0
:201CE00084633091856350E040E060E27EE480E090E00E946F35DA01C9010196A11DB11D82
:201D0000B595A7959795879536E0880F991FAA1FBB1F3A95D1F7009721E0A207B10520F04F
:201D20008FEF9FEFA0E0B0E080349105A105B10520F480E490E0A0E0B0E0809308089093A3
:201D400009088BE6809307088AE08093050880E88093060880910808909109089F938F9325
:201D600083E89CE09F938F9382ED90E69F938F9385DFCFBF0F900F900F900F900F900F9043
:201D8000CF9108950F931F93CF93C82F8B011F928F938DEC9AE09F938F9382ED90E69F93DC
:201DA0008F936CDF10922A0A8FE08093000A980136952795A9014250510940930A0B5093D3
:201DC0000B0B00930C0B20930D0B8093000BC09382630F900F900F900F900F900F90CF9108
:201DE0001F910F91089580918263823021F060E270E082E0C7CF089580918263813029F155
:201E000083EC9AE09F938F9382ED90E69F938F9335DF84EC8093260A82E680932A0A9FE057
:201E20009093000A10920A0B10920B0B95EC90930C0B80930D0B85E08093000B81E0809329
:201E400082630F900F900F900F900895BF92CF92DF92EF92FF920F931F93CF93DF9300D057
:201E600000D0CDB7DEB7C090CB60D090CC60E090CD60F090CE60FF92EF92DF92CF928CEBCC
:201E80009CE09F938F9382ED90E69F938F93F6DECDBFDEBFC114D104E104F10431F430E87B
:201EA000C32E35E2D32EE12CF12C60E078E689E899E0A70196010E944D35DA01C9010196C8
:201EC000A11DB11D6C017D01F694E794D794C79420E6C216D104E104F10408F07BC06C0193
:201EE0007D01E894C0F89AECB92EFF92EF92DF92CF9283EB9CE09F938F9302ED10E61F930A
:201F00000F93BCDECDBFDEBFD701C60180549109A109B109803C9F4FA105B10508F05FC0CE
:201F20009091D160955040912A6050912B6060912C6070912D6049835A836B837C83E09191
:201F4000D060E370EC0FFD2FF11D21818091CF60280F3327331F80E0232B09F088E0943031
:201F600008F03BC0890F9FB7F89422E12093E20520E220930408C0920808D09209088093AE
:201F8000070880E880930508B0920608F19A9FBF86EA9CE09F938F9382ED90E69F938F93F8
:201FA0006DDE0E94D8060F900F900F900F908EB38F738EBBA698F09B1AC02496CDBFDEBFC8
:201FC000DF91CF911F910F91FF90EF90DF90CF90BF9012CF88ECB82E88CF8D5FC4CF8AE932
:201FE0009CE09F938F931F930F9348DEDCCF2496CDBFDEBFDF91CF911F910F91FF90EF90DB
:20200000DF90CF90BF90EFCEF19B04C0F39B02C01DDFF49AF3980895F9991DC069E070E08C
:2020200083E590E694DB8823C9F07FDB8823B1F0F99A8DB31F928F9384EA9AE09F938F9367
:2020400082ED90E69F938F9319DE0F900F900F900F900F900F9081E090E008958DB31F9237
:202060008F9385EB9AE09F938F9382ED90E69F938F9304DE0F900F900F900F900F900F902B
:2020800090E080E0089587E89AE09F938F9382ED90E69F938F93F2DD80918463909185638D
:2020A000845F914080938463909385630F900F900F900F90843F914020F004DEFDDB90E01D
:2020C000089590E080E00895CF92DF92EF92FF920F931F93CF93DF93C0910E61C0900F616A
:2020E000D0901061E0901161F09012618C2F7DDAC60ED71EE81EF91E009113611091146127
:20210000C0920F60D0921060E0921160F092126098012150310920930B6030930C6024E6BA
:2021200020930D60FF92EF92DF92CF921F930F9386E79AE09F938F9382ED90E69F938F93D3
:202140009DDD29DB8DB79EB70A968DBF9EBFC03C09F43FC0C03B09F47AC0C13C09F477C0C4
:20216000C23209F478C0C13B09F475C0C43C09F472C0C53C09F473C0C23B31F088E0C33B24
:2021800021F090E080E006C08CE43EDB81110BC080E090E0DF91CF911F910F91FF90EF90B4
:2021A000DF90CF90089565E070E08EE090E6CFDA882371F364E070E08AE090E6C8DA8823C2
:2021C00039F3B80188E191E6C2DA882309F3E3DAE0CFD3E286E2C5E217DB8823C9F2FDDA98
:2021E0008823B1F2D8DA882399F28D2F0DDB882379F265E070E08EE090E6A9DA882309F44B
:20220000C7CF64E070E08AE090E6A1DA882309F4BFCFB80188E191E69ADA882309F4B8CFC7
:202220008C2FF2DA882309F4B3CF65E070E08EE090E68DDA882309F4ABCF84E60E94D907FF
:20224000882309F4A5CF8FEF0E94D907BECFD3E286E2CDE2C1CFD3E386E3C5E3BDCFD3E271
:2022600086E2CAE1B9CFCF92DF92EF92FF920F931F93CF93DF93C0900F61D0901061E090B6
:202280001161F090126180910E61AFD9C60ED71EE81EF91EC0911361D0911461FF92EF923E
:2022A000DF92CF92DF93CF9385E69AE09F938F9382ED90E69F938F93E1DC83E4A5DAEDB7BF
:2022C000FEB73A96EDBFFEBF882309F45AC0C130D10511F5C0920660D0920760E092086026
:2022E000F092096065E070E085E090E630DA882309F447C008DA882309F443C08DB38093EA
:202300000E6182E090E0DF91CF911F910F91FF90EF90DF90CF900895C0920F60D092106050
:20232000E0921160F0921260CE01019780930B6090930C6084E280930D6065E070E08EE069
:2023400090E605DA8823E9F064E070E08AE090E6FED98823B1F0CBD907E011E69E01295F64
:202360003E4979010E94C707882359F08DB3F80187830F5F1F4F0E151F05A1F7CE01019694
:20238000C2CF90E080E0BFCF0F931F93CF93DF93EC0180910B0A80FFFCCF80910B0A8160C2
:2023A00080930B0A1FB7F8948881D7DB8093DE608981D3DB8093DF608A81CFDB8093E06075
:2023C0008B81CBDB8093E1601FBFF8992DC083EB90E09F938F9302ED10E61F930F934EDC06
:2023E00026EA30E650E040E064E070E0CE01DCDB39DC8FEA90E09F938F931F930F933EDC8D
:2024000026EA30E650E040E064E070E08EED90E6CBDB2DB73EB7285F3F4F2DBF3EBFDF91D4
:20242000CF911F910F911ECCDF91CF911F910F9108958DE091E6A8DF81E090E008958EE0FE
:2024400091E6A2DFA7E0B1E61696EC911697F0E0E352FF49808117968C93179718961C926C
:2024600082E090E00895CF93DF93C0E0DCE018821092040C8EEA94E68093060C9093070C24
:2024800081E08093010C8EB3807C8EBB1FBA1CBA1092A3641092A4641092A2641092A164E4
:2024A0001092A06410929F644AE450E06CEC7CE086EA94E60E94823210929E64E6E8F3E634
:2024C00081EA808780E281871286138681E090E08487958782E090E086879787108A118AC5
:2024E00083E88883DF91CF9108958AE18A95F1F700C08FB7F89410920608109205081CBAC0
:202500001DBA95E19093E205F1988FBF88E08093120402980398089580918263843021F06F
:202520006CE070E084E02EDC809106088111DDDF00980198029880918363833019F4049A04
:20254000069808950498FCCFCF93DF93E2E1F1E03197F1F700C00000C1E0D0E002C0CC0F13
:20256000DD1F8A95E2F70E9404088DB390E08C239D23892BC1F781E0DF91CF910895CF93FE
:20258000DF93E2E1F1E03197F1F700C00000C1E0D0E002C0CC0FDD1F8A95E2F70E94040835
:2025A0008DB390E08C239D23892BC1F381E0DF91CF910895CF93DF93E2E1F1E03197F1F7AE
:2025C00000C00000C1E0D0E002C0CC0FDD1F8A95E2F70E940D088DB390E08C239D23892BCF
:2025E000C1F381E0DF91CF910895CF93C82F89E89BE09F938F9382ED90E69F938F933EDB6E
:202600006AE070E083E690E60E94EA070F900F900F900F90811103C080E0CF91089584E01C
:20262000C9DF8823C9F3CC23C1F366E070E087E990E6CF910C94EA07F9992CC081E0D5DFE8
:20264000882359F182E191E00197F1F700C000000E940D08EC99FCCF0E940408882341F0E0
:20266000E89906C0F99AE0917A63F0917B6309958DB31F928F938CE79CE09F938F9382ED70
:2026800090E69F938F93FADA0F900F900F900F900F900F9081E090E0089590E080E0089507
:2026A000BF92CF92DF92EF92FF920F931F93CF93DF93F8990CC010E0812FDF91CF911F9140
:2026C0000F91FF90EF90DF90CF90BF90089580910E61853C81F700913D6310913E63809155
:2026E0001361909114610817190729F7C0900F61D0901061E0901161F09012618091476350
:20270000909148638C159D05B1F60E94D8061F930F93FF92EF92DF92CF9282E19CE09F933A
:202720008F93C2EDD0E6DF93CF93A8DA8091D4609091D5600E94BF0782ED9BE09F938F937B
:20274000DF93CF939BDA6AE070E087E790E60E94EA072DB73EB7225F3F4F2DBF3EBF8823A3
:2027600009F4A9CF85E026DF882309F4A4CF66E070E087E990E60E94EA07882309F49BCF3E
:2027800082E0FDDE8DB39DB386958695BB24B3948B2581701F928F931F929F9382E09CE0DB
:2027A0009F938F93DF93CF9369DA8091D4609091D5600E94BF07A801C701B6010E943008A9
:2027C00083EF91E00197F1F700C0000063E070E084E890E60E94EA0782E0B6DE8DB39DB348
:2027E000869586958B2581701F928F931F929F9382EF9BE09F938F93DF93CF933FDA80910E
:20280000D4609091D5600E94BF0763E070E081E890E60E94EA078DB79EB740968DBF9EBFA9
:20282000F9990FC066E070E087E990E6DF91CF911F910F91FF90EF90DF90CF90BF900C94D0
:20284000EA0781E0D2DE182F882361F383E097DE8DB31F928F938DED9BE09F938F93DF938A
:20286000CF930CDA0F900F900F900F900F900F9023CF4F925F926F927F92AF92BF92CF928D
:20288000DF92EF92FF920F931F93CF93DF9300D000D0CDB7DEB7F99914C002DF90E0249663
:2028A000CDBFDEBFDF91CF911F910F91FF90EF90DF90CF90BF90AF907F906F905F904F9089
:2028C000089580910E61C0900F61D0901061E0901161F090126196010091136110911461C3
:2028E0009EE4980F923008F046C087E0E82E81E6F82EC901875091466C01C701875091468A
:2029000080179107B0F5F701818990E089839A83C6018E0D9F1D8B839C83C7D8CE010196F8
:202920005C0166E070E180E090E0F50141915F012B013C01FFEF4F1A5F0A6F0A7F0A0E94DE
:202940006E08811102C080E0A9CFC301B2016A3020E172078105910541F787E00E948B085A
:20296000882389F3A2D89FEFE91AF90A877029F2EACF81E093CF823221F09CE3980F9230E7
:2029800060F493D8C701B60188279927A8010E94BB0881111DC090E024C0803B11F0803C41
:2029A00011F56091256370912663C60ED71EF12CE12CC701B6010E94BE0A882321F075D829
:2029C00084E00E948B0871D8A801C701B601DFCF83E00E948B088823F1F267D8877091E072
:2029E000D1F6892F5BCFC701B60188279927A8010E94BB0853CFCF92DF92EF92FF92CF93CA
:202A0000DF93F99909C04CDE90E0DF91CF91FF90EF90DF90CF90089580910E61C0900F61C6
:202A2000D0901061E0901161F0901261C0911361D0911461823231F09EE4980F923010F095
:202A4000843C91F483E143D8811102C080E0DCCFAE01C701B6010E9491088823B9F325D896
:202A60008377A1F751D8D0CF803C11F0853CC9F4C701B6010E94BE0A882319F0C701B601A5
:202A800045D882E024D8882309F3AE01C701B6010E9491088823D1F208D88377B9F634D8A8
:202AA000B3CF803B11F580E8E80EF11CFA9909C0C701B6010E94BE0A882319F0C701B601F0
:202AC00025D882E004D8882309F4C0CFAE01C701B6010E943008882309F4B8CF0E94550D49
:202AE000837709F0B3CF10D88FCFAE01C701B6010E94BB0889CFCF92DF92EF92FF92CF93EA
:202B0000DF93F99909C0CCDD90E0DF91CF91FF90EF90DF90CF90089580910E61C0900F6146
:202B2000D0901061E0901161F0901261C0911361D0911461823231F09EE4980F923010F094
:202B4000843CB1F480E10E94C30C811102C080E0DBCFAE01C701B6010E94BB088823B9F3F6
:202B600085E10E94C30C882391F30E94BC0CCCCF803C11F0853C31F4AE01C701B6010E94D7
:202B8000EB0CC2CF803B41F4C701B60180589F4FAE010E94110DB8CFAE01C701B6010E94B2
:202BA000BB08B2CFCF92DF92EF92FF92CF93DF93F99909C075DD90E0DF91CF91FF90EF901E
:202BC000DF90CF90089580910E61C0900F61D0901061E0901161F0901261C0911361D0917E
:202BE0001461823231F09EE4980F923010F0843CA9F483E10E94C30C811102C080E0DBCF10
:202C0000AE01C701B6010E9491088823B9F30E94B20C837799F70E94E00CCDCF803C11F023
:202C2000853CE9F4C701B6010E94BE0A882321F0C701B6010E94370D82E00E94C30C88236E
:202C4000E9F2AE01C701B6010E9491088823B1F20E94B20C837791F60E94E00CACCF803B3D
:202C600029F580E8E80EF11CFA990AC0C701B6010E94BE0A882321F0C701B6010E94370D64
:202C800082E00E94C30C882309F4B8CFAE01C701B6010E943008882309F4B0CF0E94B20CA3
:202CA000837709F0ABCF0E94E00C85CFAE01C701B6010E94BB087FCFCF92DF92EF92FF9200
:202CC000CF93DF93F99909C0EBDC90E0DF91CF91FF90EF90DF90CF90089580910E61C09075
:202CE0000F61D0901061E0901161F0901261C0911361D0911461823231F09EE4980F923063
:202D000010F0843CB1F480E00E94C30C811102C080E0DBCFAE01C701B6010E94BB088823E1
:202D2000B9F385E10E94C30C882391F30E94BC0CCCCF803C11F0853C31F4AE01C701B6010B
:202D40000E94EB0CC2CF803B41F4C701B60180589F4FAE010E94110DB8CFAE01C701B601F0
:202D60000E94BB08B2CFCF92DF92EF92FF92CF93DF93F99909C094DC90E0DF91CF91FF901B
:202D8000EF90DF90CF90089580910E61C0900F61D0901061E0901161F0901261C09113619E
:202DA000D0911461823231F09EE4980F923010F0843CA9F483E10E94750C811102C080E0E5
:202DC000DBCFAE01C701B6010E9491088823B9F30E946B0C837799F70E94920CCDCF803C4E
:202DE00011F0853CE9F4C701B6010E94BE0A882321F0C701B6010E94940C82E00E94750C49
:202E00008823E9F2AE01C701B6010E9491088823B1F20E946B0C837791F60E94920CACCF20
:202E2000803B29F580E8E80EF11CFA990AC0C701B6010E94BE0A882321F0C701B6010E942B
:202E4000940C82E00E94750C882309F4B8CFAE01C701B6010E943008882309F4B0CF0E944D
:202E60006B0C837709F0ABCF0E94920C85CFAE01C701B6010E94BB087FCFCF93DF9386ECB3
:202E80009BE09F938F9382ED90E69F938F930E943E0E0E94D8060F900F900F900F90F999AE
:202EA00002C080E0A2DB84E99BE09F938F93C2EDD0E6DF93CF930E943E0E6AE070E08DE603
:202EC00090E60E94EA070F900F900F900F90811102C020E071C083E06DDB8823D1F366E088
:202EE00070E087E990E60E94EA07882391F380EC9BE09F938F93DF93CF930E943E0E8FE16D
:202F000091EA27E0815090402040E1F700C000008FE191EA27E0815090402040E1F700C00B
:202F200000000E94D80685E00FDB80E00DDB8DB31F928F9382EB9BE09F938F93DF93CF9357
:202F40000E943E0E82E191E00197F1F700C000008DB79EB70A968DBF9EBF0E940D08EB9952
:202F6000FCCF0E940408882349F0EB9907C081E03CDB882309F4ADCF83E001DB8DB31F92DD
:202F80008F9380EA9BE09F938F9382ED90E69F938F930E943E0EFA9AF99AE0917A63F091B9
:202FA0007B63099521E00F900F900F900F900F900F90892B09F48DCF822FDF91CF910895AF
:202FC00080910E61811103C058DF90E0089581E090E00895F5CFF4CF80910E61811103C00E
:202FE0004CDF90E00895873059F460910F617091106180911161909112610E94860DF1CFB6
:2030000081E090E0089580910E61811103C035DF90E00895873059F460910F617091106175
:2030200080911161909112610E94370DF1CF81E090E0089580910E61811103C01EDF90E023
:203040000895873059F460910F617091106180911161909112610E94940CF1CF81E090E012
:203060000895882349F02FE788E391E0215080409040E1F700C000006B9880911204886032
:20308000809312048091130488608093130480911004886080931004809111048860809378
:2030A000110408958823A9F06B9A90911104977F9093110490911004977F909310049091EE
:2030C0001204977F9093120490911304977F909313046111C6CF0895CF92DF92EF92FF927B
:2030E0000F931F93CF93DF9300D0CDB7DEB71FBA13DAFF9A019A80915563811105C081E044
:203100008093556380E0ADDF83ED90E30197F1F700C000008091236390912463079720F0E8
:2031200080910D61811102C0F69B1FC0019880E68093010A1092210A81E08093000AE3EF12
:20314000F1E03197F1F700C00000699A82E89BE09F938F9382ED90E69F938F930E943E0ECB
:20316000FC9A0F900F900F900F90FFE121EA87E0F15020408040E1F700C000001FB7F89490
:2031800080E18093E20580E880931204029A80E28093040880E09AE08093080890930908F5
:2031A0008BE6809307088AE08093050888EC8093060880910808909109089F938F9382E54F
:2031C0009BE09F938F9382ED90E69F938F930E943E0E1FBF84E190E00E94990A82EC0E94F1
:2031E000D9070F900F900F900F900F900F9081110DC090E080E00F900F90DF91CF911F9148
:203200000F91FF90EF90DF90CF90089585E00E94560A882371F38FE80E94D9078823D9F3AF
:203220000E94D8078823B9F38DB38038A1F7F89AFF988AE7E82E8BE0F82E92EDC92E90E6F9
:20324000D92EFF92EF92DF92CF920E943E0E03E510E60F900F900F900F90F80181918F01A0
:203260000E94D907882329F2F0E60C351F07A9F718E084E190E00E94990A80E80E94D9072D
:20328000811103C01150A9F7DCCF0E94D8078823C9F38DB38230B1F719821A8281EC9FE385
:2032A0000E94810A882381F10E947B0A882361F18DB38A830E947B0A882311F08DB3898334
:2032C00029813A812E3082E9380739F084E02F3091E9390719F082E001C088E080930561CE
:2032E0001F928F933F932F9389E69BE09F938F9382ED90E69F938F930E943E0EF99ACDBFE3
:20330000DEBF81E090E077CF29813A81E4CF04D9FF9A109214040C98049A069A8091556306
:20332000811105C081E08093556380E09ADE0C9A82E191E00197F1F700C000000E94620E66
:2033400080E190E00E94660B65E070E08AE490E60E94A70B811105C00E945C0C0E945C0C51
:20336000F3CF0E94830B8823B9F38DB38530A1F78DB31F928F938FE89AE09F938F9382EDB0
:2033800090E69F938F930E943E0EF89AFF980F900F900F900F900F900F9081E090E0089524
:2033A000209184633091856350E040E060E177E280E090E00E946F35822F632FE32FFF2751
:2033C000E7FDFA9591E0309791F0C90144E0959587954A95E1F720E13202212D330B1124E0
:2033E000692F99E0232B19F08E2F6F2F9DE01092000A1092010A2FEF280F2093200A20934F
:20340000260A9093000A1F929F936F938F93809185638F93809184638F938FE191E09F9300
:203420008F9382ED90E69F938F930E943E0E01988FE99FE00197F1F700C00000019A9FE752
:2034400028E381E0915020408040E1F700C0000084E191E60E94C411E0911361F0E0E3522A
:20346000FF498DB79EB70A968DBF9EBF9081809112619817F9F001988FE99FE00197F1F7E5
:2034800000C00000019A9FE728E381E0915020408040E1F700C0000084E191E60E94C411F3
:2034A000E0911361F0E0E352FF499081809112619813FFCF83E08FBB85E191E09F938F93F4
:2034C00082ED90E69F938F930E943E0E0F900F900F900F9081E090E00895CF9310925A631A
:2034E0008FEF9FEFDC018093566390935763A0935863B093596384EC97E080937A63909353
:203500007B6387EA9DE080937C6390937D638AEA9DE080937E6390937F6384EA9DE0809302
:203520008063909381630E948C12FF9A0898099880915563811105C081E08093556380E0DB
:2035400090DD8091236390912463079740F080910E61882321F080910661811102C0F69B58
:2035600034C0C0915463C13081F11F92CF9382E79CE09F938F9382ED90E69F938F930E94C5
:203580003E0E80E68093010A1092210A81E08093000A83EF91E00197F1F700C000000F904E
:2035A0000F900F900F900F900F90C1119CC0689A8FE99FE00197F1F700C000001092010ADC
:2035C0008FE08093000A68986A98009A83ED90E30197F1F700C000000098109BFECFCFB70A
:2035E000F89480E18093E20580E280930408209184633091856350E040E060E071E782E0D8
:2036000090E00E946F35DA01C9010196A11DB11DB595A7959795879580349105A105B105B8
:203620000CF466C0009721E0A207B10520F08FEF9FEFA0E0B0E080930808909309088BE27D
:20364000809307088AE08093050888EC8093060880910808909109089F938F938091856389
:203660008F93809184638F938BE29CE09F938F9382ED90E69F938F930E943E0ECFBF8DB7D8
:203680009EB708968DBF9EBF6BE070E08CE890E60E94EA07882389F10E94C707882369F1DC
:2036A0008DB3853151F562E070E08AE890E60E94EA07811125C09DB38CB31F929F931F9227
:2036C0008F938BE49CE09F938F9382ED90E69F938F930E943E0E8DB79EB708968DBF9EBF82
:2036E00090E080E05CC0C23009F062CF6A9A60CF80E490E0A0E0B0E09ECF0E94040AC4CFFB
:2037000060E270E08AE593E60E94FE08882399F28AE593E69F938F93809164631F928F936A
:203720008DE59CE09F938F9382ED90E69F938F930E943E0E809164632DB73EB7285F3F4F5A
:203740002DBF3EBF863369F58EE89CE080937A6390937B6383E09AE080937C6390937D63B4
:203760008AE198E180937E6390937F6383EB96E1809380639093816380915A63EAE5F3E614
:20378000803211F4EEE5F3E684E0AEE0B1E601900D928A95E1F7F89AFF9885E090E0CF91B8
:2037A00008958533A9F48AEE9CE080937A6390937B6382E09AE080937C6390937D638BEEE8
:2037C00097E180937E6390937F638CE596E1D0CF8433A9F48CED9CE080937A6390937B63B7
:2037E00083ED99E080937C6390937D6383E098E180937E6390937F6382ED95E1B9CF8333F3
:20380000A9F482EE9CE080937A6390937B6382ED99E080937C6390937D638AEE97E180934E
:203820007E6390937F638BE795E1A2CF8233A9F480E89DE080937A6390937B6384EA99E03A
:2038400080937C6390937D638CEE97E180937E6390937F638BEF94E18BCF803309F02BCF99
:203860008FE59DE080937A6390937B6389E799E080937C6390937D6380EE97E180937E63AE
:2038800090937F6389E394E173CFCF92DF92EF92FF920F931F93CF93DF9300D0CDB7DEB70B
:2038A0008091E2609091E36089839A8300910D6110910E61102701271027D0900F611F9202
:2038C000DF921F930F93880F991F9F938F9381ED90E09F938F9382ED90E69F938F930E9473
:2038E0003E0ECDBFDEBF37E0E32E31E6F32ECD2C6894C3F8C701875091468017910728F581
:20390000D092DA608A818093DB6089818093DC601092DD608AED90E60E94C4118091E160C4
:20392000F7018783C092DA608AED90E60E94C4118091E160F701808789819A81019689837C
:203940009A83F2E0EF0EF11CD5CFF801E95FFE491782C80101960F900F90DF91CF911F918B
:203960000F91FF90EF90DF90CF9008952F923F924F925F926F927F928F929F92AF92BF92D4
:20398000CF92DF92EF92FF920F931F93CF93DF93B0900D61009111611091126110270127F7
:2039A0001027E0901361F0901461FE24EF24FE24809105618150990BC5E1D1E62FEFAC018C
:2039C00040235123452B79F42FEF4C018E209F208114910479F0F801EE0DFF1D2083EFEF37
:2039E000EE1AFE0AF2CF015011093FEFE31AF30A2A93E5CFFF92EF921F930F9382E49BE0AB
:203A00009F938F9322EDC22E20E6D22EDF92CF920E943E0E26EA30E650E040E0B701CE0190
:203A20000E94D40D0E94320E8DB79EB708968DBF9EBF91E0B91271C0B12CA12C84E1482E4F
:203A40008BE0582E92ED692E90E6792EAE14BF0408F0C6C0809105611F928F931F930F93A1
:203A60005F924F927F926F920E943E0E0E94630A382EEDB7FEB73896EDBFFEBF882399F03B
:203A8000C8010E94810A382E882369F08DE10E94570A382E882339F088810E946F0A382E91
:203AA00081117EC021962090056133E0321548F580E190E00E94990A88810E946F0A811106
:203AC00079C02196382298E029121BC080E190E00E94990A88810E946F0A6E01811173C0A0
:203AE000EFEFCE1ADE0A382280E190E00E94990AF60180810E946F0AE60181116BC021963A
:203B000038220E94630A3320B9F18823A9F1312C020D131DA20CB31C99CF58016894A0F88C
:203B2000BF92AF928CE29BE09F938F93DF92CF920E943E0E0E94630A0F900F900F900F906B
:203B40000F900F908823C1F0C5010E94810A882399F084E10E94570A882371F08FEF0E9410
:203B60006F0A882349F00E94630A882329F080E00E94570A811160CFC401DF91CF911F91AC
:203B80000F91FF90EF90DF90CF90BF90AF909F908F907F906F905F904F903F902F900895C6
:203BA0006E01F2E0CF0ED11C89810E946F0A382EE60179CF6E0182E0C80ED11C89810E9400
:203BC0006F0AE6017FCFF2E0CF0ED11C89810E946F0A89CF2296F60181810E946F0A90CFF3
:203BE00080E00E94570A882E912CC6CF0F931F93CF93DF93009110611091116110270127BE
:203C00001027C0911261D0911361DC27CD27DC27DF93CF931F930F9385E09BE09F938F937E
:203C200082ED90E69F938F930E943E0EC8010E94810AEDB7FEB73896EDBFFEBF07E011E6F9
:203C4000C801875091468C179D0750F40E947B0A0F5F1F4F8823A9F08DB3F8018683F0CF1A
:203C600026EA30E650E040E0BE018EE091E60E94D40D0E94320ECE01DF91CF911F910F91D6
:203C80000895D0E0C0E0F7CFCF93DF93C0911061D0911161DC27CD27DC2780910D618130DE
:203CA00079F5DF93CF9382EF9AE09F938F9382ED90E69F938F930E943E0E0E94630A0F90AE
:203CC0000F900F900F900F900F90811105C090E080E0DF91CF910895CE0181600E94810A58
:203CE0008823A9F380E10E94570A882381F38FEF0E946F0A882359F30E94630A90E0E9CF33
:203D0000DF93CF938CED9AE09F938F9382ED90E69F938F930E943E0E0E94630A0F900F9014
:203D20000F900F900F900F90882389F2CE0181600E94810A882359F284E1D5CFDF92EF9213
:203D4000FF920F931F93CF93DF9300D0CDB7DEB78091E2609091E36089839A8300910D61E2
:203D600010910E61102701271027D0900F611F92DF921F930F939F938F9387EB90E09F93EF
:203D80008F9382ED90E69F938F930E943E0ECDBFDEBF87E0E82E81E6F82EC7018750914631
:203DA00080179107D8F4D092DA608A818093DB6089818093DC601092DD608AED90E60E944C
:203DC000C4118091E160F701878389819A81019689839A83FFEFEF1AFF0ADFCFF801E95FE6
:203DE000FE491782C80101960F900F90DF91CF911F910F91FF90EF90DF9008952091410118
:203E00002111FCCF2091480130914901820F931F20914801309149012817390711F0A8959B
:203E2000F7CF08958FE091E60E94C41180910E6190E08930910510F489E090E0DFDF81E087
:203E400090E00895CF93DF93C42F86FF12C080EF8093DA601092DB601092DC608AED90E6D3
:203E60000E94C4118091DD6080FDF8CFDF91CF91089585FF47C08091DD608F3F09F442C026
:203E8000D09113618FEE90E09F938F9382ED90E69F938F930E943E0E26EA30E650E040E06F
:203EA00064E070E08AED90E60E94D40D0E94320E0F900F900F900F90D093DA608AED90E616
:203EC0000E94C4118091E1608C17B1F38BEE90E09F938F9382ED90E69F938F930E943E0E6E
:203EE00026EA30E650E040E064E070E08EED90E60E94D40D0F900F900F900F90DF91CF91F8
:203F00000C94320E862F90E0DF91CF9177CF2F923F924F925F926F927F928F929F92AF927D
:203F2000BF92CF92DF92EF92FF920F931F93CF93DF9300D0CDB7DEB78091E2609091E36084
:203F400089839A8300910D6110910E6110270127102770900F61A09011615090126160903E
:203F600015617801F694E79444244A944E0CB090106125E0B21610F425E0B22E1F930F93F2
:203F80009F938F9383EF90E09F938F9382ED90E69F938F930E943E0E87E0C82E81E6D82EA6
:203FA000CDBFDEBF99E0892E912C075F1F4F2A2C689423F892E0C90ED11C8016910640F512
:203FC000A092DA601092DB60398034203092DC60F60185858093DD608AED90E60E94C411D8
:203FE0002092DA608A818093DB603092DC60F2E08F0E911CF60186858093DD608AED90E623
:204000000E94C41189819A81019689839A83D2CF5092DA608091E3608093DB60E19480915F
:20402000E260E822E092DC601092DD608AED90E60E94C411462D6B2D872D04DF81E090E0D0
:204040000F900F90DF91CF911F910F91FF90EF90DF90CF90BF90AF909F908F907F906F903C
:204060005F904F903F902F9008954F925F926F927F928F929F92AF92BF92CF92DF92EF922C
:20408000FF920F931F93CF93DF9300D0CDB7DEB78091E2609091E36089839A8300910D619F
:2040A00010910E61102701271027E0900F61F09010616090116150901261709015611F93AC
:2040C0000F939F938F9384E091E09F938F9382ED90E69F938F930E943E0ECDBFDEBFF80178
:2040E00039966F01E0FE56C0402EF4E0FF1610F444E0F42E26E1822E21E6922E39E0A32E84
:20410000B12C4A94AC14BD04D0F46092DA601092DB60898184218093DC608FEFA81AB80A96
:20412000F40181914F018093DD608AED90E60E94C41189819A81019689839A83E3CF5092FB
:20414000DA608091E3608093DB6001958091E26008230093DC601092DD608AED90E60E9432
:20416000C411472D6F2D8E2D6DDE81E090E00F900F90DF91CF911F910F91FF90EF90DF90A8
:20418000CF90BF90AF909F908F907F906F905F904F900895EE0CEE0CEE0CF3E0FF1510F096
:2041A00099E0F92E86E1A82E81E6B82E09E010E00C151D05D0F66092DA608A818093DB606E
:2041C00089818093DC600F5F1F4FF50181915F018093DD608AED90E60E94C41189819A8169
:2041E000019689839A83472D6F2D8E2D2BDEE0CFA89581E391E09F938F9382ED90E69F93FF
:204200008F930E943E0E8091E46081508093E4600F900F900F900F90882391F08091846371
:20422000909185639C013695279536952795821B930B809384639093856381E090E008951C
:2042400090E080E008951F920F920FB60F9211242F933F934F935F936F937F938F939F9334
:20426000AF93BF93CF93EF93FF93C0910108209100088C2F8674B1F4F29977C08EE194E61C
:20428000E091A26431E03E0F3093A264E80FF92FF11D20838091A264803408F069C08EE155
:2042A00080939F648CB3C82BCCBB8091D66481FF4AC080E0E29980E1E1998062E69980645F
:2042C0001CBAF49B40C090919E648917E1F180939E6491EA90938E6390E290938F63109217
:2042E00090631092916321E030E0209392633093936322E030E0209394633093956390E0DC
:20430000809396639093976386EC9CE09F938F9382ED90E69F938F930E943E0E26EA30E6E5
:2043200050E040E06AE070E08EE893E60E94D40D0E94320E8091D6640F900F900F900F9078
:2043400081FD0E948607FF91EF91CF91BF91AF919F918F917F916F915F914F913F912F91F0
:204360000F900FBE0F901F9018958EE594E688CF0E94520797CF112462E070E08EEE90E678
:204380000E9462321092420182E0809343011895CF93DF93CDB7DEB72897CDBFDEBF8D83B7
:2043A0009E836B837C834F83588719821A8289819A81892B11F58EEE90E60E944232892B6C
:2043C00021F5E1E4F1E080818111FDCF80914801909149012F813885820F931F80934C01FD
:2043E00090934D0182E08093430180934201ED81FE81099589839A83C5DF89819A81289602
:20440000CDBFDEBFDF91CF910895BCDF27ED3AE03F932F93E2EDF0E6FF93EF930E943E0E02
:204420000F900F900F900F908B819C81009729F3FC010995892B09F0BACFDFCFEF92FF9293
:204440000F931F93CF93DF93D0912363D650C0910C61ED2EF12C1F92DF938CEA92E09F93F4
:204460008F9302ED10E61F930F930E943E0E0F900F900F900F900F900F90DD2309F484C0F8
:2044800024EC30E640E150E0B7018DE091E60E94D40D0E94320EC03109F09DC08FE892E074
:2044A0009F938F9382ED90E69F938F930E943E0E0F900F900F900F90FF993FC01092E2608A
:2044C0001092E3600E948C12109282638091E10581608093E1051092C00182E08093CB01BB
:2044E0008AE08093C90191E49093C80191E09093C0011092000B10920A0B10920B0B29E09A
:2045000020930C0B24E020930D0B27E02093010B9093000B2FE738E391E0215030409040BB
:20452000E1F700C00000809302048FE08093060485E08093010480E88FBBDB3090F580E817
:2045400080930D61C1E0D0E0DF93CF9389E391E09F938F9382ED90E69F938F930E943E0E5D
:2045600024EC30E640E150E0BE016F5F7F4F8CE091E60E94D40D0E94320E0F900F900F9044
:204580000F900F900F90D5C089EA92E09F938F931F930F930E943E0E0F900F900F900F90B2
:2045A0007ACF84E08093E46040910D6150E068EF70E280ED99E1ECDE009709F4C0CFFC010E
:2045C000E95FFE491782EC012196029708F479C010920D61B9CFC131C9F585E792E09F93E9
:2045E0008F9382ED90E69F938F930E943E0E8FB30F900F900F900F90882329F11092000A43
:204600008FE08093000A8093060480930204109282638091E1058E7F8093E1051092C001F1
:204620001092CB011092C9011092C80181E08093C0011092000B61E00E9452181FBA0E948B
:204640008C120E94260F10920F613BC0CD31E1F5C0910D61D0910E61DF93CF938FE592E0BB
:204660009F938F9382ED90E69F938F930E943E0E0F900F900F900F900F900F90209749F015
:2046800088EE93E0BE010E9439356093846370938563809185638F93809184638F9384E5FF
:2046A00092E09F938F9382ED90E69F938F930E943E0E10920F610F900F900F900F900F90E0
:2046C0000F90C1E0D0E084CFCE31D9F5809185638F93809184638F938EE392E09F938F935E
:2046E000C2EDD0E6DF93CF930E943E0E809184639091856380930D6190930E618DE292E09E
:204700009F938F93DF93CF930E943E0E26EA30E650E040E063E070E08DE091E60E94D40D13
:204720000E94320E8DB79EB70A968DBF9EBFC2E0D0E0CE01DF91CF911F910F91FF90EF9066
:204740000895F99906C080EC80930D61C1E0D0E0F0CFC63099F460910D6170910E61809104
:204760000F61909110610E948B356093E2607093E3607F936F938FE092E093CFC231B1F46B
:2047800089EF91E09F938F9382ED90E69F938F930E943E0E40E253E070E060E082E19FE1ED
:2047A000F7DD0F900F900F900F9006CFC33189F480EE91E09F938F9382ED90E69F938F93F7
:2047C0000E943E0E40E253E070E060E087E89FE1E7CFC43189F48AEC91E09F938F9382ED45
:2047E00090E69F938F930E943E0E40E253E070E060E085E49CE1D4CFC53189F480EB91E044
:204800009F938F9382ED90E69F938F930E943E0E40E253E070E060E085E390E2C1CFC631D7
:2048200089F489E991E09F938F9382ED90E69F938F930E943E0E40E253E070E060E08EE941
:204840009EE1AECFC73141F189EA90E6C93131F1C83109F465C0CA3109F47EC0CB3109F4E3
:204860007EC083EB90E6CC3109F45CC01F92CF938BE491E09F938F9382ED90E69F938F9380
:204880000E943E0E89EC80930D610F900F900F900F900F900F905ACF8EEA90E69F938F930F
:2048A00083E891E09F938F9382ED90E69F938F930E943E0E40E253E070E060E089E192E1DF
:2048C00067DD10920E610F900F900F900F900F900F90892B19F580E880930D611F9282E00B
:2048E0008F9381E791E09F938F9382ED90E69F938F930E943E0E24EC30E640E150E063E088
:2049000070E08CE091E60E94D40D0E94320E0F900F900F900F900F900F9009CF80E0DCCF62
:204920008EEA90E69F938F938EE591E09F938F9382ED90E69F938F930E943E0E40E253E081
:2049400070E060E08FE192E123DD0F900F900F900F900F900F9030CE89EA90E6E3CF8AEB1C
:2049600090E6E0CF1F920F920FB60F921124F79A0F900FBE0F901F901895E2EDF0E680E226
:2049800098E08283938384EA90E68083918386E19DE0858396830895CF93DF93CDB7DEB7FA
:2049A0002597CDBFDEBF67E36CB9639A88E08093120480931304809310048CE08093110430
:2049C0008BE08093B60484E88093B2048093740483E28093180493E09093E70589E080934D
:2049E000110281E18093120282E18093130280E48093140271E47093150254E050932B0250
:204A000025E0209322022093260236E0309327029093320242E0409331029093CF01609378
:204A2000CD0181E08093CC0166EF6093D7016AE06093D601E3E4E093D5017093D401309388
:204A4000D3016093D2016AE96093D1018093D0018093C0018093030A60E560932C0A40938B
:204A60002B0A40932D0A9093270A47E04093010B63EC74E060931C0B70931D0B8093140B83
:204A80003093110B2093100B24E7209356018093500129E22093400124E1209366008093C0
:204AA000000690930106509302068AEF809304069093050684E480930B068091080680FDEF
:204AC000FCCF80E380930A060E94A90A0E94F30E02ED10E68091D7609091D860FC01A591D4
:204AE000B4912C91FC01329634913196E49123232E2B2C93FC013496A591B491FC01369685
:204B0000E4911196EC931197FC013796E4911296EC93FC013896A591B49198E0F92EFC9279
:204B2000E091D460F091D5608FE990E080879187158283E0878380EC86832FEF3EE944E22F
:204B4000215030404040E1F700C0000088E59AE09F938F931F930F930E943E0E81E08F935C
:204B600081E38F938DE28F931F928CE49AE09F938F931F930F930E943E0E8EE29AE09F93D1
:204B80008F931F930F930E943E0E1F9286E68F938CE19AE09F938F931F930F930E943E0EF5
:204BA0008CEF99E09F938F931F930F930E943E0E8091D4609091D5600E94BF070E948C1228
:204BC00088ED84BFF09200018FEF87BB8093C70178948AEF90E012D9CDBFDEBF8091826300
:204BE000833011F00E94F30E1092030C8091000C0E94331280EF99E09F938F9382ED90E688
:204C00009F938F930E943E0E0F900F900F900F90DD24D39402ED10E6B0E88B2EB5E29B2ED8
:204C2000A12CB12C44244394512C1E0195E0290E311CDD2019F0A895DD24D394F0900A0CB5
:204C4000F0920A0CF7FE14C080919F64882381F080919F64815080939F64811109C080915C
:204C6000E66481FF05C08091A26481110E9452078F2D807681F1F09B2CC08091010C8E7F3B
:204C80008093010CF098A895EFE1F1EA27E0E150F0402040E1F700C000001092000C86EB05
:204CA00092E09F938F9382ED90E69F938F930E943E0E8091D4609091D5600E94BF0788ED8F
:204CC00091E084BF909300010F900F900F900F90FFCF6894F4F8F4FE0DC080918263833062
:204CE00011F00E94F30E1092030C8091000C81110E9433128091AE6484FF12C1F0908663E7
:204D000084E0809300028091B0649091B1642091AE6430918D633F9330918C633F93309136
:204D20008B633F9330918A633F93309189633F93309188633F93309187631F923F93309147
:204D400086631F923F939F938F931F922F938EE994E09F938F931F930F930E943E0ECDBF13
:204D6000DEBFF7FE0E94B3078F2D807609F06BC28091876381110FC010928E6310928F63EA
:204D800082E090E08093B8649093B9640E94A7070E94B307C0C0813079F580918B638F9366
:204DA00080918A638F93809189638F93809188638F938FE594E09F938F931F930F930E9464
:204DC0003E0ECDBFDEBF80918863811110C0E0918A63E29580910B0C82FDFCCFF0E0F5955F
:204DE000E795F595E795E05CF34F8BE080831092B8641092B964CACF8430D9F480918B63AF
:204E00008F9380918A638F93809189638F93809188638F938FE494E09F938F931F930F9384
:204E20000E943E0E1092B8641092B964CDBFDEBFADCF8530E1F480918863F82EE894F7F84B
:204E40000E94A7078091B66481FFFCCFF092030C1F92FF928FE394E09F938F931F930F932B
:204E60000E943E0E1092B8641092B964B3C1863009F09CC170908C63C0908D63809188631C
:204E800090918963913009F0ACC042E150E060E074E08EE893E60E9482328091001490916D
:204EA0000114A0910214B09103148F3FFFEF9F07AF07BF0741F08093966390939763A093D3
:204EC0009863B0939963809199638F93809198638F93809197638F93809196638F938BEE69
:204EE00093E09F938F931F930F930E943E0ECDBFDEBF72E1E72EF12C872D9C2DE816F90681
:204F000008F4C70197017C01E092B864F092B964232B09F03BCF80910B0C846080930B0C04
:204F20008FB3837021F5F69B78C2B69B20C001988EE290E60E94E5068DE790E00E94FE1E7C
:204F40008091E56080931402F09B64C20E94FC0E86EC94E09F938F931F930F930E943E0EF9
:204F60008EB38F738EBB0F900F900F900F90F09B60CEF19B99C2F39914C08091040885FF88
:204F800010C08091DE6481FF0CC0F19B0AC02091E0643091E1648091A164821366C20E94DC
:204FA0004107F39B12C08091A3649091A4649C012F5F3F4F2230310540F0059708F479C2C4
:204FC0008091D66481FD0E9486078091CE6481FD77C2F99B2ECEF799D12C8EB38F738EBB36
:204FE00028CE923009F4C5C0963009F4CDC0913209F4D0C0923209F4D3C0811533E0930740
:2050000079F484E080938E6393E090938F6399E0909390638093916364E0E62EF12C6CCFED
:20502000823043E0940751F168F474E3E72EF12C6FE173E08130934081F0F12CE12C70E0C7
:2050400060E00BC083309807F9F048E1E42EF12C61EC72E08430934081F7E0928E6383E04E
:2050600080938F63A7014250510980E993E6E114F10409F086C030E020E046CF56E4E52E1A
:20508000F12C69ED72E0E9CF4091041450910514609106147091071449835A836B837C83F3
:2050A0004F3F8FEF58076807780771F5E0E8F0E17F019FEFE91AF90A2081422728E0DB0196
:2050C000CA01B695A79597958795417055276627772770956095509541955F4F6F4F7F4FEF
:2050E00040725378687B7D7E482759276A277B27215029F7F70120EAE21620E1F206C1F6F8
:2051000049835A836B837C8386E180938E6383E080938F638DE4809390631092916388E5AC
:205120008093926310929363E4E9F3E6DE0111968D91282F30E094E0359527959A95E1F71D
:2051400090E3920F9A3310F097E3920F908311828F7090E3980F9A3310F097E3980F928391
:20516000138234962A163B0619F7E6E1EE2EF12CC3CE6BE6E62EF12C66E773E0A7018EE86E
:2051800093E60E948232B8CE5AE0E52EF12C61EE73E0F4CF49E0E42EF12C68E873E0EECF33
:2051A00033E2E32EF12C63E573E0E8CF8830C9F48091A06480938E631F928F9383E394E01F
:2051C0009F938F931F930F930E943E0E4092B8645092B9640F900F900F900F900F900F9092
:2051E000D5CD893079F4809188638093A064F09A0E94FC0E8091A0641F928F9387E294E0D9
:205200009F932BCE8A3099F42EE134E03F932F931F930F930E943E0E10928E634092B864A2
:205220005092B9640F900F900F900F90AFCD8B3009F071CE809189638F93809188638F9347
:2052400082E194E0DDCF803209F065CE809187638A3061F4809188639091896399279F93E8
:205260008F9322E934E03F932F93F8CD803209F040C08091AE6481FFFCCF47E050E06EE8CE
:2052800073E68BEC90E60E949835892B91F08091DE6481FD0E9441070E948C1287E0EEE8EC
:2052A000F3E6ABECB0E601900D928A95E1F70E94260F8CE894E09F938F931F930F930E94B8
:2052C0003E0E26EA30E650E040E067E070E08BEC90E60E94D40D0E94320EF49A1092A264ED
:2052E0001092A16410929F641092B8641092B96499CF8132D9F587E0EBECF0E6AEE8B3E6B9
:2053000001900D928A95E1F780918E6390918F63A0919063B0919163892B8A2B8B2B59F48C
:2053200080928E6390928F63A0929063B092916388E08093946326E834E03F932F931F9321
:205340000F930E943E0E26EA30E650E040E067E070E08EE893E60E94D40D0E94320E87E0F5
:2053600090E08093B8649093B9645CCF823201F5809188639091896399279F938F938AE7EB
:2053800094E09F938F931F930F930E943E0E809188639091CA600F900F900F900F900F90A1
:2053A0000F9090FD02C080FDF79A8093CA601FCD833209F0B0CD809189638F938091886382
:2053C0008F932FE634E03F932F931F930F930E943E0E80918863909189638093A364909366
:2053E000A4640F900F900F900F900F900F90892B71F0F19B0AC0F39908C0F49810929F64FB
:205400008091060881110E947512F39AF0CC0E940410EDCC0E94F30E9BCDF79BA8CDF69959
:20542000A6CD82ED94E09F938F931F930F930E943E0E809114028093E56082E18093140275
:205440000F900F900F900F9080918263833029F060E470E083E00E94C20E019A8CE390E625
:205460000E94E506F69ABE9882CD4091E0645091E164282F30E0F12C4217530739F08F5FE1
:205480008093A16422523C49F901F0808091E0649091E1642091A1642817190611F40E941B
:2054A0004107F09202087DCD8091DE6481FF79CD76CD1092A3641092A4640E94041085CD17
:2054C00090919E6380919F6324E0209300022091C66421FFFCCF903809F0DFC0F82FFF7022
:2054E0006F2E90E024E0959587952A95E1F78D83C090A16301972CE3289F7001299FF00CB7
:20550000112429E08AEF94E02F1708F4B9C03D81313011F41092E6607090E660739470924A
:20552000E660D12CA60162EA73E6C701895F9E490E94A53581E080939F634D81641611F00A
:20554000E12C0CC0EC0CFD1CE0922363F0922463671094C01092EC60EE24E39480E490E04A
:205560008093C8649093C9641092CC641092CD6480910B0C82FDFCCF8EEF8093460C109201
:20558000D0641092D16480910B0C82FDFCCF8EEF8093480CEE2009F44ECBF0900B61809189
:2055A0000C611F928F931F92FF92809124638F93809123638F9380910A618F9380910961DD
:2055C0008F9385ED99E09F938F931F930F930E943E0ECDBFDEBF31E0F31273C190910C6127
:2055E00060900E6170900F6180911061923009F0F6C0E82EF12C1F928F93C72CD12C1F9242
:205600007F921F926F928AE895E09F938F931F930F930E943E0E89E795E09F938F931F935F
:205620000F930E943E0ECDBFDEBF6110A1C0B6016C587A4FA7018EE091E664D78AE695E0EE
:205640009F938F931F930F930E943E0E26EA30E650E040E0B7018EE091E60E94D40D0E947C
:20566000320E0F900F900F900F9084E891E080930C6190930D61C7010196DCC08CEE94E097
:205680009F938F931F930F930E943E0E10929F630F900F900F900F9053CF9138E9F51092E9
:2056A000A0639091EC6091110DC08DED94E09F938F931F930F930E943E0E10929F63109241
:2056C000A163E6CF8091ED602CE3829FF0011124E85FFE49A2EAB3E601900D922A95E1F7E3
:2056E0008F5F8093ED60E0E18E9F90011124292B20939F632091236330912463981751F030
:205700008CE38093A1632C533109209323633093246316CF822FF5CF91111CC08F3F21F010
:2057200095E0980F923048F482E080939F6380E48093A0631092A16303CF813F09F000CF5E
:2057400082E080939F6380E88093A06381E08093A163F6CE923009F4F3CE913031F4882307
:2057600009F4EECE10929F63EBCE9330D9F7E8CE91E069127ACF872D8F7DF9F40E94A90A93
:205780008093EA609093EB609F938F938CE595E09F938F931F930F930E943E0E8091EA6013
:2057A0009091EB6080930E6190930F610F900F900F900F900F900F9058CF80E595E09F937B
:2057C0008F931F930F930E943E0E672D677070E0685B7A4FA7018EE091E694D642CF903155
:2057E00009F041C089E395E09F938F931F930F930E943E0E1FBA1092066110928363F0924C
:20580000556388EC90E0809384639093856380E890E080930C6190930D614AE050E06FE253
:2058200075E08EE091E66ED60F900F900F900F908AE090E09C012A5F3F4F209323633093E4
:2058400024631092ED608F5B9F4F6CE370E00E9439356093EC608EE080930861295F3E4913
:20586000F9011082E8C99131D9F48FE195E09F938F931F930F930E943E0E0F900F900F9004
:205880000F90F19904C00E948C120E94260F80E890E080930C6190930D6190E080E0CACFB2
:2058A0001F928F931F927F921F926F9288E095E09F938F931F930F930E943E0ECDBFDEBF05
:2058C000ECCFF1E1FF1203C00E941E22B3CF22E1F21223C480910C61D0900E61C0900F6108
:2058E00070901061813009F004C1E72CF12C1F927F921F92CF921F92DF9280E898E09F9390
:205900008F931F930F930E943E0EF701E95FFE491286E0901161F0901261CDBFDEBF99E08D
:2059200079122BC08FE698E09F938F931F930F930E943E0E0F900F900F900F90D1105EC0F3
:20594000C11054C0C70199279F938F9382E398E09F938F931F930F930E943E0EE0928363BB
:205960000F900F900F900F900F900F90F3E0EF121EC0049A84EC99E022C0EAE07E1212C026
:20598000FF24FF92EF9289E598E09F938F931F930F930E943E0E0F900F900F900F900F903B
:2059A0000F90CCCFFF92EF9283E498E0EECF22E02E1568F435E081EE90E0E312DBCF8093B8
:2059C0008463909385638093E8609093E960809185638F93809184638F9387E298E09F93C6
:2059E0008F931F930F930E943E0E19C041E0C4124ECFFF92EF9282E198E0F1CF81E0D8125E
:205A000044C0C11013C0FF92EF928FEF97E09F938F931F930F930E943E0EE092E7600F90E9
:205A20000F900F900F900F900F9031CF91E3C9122ECFE114F10419F4EE24E394F12C88EEEC
:205A400093E0B7010E9439357B0180918463909185636817790781F0FF926F9380EF97E0A5
:205A60009F938F931F930F930E943E0E0F900F900F900F900F900F90E092E860F092E96051
:205A8000E0928463F092856302CFE2E0DE1216C0C110FDCE1F927F928FED97E09F938F9345
:205AA0001F930F930E943E0E472D4F7350E061E171E685E293E60E94A535B1CFF3E0DF1205
:205AC000E6CE26E0C2120DC0FF92EF928EEC97E09F938F931F930F930E943E0EE0920661F9
:205AE0009ECF37E0C312D3CEFF92EF928DEB97E076CF823009F059C0E72CF12C1F927F92B0
:205B00001F92CF921F92DF9285EA97E09F938F931F930F930E943E0E80E997E09F938F93A1
:205B20001F930F930E943E0ECDBFDEBFD11013C0C1109BCD809183631F928F938FE797E056
:205B40009F938F931F930F930E943E0E8091836380930E612BCE91E0D91287CDC1100FC0ED
:205B60008091E7601F928F938CE697E09F938F931F930F930E943E0E8091E760E9CFE1E3A7
:205B8000CE1273CD809185638F93809184638F9381E697E09F938F931F930F930E943E0E3C
:205BA0008091846390918563FDCD90918363953009F07CC1803109F044C01F92DF928DE3D8
:205BC00096E09F938F931F930F930E943E0E0F900F900F900F900F900F90F69904C080919B
:205BE0000661882369F08091E8609091E9608E37910530F08DE790E08093E8609093E96051
:205C00008091E8609091E960809384639093856380918463909185638436910508F437C276
:205C200046E450E070E060E08DE69AE10E94C821009709F05BC18091846390918563499774
:205C4000E3CF813109F03DC08CE296E09F938F931F930F930E943E0E8FB30F900F900F9051
:205C60000F90882309F481C1F89B28C040E253E070E060E08DEF97E00E94C821E82E0E9405
:205C8000040A83EF91E00197F1F700C000000E948C12019A61E081E00E945218E3EDF0E3A7
:205CA0003197F1F700C0000001981FBA0E94260F8E2D90E0009709F4B4C03CC0EE24E39473
:205CC000DECF8531D9F489E196E09F938F931F930F930E943E0E4AEF50E06EE37AE08CE19D
:205CE00093E10E94C8210F900F900F900F90892BF9F6EFB2FE2DF170EF2EDACF8631E9F4FF
:205D000086E096E09F938F931F930F930E943E0E809185638F93809184638F9386EF95E0F2
:205D20009F938F931F930F930E943E0ECDBFDEBF81E090E020E830E0DBC0803219F580914F
:205D400012618F93809111618F93809110618F9380910F618F931F92DF928DED95E09F937F
:205D60008F931F930F930E943E0E40E253E06EE37AE080917E6390917F630E94C821CDBFB3
:205D8000DEBF98CFF89B83C1813209F067C0809114618F93809113618F93809112618F9360
:205DA000809111618F93809110618F9380910F618F931F92DF9280EC95E09F938F931F93EE
:205DC0000F930E943E0E80910E61E0901361F0901461CDBFDEBF833D99F480910F618F71E3
:205DE00090E0A701415051094F7155274F5F5F4F6AE573E6825F9E49A8D6C70101960CC0EF
:205E0000F99B12C040E951E06EE37AE080917C6390917D630E94C82124E831E0009709F0EE
:205E200067C020EA30E064C0843B89F480915A63882369F09EE190930E61803209F481E4CA
:205E400080930F618091646380931061D6CFA7016FEF70E08EE091E681D6CFCF833209F0E0
:205E600016C1809114618F93809113618F93809112618F93809111618F93809110618F930D
:205E800080910F618F931F92DF9282EA95E09F938F931F930F930E943E0E40E253E06EE320
:205EA0007AE0809180639091816367CF933009F0F1C0803111F51F92DF928BED96E09F93F3
:205EC0008F931F930F930E943E0E40E253E063E470E187E899E10E94C8210F900F900F9020
:205EE0000F900F900F90009709F49BCF24E830E020930C6130930D619DCC8131C9F58BEC0A
:205F000096E09F938F931F930F930E943E0E8FB30F900F900F900F90882339F140E253E08D
:205F200070E060E08FEB9BE00E94C821E82E83EF91E00197F1F700C000000E948C1204983C
:205F4000109216040E98069AF99B0AC061E081E00E945218E3EDF0E33197F1F700C0000020
:205F6000069884E080931404A0CEEE24E394A0CE853179F489EB96E09F938F931F930F93DA
:205F80000E943E0E40E253E063E470E18CE090E1A8CE863169F487EA96E09F938F931F93D2
:205FA0000F930E943E0E0F900F900F900F90C0CEF99B6DC08032E9F4809112618F93809140
:205FC00011618F93809110618F9380910F618F931F92DF928FE896E09F938F931F930F932F
:205FE0000E943E0E40E253E063E470E18FE19CE0C4CE813239F5809114618F93809113613A
:206000008F93809112618F93809111618F93809110618F9380910F618F931F92DF9283E740
:2060200096E09F938F931F930F930E943E0E40E253E063E470E183E391E10E94C821CDBF78
:20604000DEBFEACE833219F5809114618F93809113618F93809112618F93809111618F938E
:20606000809110618F9380910F618F931F92DF9286E596E09F938F931F930F930E943E0E40
:2060800040E253E063E470E184E690E176CE90E080E0C7CE8131B9F41F929F9389E497E069
:2060A0009F938F931F930F930E943E0E80E890E080930C6190930D610F900F900F900F90E5
:2060C0000F900F90EACB923009F4FECB803129F41F929F9382E397E0E3CF833159F41F9254
:2060E0009F938DE097E09F938F931F930F930E943E0EE2CF1F929F931F928F9383EF96E0A5
:206100009F938F931F930F930E943E0E80EA90E080930C6190930D61D1CB94E1F91234C1ED
:2061200080910C61813031F587E499E09F938F931F930F930E943E0E0E94A90A8093EA60DE
:206140009093EB609F938F9389E399E09F938F931F930F930E943E0E1092836340E253E025
:2061600070E060E08CE698E10E94C8217C01CDBFDEBF15C0823009F061C083E299E09F93C2
:206180008F931F930F930E943E0E8FB30F900F900F900F9081111DC0EE24E394F12C81E067
:2061A000E114F10409F080E080930D61FF92EF9284EA98E09F938F931F930F930E943E0E8D
:2061C000C70101960F900F900F900F900F900F9031CBF89B21C080EC0E94D907882319F094
:2061E00080E00E94560A8CE190E00E94990AFC9B13C01092010A8FE08093000A6998FC98E3
:2062000088E998E09F938F931F930F930E943E0E0F900F900F900F900298019861E081E0AE
:206220000E94521883ED90E30197F1F700C000001FBA0E948C120E94260FAECF873009F40E
:20624000ABCF863079F488E199E09F938F931F930F930E943E0E0F900F900F900F90F12C90
:20626000E12C9DCFF89BFBCF853049F5209112613091136132272327322760910E6170919F
:206280000F61809110619091116145D43F932F939F938F937F936F9380910D611F928F9312
:2062A0008EEF98E09F938F931F930F930E943E0E40E253E070E060E086EF9DE155CF2091A6
:2062C000EA603091EB602836F0E13F0778F43F932F931F928F9385EE98E09F938F931F932F
:2062E0000F930E943E0ECDBFDEBFB9CF833001F560910E6170910F618091106190911161CE
:206300000AD49F938F937F936F9380910D611F928F938DEC98E09F938F931F930F930E94AA
:206320003E0E40E253E070E060E084E49EE11CCF843009F094CF2091136130911461322796
:206340002327322760910F61709110618091116190911261E0D33F932F939F938F937F9303
:206360006F9380910D611F928F9382EB98E09F938F931F930F930E943E0E40E253E070E0A9
:2063800060E086EB9CE1F0CEF0E2FF1276C070900C61C0900E61D0900F6180911061E82E64
:2063A000F12C1F928F931F92DF921F92CF928EEA99E09F938F931F930F930E943E0ECDBFA6
:2063C000DEBF31E0731236C0E0901161F0901261FF92EF9288E999E09F938F931F930F931B
:2063E0000E943E0E0F900F900F900F900F900F90C1104DCA40E1D4124ACAFF92EF9283E875
:2064000099E09F938F931F930F930E943E0EE092556360E081E00E9452180F900F900F90B9
:206420000F900F900F90EF2809F431CA80E00E9431182DCA82E0781230CA82E799E09F9334
:206440008F931F930F930E943E0E0F900F900F900F90C1100AC990E1D91207C980915563C3
:206460001F928F938DE599E09F938F931F930F930E943E0E809155636BCB1F92FF9285EC16
:2064800099E031CEDC012D923D924D925D926D927D928D929D92AD92BD92CD92DD92ED9214
:2064A000FD920D931D93CD93DD93FF91EF918DB78D938EB78D938FB78D93ED93FD9388272F
:2064C00099270994DC01CB0181309105811D2D903D904D905D906D907D908D909D90AD90EC
:2064E000BD90CD90DD90ED90FD900D911D91CD91DD91ED91FD910D900FBEEDBFFEBFED9106
:20650000FD910994FB01DC0102C005900D9241505040D8F70895CF93DF93EC018B8188603F
:206520008B83CE0106D02B81277F2B83DF91CF910895ABE0B0E0EEE9F2E36AC27C013B018F
:206540008A01FC0116821782838181FFBAC1CE0101965C01F7019381F30193FD859193FF88
:2065600081913F01882309F449C1853239F493FD859193FF81913F01853221F4B70190E0B5
:20658000B9D1E8CF912C212C312CFFE1F31538F08B3211F190F4803209F1833229F137FC52
:2065A0003CC020ED280F2A3050F536FE20C08AE0989E200D1124922E06C08D3291F080336D
:2065C00071F7689430F8F30193FD859193FF81913F018111DACF21C0689431F8689432F84A
:2065E000F2CF689433F8EFCF689434F8ECCFEAE02E9E200D1124222E689435F8E4CF8E322E
:2066000029F436FCFBC0689436F8DDCF8C3619F4689437F8D8CF8836B1F2982F9F7D9554CC
:206620009330D8F0833691F18337B1F1833509F05EC02801F2E04F0E511CF801C080D1801A
:20664000692D70E036FC02C06FEF7FEFC6013CD14C01689437F882010AC00C5F1F4FFFE340
:20666000F98388248394912C6501E89437F833FE2AC0522C8114910459F5552009F46ACF51
:20668000B70180E290E036D15A94F7CFF801808189830E5F1F4FE5CF2801F2E04F0E511C5B
:2066A000F801C080D180692D70E036FC02C06FEF7FEFC60114D14C018201D7CFB70180E26E
:2066C00090E018D12A942814190409F0B8F7D1CFF60137FC859137FE81916F01B70190E0E3
:2066E00009D151105A94F1E08F1A9108C3CF843619F0893609F073C0F80137FE67C06081E8
:206700007181828193810C5F1F4FF32DFF763F2E97FF09C090958095709561957F4F8F4F55
:206720009F4F689437F82AE030E0A50113D1C82ECA188C2C432C36FE0CC0E89440F8C9140C
:2067400040F434FE05C032FC03C0F32DFE7E4F2E892C44FE90C0FE01EC0DF11D8081803303
:2067600009F082C0242D297E422E842D8870582E43FC8FC040FE89C09C2C821418F42C0C90
:20678000922C981844FE8BC0B70180E390E0B2D042FE08C088E790E041FE02C088E590E02C
:2067A000B701A8D0C91408F486C0CA94D12C9FEFC91AD90ACA0CDB1CF60182916F01B701DC
:2067C00090E098D0AC14BD04B9F757CF60817181072E000C880B990B0E5F1F4F96CFD32C00
:2067E000E894D4F82AE030E0853731F1232D297FD22E8F36F9F040F48835A1F0F701868132
:2068000097812B96E2E11DC1803749F08837B1F7D4FE02C06894D2F820E130E00DC0689473
:20682000D4F8F6CF34FE03C0822F8660D82E20E132E002C028E030E0F801D7FE0EC06081CB
:206840007181828193810C5F1F4FA50183D0C82ECA183D2CE89437F86CCF6081718190E0F3
:2068600080E00E5F1F4FF1CF42FC02C083947DCF839483947ACF842D867809F476CFF6CF8D
:20688000B70180E290E036D083948214C8F3512C79CF522C5818821408F474CFF8CF842D00
:2068A000867809F47FCF8BE241FE80E247FC8DE2B70190E076CFB70180E390E01BD09A94BE
:2068C00071CF8FEF9FEF9DCFFC010590615070400110D8F7809590958E0F9F1F0895FC01FE
:2068E0006150704001900110D8F7809590958E0F9F1F08950F931F93CF93DF93182F092FED
:20690000EB018B8181FD09C01FEF0FEF812F902FDF91CF911F910F91089582FF14C02E81FC
