:1000000020C1000050C100004EC100004CC10000E2
:100010004AC1000048C100000C944A1444C10000C9
:1000200042C1000040C100003EC100003CC10000D0
:100030003AC1000038C1000036C100000C94E4133E
:1000400032C1000030C100002EC100000C949B138F
:100050002AC1000028C1000026C1000024C1000000
:100060000C945A1420C100001EC100001CC10000E5
:100070001AC1000018C1000016C1000014C1000020
:1000800012C1000010C1000055504449344156527D
:100090002D55534220312E33352E34392048414CD2
:1000A0002F41565244555F434E414E4F2E680043F8
:1000B00000440043002D00410043004D002F005636
:1000C0000043005000000055005000440049003437
:1000D000004100560052002D005500530042003AE6
:1000E000004100560052002D00440055003A0045E2
:1000F000004400420047002F0043004D00530049D8
:100100000053002D0044004100500000004D0075D8
:10011000006C007400690058002E006A0070002016
:10012000004F005300530057002F004F005300486A
:100130000057002000500072006F0064002E000085
:10014000000600FF0901A101150026FF00750896B1
:1001500040000901810296400009019102950409BD
:1001600001B102C009026B000301008032090400E2
:1001700000020300000009211101000122230007F1
:1001800005020340000107058103400001080B013F
:100190000202020104090401000102020100052417
:1001A00000100104240206052406010205240103AF
:1001B000020705820310000409040200020A00007D
:1001C0000007050302400000070583024000000A03
:1001D000060002EF020140000012010002EF0201DE
:1001E00040D804150B0001010203019028001838C3
:1001F00000000000012331000000000000000000AA
:10020000004B00004A630000007B000052630000C6
:10021000000000000000000000BB4000626300001E
:10022000008B00006263400000B9000052630000D0
:10023000008B0000A263400002BB0000E2630000EC
:10024000000011241FBECFEFCDBFDFE7DEBF88ED7A
:1002500090E284BF9093680090E084BF9093610027
:10026000E0E0F4E084E083878FEF848780934C04A0
:1002700080936C048093AC0410E6A0E0B0E6EEE757
:10028000F9E302C005900D92A03AB107D9F720E634
:10029000A0EAB0E601C01D92A83AB207E1F70E94B9
:1002A00069140C94BD1CACCE80E094E0209104084D
:1002B00027FF04C000900108009000080197B1F7E3
:1002C00008958FB7F894109264641092A26410920B
:1002D000A3648FBF80910B0C82FDFCCF8EEF8093C7
:1002E0004C0C0895F49B0BC08091A86481FF07C05B
:1002F0002FB7F894F2990AC082EE93E609C0809174
:100300006564803411F510926564089582E294E684
:100310008093AC649093AD648091656490E0809329
:10032000AA649093AB641092AE641092AF64109282
:1003300065648EB394E089278EBB2FBF80910B0C30
:1003400082FDFCCF8EEF80934E0C089510927E6458
:1003500010927F6480910B0C82FDFCCF8EEF809316
:10036000420C0895109272641092736480910B0C89
:1003700082FDFCCF8EEF8093400C0895CF93CFB7D2
:10038000F89481E18093E20580E880931604069A50
:1003900080E280930408209147633091486350E0E5
:1003A00040E060E27EE480E090E00E94841CDA019C
:1003B000C9010196A11DB11DB595A7959795879582
:1003C00036E0880F991FAA1FBB1F3A95D1F70097F7
:1003D00021E0A207B10520F08FEF9FEFA0E0B0E091
:1003E00080349105A105B10520F480E490E0A0E0FF
:1003F000B0E080930808909309088BE68093070883
:100400008AE08093050880E880930608CFBFCF91EB
:10041000089590E080E00895809101088CBB8CB332
:100420008823D1F3809100088DBB8CB380588CBB9E
:100430009CB381E0911180E00895EECFCF93C82F57
:100440008091040885FFFCCFC0930208E5DF882374
:1004500021F09DB381E09C1380E0CF9108950F932C
:100460001F93CF93DF93EB018C01F80181918F01F2
:10047000E5DF882311F02197C1F7DF91CF911F911C
:100480000F91089569E070E087E990E6E8DF90E079
:10049000089562E070E081E690E6E1DF8111CDCF62
:1004A00080E0089562E070E08FE590E6D8DF81118A
:1004B000C4CF80E0089560931560709316608093B8
:1004C00017609093186065E070E083E190E6C7DF05
:1004D0008111B3CF80E008959FDF882329F09DB379
:1004E00081E0903409F080E00895CF93DF93EA0132
:1004F00060932660709327608093286090932960B2
:10050000CA019695879581508093216085E68093F6
:10051000236065E070E084E290E6A1DF8823F9F0D3
:10052000DBDF8823E1F063E070E08CE590E697DFA5
:100530008823A9F065E070E08FE190E690DF8823E2
:1005400071F0BE016E7F8CED90E689DF882339F073
:1005500063E070E087E890E6DF91CF9180CF80E0A4
:10056000DF91CF910895CF93C42F60931B60709358
:100570001C6080931D6090931E6065E070E089E1CF
:1005800090E66DDF882349F0A7DF882331F08C2FB8
:1005900055DF882311F0CF919FCF80E0CF91089550
:1005A000482F60E070E180E090E0DDCFCF92DF92F5
:1005B000EF92FF920F931F93CF93DF93CBECD0E694
:1005C0008A0105531F49C017D107C1F06B017C0197
:1005D0002FEFC21AD20AE20AF20A4989C4DF219631
:1005E000811109C0DF91CF911F910F91FF90EF9082
:1005F000DF90CF900895C701B601E5CF81E0F2CF3B
:10060000CF93DF934130510529F44091DC60DF91B5
:10061000CF91A9CFEA016093266070932760809301
:10062000286090932960842F81508093216084E614
:100630008093236065E070E084E290E610DF882319
:10064000F1F04ADF8823D9F063E070E08CE590E6B2
:1006500006DF8823A1F065E070E08FE190E6FFDE21
:10066000882369F0BE018CED90E6F9DE882339F02D
:1006700063E070E087E890E6DF91CF91F0CE80E014
:10068000DF91CF9108950F931F93CF93DF93EB01E9
:100690008C01C2DE882331F09DB3F80191938F0164
:1006A0002197B9F7DF91CF911F910F910895CF93C3
:1006B000DF93EA016093266070932760809328603F
:1006C00090932960CA019695879581508093216007
:1006D00085E28093236065E070E084E290E6BFDE0F
:1006E000882389F0F9DE882371F065E070E08FE1FE
:1006F00090E6B5DE882339F0BE016E7F82ED90E68C
:10070000DF91CF91C0CF80E0DF91CF910895CF935B
:10071000DF93EA014130510559F4CDDE811104C067
:1007200080E0DF91CF9108959DB39093D260F9CF8F
:10073000609326607093276080932860909329606F
:10074000842F81508093216084E28093236065E050
:1007500070E084E290E683DE882311F3BDDE882317
:10076000F9F265E070E08FE190E679DE8823C1F26E
:10077000BE0182ED90E6DF91CF9185CFCF93DF93DD
:100780008091D2606091D3603091D460843B51F409
:100790006F7770E07F5EF9990FC090E080E0DF91A5
:1007A000CF910895732F803BB1F78091E9629091CA
:1007B000EA62680F791FEFCFC091D760D091D860FF
:1007C00090E080E0AE01A3DF882339F3CE010196EB
:1007D000E6CFCF93DF93F99905C090E080E0DF91F9
:1007E000CF9108952091D2606091D3607091D460D0
:1007F0008091D5609091D660C091D760D091D8603B
:10080000203B49F480589F4FAE0151DF882329F3E4
:10081000CE010196E4CF243B39F46F7770E07F5E20
:10082000072E000C880B990BAE0171DFEFCFD1CFF3
:10083000CF93DF93F99905C090E080E0DF91CF91ED
:1008400008952091D2606091D3607091D4608091BE
:10085000D5609091D660C091D760D091D860203B90
:1008600049F480589F4FAE0122DF882329F3CE013F
:100870000196E4CF243B41F46F7770E060587F4EDF
:10088000072E000C880B990BAE0141DFEECFD0CFC5
:10089000CFCF8091080890910908880F991F809305
:1008A00008089093090880E0C9DD209147633091E2
:1008B000486350E040E060E071E782E090E00E9431
:1008C000841CDA01C9010196A11DB11DB595A7953A
:1008D0009795879580349105A105B1057CF0009727
:1008E00021E0A207B10520F08FEF9FEFA0E0B0E07C
:1008F000809308089093090881E0089580E490E0CF
:10090000A0E0B0E0F5CF8091476389518DBB8DB3F6
:10091000883270F08DB390E0809347639093486382
:10092000B8DF63E070E087E890E699DD90E0089535
:1009300090E080E0089582CDCF93C82F83EF7EDDD5
:10094000882319F08C2FCF91F6CF80E0CF910895B6
:1009500082E774DD882331F070DD882319F08DB3D0
:100960008111F6CF81E00895CF93C82F84E666DD2C
:10097000882319F08C2FCF91DECF80E0CF9108959E
:1009800084E25CDD811159CD80E00895CF93DF933F
:10099000D82FC92F88E652DD882361F08D2F4EDDD8
:1009A000882341F089E64ADD882321F08C2FDF91EE
:1009B000CF9144CD80E0DF91CF91089530E020E0E9
:1009C0004091080442FFFCCF4091080442FDFCCF57
:1009D0002F5F3F4F8217930799F7089510922402D3
:1009E000E0E0FAE010821092030A6093260A709306
:1009F000270A769567956093280A7093290A93E0F1
:100A00009093010A9FE0908380934563089584E169
:100A1000809366008FEF8093070610920E06109267
:100A20000F0681E08093000683E08093010684E056
:100A3000809302068AEF8093040684E480930B0679
:100A40008091080680FDFCCF81E180930A068091A9
:100A5000070681FFFCCF20910E0630910F06C901D9
:100A600043E0880F991F4A95E1F7220F331F109238
:100A70000006820F931F0895CF92DF92EF92FF92AC
:100A8000AB01BC0180911663282F30E0322F222762
:100A90008091EB62820F932F911D91958195910921
:100AA000B0E0A0E084239523A623B72321E0C090E3
:100AB0001963D0901A63E0901B63F0901C63C81612
:100AC000D906EA06FB0609F420E0809319639093A7
:100AD0001A63A0931B63B0931C63822FFF90EF9067
:100AE000DF90CF90089580914563833021F061E1DC
:100AF00073E183E073CF089580914563823021F0E4
:100B000064E276E282E06ACF0895809145638130A5
:100B1000C1F01092000A21E02093030A8091B16095
:100B20008093260A8091B16090E095958795809397
:100B3000280A8FE08093000A82E0809324022093A9
:100B4000456308950F931F93CF93DF9300D000D098
:100B5000CDB7DEB72091A1603091A2604091A36033
:100B60005091A460211531054105510521F420E87B
:100B700035E240E050E060E078E689E899E00E94E4
:100B8000621CDA01C9010196A11DB11DAC01BD01B4
:100B900076956795579547954036510561057105DE
:100BA00008F054C0AC01BD014E7FAAEC8A019B0144
:100BB0000054110921093109003C1F4F210531055D
:100BC000C0F59091A760955000912A6010912B601C
:100BD00020912C6030912D6009831A832B833C83F4
:100BE000E091A660E370EC0FFD2FF11D2181809153
:100BF000A560280F3327331F80E0232B09F088E0FE
:100C0000943030F5890F9FB7F89422E12093E205E4
:100C100020E2209304084093080850930908809329
:100C2000070880E880930508A0930608F19A9FBF03
:100C30003BDB8EB38F718EBBF09B0CC02496CDBF77
:100C4000DEBFDF91CF911F910F915FCFA8ECAECFA8
:100C50008D5FD9CF2496CDBFDEBFDF91CF911F919D
:100C60000F914ACFF19B04C0F39B02C06BDFF49A53
:100C7000F3980895823249F46091F1627091F262C2
:100C80008091F3629091F4620895803B49F4609101
:100C9000ED627091EE628091EF629091F062089542
:100CA000813B51F3823B49F46091F5627091F662A9
:100CB0008091F7629091F8620895833B49F46091C6
:100CC000F9627091FA628091FB629091FC620895E2
:100CD000843B89F42091166330911763609105631A
:100CE000709106638091076390910863620F731F90
:100CF000811D911D0895803C49F46091E9627091D5
:100D0000EA628091EB629091EC620895813C09F473
:100D1000BECF843C09F4B0CF853C49F46091FD62BC
:100D20007091FE628091FF62909100630895863C0D
:100D300049F4609101637091026380910363909123
:100D40000463089560910563709106638091076361
:100D500090910863089530E020E04091080446FF38
:100D6000FCCF4091080446FDFCCF2F5F3F4F821718
:100D7000930799F781E00895FB9B08C081E090E01C
:100D8000EADF049888E880930608FB9881E00895DC
:100D9000F3DF811152CB80E00895FB9909C081E017
:100DA00090E0D9DF0C9A049A80EC80930608FB9AB5
:100DB00081E0089582E090E0CEDFEFDF811102C094
:100DC00080E0089580E8B7DD8823D1F3E1DF882350
:100DD00089F3E99BEFCF0895EF92FF920F931F9352
:100DE000CF93DF937C018B01D8DFE701899126DB6C
:100DF000882319F001501109C9F7DF91CF911F9194
:100E00000F91FF90EF900895F9990EC069E070E09E
:100E100083E590E6E1DF811103C090E080E0089572
:100E2000C9DF8823D1F3F99A81E090E00895F89919
:100E300007C064E070E08FE490E6CEDF90E00895B4
:100E400081E090E00895CF92DF92EF92FF928FECD5
:100E5000C82EDD24D394E12CFD2CC0920660D092E4
:100E60000760E0920860F092096065E070E085E05C
:100E700090E6B2DF81118CDF8DB3807C71F781E069
:100E8000FF90EF90DF90CF900895CF93C82F8AEC1A
:100E900091E0A0E0B1E08093016090930260A093A4
:100EA0000360B093046065E070E080E090E694DF5A
:100EB000882319F08C2FCF913ECD80E0CF910895FB
:100EC0004F925F926F927F928F929F92AF92BF925A
:100ED000CF92DF92EF92FF920F931F93CF93DF9306
:100EE0008090D3609090D460A090D560B090D66090
:100EF0008091D260BFDE2B013C01C090D760D090C2
:100F0000D860E090D960F090DA6083E4BEDF882397
:100F100009F464C0840C951CA61CB71CE601C13002
:100F2000D10551F58092066090920760A09208600A
:100F3000B092096065E070E085E090E64DDF8823BF
:100F400009F44CC025DF882309F448C08DB3809391
:100F5000D26082E090E0DF91CF911F910F91FF90DE
:100F6000EF90DF90CF90BF90AF909F908F907F9049
:100F70006F905F904F90089580920F6090921060F4
:100F8000A0921160B0921260C601019780930B602D
:100F900090930C6084E280930D6065E070E08EE0D9
:100FA00090E61ADF8823D1F064E070E08AE090E6F2
:100FB00013DF882399F0E0DE0BEC10E6C553DF4920
:100FC0002BDA882359F08DB3F80187830F5F1F4F09
:100FD0000C171D07A9F7C6010196BDCF90E080E070
:100FE000BACF8BEC91E0A0E0B1E0809301609093E8
:100FF0000260A0930360B093046065E070E080E05D
:1010000090E6EADE882311F081E095CC80E0089537
:10101000CF92DF92EF92FF920F931F93CF93DF93C4
:10102000C091D260C090D360D090D460E090D56081
:10103000F090D6608C2F1EDE0091D7601091D860A2
:10104000C60ED71EE81EF91EC0920F60D092106027
:10105000E0921160F0921260C801019780930B60DA
:1010600090930C6084E680930D60EDDEC03C09F443
:101070003FC0C03B09F478C0C13C09F475C0C2321E
:1010800009F476C0C13B09F473C0C43C09F470C0D4
:10109000C53C09F471C0C23B31F088E0C33B21F08C
:1010A00090E080E006C08CE4F0DE81110BC080E0AF
:1010B00090E0DF91CF911F910F91FF90EF90DF9023
:1010C000CF90089565E070E08EE090E685DE88239D
:1010D00071F364E070E08AE090E67EDE882339F305
:1010E000B8018CED90E678DE882309F3ACDEE0CF22
:1010F000D3E286E2C5E2C9DE8823C9F272DF882323
:10110000B1F2A1DE882399F28D2FBFDE882379F218
:1011100065E070E08EE090E65FDE882309F4C7CFDB
:1011200064E070E08AE090E657DE882309F4BFCFE0
:10113000B8018CED90E650DE882309F4B8CF8C2FEF
:10114000A4DE882309F4B3CF65E070E08EE090E67A
:1011500043DE882309F4ABCF84E670D9882309F4F1
:10116000A6CF8FEF6BD9C0CFD3E286E2CDE2C3CF5B
:10117000D3E386E3C5E3BFCFD3E286E2CAE1BBCFC8
:10118000CF93C091D2608091D3609091D460A091B0
:10119000D560B091D66080930F6090931060A0935B
:1011A0001160B09312604FDEC11111C080E46DDE9A
:1011B000811104C090E080E0CF91089512DF882370
:1011C000C9F3F8DD8823B1F33EDE90E0F5CF81E08E
:1011D00090E0C73089F788E158DE882359F365E04D
:1011E00070E08EE090E6F8DD882321F384E626D9CE
:1011F000882301F38FEF22D9E5CFBEDD0C98049A46
:1012000080E190E0A8DD0C9A82E090E0A4DD0C98EB
:1012100080E190E0A0DDC1CD80914763909148636B
:101220008233910579F0C2978233910540F0809323
:10123000476390934863A2D8E0DF90E0089582E38B
:1012400090E0F5CF90E080E0089567E070E180E005
:1012500090E031D98DB38370C1F78DB30895CF93EA
:10126000C82FF3DF60E070E180E090E024D98823AC
:1012700031F08DB38C1303C081E0CF91089580E0ED
:101280008FD98823D1F3CC23B9F38C2FCF9188C980
:1012900080E0E5DF90E0089580E0E1CFCF92DF923B
:1012A000EF92FF926B017C0188E0D9DF882371F017
:1012B0004FEFC701B60157D9882341F0C6DF8377C6
:1012C00029F4FF90EF90DF90CF90E6CF80E0FF9081
:1012D000EF90DF90CF90089566E070E180E090E0BD
:1012E000EAD88DB38370C1F78DB30895F5DF982FD9
:1012F000937781E009F080E00895CF93C82FECDF69
:1013000060E070E180E090E0D6D8882331F08DB3C2
:101310008C1303C081E0CF91089580E041D98823E8
:10132000D1F3CC23B9F38C2FCF913AC980E0E5DF1C
:1013300090E0089580E0E1CF8FE0DFDF8FE1DDDF37
:1013400080E0DBDF90E00895F7CFCF92DF92EF925D
:10135000FF92CF93DF936B017C01EA0180E0CDDF48
:10136000882389F0AE01C701B6014AD9882359F014
:1013700085E0C3DF882339F0DF91CF91FF90EF90B4
:10138000DF90CF90B3CF80E0DF91CF91FF90EF90CF
:10139000DF90CF900895CF92DF92EF92FF92CF939C
:1013A000DF936B017C01EA0180E0A7DF882389F0ED
:1013B000AE01C701B60199D8882359F085E09DDFB9
:1013C000882339F0DF91CF91FF90EF90DF90CF909D
:1013D0008DCF80E0DF91CF91FF90EF90DF90CF90A5
:1013E0000895CF92DF92EF92FF926B017C0188E02B
:1013F00084DF882371F04FEFC701B601B4D888238A
:1014000041F06ADF837729F4FF90EF90DF90CF906F
:1014100091CF80E0FF90EF90DF90CF90089562E051
:1014200070E180E090E047D88DB38370C1F78DB351
:101430000895F5DF84E0B4D8F2DF80E0B1D890E021
:101440000895CF93C82FEBDF60E070E180E090E07B
:1014500032D8882331F08DB38C1303C081E0CF9153
:10146000089580E09DD88823D1F3CC23B9F38C2F45
:10147000CF9196C880E0E5DF90E0089580E0E1CF6D
:10148000CF92DF92EF92FF926B017C0188E0D9DF6F
:10149000882371F04FEFC701B60165D8882341F06A
:1014A000BEDF837729F4FF90EF90DF90CF90E6CFF7
:1014B00080E0FF90EF90DF90CF90089590E080E083
:1014C000089590E080E0089590E080E00895BC01E8
:1014D0008FB7F89410920A0B10920B0B1092040B1A
:1014E0001092050B9FEF9093060B20EA30E02093BB
:1014F0000C0B30930D0B1092010B91E09093000BAD
:101500008FBF30E020E0F90183E0F595E7958A95FB
:10151000E1F7E60FF71F408150E0822F877002C08D
:10152000559547958A95E2F78091060B80FFFCCF91
:1015300040FF0FC000989091060B91609093060BAE
:10154000A8952F5F3F4F20373105E9F61092000B29
:101550000895009AF0CFCF93DF93C0E0DCE01882CB
:101560001092040C80E794E68093060C9093070C8D
:1015700081E08093010C1EBA1FBA1CBA10926664F7
:1015800010926764109265641092646410926364B0
:10159000109262644AE450E068EF71E088E694E6F5
:1015A0000E94451CEAE4F3E681EA808780E28187B5
:1015B0001286138681E090E08487958782E090E030
:1015C00086879787108A118A83E88883DF91CF9175
:1015D00008958AE18A95F1F700C08FB7F8941092C8
:1015E0000608109205081CBA1DBA95E19093E20511
:1015F000F1988FBF88E080931204029803980895B1
:1016000080914563843021F068E879E084E0E6D990
:10161000809106088111DDDF009801980298809181
:101620004663833019F4049A069808950498FCCF11
:10163000CF93DF93E2E1F1E03197F1F700C00000D2
:10164000C1E0D0E002C0CC0FDD1F8A95E2F70E9416
:1016500049028DB390E08C239D23892BC1F781E053
:10166000DF91CF910895CF93DF93E2E1F1E03197DD
:10167000F1F700C00000C1E0D0E002C0CC0FDD1FD8
:101680008A95E2F70E9449028DB390E08C239D2356
:10169000892BC1F381E0DF91CF910895CF93DF9340
:1016A000E2E1F1E03197F1F700C00000C1E0D0E0E5
:1016B00002C0CC0FDD1F8A95E2F70E9452028DB363
:1016C00090E08C239D23892BC1F381E0DF91CF91A2
:1016D0000895CF93C82F6AE070E083E690E60E94F9
:1016E0002F02811103C080E0CF91089584E0D6DFFE
:1016F0008823C9F3CC23C1F366E070E087E990E664
:10170000CF910C942F02F99B03C081E090E00895E3
:1017100081E0DFDF8823B9F082E191E00197F1F702
:1017200000C000000E945202EC99FCCF0E944902C6
:10173000882359F3E899E9CFF99AE0913D63F09154
:101740003E630995E2CF90E080E00895CF92DF926A
:10175000EF92FF92CF93DF93F89909C0C0E08C2FEE
:10176000DF91CF91FF90EF90DF90CF90089580911F
:10177000D260853C99F7C0910163D091026380915A
:10178000D7609091D860C817D90741F7C090D3604F
:10179000D090D460E090D560F090D66080910B63DB
:1017A00090910C638C159D05C9F60E9454016AE066
:1017B00070E087E790E60E942F02882379F285E0A7
:1017C0006DDF882359F266E070E087E990E60E94B9
:1017D0002F02882319F282E046DFAE01C701B6016D
:1017E0000E94750283EF91E00197F1F700C00000BD
:1017F00063E070E084E890E60E942F0282E018DF48
:1018000063E070E081E890E60E942F02F9990CC035
:1018100066E070E087E990E6DF91CF91FF90EF906E
:10182000DF90CF900C942F0281E053DFC82F8823E4
:1018300079F383E018DF93CF4F925F926F927F929C
:10184000AF92BF92CF92DF92EF92FF920F931F93CE
:10185000CF93DF9300D000D0CDB7DEB7F99914C095
:1018600075DF90E02496CDBFDEBFDF91CF911F9151
:101870000F91FF90EF90DF90CF90BF90AF907F904F
:101880006F905F904F9008958091D260C090D36028
:10189000D090D460E090D560F090D6609601009131
:1018A000D7601091D8609EE4980F923008F046C03F
:1018B0008BECE82E80E6F82EC9018B5C90466C011B
:1018C000C7018B5C904680179107B0F5F7018189BD
:1018D00090E089839A83C6018E0D9F1D8B839C8324
:1018E0009EDDCE0101965C0166E070E180E090E053
:1018F000F50141915F012B013C01FFEF4F1A5F0A97
:101900006F0A7F0A0E94B302811102C080E0A9CF52
:10191000C301B2016A3020E172078105910541F7E8
:1019200087E00E94D002882389F379DD9FEFE91ACE
:10193000F90A877029F2EACF81E093CF823221F051
:101940009CE3980F923060F46ADDC701B6018827E6
:101950009927A8010E94000381111CC090E023C0B8
:10196000803B11F0803C09F56091E9627091EA6278
:10197000C60ED71EF12CE12CC701B6017DD88823F5
:1019800021F04DDD84E00E94D00249DDA801C701AD
:10199000B601E0CF83E00E94D0028823F9F23FDD58
:1019A000877091E0D9F6892F5CCFC701B6018827EF
:1019B0009927A8010E94000354CFCF92DF92EF92A3
:1019C000FF92CF93DF93F99909C0C0DE90E0DF91D9
:1019D000CF91FF90EF90DF90CF9008958091D260EB
:1019E000C090D360D090D460E090D560F090D66085
:1019F000C091D760D091D860823231F09EE4980FC8
:101A0000923010F0843C91F483E11BDD811102C01F
:101A100080E0DCCFAE01C701B6010E94D602882368
:101A2000B9F3FDDC8377A1F729DDD0CF803C11F03D
:101A3000853CC1F4C701B6011FD8882319F0C7013E
:101A4000B6011EDD82E0FDDC882311F3AE01C70183
:101A5000B6010E94D6028823D9F2E1DC8377C1F671
:101A60000DDDB4CF803B01F580E8E80EF11CFA995A
:101A700008C0C701B60100D8882319F0C701B60114
:101A8000FFDC82E0DEDC882309F4C2CFAE01C701AF
:101A9000B6010E947502882309F4BACFC0DC8377AF
:101AA00009F0B6CFEBDC92CFAE01C701B6010E94C0
:101AB00000038CCFCF92DF92EF92FF92CF93DF9310
:101AC000F99909C043DE90E0DF91CF91FF90EF904C
:101AD000DF90CF9008958091D260C090D360D09075
:101AE000D460E090D560F090D660C091D760D0917E
:101AF000D860823231F09EE4980F923010F0843C2E
:101B000099F480E1FADB811102C080E0DCCFAE0104
:101B1000C701B6010E9400038823B9F385E1EDDB1C
:101B2000882399F3E3DBCFCF803C11F0853C29F487
:101B3000AE01C701B60109DCC6CF803B39F4C7014D
:101B4000B60180589F4FAE0126DCBDCFAE01C70164
:101B5000B6010E940003B7CFCF92DF92EF92FF92BF
:101B6000CF93DF93F99909C0F1DD90E0DF91CF9138
:101B7000FF90EF90DF90CF9008958091D260C09059
:101B8000D360D090D460E090D560F090D660C091E2
:101B9000D760D091D860823231F09EE4980F9230B5
:101BA00010F0843C91F483E1A8DB811102C080E055
:101BB000DCCFAE01C701B6010E94D6028823B9F37B
:101BC0008BDB8377A1F7B6DBD0CF803C11F0853C6F
:101BD000C9F4C701B6010E943C05882319F0C7016A
:101BE000B601FFDB82E089DB882309F3AE01C70180
:101BF000B6010E94D6028823D1F26EDB8377B9F654
:101C000099DBB3CF803B09F580E8E80EF11CFA9927
:101C100009C0C701B6010E943C05882319F0C7011D
:101C2000B601DFDB82E069DB882309F4C0CFAE01B7
:101C3000C701B6010E947502882309F4B8CF4CDBB6
:101C4000837709F0B4CF76DB90CFAE01C701B60140
:101C50000E9400038ACFCF92DF92EF92FF92CF9340
:101C6000DF93F99909C072DD90E0DF91CF91FF9089
:101C7000EF90DF90CF9008958091D260C090D360B4
:101C8000D090D460E090D560F090D660C091D760DD
:101C9000D091D860823231F09EE4980F923010F0EB
:101CA000843C99F480E029DB811102C080E0DCCF24
:101CB000AE01C701B6010E9400038823B9F385E194
:101CC0001CDB882399F312DBCFCF803C11F0853CDD
:101CD00029F4AE01C701B60138DBC6CF803B39F429
:101CE000C701B60180589F4FAE0155DBBDCFAE0195
:101CF000C701B6010E940003B7CFCF92DF92EF92E7
:101D0000FF92CF93DF93F99909C020DD90E0DF9136
:101D1000CF91FF90EF90DF90CF9008958091D260A7
:101D2000C090D360D090D460E090D560F090D66041
:101D3000C091D760D091D860823231F09EE4980F84
:101D4000923010F0843C91F483E189DA811102C071
:101D500080E0DCCFAE01C701B6010E94D602882325
:101D6000B9F373DA8377A1F797DAD0CF803C11F01B
:101D7000853CC9F4C701B6010E943C05882319F0CF
:101D8000C701B6018BDA82E06ADA882309F3AE0173
:101D9000C701B6010E94D6028823D1F256DA8377B2
:101DA000B9F67ADAB3CF803B09F580E8E80EF11C8A
:101DB000FA9909C0C701B6010E943C05882319F0B1
:101DC000C701B6016BDA82E04ADA882309F4C0CF92
:101DD000AE01C701B6010E947502882309F4B8CF8D
:101DE00034DA837709F0B4CF57DA90CFAE01C70168
:101DF000B6010E9400038ACF0E945401F99902C0E3
:101E000080E067DC6AE070E08DE690E60E942F02D9
:101E1000811102C020E045C083E040DC8823D1F37B
:101E200066E070E087E990E60E942F02882391F334
:101E30002FE181EA97E0215080409040E1F700C017
:101E400000002FE181EA97E0215080409040E1F7C7
:101E500000C000000E94540185E0EADB80E0E8DB7E
:101E600082E191E00197F1F700C000000E94520268
:101E7000EB99FCCF0E944902882341F0EB9906C000
:101E800081E027DC882331F283E0EDDBFA9AF99ACE
:101E9000E0913D63F0913E63099521E0892B09F4BF
:101EA000B9CF822F08958091D260811103C0A4DF41
:101EB00090E0089581E090E00895F5CFF4CF80910F
:101EC000D260811103C098DF90E00895873051F40B
:101ED0006091D3607091D4608091D5609091D6600C
:101EE000CFDAF2CF81E090E008958091D260811145
:101EF00003C082DF90E00895873051F46091D36091
:101F00007091D4608091D5609091D6606ADAF2CFFA
:101F100081E090E008958091D260811103C06CDF70
:101F200090E00895873051F46091D3607091D4604F
:101F30008091D5609091D660B1D9F2CF81E090E0E8
:101F40000895882349F02FE181EA97E021508040ED
:101F50009040E1F700C000006B9880911204886007
:101F600080931204809113048860809313048091FD
:101F7000100488608093100480911104886080931D
:101F8000110408958823A9F06B9A90911104977F0A
:101F90009093110490911004977F90931004909166
:101FA0001204977F9093120490911304977F90935B
:101FB00013046111C6CF089523DB0C98049A069A86
:101FC00061E081E0DFDF0C9A82E191E00197F1F7B7
:101FD00000C000000E94BE0180E190E00E94AB06BC
:101FE00065E070E08AE490E60E94EC06811103C08F
:101FF00004D903D9F5CF0E94C8068823C9F38DB34D
:102000008530B1F7F89A81E090E00895E0E0FAE0D9
:10201000108281E08093030A90E69093010A92E097
:1020200090932B0A90932D0A93E09093270A109295
:10203000210A808383EF91E00197F1F700C000004F
:1020400008950F931F93CF93DF9300D0CDB7DEB7E2
:102050001FBAD6DA019A61E081E094DF83ED90E364
:102060000197F1F700C000008091E7629091E8626B
:10207000079720F08091D160811102C0F59B04C0C8
:102080000198C4DF699AFE9A9FE1E1EAF7E0915076
:10209000E040F040E1F700C000008FB7F89490E115
:1020A0009093E20590E890931204029A90E2909344
:1020B000040820E03AE020930808309309089BE6E2
:1020C000909307089AE09093050898EC909306087F
:1020D0008FBF84E190E00E94DE0482EC0E941E0229
:1020E000811109C090E080E00F900F90DF91CF91B7
:1020F0001F910F91089585E00E949B04882391F31E
:102100008FE80E941E028823D9F30E941D028823B3
:10211000B9F38DB38038A1F7F89A03E510E6F8011A
:1021200081918F010E941E028823E1F2F0E60C35B6
:102130001F07A9F718E084E190E00E94DE0480E820
:102140000E941E02811103C01150A9F7E6CF0E9420
:102150001D028823C9F38DB38230B1F719821A8228
:1021600081EC9FE30E94C6048823A9F00E94C0046A
:10217000882389F08DB38A830E94C004882311F0DC
:102180008DB3898389819A818E3022E9920729F063
:102190008F30914949F082E001C088E08093C960A6
:1021A000F99A81E090E0A0CF84E0F8CFCF9310922D
:1021B0001D638FEF9FEFDC018093196390931A6387
:1021C000A0931B63B0931C6389E092E080933D630E
:1021D00090933E6381E69AE080933F6390934063DF
:1021E00084E69AE080934163909342638EE59AE09F
:1021F000809343639093446303DA08980998019AA3
:1022000061E081E0BFDE83ED90E30197F1F700C06C
:10221000000001988091E7629091E862079740F092
:102220008091D260882321F08091CA60811102C020
:10223000F59B14C0C0911863C13081F0E7DEC11175
:102240006BC0689A8FE99FE00197F1F700C000002A
:102250001092010A1092000A68986A98009A83ED19
:1022600090E30197F1F700C000000098109BFECFAB
:10227000CFB7F89480E18093E20580E28093040870
:10228000209147633091486350E040E060E071E79F
:1022900082E090E00E94841CDA01C9010196A11D30
:1022A000B11DB595A7959795879580349105A105A2
:1022B000B105BCF1009721E0A207B10520F08FEF36
:1022C0009FEFA0E0B0E080930808909309088BE2AC
:1022D000809307088AE08093050888EC80930608BD
:1022E000CFBF6BE070E08CE890E60E942F0288235D
:1022F000E9F00E940C028823C9F08DB38531B1F456
:1023000062E070E08AE890E60E942F02811111C01D
:1023100090E080E0CF910895C23009F093CF6A9A9F
:1023200091CF80E490E0A0E0B0E0CDCF0E944904DE
:10233000D8CF60E270E08DE193E60E9443038823EA
:1023400039F380912763863359F588E499E08093C7
:102350003D6390933E6388E494E080933F63909361
:1023600040638BE89FE080934163909342638DE7E5
:102370009EE0809343639093446380911D63EDE1FD
:10238000F3E6803211F4E1E2F3E684E0A2EDB0E698
:1023900001900D928A95E1F7F89A85E090E0BACF26
:1023A0008533A9F484EA99E080933D6390933E637A
:1023B00087E494E080933F63909340638EE59FE0D1
:1023C00080934163909342638BE29EE0D2CF84334B
:1023D000A9F486E999E080933D6390933E6388E198
:1023E00094E080933F639093406385E79FE0809300
:1023F0004163909342638CEA9DE0BBCF8333A9F4A1
:102400008CE999E080933D6390933E6387E194E08B
:1024100080933F63909340638DE59FE08093416399
:10242000909342638AE59DE0A4CF8233A9F48AE3C6
:102430009AE080933D6390933E6389EE93E08093AE
:102440003F63909340638FE59FE080934163909357
:1024500042638DED9CE08DCF803309F059CF89E147
:102460009AE080933D6390933E638EEB93E080937C
:102470003F639093406383E59FE080934163909333
:1024800042638CE19CE075CF4F925F926F927F9296
:102490008F929F92AF92BF92CF92DF92EF92FF9274
:1024A0000F931F93CF93DF932091D160C090D5609D
:1024B000D090D660DC24CD24DC24E090D760F0906E
:1024C000D860FE24EF24FE244090C960642C712C57
:1024D000C3010197C9EDD0E63FEFAC014C215D216E
:1024E000452B79F43FEF4C018E209F2081149104FD
:1024F00081F0F601EE0DFF1D3083FFEFEF1AFF0AAA
:10250000F2CF41E0C41AD108EFEFEE1AFE0A3A9377
:10251000E4CF213021F5B12CA12C86010A0D1B1D21
:10252000AE14BF0408F09DC00E94A804882381F067
:10253000C8010E94C604882359F08DE10E949C04C2
:10254000882331F088810E94B404811137C021961C
:10255000F3E0F41508F447C00E94A8041DC00E94CF
:10256000A8048823C9F0C60181600E94C60488239C
:1025700099F084E10E949C04882371F08FEF0E94FF
:10258000B404882349F00E94A804882329F080E03D
:102590000E949C048111BFCFC401DF91CF911F9194
:1025A0000F91FF90EF90DF90CF90BF90AF909F90F2
:1025B0008F907F906F905F904F9008958E010E5F87
:1025C0001F4F89810E94B404582E43E0E80144154E
:1025D00058F00E94A8045520F9F28823E9F2A60CCD
:1025E000B71CE8019ACF512C80E190E00E94DE04F4
:1025F00088810E94B4048E01811121C00F5F1F4F9A
:10260000582288E04812E5CF80E190E00E94DE0485
:10261000F80180810E94B404E801811116C021965E
:10262000582280E190E00E94DE0488810E94B40478
:102630008E01811110C00F5F1F4F5822CACF0E5F4D
:102640001F4F89810E94B404DBCF2296F80181815B
:102650000E94B404E5CF0E5F1F4F89810E94B4042D
:10266000ECCF80E00E949C04882E912C95CF0F9394
:102670001F93CF93DF938091D4609091D560C091E8
:10268000D660D091D760DC27CD27DC279827892713
:1026900098270E94C6040BEC10E6C8018B5C90469C
:1026A0008C179D0760F40E94C0040F5F1F4F8823A2
:1026B00021F08DB3F8018683F0CFD0E0C0E0CE01E9
:1026C000DF91CF911F910F910895CF93DF93C09128
:1026D000D460D091D560DC27CD27DC278091D160F4
:1026E0008130E9F40E94A804811105C090E080E0E7
:1026F000DF91CF910895CE0181600E94C6048823A6
:10270000A9F380E10E949C04882381F38FEF0E944B
:10271000B404882359F30E94A80490E0E9CF0E94F2
:10272000A804882319F3CE0181600E94C60488237F
:10273000E9F284E1E7CF1F920F920FB60F921124B6
:102740002F933F934F935F936F937F938F939F93B9
:10275000AF93BF93CF93EF93FF93C0910108209164
:1027600000088C2F8674A9F4F29928C082EE93E6B3
:10277000E091656431E03E0F30936564E80FF92F16
:10278000F11D2083809165648034D8F48EE18093BC
:1027900062648CB3C82BCCBBFF91EF91CF91BF91FA
:1027A000AF919F918F917F916F915F914F913F91E9
:1027B0002F910F900FBE0F901F90189582E294E614
:1027C000D7CF0E947201E5CF11241092000BE6E0F2
:1027D000FBE080818160808362E070E082EB90E6C4
:1027E0000E94251C8FB7F8941092000B1092050BD5
:1027F0009FEF9093060B8FBF1895CF93DF93CDB7C4
:10280000DEB72897CDBFDEBF8D839E836B837C832D
:102810004F83588719821A8289819A81892B29F5D9
:1028200082EB90E6F2D7892B41F59FB7F89410928E
:102830000A0B10920B0B2F81388520930C0B3093D1
:102840000D0B81E08093050BE6E0FBE08081816069
:1028500080831092010B8FE08093000B9FBFED816E
:10286000FE81099589839A83BDDF89819A812896A3
:10287000CDBFDEBFDF91CF910895B4DF2B813C81C6
:102880002115310591F3A895F9010995892B09F0D6
:10289000C3CFEBCF1F920F920FB60F9211248F93DD
:1028A0008FEF8093C701F79A8F910F900FBE0F9013
:1028B0001F9018951F920F920FB60F9211248F93AD
:1028C0008FEF87BBF69A8F910F900FBE0F901F90DE
:1028D0001895CF93DF93CDB7DEB72597CDBFDEBF79
:1028E0008091680082648093456398ED94BF8093E3
:1028F000680057E35CB9639A98E090931204909350
:102900001304909310044CE04093110410921404AB
:1029100064E0609316042AE02093B60484E8809370
:10292000B2048093740486E08093B80430E330935B
:10293000180403E00093E7059093100299E0909348
:10294000110291E19093120292E19093130231E40B
:10295000309314029AE49093150260932B028093B3
:10296000200295E090932202909326020093320277
:1029700011E01093310262E06093CB010093C90132
:102980007BE27093C8016093C5010093CF0150931F
:10299000CD011093CC014093D70143EA4093D50178
:1029A0003093D4018093D3012093D20129E3209363
:1029B000D1011093D0011093C00121E632E02093A1
:1029C0001C0B30931D0B1093140B8093110B9093E1
:1029D000100B84E780935601109350010E94070565
:1029E0008093AC609093AD60109330021093040B11
:1029F0000093010B1093000B8091060B80FFFCCF1E
:102A000080910C0B90910D0B8091060B80FFFCCFF9
:102A100080910C0B90910D0B1092000B1092010BFA
:102A20001092040B1FEF1093060B0196880F892F4D
:102A3000881F990B91958093B160109230020E948B
:102A400073050E94000B88ED98E084BF909300010D
:102A500017BB1093C70178942FE141EA87E021501A
:102A600040408040E1F700C000009FE1E1EAF7E06C
:102A70009150E040F040E1F700C0000080914563D4
:102A8000833011F00E947C051092030C8091000CA1
:102A90000E94AB0ADD24D394B0E88B2EB5E29B2EC6
:102AA000A12CB12CEE24E394F12C0AE0402E512C01
:102AB0003E0125E0620E711CDD2019F0A895DD2491
:102AC000D39410910A0C10930A0C17FF14C0809134
:102AD0006264882381F08091626481508093626493
:102AE000811109C08091A86481FF05C0809165644F
:102AF00081110E947201812F8076D9F0F09B18C05D
:102B00008091010C8E7F8093010CF098A8954FE185
:102B100081EA97E0415080409040E1F700C000001A
:102B20001092000C88ED91E084BF90930001FFCFDC
:102B3000106114FF0DC080914563833011F00E9435
:102B40007C051092030C8091000C81110E94AB0A4D
:102B50008091706484FFA4C010914A6317FF0E94A3
:102B6000B201107609F07FC180914B6381110FC0D3
:102B7000109252631092536382E090E080937A64E3
:102B800090937B640E94A6010E94B20184C08130B0
:102B9000C9F480914C63811110C0E0914E63E295BD
:102BA00080910B0C82FDFCCFF0E0F595E795F59553
:102BB000E795E05CF34F8BE0808310927A6410928B
:102BC0007B64E0CF8430C9F3853061F410914C63AD
:102BD0001F770E94A6018091786481FFFCCF10933B
:102BE000030CEBCF863009F020C1C09050633090C9
:102BF000516380914C6390914D63913001F542E1B6
:102C000050E069ED71E082E593E63FD680910014D3
:102C100090910114A0910214B09103148F3FEFEF33
:102C20009E07AE07BE0741F080935A6390935B63A3
:102C3000A0935C63B0935D6302E110E01DC092302D
:102C400009F4DBC0963009F4E1C0913209F4E3C025
:102C5000923209F4E5C08115F3E09F0761F584E045
:102C60008093526393E09093536399E090935463FD
:102C70008093556304E010E08C2D932D08171907FD
:102C800008F4C80198018C0100937A6410937B6466
:102C9000232B09F077CF80910B0C846080930B0C71
:102CA000F09968C1B69908CF84E0809300028EB392
:102CB0008F718EBB01CF823023E0920741F160F427
:102CC00004E310E06DE071E08130934079F010E0B2
:102CD00000E070E060E00AC083309807E9F008E1A6
:102CE00010E06FEA70E08430934089F700935263FC
:102CF00083E080935363A8014250510984E593E631
:102D00000115110509F080C030E020E0BDCF06E4D8
:102D100010E067EC70E0EACF409104145091051484
:102D2000609106147091071449835A836B837C83E6
:102D30004F3F8FEF58076807780759F5E0E8F0E153
:102D40008F010F5F1F4F2081422728E0DB01CA015E
:102D5000B695A7959795879541705527662777274C
:102D600070956095509541955F4F6F4F7F4F4072C2
:102D70005378687B7D7E482759276A277B27215017
:102D800029F7F801003A1041D9F649835A836B8339
:102D90007C8386E18093526383E0809353638DE468
:102DA000809354631092556388E580935663109224
:102DB0005763E8E5F3E6DE0111968D91282F30E0A8
:102DC00044E0359527954A95E1F790E3920F9A33C1
:102DD00010F097E3920F908311828F7090E3980F19
:102DE0009A3310F097E3980F9283138234966A1601
:102DF0007B0619F706E110E03FCF0BE610E064E632
:102E000071E0A80182E593E640D536CF0AE010E0F4
:102E10006FEC71E0F6CF09E010E066E771E0F1CF0A
:102E200003E210E061E471E0ECCF883049F4809176
:102E3000636480935263E0927A64F0927B64A2CEE2
:102E4000893041F480914C6380936364F09A0E94CE
:102E50008505B3CE8A3019F410925263ECCF8B30D3
:102E600009F019CFAACE103209F015CF80914B632B
:102E70008A3009F4A2CE803239F58091706481FFE6
:102E8000FCCF47E050E062E573E681EA90E658D572
:102E9000892B91F08091A06481FD0E9461010E94C4
:102EA000000B87E0E2E5F3E6A1EAB0E601900D92BF
:102EB0008A95E1F70E94A205F49A10926564109237
:102EC00064641092626479CE813239F587E0E1EA78
:102ED000F0E6A2E5B3E601900D928A95E1F78091C4
:102EE000526390915363A0915463B0915563892BC1
:102EF0008A2B8B2B59F48092526390925363A09249
:102F00005463B092556388E080935863E7E0F0E043
:102F1000E0937A64F0937B6435CE823269F48091D9
:102F20004C639091A06090FD04C080FF02C0F79AAE
:102F3000F69A8093A06041CE833209F0ACCE8091A6
:102F40004C6390914D638093666490936764892B82
:102F500071F0F19B0AC0F39908C0F4981092626472
:102F60008091060881110E94E90AF39A26CE0E94F8
:102F7000320623CEF8990DC0F79B55C0F59908C0CD
:102F80000E947305019A8EE290E60E94670AF59A04
:102F9000F798F19B87C0F39914C08091040885FFCE
:102FA00010C08091A06481FF0CC0F19B0AC02091E9
:102FB000A2643091A36480916464821354C00E941F
:102FC0006101F39B26C080916664909167649C01C7
:102FD0002F5F3F4F22303105E0F08530910508F436
:102FE00066C02091986421FF14C0049780936664A2
:102FF0009093676440929A6450929B6410929E648E
:1030000010929F6480910B0C82FDFCCF8EEF809319
:103010004A0C8091906481FD51C0F99B4DCDF69989
:10302000D12CF69849CDF69BB4CFF59B12C08CE31A
:1030300090E60E94670A0198FFE121EA47E0F1501B
:1030400020404040E1F700C00000F09B06C00E9415
:1030500085058EB38F718EBB9CCF88ED91E084BFC8
:1030600090930001FFCF4091A2645091A364282F58
:1030700030E010E04217530739F08F5F80936464AB
:103080002E553C49F90110818091A2649091A3646E
:10309000209164642817190611F40E9461011093AD
:1030A00002088FCF8091A06481FF8BCF88CF1092D0
:1030B0006664109267640E943206ABCF909162639F
:1030C000809163632091886421FFFCCF903809F0E0
:1030D00079C0F82FFF70FD8390E024E095958795E7
:1030E0002A95E1F7282EC090656301972CE3289F6D
:1030F0008001299F100D1124FA3020F01092636393
:1031000000E026C021E0221202C01092A860809147
:10311000A86033243394380E3092A860D12CA601D5
:1031200066E673E6C80185539F4917D481E0809312
:1031300063634D814211E4CF0C0D1D1D0093E762C6
:103140001093E8628D818311D9CF1092AF6001E0B6
:1031500080E490E080938A6490938B6410928E64F4
:1031600010928F6480910B0C82FDFCCF8EEF8093C8
:10317000460C109292641092936480910B0C82FD25
:10318000FCCF8EEF8093480C002309F497CC9091EC
:10319000CF60913009F0A7C02091D0603091D2600B
:1031A0006091D3600091D460223009F087C010E0B4
:1031B000311167C070E06D507E4FA80182ED90E63E
:1031C00064D36EC09138A9F5109264639091AF609A
:1031D000911105C0109263631092656391CF809145
:1031E000B0602CE3829FF0011124E453FF49A6E66E
:1031F000B3E601900D922A95E1F78F5F8093B0605E
:10320000E0E18E9F90011124292B2093636320918C
:10321000E7623091E862981751F08CE38093656320
:103220002C5331092093E7623093E86269CF822FF3
:10323000F5CF91111AC08F3F21F095E0980F923091
:1032400038F482E08093636380E480936463C4CF46
:10325000813F09F055CF82E08093636380E88093DB
:10326000646381E0809365634BCF923009F448CF6B
:10327000913019F4811142CF43CF933009F03ECF02
:103280003FCF313069F4862F8F7D99F40E94070576
:103290008093AC609093AD608093D2609093D36044
:1032A00084E891E08093D0609093D160C80101964A
:1032B000B3C0677070E065517E4F7FCF203171F4ED
:1032C0001FBA1092CA60109246639093AE6080E875
:1032D00090E08093D0609093D16002C02131B9F327
:1032E00090E080E099C0923109F0E5C19091D06002
:1032F0005091D2606091D3604091D460913009F0D8
:103300004FC0E42FF0E0E553FF4912862091D560CD
:103310003091D660511117C06111D9CF2093466307
:10332000233009F4049A81EE90E02530310511F044
:1033300084EC99E080934763909348638093AA60FC
:103340009093AB60C4CF5130B1F4611103C02093AE
:10335000A960BDCF613309F0BACF2436310510F42E
:1033600024E630E02093AA603093AB60209347635B
:1033700030934863ACCF523051F46111A8CF4F73F2
:1033800050E065ED70E689EE92E6E7D2A0CF5330CB
:1033900009F09DCF663009F09ACF2093CA6097CF8D
:1033A000923019F551110DC080914663662379F072
:1033B00084E891E08093D0609093D160842F90E076
:1033C00076CF5130A9F7611105C08091A960809333
:1033D000D260EECF613361F780914763909148638B
:1033E0008093D2609093D360E3CF80914663833023
:1033F00009F091C0903141F540E253E06CE079E092
:103400008CED9FE0FAD9009709F478C024E830E009
:103410002093D0603093D1609C012A5F3F4F20936E
:10342000E7623093E8621092B0608F5B9F4F6CE36D
:1034300070E034D26093AF608EE08093CC6025530F
:103440003F49F90110823ACB913161F540E253E0F6
:1034500070E060E087E197E0D0D98C0183EF91E0E4
:103460000197F1F700C000000E94000B0498109231
:1034700016040E98069AF99B0AC061E081E00E944A
:10348000C20FE3EDF0E33197F1F700C000000698BA
:103490001FBA0E94A205C8019927009779F120E878
:1034A00030E0B6CF953169F440E253E06CE079E06A
:1034B00084E097E0A2D9892B09F08AC00FB301708C
:1034C00087C0963109F4EEC0F99BEFC0903241F409
:1034D00040E253E06CE079E080EC98E08ED9DDCFFB
:1034E000913279F440E253E06CE079E080E697E0D5
:1034F00084D924E831E0009709F08ACF20EA30E04F
:1035000087CF933209F0D1C040E253E06CE079E01C
:1035100088E098E0E3CF853009F0CAC0903199F592
:10352000F59904C08091CA60882369F08091AA60EF
:103530009091AB608E37910530F08DE790E08093ED
:10354000AA609093AB608091AA609091AB608093E9
:1035500047639093486380914763909148638436B2
:10356000910508F4A2C040EA50E070E060E086ED0A
:1035700090E143D9009709F049CF8091476390913A
:1035800048634997E4CF913141F5F89B24C040E26C
:1035900053E070E060E082E492E02FD9082F0E94AF
:1035A000490483EF91E00197F1F700C000000E9409
:1035B000000B019A61E081E00E94C20FE3EDF0E3AD
:1035C0003197F1F700C0000001981FBA0E94A205D0
:1035D000802F90E062CF01E0E2CF953139F44AEFDD
:1035E00050E063E874E083E89BE064CF963109F42F
:1035F00059C0903249F440E253E063E874E08091AE
:103600004163909142636ACFF89B4FC0913209F0B9
:103610003EC00091D7601091D860533D99F48091DD
:10362000D3608F7190E0A801415051094F71552727
:103630004F5F5F4F6DE173E68E529F498ED1C80197
:10364000019657CFF99B09C040E951E063E874E067
:1036500080913F63909140634BCF543B89F48091BC
:103660001D63882369F09EE19093D260803209F453
:1036700081E48093D360809127638093D460DFCF0F
:10368000A8016FEF70E082ED90E670D1D8CF933251
:1036900061F440E253E063E874E080914363909109
:1036A00044631CCF81E090E0FACE90E080E026CF2A
:1036B00080EA90E00ECE943109F071C08091D06024
:1036C0008130B1F40E9407058093AC609093AD60A7
:1036D0001092466340E253E070E060E081E290E1E6
:1036E0008CD821E0009709F020E02093D160DFCD55
:1036F000823051F5F89B14C080EC0E941E02882392
:1037000019F080E00E949B048CE190E00E94DE04AE
:10371000FE9B06C01092010A1092000A6998FE985A
:103720000298019861E081E00E94C20F83ED90E36E
:103730000197F1F700C000001FBA0E94000B0E9421
:10374000A20581E090E0CDCF8730D9F3863021F11A
:10375000F89B22C0853039F440E253E070E060E02D
:1037600087E393E1BDCF2091AC603091AD60283606
:10377000304190F0833039F440E253E070E060E093
:1037800085E693E1ADCF843039F440E253E070E058
:1037900060E084E492E1A4CF90E080E0A2CF903298
:1037A00009F09ECD2091D0609091D2608091D3603D
:1037B0000091D4602130B1F40091D5601091D660B1
:1037C000911185CD803109F082CD0093AE6060E02B
:1037D00081E00E94C20F012B09F479CD80E00E94A4
:1037E000A10F75CD223009F07BCD911106C080313B
:1037F00021F48091AE608093D26084E891E0809360
:10380000D0609093D160802FDACDDC012D923D9273
:103810004D925D926D927D928D929D92AD92BD92F0
:10382000CD92DD92ED92FD920D931D93CD93DD939C
:10383000FF91EF918DB78D938EB78D938FB78D9349
:10384000ED93FD93882799270994DC01CB01813002
:103850009105811D2D903D904D905D906D907D90D6
:103860008D909D90AD90BD90CD90DD90ED90FD90B0
:103870000D911D91CD91DD91ED91FD910D900FBEBA
:10388000EDBFFEBFED91FD910994FB01DC0102C08B
:1038900005900D9241505040D8F70895AA1BBB1BCC
:1038A00051E107C0AA1FBB1FA617B70710F0A61B40
:1038B000B70B881F991F5A95A9F780959095BC0161
:1038C000CD010895A1E21A2EAA1BBB1BFD010DC05C
:1038D000AA1FBB1FEE1FFF1FA217B307E407F507C0
:1038E00020F0A21BB30BE40BF50B661F771F881F9C
:1038F000991F1A9469F760957095809590959B0132
:10390000AC01BD01CF010895052E97FB16F400947C
:103910000FD057FD05D0D6DF07FC02D046F408C013
:1039200050954095309521953F4F4F4F5F4F0895EB
:1039300090958095709561957F4F8F4F9F4F08951B
:10394000FB01DC0104C08D910190801921F44150EC
:103950005040C8F7881B990B0895FB01DC0102C099
:1039600001900D9241505040D8F70895DC0101C0FC
:0E3970006D9341505040E0F70895F894FFCF5A
:10397E004C000000000C00000000A10000006B00D5
:10398E0000000055080000000055480000000055DA
:10399E00A0005504556A0000000000302000000011
:1039AE000000FFFF7F557EC87F59FEFF7F557EC802
:1039BE007F00FE7F557EC37E04FFC205C15982C0C3
:1039CE0002C100E0FF88D8CD45AB891255C21D5506
:1039DE0087558B55E020676F72504D564E55E065FA
:1039EE00736172454D564E55E065742673554D56AE
:1039FE004E55C72055CA0355C21555E655C85955DB
:103A0E00C30855C215558255C85955C80055C3042B
:00000001FF
