:1000000051C500008CC500008AC5000088C50000ED
:1000100086C5000084C500000C94731C80C50000D8
:100020007EC500007CC500007AC5000078C50000D0
:1000300076C5000074C5000072C500000C94E61B74
:100040006EC500006CC500006AC500000C949D1BC5
:1000500066C5000064C5000062C5000060C5000000
:100060000C94831C5CC500005AC5000058C50000F4
:1000700056C5000054C5000052C5000050C5000020
:100080004EC500004CC500005550444934415652FD
:100090002D55534220312E33352E34392E48414CC4
:1000A0002F41565244555F434E414E4F2E6800201B
:1000B0004C45443A48424541540D0A00204C4544C1
:1000C0003A4D443D25640D0A004300440043002D91
:1000D00000410043004D002F005600430050000037
:1000E00000550050004400490034004100560052C1
:1000F000002D005500530042003A004100560052C6
:10010000002D00440055003A0045004400420047DD
:10011000002F0043004D005300490053002D0044C0
:10012000004100500000004D0075006C0074006933
:100130000058002E006A00700020004F005300534A
:100140000057002F004F0053004800570020005078
:100150000072006F0064002E0000000600FF09011D
:10016000A101150026FF00750896400009018102D3
:100170009640000901910295040901B102C00902EB
:100180006B0003010080320904000002030000003C
:10019000092111010001222300070502034000018B
:1001A00007058103400001080B0102020201040956
:1001B00004010001020201000524001001042402D0
:1001C0000605240601020524010302070582031027
:1001D000000409040200020A0000000705030240AF
:1001E0000000070583024000000A060002EF02013A
:1001F000400000205649443A5049443D2530345887
:100200003A253034580D0A0012010002EF02014075
:10021000D804150B0001010203013C47493A25307F
:1002200032583E0D0A003C53493A303E0D0A003C1C
:1002300053433A253032583E0D0A003C47433A2595
:100240003032583E0D0A0020555342305F4144443D
:10025000523D25640D0A002053463D253032583A60
:10026000253032580D0A002043463D253032583A99
:10027000253032580D0A002053423D253034580DA8
:100280000A0020534C533D253032580D0A002047B8
:100290004C453D0020534C453D002049444C3D25F4
:1002A0003032580D0A0052513D253032583A25302F
:1002B00034583A253032583A253032583A253034BD
:1002C000583A253034583A253034580D0A003C52FB
:1002D00053543A494E3E0D0A003C5253543A4F553E
:1002E000543E0D0A003C454442475F454D50545929
:1002F0003E0D0A003C454442475F4641494C3E0D95
:100300000A003C454442475F4641494C3E0D0A00C5
:100310002047454E3D253032583A253032583A254F
:100320003032580D0A002047454E5F5349474E5F13
:100330004F46460D0A002047454E5F5349474E5FE2
:100340004F4E0D0A00902800183800000020504839
:1003500059534943414C3D253032583A25303258A3
:100360000D0A0020565441524745543D25640D0A5C
:10037000002056455352494F4E3D000001233100A5
:100380002047454E5F4745545F504152414D3D2502
:100390003032583A253032583A253032580D0A005A
:1003A000205044495F57524954453D253032583A10
:1003B0002530386C583A253034580D0A0020504406
:1003C000495F524541443D253032583A2530386C1A
:1003D000583A253034580D0A00205044495F4552A0
:1003E0004153453D253032583A2530386C580D0A76
:1003F00000205044495F4C454156455F50524F479D
:100400000D0A00205044495F454E5445525F5052FA
:100410004F470D0A00205044495F5349474E5F4FF4
:1004200046460D0A00205044495F5349474E5F4FEE
:100430004E3D4558543A253032580D0A002055504B
:1004400044495F57524954453D253032583A25308A
:10045000366C583A253034580D0A0020555044491E
:100460005F524541443D253032583A2530366C586C
:100470003A253034580D0A0020555044495F455202
:100480004153453D253032583A2530366C580D0AD7
:1004900000204C4153545F58434C4B3D25640D0A9A
:1004A0000020555044495F4C454156455F50524FDE
:1004B000470D0A0020555044495F454E5445525F50
:1004C00050524F470D0A0020555044495F53494749
:1004D0004E5F4F46460D0A0020555044495F534930
:1004E000474E5F4F4E3D4558543A253032580D0A1D
:1004F00000203F3A415243483D25640D0A002058F0
:10050000434C4B3D25640D0A0020434F4E4E45435E
:1005100054494F4E3D253032580D0A002041524378
:10052000483D253032580D0A00204156525F47455C
:10053000545F504152414D455445523D253032584B
:100540003A253032583A253032580D0A0020554E9F
:100550004C4F434B454E3D253032580D0A00204844
:10056000564354524C454E3D253032580D0A00201A
:10057000444556494345444553433D25580D0A00DB
:10058000204649585F58434C4B3D25640D0A0020D6
:10059000434F4E4E454354494F4E3D253032580D42
:1005A0000A0020534553535F505552504F53453D19
:1005B000253032580D0A002058434C4B3D25640D20
:1005C0000A0020415243483D253032580D0A002090
:1005D0004156525F5345545F504152414D3D253085
:1005E00032583A253032583A253032583A2530348C
:1005F000580D0A003C4856433A4F46463E0D0A0005
:10060000203C5245533A253032583E0D0A002054C2
:1006100050495F57524954453D253032583A2530AC
:10062000386C583A25640D0A00205450495F4552F1
:100630004153453D253032583A2530386C580D0A23
:1006400000205450495F434D443D25642C205654AE
:10065000474C4F573D25640D0A00205450495F52C6
:100660004541443D253032583A2530386C583A25BA
:10067000640D0A00205450495F4352430D0A002084
:100680005450495F4C454156455F50524F474D4F7E
:1006900044450D0A0020565441524745543D2564B7
:1006A0000D0A00205450495F454E5445525F505248
:1006B0004F474D4F44450D0A002054415247455481
:1006C0005F504F5745523D253032580D0A002041AA
:1006D00056525F4745545F504152414D3D2530329F
:1006E000583A253032583A253032580D0A002054F5
:1006F00041524745545F504F5745523D253032587F
:100700000D0A00204156525F5345545F50415241FB
:100710004D3D253032583A253032583A253032583E
:100720003A253032580D0A00203F3A53434F504586
:100730003D253032580D0A0053513D25643A256459
:100740003E53434F50453D253032582C433D2530D4
:1007500032582C533D253032582C4C3D25303258E0
:100760000D0A003C57414954494E473E0D0A004886
:10077000414C5F50524F46494C45203D2048414C2A
:100780002F41565244555F434E414E4F2E680D0A3D
:10079000005F5F4156525F415243485F5F203D20FA
:1007A00025640D0A005F4156525F494F5858585F03
:1007B000485F203D20696F6176723634647533324C
:1007C0002E680D0A00465F435055203D20256C647D
:1007D0000D0A000A3C737461727475703E0D0A0054
:1007E000204C3D253034582C413D2530386C582C58
:1007F00000204C3D253034582C413D2530386C5874
:100800002C00204661696C0D0A0020205044495F8D
:100810004F4E3A4756414C3D253032580D0A002084
:10082000204E564D505F4F4E3A253032580D0A003B
:1008300020204661696C3A253032580D0A003C523E
:1008400045424F4F543E0D0A0020544342303A4F28
:100850004E0D0A005B544F5D0020544342303A4F26
:10086000460D0A002053454354494F4E5F455241BF
:1008700053453D253034580D0A0020434849505F08
:1008800045524153453D253034580D0A002052450C
:1008900041443D253034583A2564200020434F44DC
:1008A000455F57524954453D253034583A2530323A
:1008B000580D0A002053454354494F4E5F4552415D
:1008C00053453D253034580D0A00205752495445B0
:1008D0003D253034583A2564200020555341525468
:1008E0003D54504920424155443D253034580D0A6D
:1008F00000205349473E253034583A253032580DB0
:100900000A0020534B45590D0A003C4856454E3EBF
:10091000002050524F475F4B45593D002045524102
:1009200053455F4B45593D002050524F475354416A
:1009300052543D253032580D0A00203C5359533A49
:10094000253032583E0D0A002057414954002043BB
:100950004849505F4552415345002055524F575F1B
:100960004B45593D002052455F50524F475354412B
:1009700052543D253032580D0A003C5359533A2504
:100980003032583A25643E0D0A003C5359533A25FB
:100990003032583A25643E0D0A0020454E544552E7
:1009A0005F55524F573D2530346C583A25303458F6
:1009B0000D0A002055534152543D5550444920588A
:1009C000434C4B3D256420424155443D253034582D
:1009D0000D0A00204641494C3A253032582C25302A
:1009E00032580D0A00204E564D3A253032582C53BD
:1009F00049423D222573220D0A003C4856433A568F
:100A000025643E00253032580D0A002055534152CE
:100A1000543D50444920424155443D253034580D01
:100A20000A00205643503D4641494C0D0A002055CE
:100A3000534152543D5643500D0A00204241554403
:100A40003D2530386C583A253032580D0A000000E8
:100A5000000000000000004B00005A630000007B13
:100A6000000062630000000000000000000000BB06
:100A7000400072630000008B00007263400000B908
:100A8000000062630000008B0000B263400002BB04
:100A90000000F26300000000E205181060044080CE
:100AA0007704921C11241FBECFEFCDBFDFE7DEBF5E
:100AB00088ED90E284BF9093680090E084BF9093AB
:100AC0006100E0E0F4E084E083878FEF8487809327
:100AD0004C0480936C048093AC0410E6A0E0B0E674
:100AE000E6EBF9E502C005900D92AA3AB107D9F7F5
:100AF00020E6AAEAB0E601C01D92AA3BB207E1F7E0
:100B000015E0C2E5D5E004C02197FE010E94B62C95
:100B1000C135D107C9F70E94A11C0C94D92C70CA09
:100B2000FB01A485B585ED91FC9111970190F081B1
:100B3000E02D682FCD01099480E094E02091040815
:100B400027FF04C000900108009000080197B1F74A
:100B50000895DC011296ED91FC91248125FFFDCFD3
:100B600020E42483DC011296ED91FC91628381E004
:100B700090E008958FB7F894109274641092B26464
:100B80001092B3648FBF80910B0C82FDFCCF8EEF6F
:100B900080934C0C0895F49B0BC08091B86481FF46
:100BA00007C02FB7F894F2990AC082EF93E609C004
:100BB00080917564803411F510927564089582E314
:100BC00094E68093BC649093BD648091756490E0DA
:100BD0008093BA649093BB641092BE641092BF6419
:100BE000109275648EB394E089278EBB2FBF8091DD
:100BF0000B0C82FDFCCF8EEF80934E0C089510926B
:100C00008E6410928F6480910B0C82FDFCCF8EEF6E
:100C10008093420C089510928264109283648091B4
:100C20000B0C82FDFCCF8EEF8093400C0895FC01ED
:100C3000948196FFFDCF089590E080E00895809123
:100C400001088CBB8CB38823D1F3809100088DBB45
:100C50008CB380588CBB9CB381E0911180E00895E7
:100C6000EECFCF93C82F8091040885FFFCCFC093AF
:100C70000208E5DF882321F09DB381E09C1380E02A
:100C8000CF9108950F931F93CF93DF93EB018C01C6
:100C9000F80181918F01E5DF882311F02197C1F7D9
:100CA000DF91CF911F910F91089569E070E087E97E
:100CB00090E6E8DF90E0089562E070E081E690E67B
:100CC000E1DF8111CDCF80E0089562E070E08FE533
:100CD00090E6D8DF8111C4CF80E00895609315605D
:100CE00070931660809317609093186065E070E0D1
:100CF00083E190E6C7DF8111B3CF80E008959FDFE5
:100D0000882329F09DB381E0903409F080E00895B4
:100D1000CF93DF93EA0160932660709327608093FE
:100D2000286090932960CA01969587958150809399
:100D3000216085E68093236065E070E084E290E6C0
:100D4000A1DF8823F9F0DBDF8823E1F063E070E0C6
:100D50008CE590E697DF8823A9F065E070E08FE1ED
:100D600090E690DF882371F0BE016E7F8DEE90E6F5
:100D700089DF882339F063E070E087E890E6DF914F
:100D8000CF9180CF80E0DF91CF910895CF93C42F92
:100D900060931B6070931C6080931D6090931E6035
:100DA00065E070E089E190E66DDF882349F0A7DF18
:100DB000882331F08C2F55DF882311F0CF919FCFFE
:100DC00080E0CF910895482F60E070E180E090E0EE
:100DD000DDCFCF92DF92EF92FF920F931F93CF93CD
:100DE000DF93CCEDD0E68A0104521F49C017D1072A
:100DF000C1F06B017C012FEFC21AD20AE20AF20A9B
:100E00004989C4DF2196811109C0DF91CF911F91DB
:100E10000F91FF90EF90DF90CF900895C701B6013A
:100E2000E5CF81E0F2CFCF93DF934130510529F434
:100E30004091ED60DF91CF91A9CFEA0160932660E8
:100E4000709327608093286090932960842F81504D
:100E50008093216084E68093236065E070E084E203
:100E600090E610DF8823F1F04ADF8823D9F063E0B1
:100E700070E08CE590E606DF8823A1F065E070E085
:100E80008FE190E6FFDE882369F0BE018DEE90E6EB
:100E9000F9DE882339F063E070E087E890E6DF91BF
:100EA000CF91F0CE80E0DF91CF9108950F931F9303
:100EB000CF93DF93EB018C01C2DE882331F09DB329
:100EC000F80191938F012197B9F7DF91CF911F918D
:100ED0000F910895CF93DF93EA016093266070939A
:100EE00027608093286090932960CA019695879522
:100EF00081508093216085E28093236065E070E0FB
:100F000084E290E6BFDE882389F0F9DE882371F061
:100F100065E070E08FE190E6B5DE882339F0BE0130
:100F20006E7F83EE90E6DF91CF91C0CF80E0DF91BE
:100F3000CF910895CF93DF93EA014130510559F4E1
:100F4000CDDE811104C080E0DF91CF9108959DB383
:100F50009093E360F9CF609326607093276080934D
:100F6000286090932960842F81508093216084E2CF
:100F70008093236065E070E084E290E683DE88235E
:100F800011F3BDDE8823F9F265E070E08FE190E6B1
:100F900079DE8823C1F2BE0183EE90E6DF91CF9126
:100FA00085CFCF93DF938091E3606091E4603091CF
:100FB000E560843B51F46F7770E07F5EF9990FC074
:100FC00090E080E0DF91CF910895732F803BB1F7DF
:100FD0008091FA629091FB62680F791FEFCFC09108
:100FE000E860D091E96090E080E0AE01A3DF882363
:100FF00039F3CE010196E6CFCF93DF93F99905C07F
:1010000090E080E0DF91CF9108952091E3606091BE
:10101000E4607091E5608091E6609091E760C09136
:10102000E860D091E960203B49F480589F4FAE01C1
:1010300051DF882329F3CE010196E4CF243B39F414
:101040006F7770E07F5E072E000C880B990BAE0166
:1010500071DFEFCFD1CFCF93DF93F99905C090E047
:1010600080E0DF91CF9108952091E3606091E4608A
:101070007091E5608091E6609091E760C091E860D2
:10108000D091E960203B49F480589F4FAE0122DFA8
:10109000882329F3CE010196E4CF243B41F46F77F6
:1010A00070E060587F4E072E000C880B990BAE0144
:1010B00041DFEECFD0CFCFCF8091080890910908C3
:1010C000880F991F809308089093090880E0C9DD74
:1010D000209157633091586350E040E060E071E741
:1010E00082E090E00E94932CDA01C9010196A11DD3
:1010F000B11DB595A7959795879580349105A10564
:10110000B1057CF0009721E0A207B10520F08FEF38
:101110009FEFA0E0B0E0809308089093090881E079
:10112000089580E490E0A0E0B0E0F5CF80915763AF
:1011300089518DBB8DB3883270F08DB390E0809370
:10114000576390935863B8DF63E070E087E890E6F8
:1011500099DD90E0089590E080E0089582CDCF93EE
:10116000C82F83EF7EDD882319F08C2FCF91F6CF27
:1011700080E0CF91089582E774DD882331F070DD3F
:10118000882319F08DB38111F6CF81E00895CF93B4
:10119000C82F84E666DD882319F08C2FCF91DECF2F
:1011A00080E0CF91089584E25CDD811159CD80E02B
:1011B0000895CF93DF93D82FC92F88E652DD882377
:1011C00061F08D2F4EDD882341F089E64ADD8823CA
:1011D00021F08C2FDF91CF9144CD80E0DF91CF9132
:1011E000089530E020E04091080442FFFCCF409198
:1011F000080442FDFCCF2F5F3F4F8217930799F7FA
:10120000089584E1809366008FEF80930706109223
:101210000E0610920F0681E08093000683E0809313
:10122000010684E0809302068AEF8093040684E43A
:1012300080930B068091080680FDFCCF81E18093AE
:101240000A068091070681FFFCCF20910E0630919F
:101250000F06C90143E0880F991F4A95E1F7220F55
:10126000331F10920006820F931F0895CF92DF92D2
:10127000EF92FF92AB01BC0180912763282F30E0F1
:10128000322F22278091FC62820F932F911D91951E
:1012900081959109B0E0A0E084239523A623B7238C
:1012A00021E0C0902A63D0902B63E0902C63F090F3
:1012B0002D63C816D906EA06FB0609F420E08093E0
:1012C0002A6390932B63A0932C63B0932D63822F9A
:1012D000FF90EF90DF90CF900895823249F46091B3
:1012E0000263709103638091046390910563089594
:1012F000803B49F46091FE627091FF6280910063CF
:10130000909101630895813B51F3823B49F46091D0
:101310000663709107638091086390910963089553
:10132000833B49F460910A6370910B6380910C6375
:1013300090910D630895843B89F420912763309147
:101340002863609116637091176380911863909180
:101350001963620F731F811D911D0895803C49F42C
:101360006091FA627091FB628091FC629091FD62E3
:101370000895813C09F4BECF843C09F4B0CF853C8C
:1013800049F460910E6370910F63809110639091A6
:1013900011630895863C49F4609112637091136360
:1013A0008091146390911563089560911663709114
:1013B00017638091186390911963089530E020E0DD
:1013C0004091080446FFFCCF4091080446FDFCCF45
:1013D0002F5F3F4F8217930799F781E00895FB9B9A
:1013E00008C081E090E0EADF049888E8809306086E
:1013F000FB9881E00895F3DF811132CC80E00895FD
:10140000FB9909C081E090E0D9DF0C9A049A80EC46
:1014100080930608FB9A81E0089582E090E0CEDF99
:10142000EFDF811102C080E0089580E897DE882315
:10143000D1F3E1DF882389F3E99BEFCF0895EF92A1
:10144000FF920F931F93CF93DF937C018B01D8DF23
:10145000E701899106DC882319F001501109C9F7C9
:10146000DF91CF911F910F91FF90EF900895F89920
:1014700007C064E070E08FE490E6E1DF90E008955B
:1014800081E090E00895CF92DF92EF92FF928FEC8F
:10149000C82EDD24D394E12CFD2CC0920660D0929E
:1014A0000760E0920860F092096065E070E085E016
:1014B00090E6C5DF81119FDF8DB3807C71F781E0FD
:1014C000FF90EF90DF90CF9008958BEC91E0A0E03B
:1014D000B1E08093016090930260A0930360B093A9
:1014E000046065E070E080E090E6A9DF882311F0F9
:1014F00081E034CE80E00895CF93C82F8AEC91E04C
:10150000A0E0B1E08093016090930260A09303603B
:10151000B093046065E070E080E090E690DF88239F
:1015200019F08C2FCF911ACE80E0CF910895CF93F0
:10153000C091E3608091E4609091E560A091E660E5
:10154000B091E76080930F6090931060A09311605A
:10155000B093126098DFC11111C080E4CDDF81111A
:1015600004C090E080E0CF910895AFDF8823C9F3F5
:1015700054DF8823B1F387DF90E0F5CF81E090E07E
:10158000C73089F788E1B8DF882359F365E070E058
:101590008EE090E654DF882321F384E662DB882323
:1015A00001F38FEF5EDBE5CF1ADF0C98049A80E140
:1015B00090E004DF0C9A82E090E000DF0C9880E17C
:1015C00090E0FCDE1DCF67E070E180E090E086DB1C
:1015D0008DB38370C1F78DB30895CF93C82FF3DF18
:1015E00060E070E180E090E079DB882331F08DB33A
:1015F0008C1303C081E0CF91089580E0E4DB882361
:10160000D1F3CC23B9F38C2FCF91DDCB80E0E5DF94
:1016100090E0089580E0E1CFCF92DF92EF92FF92C9
:101620006B017C0188E0D9DF882371F04FEFC7019F
:10163000B601ACDB882341F0C6DF837729F4FF9045
:10164000EF90DF90CF90E6CF80E0FF90EF90DF90BB
:10165000CF90089566E070E180E090E03FDB8DB3CD
:101660008370C1F78DB30895F5DF982F937781E0EC
:1016700009F080E00895CF93C82FECDF60E070E1BF
:1016800080E090E02BDB882331F08DB38C1303C016
:1016900081E0CF91089580E096DB8823D1F3CC23BD
:1016A000B9F38C2FCF918FCB80E0E5DF90E00895E8
:1016B00080E0E1CF8FE0DFDF8FE1DDDF80E0DBDFA7
:1016C00090E00895F7CFCF92DF92EF92FF92CF9301
:1016D000DF936B017C01EA0180E0CDDF882389F094
:1016E000AE01C701B6019FDB882359F085E0C3DF57
:1016F000882339F0DF91CF91FF90EF90DF90CF906A
:10170000B3CF80E0DF91CF91FF90EF90DF90CF904B
:101710000895CF92DF92EF92FF92CF93DF936B0108
:101720007C01EA0180E0A7DF882389F0AE01C701D0
:10173000B601EEDA882359F085E09DDF882339F081
:10174000DF91CF91FF90EF90DF90CF908DCF80E031
:10175000DF91CF91FF90EF90DF90CF900895CF92DF
:10176000DF92EF92FF926B017C0188E084DF882397
:1017700071F04FEFC701B60109DB882341F06ADF42
:10178000837729F4FF90EF90DF90CF9091CF80E0A6
:10179000FF90EF90DF90CF90089562E070E180E0DD
:1017A00090E09CDA8DB38370C1F78DB30895F5DFB7
:1017B00084E009DBF2DF80E006DB90E00895CF9360
:1017C000C82FEBDF60E070E180E090E087DA8823EB
:1017D00031F08DB38C1303C081E0CF91089580E088
:1017E000F2DA8823D1F3CC23B9F38C2FCF91EBCA53
:1017F00080E0E5DF90E0089580E0E1CFCF92DF92D6
:10180000EF92FF926B017C0188E0D9DF882371F0B1
:101810004FEFC701B601BADA882341F0BEDF837704
:1018200029F4FF90EF90DF90CF90E6CF80E0FF901B
:10183000EF90DF90CF90089590E080E0089590E0E1
:1018400080E0089590E080E00895DC01ED91FC9146
:101850000190F081E02D0994CF92DF92EF92FF92F8
:101860000F931F93CF93DF937C0110E000E06B0197
:1018700081E0C81AD108672B91F1F701C1917F016E
:101880008C2F82958F7060E3680F6A3310F067E3E6
:10189000680F83EB90E6D9DFCF7060E36C0F6A339B
:1018A00010F067E36C0F83EB90E6CFDFC114D10437
:1018B00079F00F5F1F4F71F4C6EAD0E66991662395
:1018C00039F083EB90E6C1DF892BC1F710E000E02F
:1018D000B601CDCF6AE383EB90E6B7DFF9CF83EBB8
:1018E00090E6DF91CF911F910F91FF90EF90DF90E5
:1018F000CF900895CF93DF93EC016DE0A6DF6AE00F
:10190000CE01A3DFCE01DF91CF910895CF93DF9376
:10191000CDB7DEB72E97CDBFDEBF80E995E08987D2
:101920009A871B861C8682E08C8383EB90E68D87EA
:101930009E87AE01495E5F4F6D897E89CE0101961B
:101940000E94AF2983EB90E62E96CDBFDEBFDF91DC
:10195000CF910895CF93CFB7F89481E18093E205BA
:1019600080E880931604069A80E280930408209110
:1019700057633091586350E040E060E27EE480E0DD
:1019800090E00E94932CDA01C9010196A11DB11DBE
:10199000B595A7959795879536E0880F991FAA1F4B
:1019A000BB1F3A95D1F7009721E0A207B10520F0BF
:1019B0008FEF9FEFA0E0B0E080349105A105B10565
:1019C00020F480E490E0A0E0B0E0809308089093D9
:1019D00009088BE6809307088AE08093050880E871
:1019E0008093060880910808909109089F938F932F
:1019F0008BE09AE09F938F9383EB90E69F938F9376
:101A000085DFCFBF0F900F900F900F900F900F902A
:101A1000CF9108958EE398E09F938F9383EB90E6A8
:101A20009F938F9373DF8091B5609091B660FFD8DC
:101A300088ED91E084BF909300010F900F900F907C
:101A40000F90FFCFF9991DC069E070E083E590E643
:101A5000F6DC8823C9F0E1DC8823B1F0F99A8DB374
:101A60001F928F938FE198E09F938F9383EB90E683
:101A70009F938F934BDF0F900F900F900F900F90CD
:101A80000F9081E090E008958DB31F928F9380E3D3
:101A900098E09F938F9383EB90E69F938F9336DF2D
:101AA0000F900F900F900F900F900F9090E080E0AC
:101AB000089582E098E09F938F9383EB90E69F9345
:101AC0008F9324DF80915763909158630F900F900C
:101AD0000F900F908233910579F0C2978233910570
:101AE00040F0809357639093586334DF5DDD90E05E
:101AF000089582E390E0F5CF90E080E00895CF92E2
:101B0000DF92EF92FF920F931F93CF93DF93C091D9
:101B1000E360C090E460D090E560E090E660F09013
:101B2000E7608C2FDADBC60ED71EE81EF91E009187
:101B3000E8601091E960C0920F60D0921060E0926E
:101B40001160F092126098012150310920930B60CE
:101B500030930C6024E620930D60FF92EF92DF92A9
:101B6000CF921F930F9381EF97E09F938F9383EB17
:101B700090E69F938F93CADE86DC8DB79EB70A9658
:101B80008DBF9EBFC03C09F43FC0C03B09F47AC082
:101B9000C13C09F477C0C23209F478C0C13B09F4F2
:101BA00075C0C43C09F472C0C53C09F473C0C23BA3
:101BB00031F088E0C33B21F090E080E006C08CE487
:101BC0009BDC81110BC080E090E0DF91CF911F91F1
:101BD0000F91FF90EF90DF90CF90089565E070E057
:101BE0008EE090E62CDC882371F364E070E08AE0FC
:101BF00090E625DC882339F3B8018DEE90E61FDCF2
:101C0000882309F340DCE0CFD3E286E2C5E274DC4E
:101C10008823C9F25ADC8823B1F235DC882399F293
:101C20008D2F6ADC882379F265E070E08EE090E623
:101C300006DC882309F4C7CF64E070E08AE090E610
:101C4000FEDB882309F4BFCFB8018DEE90E6F7DB09
:101C5000882309F4B8CF8C2F4FDC882309F4B3CF45
:101C600065E070E08EE090E6EADB882309F4ABCF14
:101C700084E60E943106882309F4A5CF8FEF0E94E5
:101C80003106BECFD3E286E2CDE2C1CFD3E386E315
:101C9000C5E3BDCFD3E286E2CAE1B9CFCF92DF92EE
:101CA000EF92FF920F931F93CF93DF93C090E46066
:101CB000D090E560E090E660F090E7608091E360AE
:101CC0000CDBC60ED71EE81EF91EC091E860D0914D
:101CD000E960FF92EF92DF92CF92DF93CF9380EE95
:101CE00097E09F938F9383EB90E69F938F930EDE05
:101CF00083E402DCEDB7FEB73A96EDBFFEBF882362
:101D000009F45AC0C130D10511F5C0920660D092D5
:101D10000760E0920860F092096065E070E085E09D
:101D200090E68DDB882309F447C065DB882309F43E
:101D300043C08DB38093E36082E090E0DF91CF9168
:101D40001F910F91FF90EF90DF90CF900895C09278
:101D50000F60D0921060E0921160F0921260CE019C
:101D6000019780930B6090930C6084E280930D60E8
:101D700065E070E08EE090E662DB8823E9F064E0E5
:101D800070E08AE090E65BDB8823B1F028DB0CEDA5
:101D900010E69E0124523F4979010E941F068823C4
:101DA00059F08DB3F80187830F5F1F4F0E151F0584
:101DB000A1F7CE010196C2CF90E080E0BFCFEF92B5
:101DC000FF921F93CF93DF93182FEB011092240201
:101DD000E12C8AE0F82EF70110821F921F938CEB02
:101DE00090E09F938F9383EB90E69F938F938EDD8C
:101DF0001092030AC093260AD093270AD695C79556
:101E0000C093280AD093290A83E08093010A8FE0C7
:101E1000F70180831093AB600F900F900F900F909D
:101E20000F900F90DF91CF911F91FF90EF90089549
:101E30008091AB60833021F061E173E183E0BFCF3B
:101E400008958091AB60823021F064E276E282E016
:101E5000B6CF08958091AB60813001F11092000AF5
:101E60008FEA90E09F938F9383EB90E69F938F93FD
:101E70004DDD81E08093030A97E99093260A9BE465
:101E80009093280A9FE09093000A92E09093240296
:101E90008093AB600F900F900F900F900895BF92BA
:101EA000CF92DF92EF92FF920F931F93CF93DF9326
:101EB00000D000D0CDB7DEB72091AC603091AD60DE
:101EC0004091AE605091AF6021153105410551053B
:101ED00021F420E835E240E050E060E078E689E86F
:101EE00099E00E94712CDA01C9010196A11DB11D72
:101EF0006C017D01F694E794D794C79420E6C2164E
:101F0000D104E104F10408F07BC06C017D01E89488
:101F1000C0F89AECB92E1F92BF92FF92EF92DF9217
:101F2000CF928BE39AE09F938F9303EB10E61F937E
:101F30000F93ECDCCDBFDEBFD701C6018054910901
:101F4000A109B109803C9F4FA105B10508F05DC012
:101F50009091B260955040912A6050912B606091B1
:101F60002C6070912D6049835A836B837C83E09150
:101F7000B160E370EC0FFD2FF11D21818091B06005
:101F8000280F3327331F80E0232B09F088E094309B
:101F9000D0F5890F9FB7F89422E12093E20520E263
:101FA00020930408C0920808D0920908809307087B
:101FB00080E880930508B0920608F19A9FBF8EE2F0
:101FC0009AE09F938F9383EB90E69F938F939EDC91
:101FD0000E949C050F900F900F900F908EB38F7101
:101FE0008EBBF09B1AC02496CDBFDEBFDF91CF9190
:101FF0001F910F91FF90EF90DF90CF90BF902ACF6D
:1020000088ECB82E88CF8D5FC5CF82E29AE09F938F
:102010008F931F930F937ADCDDCF2496CDBFDEBF65
:10202000DF91CF911F910F91FF90EF90DF90CF90B4
:10203000BF9007CFF19B04C0F39B02C030DFF49A3E
:10204000F3980895BC018FB7F89410920A0B109280
:102050000B0B1092050B9FEF9093060B20EA30E0DC
:1020600020930C0B30930D0B91E09093000B8FBFDE
:1020700030E020E0F90183E0F595E7958A95E1F7F6
:10208000E60FF71F408150E0822F877002C0559500
:1020900047958A95E2F78091060B80FFFCCF40FFC1
:1020A0000FC000989091060B91609093060BA89535
:1020B0002F5F3F4F20373105E9F61092000B08954E
:1020C000009AF0CFCF93DF93C0E0DCE0188210924B
:1020D000040C80E894E68093060C9093070C81E052
:1020E0008093010C1EBA1FBA1CBA1092766410922B
:1020F00077641092756410927464109273641092F5
:1021000072644AE450E06EE47AE088E794E60E9464
:10211000A629EAE5F3E681EA808780E281871286D4
:10212000138681E090E08487958782E090E086873F
:102130009787108A118A83E88883DF91CF91089569
:102140008AE18A95F1F700C08FB7F89410920608DB
:10215000109205081CBA1DBA95E19093E205F1981A
:102160008FBF88E0809312040298039808958091AD
:10217000AB60843021F068E879E084E020DE809173
:1021800006088111DDDF009801980298809156635E
:10219000833019F4049A069808950498FCCFCF93DD
:1021A000DF93E2E1F1E03197F1F700C00000C1E018
:1021B000D0E002C0CC0FDD1F8A95E2F70E945C06DA
:1021C0008DB390E08C239D23892BC1F781E0DF91B3
:1021D000CF910895CF93DF93E2E1F1E03197F1F7EA
:1021E00000C00000C1E0D0E002C0CC0FDD1F8A9526
:1021F000E2F70E945C068DB390E08C239D23892B2F
:10220000C1F381E0DF91CF910895CF93DF93E2E1B5
:10221000F1E03197F1F700C00000C1E0D0E002C06A
:10222000CC0FDD1F8A95E2F70E9465068DB390E022
:102230008C239D23892BC1F381E0DF91CF910895F9
:10224000CF93C82F81E199E09F938F9383EB90E622
:102250009F938F935BDB6AE070E083E690E60E94D9
:1022600042060F900F900F900F90811103C080E0F5
:10227000CF91089584E0C9DF8823C9F3CC23C1F34B
:1022800066E070E087E990E6CF910C944206F999F8
:102290002CC081E0D5DF882359F182E191E00197DC
:1022A000F1F700C000000E946506EC99FCCF0E9487
:1022B0005C06882341F0E89906C0F99AE0914E63E4
:1022C000F0914F6309958DB31F928F9384E09AE04C
:1022D0009F938F9383EB90E69F938F9317DB0F90E1
:1022E0000F900F900F900F900F9081E090E0089565
:1022F00090E080E00895BF92CF92DF92EF92FF923C
:102300000F931F93CF93DF93F8990CC010E0812FA8
:10231000DF91CF911F910F91FF90EF90DF90CF90C1
:10232000BF9008958091E360853C81F7009112632E
:10233000109113638091E8609091E9600817190784
:1023400029F7C090E460D090E560E090E660F090FE
:10235000E76080911C6390911D638C159D05B1F61B
:102360000E949C051F930F93FF92EF92DF92CF92F2
:102370008AE999E09F938F93C3EBD0E6DF93CF93E5
:10238000C5DA8091B5609091B6600E9417068AE523
:1023900099E09F938F93DF93CF93B8DA6AE070E070
:1023A00087E790E60E9442062DB73EB7225F3F4F77
:1023B0002DBF3EBF882309F4A9CF85E026DF8823FF
:1023C00009F4A4CF66E070E087E990E60E94420637
:1023D000882309F49BCF82E0FDDE8DB39DB3869503
:1023E0008695BB24B3948B2581701F928F931F9287
:1023F0009F938AE899E09F938F93DF93CF9386DA38
:102400008091B5609091B6600E941706A801C7013F
:10241000B6010E94880683EF91E00197F1F700C0B2
:10242000000063E070E084E890E60E94420682E0EB
:10243000B6DE8DB39DB3869586958B2581701F92F0
:102440008F931F929F938AE799E09F938F93DF93D7
:10245000CF935CDA8091B5609091B6600E941706C8
:1024600063E070E081E890E60E9442068DB79EB777
:1024700040968DBF9EBFF9990FC066E070E087E976
:1024800090E6DF91CF911F910F91FF90EF90DF9039
:10249000CF90BF900C94420681E0D2DE182F8823A3
:1024A00061F383E097DE8DB31F928F9385E699E009
:1024B0009F938F93DF93CF9329DA0F900F900F9014
:1024C0000F900F900F9023CF4F925F926F927F9259
:1024D000AF92BF92CF92DF92EF92FF920F931F9332
:1024E000CF93DF9300D000D0CDB7DEB7F99914C0F9
:1024F00002DF90E02496CDBFDEBFDF91CF911F9128
:102500000F91FF90EF90DF90CF90BF90AF907F90B2
:102510006F905F904F9008958091E360C090E46069
:10252000D090E560E090E660F090E7609601009161
:10253000E8601091E9609EE4980F923008F046C080
:102540008CEDE82E80E6F82EC9018C5D90466C017A
:10255000C7018C5D904680179107B0F5F70181891E
:1025600090E089839A83C6018E0D9F1D8B839C8387
:1025700014D9CE0101965C0166E070E180E090E044
:10258000F50141915F012B013C01FFEF4F1A5F0AFA
:102590006F0A7F0A0E94C606811102C080E0A9CF9F
:1025A000C301B2016A3020E172078105910541F74C
:1025B00087E00E94E306882389F3EFD89FEFE91AAA
:1025C000F90A877029F2EACF81E093CF823221F0B5
:1025D0009CE3980F923060F4E0D8C701B6018827D9
:1025E0009927A8010E94130781111DC090E024C003
:1025F000803B11F0803C11F56091FA627091FB62B2
:10260000C60ED71EF12CE12CC701B6010E94360977
:10261000882321F0C2D884E00E94E306BED8A80136
:10262000C701B601DFCF83E00E94E3068823F1F201
:10263000B4D8877091E0D1F6892F5BCFC701B6017E
:1026400088279927A8010E94130753CFCF92DF92C2
:10265000EF92FF92CF93DF93F99909C04CDE90E09F
:10266000DF91CF91FF90EF90DF90CF900895809110
:10267000E360C090E460D090E560E090E660F090A8
:10268000E760C091E860D091E960823231F09EE469
:10269000980F923010F0843C91F483E190D881112E
:1026A00002C080E0DCCFAE01C701B6010E94E9069E
:1026B0008823B9F372D88377A1F79ED8D0CF803C16
:1026C00011F0853CC9F4C701B6010E943609882380
:1026D00019F0C701B60192D882E071D8882309F3B6
:1026E000AE01C701B6010E94E9068823D1F255D890
:1026F0008377B9F681D8B3CF803B09F580E8E80E3F
:10270000F11CFA9909C0C701B6010E943609882355
:1027100019F0C701B60172D882E051D8882309F4B4
:10272000C0CFAE01C701B6010E948806882309F414
:10273000B8CF33D8837709F0B4CF5ED890CFAE014D
:10274000C701B6010E9413078ACFCF92DF92EF92A2
:10275000FF92CF93DF93F99909C0CDDD90E0DF912F
:10276000CF91FF90EF90DF90CF9008958091E3603C
:10277000C090E460D090E560E090E660F090E760A3
:10278000C091E860D091E960823231F09EE4980F08
:10279000923010F0843CB1F480E10E943B0B811137
:1027A00002C080E0DBCFAE01C701B6010E94130773
:1027B0008823B9F385E10E943B0B882391F30E94A3
:1027C000340BCCCF803C11F0853C31F4AE01C70115
:1027D000B6010E94630BC2CF803B41F4C701B60132
:1027E00080589F4FAE010E94890BB8CFAE01C70140
:1027F000B6010E941307B2CFCF92DF92EF92FF9201
:10280000CF93DF93F99909C076DD90E0DF91CF9106
:10281000FF90EF90DF90CF9008958091E360C0909B
:10282000E460D090E560E090E660F090E760C091F1
:10283000E860D091E960823231F09EE4980F9230E6
:1028400010F0843CA9F483E10E943B0B811102C08B
:1028500080E0DBCFAE01C701B6010E94E906882304
:10286000B9F30E942A0B837799F70E94580BCDCFBA
:10287000803C11F0853CE9F4C701B6010E9436099D
:10288000882321F0C701B6010E94AF0B82E00E94AD
:102890003B0B8823E9F2AE01C701B6010E94E906AD
:1028A0008823B1F20E942A0B837791F60E94580B7D
:1028B000ACCF803B29F580E8E80EF11CFA990AC0FC
:1028C000C701B6010E943609882321F0C701B6016D
:1028D0000E94AF0B82E00E943B0B882309F4B8CF23
:1028E000AE01C701B6010E948806882309F4B0CF63
:1028F0000E942A0B837709F0ABCF0E94580B85CF3B
:10290000AE01C701B6010E9413077FCFCF92DF92BD
:10291000EF92FF92CF93DF93F99909C0ECDC90E03E
:10292000DF91CF91FF90EF90DF90CF90089580914D
:10293000E360C090E460D090E560E090E660F090E5
:10294000E760C091E860D091E960823231F09EE4A6
:10295000980F923010F0843CB1F480E00E943B0B61
:10296000811102C080E0DBCFAE01C701B6010E9439
:1029700013078823B9F385E10E943B0B882391F369
:102980000E94340BCCCF803C11F0853C31F4AE0179
:10299000C701B6010E94630BC2CF803B41F4C7015F
:1029A000B60180589F4FAE010E94890BB8CFAE018F
:1029B000C701B6010E941307B2CFCF92DF92EF9208
:1029C000FF92CF93DF93F99909C095DC90E0DF91F6
:1029D000CF91FF90EF90DF90CF9008958091E360CA
:1029E000C090E460D090E560E090E660F090E76031
:1029F000C091E860D091E960823231F09EE4980F96
:102A0000923010F0843CA9F483E10E94ED0A811118
:102A100002C080E0DBCFAE01C701B6010E94E9062B
:102A20008823B9F30E94E30A837799F70E940A0B7F
:102A3000CDCF803C11F0853CE9F4C701B6010E947E
:102A40003609882321F0C701B6010E940C0B82E0F1
:102A50000E94ED0A8823E9F2AE01C701B6010E9487
:102A6000E9068823B1F20E94E30A837791F60E9477
:102A70000A0BACCF803B29F580E8E80EF11CFA99EF
:102A80000AC0C701B6010E943609882321F0C70198
:102A9000B6010E940C0B82E00E94ED0A882309F423
:102AA000B8CFAE01C701B6010E948806882309F499
:102AB000B0CF0E94E30A837709F0ABCF0E940A0BE4
:102AC00085CFAE01C701B6010E9413077FCFCF9318
:102AD000DF938EE499E09F938F9383EB90E69F932F
:102AE0008F930E94860C0E949C050F900F900F9070
:102AF0000F90F99902C080E0A3DB8CE199E09F93ED
:102B00008F93C3EBD0E6DF93CF930E94860C6AE0ED
:102B100070E08DE690E60E9442060F900F900F90B5
:102B20000F90811102C020E071C083E06EDB88232A
:102B3000D1F366E070E087E990E60E9442068823C0
:102B400091F388E499E09F938F93DF93CF930E9452
:102B5000860C8FE191EA27E0815090402040E1F718
:102B600000C000008FE191EA27E0815090402040B2
:102B7000E1F700C000000E949C0585E010DB80E0CA
:102B80000EDB8DB31F928F938AE399E09F938F930F
:102B9000DF93CF930E94860C82E191E00197F1F7D9
:102BA00000C000008DB79EB70A968DBF9EBF0E94E1
:102BB0006506EB99FCCF0E945C06882349F0EB99EF
:102BC00007C081E03DDB882309F4ADCF83E002DB61
:102BD0008DB31F928F9388E299E09F938F9383EB3D
:102BE00090E69F938F930E94860CFA9AF99AE0914F
:102BF0004E63F0914F63099521E00F900F900F9075
:102C00000F900F900F90892B09F48DCF822FDF91B9
:102C1000CF9108958091E360811103C058DF90E067
:102C2000089581E090E00895F5CFF4CF8091E360BE
:102C3000811103C04CDF90E00895873059F4609112
:102C4000E4607091E5608091E6609091E7600E9499
:102C5000FE0BF1CF81E090E008958091E360811157
:102C600003C035DF90E00895873059F46091E46047
:102C70007091E5608091E6609091E7600E94AF0BF3
:102C8000F1CF81E090E008958091E360811103C06D
:102C90001EDF90E00895873059F46091E4607091F0
:102CA000E5608091E6609091E7600E940C0BF1CFA7
:102CB00081E090E00895882349F02FE181EA97E0D0
:102CC000215080409040E1F700C000006B98809157
:102CD00012048860809312048091130488608093AA
:102CE0001304809110048860809310048091110473
:102CF00088608093110408958823A9F06B9A9091BD
:102D00001104977F9093110490911004977F9093F2
:102D1000100490911204977F9093120490911304E1
:102D2000977F909313046111C6CF089520DA0C9811
:102D3000049A069A61E081E0DFDF0C9A82E191E07B
:102D40000197F1F700C000000E94AA0C80E190E01A
:102D50000E94DE0965E070E08AE490E60E941F0AA6
:102D6000811105C00E94D40A0E94D40AF3CF0E94A8
:102D7000FB098823B9F38DB38530A1F78DB31F927A
:102D80008F938AE098E09F938F9383EB90E69F93D5
:102D90008F930E94860CF89A0F900F900F900F90CF
:102DA0000F900F9081E090E00895E0E0FAE010824B
:102DB00080E68093010A82E080932B0A80932D0A9B
:102DC00083E08093270A1092210A81E0808383EFB9
:102DD00091E00197F1F700C000000895CF92DF92D3
:102DE000EF92FF920F931F93CF93DF9300D0CDB755
:102DF000DEB71FBABCD9019A61E081E07DDF83EDC7
:102E000090E30197F1F700C000008091F862909183
:102E1000F962079720F08091E260811102C0F59B72
:102E200012C00198C2DF699A8AE099E09F938F935C
:102E300083EB90E69F938F930E94860CFE9A0F90EF
:102E40000F900F900F909FE1E1EAF7E09150E04082
:102E5000F040E1F700C000001FB7F89480E18093D4
:102E6000E20580E880931204029A80E280930408CD
:102E700080E09AE080930808909309088BE680939D
:102E800007088AE08093050888EC80930608809103
:102E90000808909109089F938F938AED98E09F937B
:102EA0008F9383EB90E69F938F930E94860C1FBFB6
:102EB00084E190E00E94F10882EC0E9431060F90BC
:102EC0000F900F900F900F900F9081110DC090E018
:102ED00080E00F900F90DF91CF911F910F91FF90A5
:102EE000EF90DF90CF90089585E00E94AE08882390
:102EF00071F38FE80E9431068823D9F30E943006CF
:102F00008823B9F38DB38038A1F7F89A82E0E82ED0
:102F100089E0F82E93EBC92E90E6D92EFF92EF921E
:102F2000DF92CF920E94860C03E510E60F900F907F
:102F30000F900F90F80181918F010E943106882334
:102F400031F2F0E60C351F07A9F718E084E190E0B4
:102F50000E94F10880E80E943106811103C01150DF
:102F6000A9F7DCCF0E9430068823C9F38DB38230E5
:102F7000B1F719821A8281EC9FE30E94D908882355
:102F800081F10E94D308882361F18DB38A830E9466
:102F9000D308882311F08DB3898329813A812E309B
:102FA00082E9380739F084E02F3091E9390719F0C8
:102FB00082E001C088E08093DA601F928F933F9394
:102FC0002F9381EF98E09F938F9383EB90E69F93ED
:102FD0008F930E94860CF99ACDBFDEBF81E090E00E
:102FE00078CF29813A81E4CFCF9310922E638FEF6F
:102FF0009FEFDC0180932A6390932B63A0932C6353
:10300000B0932D638CE196E080934E6390934F6371
:103010008FE19CE0809350639093516382E29CE047
:1030200080935263909353638CE19CE0809354634C
:10303000909355639CD808980998019A61E081E0C3
:103040005BDE83ED90E30197F1F700C0000001988B
:103050008091F8629091F962079740F08091E36067
:10306000882321F08091DB60811102C0F59B26C08E
:10307000C0912963C13011F11F92CF938AEF99E07B
:103080009F938F9383EB90E69F938F930E94860C80
:103090008CDE0F900F900F900F900F900F90C1113A
:1030A0009BC0689A8FE99FE00197F1F700C000008C
:1030B0001092010A1092000A68986A98009A83EDAB
:1030C00090E30197F1F700C000000098109BFECF3D
:1030D000CFB7F89480E18093E20580E28093040802
:1030E000209157633091586350E040E060E071E711
:1030F00082E090E00E94932CDA01C9010196A11DA3
:10310000B11DB595A7959795879580349105A10533
:10311000B1050CF466C0009721E0A207B10520F0CC
:103120008FEF9FEFA0E0B0E080930808909309082C
:103130008BE2809307088AE08093050888EC8093EF
:10314000060880910808909109089F938F938091B9
:1031500058638F93809157638F9383EB99E09F938C
:103160008F9383EB90E69F938F930E94860CCFBF43
:103170008DB79EB708968DBF9EBF6BE070E08CE860
:1031800090E60E944206882389F10E941F06882348
:1031900069F18DB3853151F562E070E08AE890E61F
:1031A0000E944206811125C09DB38CB31F929F934C
:1031B0001F928F9383ED99E09F938F9383EB90E61B
:1031C0009F938F930E94860C8DB79EB708968DBFF4
:1031D0009EBF90E080E05BC0C23009F063CF6A9A86
:1031E00061CF80E490E0A0E0B0E09ECF0E945C0858
:1031F000C4CF60E270E08EE293E60E945607882317
:1032000099F28EE293E69F938F93809138631F9299
:103210008F9385EE99E09F938F9383EB90E69F9336
:103220008F930E94860C809138632DB73EB7285F3C
:103230003F4F2DBF3EBF863361F586E09BE0809314
:103240004E6390934F638BE598E080935063909327
:10325000516384E496E180935263909353638DEDC0
:1032600094E1809354639093556380912E63EEE2D2
:10327000F3E6803211F4E2E3F3E684E0A3EEB0E695
:1032800001900D928A95E1F7F89A85E090E0CF9150
:1032900008958533A9F482E69BE080934E63909372
:1032A0004F638AE598E0809350639093516385E182
:1032B00096E1809352639093536386E894E1D1CF73
:1032C0008433A9F484E59BE080934E6390934F632D
:1032D0008BE298E080935063909351638DE296E186
:1032E00080935263909353638CEF93E1BACF83330F
:1032F000A9F48AE59BE080934E6390934F638AE242
:1033000098E0809350639093516384E196E18093B9
:1033100052639093536385EA93E1A3CF8233A9F478
:1033200088EF9BE080934E6390934F638CEF97E020
:10333000809350639093516386E196E1809352634A
:103340009093536386E293E18CCF803309F02CCFC6
:1033500087ED9BE080934E6390934F6381ED97E000
:1033600080935063909351638AE096E18093526317
:103370009093536384E692E174CF2F923F924F92E1
:103380005F926F927F928F929F92AF92BF92CF92F5
:10339000DF92EF92FF920F931F93CF93DF93909062
:1033A000E2600091E6601091E76010270127102786
:1033B000E090E860F090E960FE24EF24FE24809124
:1033C000DA608150990BCAEED0E62FEFAC014023B2
:1033D0005123452B79F42FEF6C01CE20DF20C1144F
:1033E000D10479F0F801EE0DFF1D2083EFEFEE1A06
:1033F000FE0AF2CF015011093FEFE31AF30A2A93B4
:10340000E5CFFF92EF921F930F938AEC98E09F9382
:103410008F9323EBA22E20E6B22EBF92AF920E9492
:10342000860CB701CE010E942C0C0E947A0C8DB73D
:103430009EB708968DBF9EBF91E0991271C0912CE6
:10344000812C8CE9482E88E0582E93EB692E90E66B
:10345000792E8E149F0408F0C6C08091DA601F9206
:103460008F931F930F935F924F927F926F920E9460
:10347000860C0E94BB08382EEDB7FEB73896EDBF1C
:10348000FEBF882399F0C8010E94D908382E8823EE
:1034900069F08DE10E94AF08382E882339F08881C9
:1034A0000E94C708382E81117EC021962090DA60D4
:1034B00033E0321548F580E190E00E94F108888100
:1034C0000E94C708811179C02196382298E02912FC
:1034D0001BC080E190E00E94F10888810E94C7082B
:1034E0005E01811173C0EFEFAE1ABE0A382280E18F
:1034F00090E00E94F108F50180810E94C708E50173
:1035000081116BC0219638220E94BB083320B9F18B
:103510008823A9F1312C020D131D820C931C99CF25
:103520004801689480F89F928F9284EB98E09F9373
:103530008F93BF92AF920E94860C0E94BB080F909F
:103540000F900F900F900F900F908823C1F0C4013F
:103550000E94D908882399F084E10E94AF0888234B
:1035600071F08FEF0E94C708882349F00E94BB08C2
:10357000882329F080E00E94AF08811160CFC60146
:10358000DF91CF911F910F91FF90EF90DF90CF903F
:10359000BF90AF909F908F907F906F905F904F9073
:1035A0003F902F9008955E01F2E0AF0EB11C89812B
:1035B0000E94C708382EE50179CF5E0182E0A80E8F
:1035C000B11C89810E94C708E5017FCFF2E0AF0EF0
:1035D000B11C89810E94C70889CF2296F50181819B
:1035E0000E94C70890CF80E00E94AF08C82ED12C5F
:1035F000C6CF0F931F93CF93DF930091E560109197
:10360000E660102701271027C091E760D091E8609D
:10361000DC27CD27DC27DF93CF931F930F938DE813
:1036200098E09F938F9383EB90E69F938F930E94F4
:10363000860CC8010E94D908EDB7FEB73896EDBFD9
:10364000FEBF0CED10E6C8018C5D90468C179D07FF
:1036500050F40E94D3080F5F1F4F882389F08DB369
:10366000F8018683F0CFBE0183EE90E60E942C0C19
:103670000E947A0CCE01DF91CF911F910F91089596
:10368000D0E0C0E0F7CFCF93DF93C091E560D09159
:10369000E660DC27CD27DC278091E260813079F578
:1036A000DF93CF938AE798E09F938F9383EB90E625
:1036B0009F938F930E94860C0E94BB080F900F90DF
:1036C0000F900F900F900F90811105C090E080E057
:1036D000DF91CF910895CE0181600E94D90888239F
:1036E000A9F380E10E94AF08882381F38FEF0E9445
:1036F000C708882359F30E94BB0890E0E9CFDF9305
:10370000CF9384E698E09F938F9383EB90E69F930B
:103710008F930E94860C0E94BB080F900F900F9011
:103720000F900F900F90882389F2CE0181600E9444
:10373000D908882359F284E1D5CF1F920F920FB692
:103740000F9211242F933F934F935F936F937F9327
:103750008F939F93AF93BF93CF93EF93FF93C091BA
:103760000108209100088C2F8674A9F4F29928C0D2
:1037700082EF93E6E091756431E03E0F309375641B
:10378000E80FF92FF11D2083809175648034D8F4FF
:103790008EE1809372648CB3C82BCCBBFF91EF9108
:1037A000CF91BF91AF919F918F917F916F915F91D9
:1037B0004F913F912F910F900FBE0F901F90189532
:1037C00082E394E6D7CF0E94CB05E5CF1124109277
:1037D000000B81E08093060B62E070E083EC90E6E2
:1037E0000E9486298FB7F8941092000B1092050B57
:1037F0009FEF9093060B8FBF18950F931F93CF9356
:10380000DF93CDB7DEB72897CDBFDEBF8D839E8314
:103810006B837C834F83588719821A8289819A81AE
:10382000892BE1F583EC90E60E946629892B09F04B
:103830003FC089E498E09F938F9303EB10E61F93BA
:103840000F930E94860C0F900F900F900F909FB7D0
:10385000F89410920A0B10920B0B2F81388520934D
:103860000C0B30930D0B81E08093050B8093060BBE
:103870008FE08093000B9FBFED81FE8109958983C6
:103880009A83B0DF89E598E09F938F931F930F93FE
:103890000E94860C0F900F900F900F9089819A8153
:1038A0002896CDBFDEBFDF91CF911F910F91089574
:1038B00099DF24E538E03F932F93E3EBF0E6FF93A5
:1038C000EF930E94860C0F900F900F900F908B81BA
:1038D0009C81892B19F3A895EB81FC810995892B93
:1038E00009F09CCFDBCF1F920F920FB60F921124DD
:1038F0008F938FEF8093C701F79A8F910F900FBE30
:103900000F901F9018951F920F920FB60F921124CF
:103910008F938FEF87BBF69A8F910F900FBE0F900A
:103920001F901895E3EBF0E680E298E082839383A2
:1039300084EA90E68083918388E99AE08583968380
:103940000895CF93DF93CDB7DEB72797CDBFDEBF06
:1039500057E35CB9639A98E0D92ED0921204D092C2
:103960001304D09210048CE080931104109214047C
:1039700094E0909316043AE03093B60484E8809380
:10398000B2048093740486E08093B80420E320930B
:10399000180423E0E22EE092E705D092100229E01D
:1039A0002093110221E12093120222E120931302BD
:1039B00041E4409314022AE42093150290932B02D1
:1039C0008093200225E020932202E0923202FF241D
:1039D000F394F092310262E06093CB01E092C9016E
:1039E0007BE27093C8016093C501E092CF015093D0
:1039F000CD01F092CC019093D70190EA9093D5013C
:103A00004093D4018093D3013093D20199E39093F2
:103A1000D101F092D001F092C00141E652E0409312
:103A20001C0B50931D0BF092140B8093110B2093E1
:103A3000100B84E780935601F09250010E94010917
:103A40008093BE609093BF6003EB10E68091B860F6
:103A50009091B960FC01A591B4912C91FC01329632
:103A600034913196E49123232E2B2C93FC01349630
:103A7000A591B491FC013696E4911196EC931197BF
:103A8000FC013796E4911296EC93FC013896A591CF
:103A9000B491DC92E091B560F091B66080EA90E07C
:103AA000808791871582E78280EC86832FEF3EE93D
:103AB00044E2215030404040E1F700C0000083ED77
:103AC00097E09F938F931F930F930E94860CFF9212
:103AD00081E38F938DE28F931F9285EC97E09F9304
:103AE0008F931F930F930E94860C85EA97E09F9314
:103AF0008F931F930F930E94860C1F9286E68F93DD
:103B000081E997E09F938F931F930F930E94860CF8
:103B10008FE697E09F938F931F930F930E94860CDD
:103B20008091B5609091B6600E9417060E94B71010
:103B3000CDBFDEBF8091010180FDFCCF88ED98E014
:103B400084BF909300018FEF87BB8093C701789467
:103B50000E94180F9FE1E1EAF7E09150E040F04049
:103B6000E1F700C000002FE131EA47E0215030408A
:103B70004040E1F700C000008091AB60833011F05D
:103B80000E94210F1092030C8091000C0E94621081
:103B900083E697E09F938F9383EB90E69F938F93B9
:103BA0000E94860C0F900F900F900F90DD24D394FD
:103BB00003EB10E6B0E88B2EB5E29B2EA12CB12CC6
:103BC00066246394712CCE0105968D839E83DD203F
:103BD00019F0A895DD24D394F0900A0CF0920A0C09
:103BE000F7FE14C080917264882381F08091726422
:103BF000815080937264811109C08091B86481FF03
:103C000005C08091756481110E94CB058F2D80764F
:103C1000C1F0F09B14C08091010C8E7F8093010C49
:103C2000F098A8959FE1E1EAF7E09150E040F0407C
:103C3000E1F700C000001092000C0E940A0D689489
:103C4000F4F8F4FE0DC08091AB60833011F00E9457
:103C5000210F1092030C8091000C81110E946210C0
:103C60008091806484FF06C1F0905A6380918264E1
:103C70009091836420918064309161633F9330918F
:103C800060633F9330915F633F9330915E633F93F6
:103C900030915D633F9330915C633F9330915B6300
:103CA0001F923F931F92FF929F938F931F922F9388
:103CB00026EA32E03F932F931F930F930E94860CC6
:103CC000CDBFDEBFF7FE0E940B068F2D807609F078
:103CD00017C280915B6381110FC0109262631092D2
:103CE000636382E090E080938A6490938B640E9487
:103CF000FF050E940B06B9C0813079F580915F63A2
:103D00008F9380915E638F9380915D638F93809199
:103D10005C638F9387E692E09F938F931F930F933B
:103D20000E94860CCDBFDEBF80915C63811110C004
:103D3000E0915E63E29580910B0C82FDFCCFF0E098
:103D4000F595E795F595E795E05CF34F8BE080837B
:103D500010928A6410928B64CACF8430D9F4809117
:103D60005F638F9380915E638F9380915D638F9388
:103D700080915C638F9387E592E09F938F931F936D
:103D80000F930E94860C10928A6410928B64CDBFB0
:103D9000DEBFADCF8530A1F480915C63F82EE8944E
:103DA000F7F80E94FF058091886481FFFCCFF092B4
:103DB000030C1F92FF9287E492E09F938F9374C14C
:103DC000863009F045C1309160633F83C0906163E4
:103DD00080915C6390915D63913009F056C042E13F
:103DE00050E068E072E082E693E60E94A6298091A6
:103DF000001490910114A0910214B09103148F3F0C
:103E00004FEF9407A407B40741F080936A6390933F
:103E10006B63A0936C63B0936D6380916D638F93BC
:103E200080916C638F9380916B638F9380916A63B1
:103E30008F9383EF91E09F938F931F930F930E9433
:103E4000860CCDBFDEBF72E1E72EF12C8F819C2D59
:103E5000E816F90608F4C70197017C01E0928A642C
:103E6000F0928B64232B09F042CF80910B0C84607D
:103E700080930B0CF09923C2B699A9CE84E080936D
:103E800000028EB38F718EBBA2CE923009F4C3C0F4
:103E9000963009F4CBC0913209F4CEC0923209F4C5
:103EA000D1C08115E3E09E0779F484E080936263DA
:103EB00093E09093636399E0909364638093656368
:103EC00064E0E62EF12CC2CF8230F3E09F0751F17F
:103ED00068F474E3E72EF12C67E271E081309340DF
:103EE00081F0F12CE12C70E060E00BC0833098078A
:103EF000F9F048E1E42EF12C69EC70E08430934055
:103F000081F7E092626383E080936363A70142508C
:103F1000510984E693E6E114F10409F084C030E02D
:103F200020E09CCF56E4E52EF12C61EE70E0E9CF65
:103F30004091041450910514609106147091071477
:103F400049835A836B837C834F3FFFEF5F076F0783
:103F50007F0751F5E0E8F0E1CF010196208142278B
:103F600028E01A012B015694479437942794417006
:103F700055276627772770956095509541955F4F37
:103F80006F4F7F4F40725378687B7D7E422553256B
:103F900064257525215029F7FC01803A9041E1F60E
:103FA00049835A836B837C8386E18093626383E0D9
:103FB000809363638DE4809364631092656388E506
:103FC0008093666310926763E8E6F3E6DE0111967C
:103FD0008D91282F30E094E0359527959A95E1F75B
:103FE00090E3920F9A3310F097E3920F908311822F
:103FF0008F7090E3980F9A3310F097E3980F9283A5
:10400000138234968D819E818A179B0709F7E6E11A
:10401000EE2EF12C1BCF6BE6E62EF12C6EE771E055
:10402000A70182E693E60E94A62910CF5AE0E52E6A
:10403000F12C69EE71E0F4CF49E0E42EF12C60E957
:1040400071E0EECF33E2E32EF12C6BE571E0E8CFC7
:104050008830C9F480917364809362631F928F9358
:104060008BE392E09F938F931F930F930E94860C94
:1040700060928A6470928B640F900F900F900F90F3
:104080000F900F9034CE8930C1F480915C6380939F
:104090007364F09A0E942A0F809173641F928F9329
:1040A000EFE2F2E0FF93EF931F930F930E94860CD1
:1040B00010928A6410928B64DFCF8A3099F486E282
:1040C00092E09F938F931F930F930E94860C109200
:1040D000626360928A6470928B640F900F900F906D
:1040E0000F9005CE8B3009F0C0CE80915D638F9329
:1040F00080915C638F932AE132E03F932F93D4CF7A
:10410000803209F0B2CE80915B638A3059F480919D
:104110005C6390915D6399279F938F938AE992E006
:104120009F934CCE8032E1F58091806481FFFCCF7B
:1041300047E050E062E673E68CEA90E60E94BC2C11
:10414000892B91F08091B06481FD0E94BA050E9494
:10415000B71087E0E2E6F3E6ACEAB0E601900D9234
:104160008A95E1F70E944F0F24E932E03F932F93A5
:104170001F930F930E94860C67E070E08CEA90E634
:104180000E942C0C0E947A0CF49A10927564109282
:1041900074641092726410928A6410928B649DCF42
:1041A0008132B9F587E0ECEAF0E6A2E6B3E60190E9
:1041B0000D928A95E1F78091626390916363A0917B
:1041C0006463B0916563892B8A2B8B2B59F48092A1
:1041D000626390926363A0926463B092656388E0C7
:1041E000809368638EE892E09F938F931F930F9361
:1041F0000E94860C67E070E082E693E60E942C0C39
:104200000E947A0C87E090E080938A6490938B649C
:1042100064CF823211F580915C6390915D63992740
:104220009F938F9322E832E03F932F931F930F9336
:104230000E94860C80915C639091AA600F900F9011
:104240000F900F900F900F9090FD04C080FF02C060
:10425000F79AF69A8093AA607BCD833209F005CE57
:1042600080915D638F9380915C638F9387E792E089
:104270009F938F931F930F930E94860C80915C6392
:1042800090915D6380937664909377640F900F9024
:104290000F900F900F900F90892B71F0F19B0AC037
:1042A000F39908C0F4981092726480910608811105
:1042B0000E94A010F39A4CCD0E941A1049CDF89993
:1042C0001FC0F79B69C0F5991AC00E94180F019A88
:1042D0008EE290E60E9422108EEC92E09F938F93E4
:1042E0001F930F930E94860C8091B5609091B660E9
:1042F0000E941706F59A0F900F900F900F90F79865
:10430000F19B95C0F39914C08091040885FF10C0FB
:104310008091B06481FF0CC0F19B0AC02091B2640F
:104320003091B36480917464821362C00E94BA05B4
:10433000F39B28C080917664909177649C012F5FF5
:104340003F4F22303105F0F08530910508F474C0FC
:104350002091A86421FF16C00497809376649093FF
:1043600077648AE090E08093AA649093AB641092A3
:10437000AE641092AF6480910B0C82FDFCCF8EEF87
:1043800080934A0C8091A06481FD5DC0F99B1FCC95
:10439000F699D12CF6981BCCF69BB2CFF59B24C096
:1043A0008CE390E60E9422100198FFE121EA37E0B9
:1043B000F15020403040E1F700C0000089ED92E06C
:1043C0009F938F931F930F930E94860C8091B560EB
:1043D0009091B6600E9417060F900F900F900F906B
:1043E000F09B2BCC0E942A0F8EB38F718EBB88CF8F
:1043F0004091B2645091B364282F30E0F12C421701
:10440000530739F08F5F809374642E543C49F9014F
:10441000F0808091B2649091B36420917464281705
:10442000190611F40E94BA05F092020881CF80911A
:10443000B06481FF7DCF7ACF10927664109277645A
:104440000E941A109FCF90917263809173632091A4
:10445000986421FFFCCF903809F0DAC0F82FFF7084
:104460004F2E29E02F1778F482E093E09F938F93EB
:104470001F930F930E94860C109273630F900F90FE
:104480000F900F9028C090E024E0959587952A958D
:10449000E1F7382EC090756331E0831302C01092AB
:1044A000BA6001972CE3289F7001299FF00C11241A
:1044B0005090BA6053945092BA60D12CA60166E72E
:1044C00073E6C70184529F490E94C92C81E0809302
:1044D0007363431411F0E12C0CC0EC0CFD1CE09252
:1044E000F862F092F962451090C01092C160EE241B
:1044F000E39480E490E080939A6490939B6410929C
:104500009E6410929F6480910B0C82FDFCCF8EEF15
:104510008093460C1092A2641092A36480910B0CBD
:1045200082FDFCCF8EEF8093480CEE2009F451CB36
:10453000F090E0608091E4601F928F938091E3603F
:104540001F928F938091E1601F928F931F92FF9231
:104550008091F9628F938091F8628F938091DF60F0
:104560008F938091DE608F9388E397E09F938F9382
:104570001F930F930E94860CCDBFDEBF91E0F9120E
:1045800029C18091E1604090E3605090E4603090F8
:10459000E560823009F0E4C0E32CF12CC52CD12C6D
:1045A0001F923F921F925F921F924F9280E893E07A
:1045B0009F938F931F930F930E94860CCDBFDEBFF6
:1045C000411091C0B60165587C4FA70183EE90E67B
:1045D000BDD681E793E09F938F931F930F930E9423
:1045E000860CB70183EE90E60E942C0C0E947A0C98
:1045F0000F900F900F900F9084E891E08093E1600E
:104600009093E260C701019643C284EF92E02ECFFF
:104610009138E9F5109274639091C16091110DC0C9
:1046200085EE92E09F938F931F930F930E94860CC9
:10463000109273631092756321CF8091C2602CE356
:10464000829FF0011124E352FF49A6E7B3E60190EF
:104650000D922A95E1F78F5F8093C26040E1849FBD
:1046600090011124292B209373632091F8623091DB
:10467000F962981751F08CE3809375632C533109DC
:104680002093F8623093F96226CF822FF5CF9111F3
:104690001CC08F3F21F095E0980F923048F482E0E3
:1046A0008093736380E4809374631092756313CF77
:1046B000813F09F010CF82E08093736380E880939C
:1046C000746381E08093756306CF923009F403CF61
:1046D000913031F4882309F4FECE10927363FBCE3F
:1046E0009330D9F7F8CEF1E04F1286CF852D8F7D2C
:1046F000F9F40E9401098093BE609093BF609F937C
:104700008F9383E693E09F938F931F930F930E9461
:10471000860C8091BE609091BF608093E36090931F
:10472000E4600F900F900F900F900F900F9064CF58
:104730001F923F921F925F928DE493E09F938F931D
:104740001F930F930E94860C652D677070E06B5B62
:104750007C4FA70183EE90E6F9D5CDBFDEBF4CCFED
:104760008031E1F486E393E09F938F931F930F933F
:104770000E94860C1FBA1092DB6010925663F09272
:10478000C06080E890E08093E1609093E2600F90D9
:104790000F900F900F9090E080E07AC1813149F442
:1047A00086E293E09F938F931F930F930E94860C52
:1047B000E8CF1F923F921F925F921F924F9280E12B
:1047C00093E09F938F931F930F930E94860CCDBF0E
:1047D000DEBFE1CF92E1F912CEC38091E160D090CB
:1047E000E360C090E4605090E560813009F0D4C08F
:1047F000E52DF0E0E452FF491286E090E660F0908B
:10480000E760FF92EF921F925F921F92CF921F92EA
:10481000DF928FEC95E09F938F931F930F930E94ED
:10482000860CCDBFDEBFD1103BC0C11031C0FF929E
:10483000EF9282EC95E09F938F931F930F930E94CA
:10484000860CE09256630F900F900F900F900F9090
:104850000F90F3E0EF1201C0049A81EE90E025E0A2
:10486000E216F10411F084EC99E080935763909381
:1048700058638093BC609093BD609F938F9387EB48
:1048800095E09F938F931F930F930E94860C19C0FE
:1048900031E0C31246C0FF92EF9282EA95E0F1CF79
:1048A00041E0D41245C0C11013C0FF92EF928FE8CF
:1048B00095E09F938F931F930F930E94860CE09235
:1048C000BB600F900F900F900F900F900F9029C02A
:1048D00081E3C81226C094E6E916F10418F494E6C0
:1048E000E92EF12C8091576390915863E816F906F0
:1048F00081F09F938F9380E895E09F938F931F9310
:104900000F930E94860C0F900F900F900F900F90B6
:104910000F90E092BC60F092BD60E0925763F0921D
:10492000586380E890E08093E1609093E26033CF39
:10493000E2E0DE1216C0C110F4CF1F925F928FE644
:1049400095E09F938F931F930F930E94860C452DA4
:104950004F7350E066EE70E68AEF92E60E94C92C33
:10496000B0CFF3E0DF12DDCF26E0C2120DC0FF9220
:10497000EF928EE595E09F938F931F930F930E9484
:10498000860CE092DB609DCF37E0C312CACFFF9266
:10499000EF928DE495E075CF823009F051C0E52C9F
:1049A000F12C1F925F921F92CF921F92DF9289E2A9
:1049B00095E09F938F931F930F930E94860CCDBF1A
:1049C000DEBFD11013C0C11017CE809156631F9265
:1049D0008F938CE195E09F938F931F930F930E9489
:1049E000860C809156638093E3609BCE91E0D91250
:1049F00003CEC1100FC08091BB601F928F9389E0DE
:104A000095E09F938F931F930F930E94860C809144
:104A1000BB60E9CFE1E3CE12EFCD809158638F9375
:104A2000809157638F938EEF94E09F938F931F93A2
:104A30000F930E94860C80915763909158636DCEBE
:104A400090915663933009F021C18031C9F51F92CE
:104A5000DF9285E294E09F938F931F930F930E94C0
:104A6000860C40E253E069E57DE086E996E10E942C
:104A7000FD1B0F900F900F900F900F900F900097CD
:104A800009F4DBC024E830E02093E1603093E26079
:104A90009C012A5F3F4F2093F8623093F962109295
:104AA000C2608F5B9F4F6CE370E007D76093C1607B
:104AB0008EE08093DD6024523F49F901108289C85D
:104AC0008131C1F585E194E09F938F931F930F93FC
:104AD0000E94860C40E253E070E060E087E39AE0D9
:104AE0000E94FD1B7C0183EF91E00197F1F700C06C
:104AF00000000E94B7100498109216040E98069AAF
:104B00000F900F900F900F90F99B0AC061E081E029
:104B10000E947C16E3EDF0E33197F1F700C000004E
:104B200006981FBA0E944F0FC7019927009709F4F2
:104B300084C02EC08531E1F483E094E09F938F938D
:104B40001F930F930E94860C40E253E069E57DE0DD
:104B500082E29DE00E94FD1B0F900F900F900F903E
:104B6000892B09F00FC1EFB2FE2DF170EF2E0AC1B3
:104B7000863189F481EF93E09F938F931F930F9376
:104B80000E94860C0F900F900F900F9081E090E0A4
:104B900020E830E079CFF99BD4C1803209F58091CB
:104BA000E7608F938091E6608F938091E5608F93AB
:104BB0008091E4608F931F92DF9289ED93E09F9341
:104BC0008F931F930F930E94860C40E253E069E598
:104BD0007DE087E99AE00E94FD1BCDBFDEBFA6CF36
:104BE000813271F58091E9608F938091E8608F93B5
:104BF0008091E7608F938091E6608F938091E5606C
:104C00008F938091E4608F931F92DF928DEB93E0FE
:104C10009F938F931F930F930E94860C40E253E063
:104C200069E57DE08EE49EE00E94FD1BCDBFDEBF06
:104C300024E831E0009709F027CF20EA30E024CFC4
:104C4000833209F07EC18091E9608F938091E860A2
:104C50008F938091E7608F938091E6608F9380912E
:104C6000E5608F938091E4608F931F92DF9280EADA
:104C700093E09F938F931F930F930E94860C40E2C3
:104C800053E069E57DE08FE79DE0A5CF953009F021
:104C90005BC1803109F044C01F92DF9288ED94E03F
:104CA0009F938F931F930F930E94860C0F900F90EA
:104CB0000F900F900F900F90F59904C08091DB60DA
:104CC000882369F08091BC609091BD608E3791051A
:104CD00030F08DE790E08093BC609093BD60809150
:104CE000BC609091BD6080935763909358638091AE
:104CF0005763909158638436910508F422C140EAC5
:104D000050E070E060E084EF97E10E94FD1B0097A7
:104D100009F0B8CE80915763909158634997E3CFDB
:104D20008131B1F587EC94E09F938F931F930F939C
:104D30000E94860C0F900F900F900F90F89B25C04B
:104D400040E253E070E060E085E596E00E94FD1BE4
:104D5000E82E0E945C0883EF91E00197F1F700C014
:104D600000000E94B710019A61E081E00E947C1669
:104D7000E3EDF0E33197F1F700C0000001981FBAAE
:104D80000E944F0F8E2D90E0D1CEEE24E394E1CF20
:104D9000853179F484EB94E09F938F931F930F9365
:104DA0000E94860C4AEF50E066E978E087E491E1E2
:104DB000D1CE8631C9F481EA94E09F938F931F93FB
:104DC0000F930E94860C809158638F938091576354
:104DD0008F9381E994E09F938F931F930F930E9489
:104DE000860CCDBFDEBFD2CE8032F9F48091E76071
:104DF0008F938091E6608F938091E5608F9380918F
:104E0000E4608F931F92DF9288E794E09F938F93E3
:104E10001F930F930E94860C40E253E066E978E00E
:104E20008091526390915363D6CEF89B8AC08132B1
:104E300009F060C08091E9608F938091E8608F9362
:104E40008091E7608F938091E6608F938091E56019
:104E50008F938091E4608F931F92DF928BE594E0B3
:104E60009F938F931F930F930E94860C8091E36012
:104E7000E090E860F090E960CDBFDEBF833D99F43B
:104E80008091E4608F7190E0A701415051094F710A
:104E900055274F5F5F4F6EE273E68D519F4979D57D
:104EA000C7010196C5CEF99B0BC040E951E066E908
:104EB00078E080915063909151630E94FD1BB8CEC1
:104EC000843B89F480912E63882369F09EE190935E
:104ED000E360803209F481E48093E4608091386378
:104EE0008093E560DDCFA7016FEF70E083EE90E681
:104EF00059D5D6CF833229F58091E9608F9380917F
:104F0000E8608F938091E7608F938091E6608F9344
:104F10008091E5608F938091E4608F931F92DF9280
:104F20008DE394E09F938F931F930F930E94860CC1
:104F300040E253E066E978E08091546390915563D4
:104F40004ACE90E080E079CE1F929F9381EF94E06B
:104F50009F938F931F930F930E94860C80EA90E09B
:104F60008093E1609093E2600F900F900F900F900C
:104F70000F900F9010CCF4E1FF122FC18091E160EF
:104F8000813009F03FC083EA96E09F938F931F938F
:104F90000F930E94860C0E9401098093BE6090933B
:104FA000BF609F938F9385E996E09F938F931F93A4
:104FB0000F930E94860C1092566340E253E070E01B
:104FC00060E08EEE96E10E94FD1B7C01CDBFDEBF4E
:104FD00081E0E114F10409F080E08093E260FF9247
:104FE000EF9280E096E09F938F931F930F930E9420
:104FF000860CC70101960F900F900F900F900F90A5
:105000000F9046CD823009F043C08FE796E09F9322
:105010008F931F930F930E94860C0F900F900F9009
:105020000F90F89B20C080EC0E943106882319F075
:1050300080E00E94AE088CE190E00E94F108FE9BA7
:1050400012C01092010A1092000A6998FE9884EF2B
:1050500095E09F938F931F930F930E94860C0F9060
:105060000F900F900F900298019861E081E00E94EC
:105070007C1683ED90E30197F1F700C000001FBAA2
:105080000E94B7100E944F0FEE24E394F12CA0CFA2
:105090008730D1F3863079F484E796E09F938F933D
:1050A0001F930F930E94860C0F900F900F900F90FC
:1050B000F12CE12C8DCFF89BFBCF853049F5209169
:1050C000E7603091E8603227232732276091E36060
:1050D0007091E4608091E5609091E66040D43F93E8
:1050E0002F939F938F937F936F938091E2601F9292
:1050F0008F938AE596E09F938F931F930F930E945F
:10510000860C40E253E070E060E089EF9AE15BCF0B
:105110002091BE603091BF602836F0E13F0778F4FF
:105120003F932F931F928F9381E496E09F938F93E9
:105130001F930F930E94860CCDBFDEBFB9CF833083
:1051400001F56091E3607091E4608091E560909179
:10515000E66005D49F938F937F936F938091E26075
:105160001F928F9389E296E09F938F931F930F93E3
:105170000E94860C40E253E070E060E083E49BE133
:1051800022CF843009F094CF2091E8603091E9601B
:105190003227232732276091E4607091E560809187
:1051A000E6609091E760DBD33F932F939F938F93BB
:1051B0007F936F938091E2601F928F938EE096E0D1
:1051C0009F938F931F930F930E94860C40E253E0AE
:1051D00070E060E08DEB99E1F6CEF0E2FF126BC07B
:1051E0009091E160C090E360D090E4608091E560D0
:1051F0009130C1F5E090E660F090E760FF92EF92A9
:105200001F928F931F92DF921F92CF9283E097E0BD
:105210009F938F931F930F930E94860CCDBFDEBF89
:10522000C1107FCB30E1D3127CCBFF92EF928EEE98
:1052300096E09F938F931F930F930E94860CE092AA
:10524000C06060E081E00E947C160F900F900F908C
:105250000F900F900F90EF2809F463CB80E00E942D
:105260005B165FCB923009F096CAE82EF12C1F92A4
:105270008F931F92DF921F92CF928EEC96E09F93B6
:105280008F931F930F930E94860CCDBFDEBFC1107A
:10529000B3C990E1D912B0C98091C0601F928F93B9
:1052A00089EB96E09F938F931F930F930E94860C38
:1052B0008091C06098CB1F92FF9288E297E09F9305
:1052C0008F931F930F930E94860C4ECEDC012D927C
:1052D0003D924D925D926D927D928D929D92AD9296
:1052E000BD92CD92DD92ED92FD920D931D93CD93E3
:1052F000DD93FF91EF918DB78D938EB78D938FB71F
:105300008D93ED93FD93882799270994DC01CB01B8
:1053100081309105811D2D903D904D905D906D9057
:105320007D908D909D90AD90BD90CD90DD90ED9055
:10533000FD900D911D91CD91DD91ED91FD910D901F
:105340000FBEEDBFFEBFED91FD910994FB01DC01A5
:1053500002C005900D9241505040D8F70895CF9368
:10536000DF93EC018B8188608B83CE0106D02B818B
:10537000277F2B83DF91CF910895ABE0B0E0E2EC83
:10538000F9E26AC27C013B018A01FC0116821782A4
:10539000838181FFBAC1CE0101965C01F70193813F
:1053A000F30193FD859193FF81913F01882309F4D7
:1053B00049C1853239F493FD859193FF81913F0175
:1053C000853221F4B70190E0B9D1E8CF912C212C9E
:1053D000312CFFE1F31538F08B3211F190F480326B
:1053E00009F1833229F137FC3CC020ED280F2A3027
:1053F00050F536FE20C08AE0989E200D1124922E92
:1054000006C08D3291F0803371F7689430F8F30163
:1054100093FD859193FF81913F018111DACF21C0E6
:10542000689431F8689432F8F2CF689433F8EFCF8B
:10543000689434F8ECCFEAE02E9E200D1124222E41
:10544000689435F8E4CF8E3229F436FCFBC06894BA
:1054500036F8DDCF8C3619F4689437F8D8CF883613
:10546000B1F2982F9F7D95549330D8F0833691F107
:105470008337B1F1833509F05EC02801F2E04F0EA9
:10548000511CF801C080D180692D70E036FC02C04B
:105490006FEF7FEFC6013CD14C01689437F8820171
:1054A0000AC00C5F1F4FFFE3F98388248394912C7B
:1054B0006501E89437F833FE2AC0522C8114910418
:1054C00059F5552009F46ACFB70180E290E036D152
:1054D0005A94F7CFF801808189830E5F1F4FE5CF83
:1054E0002801F2E04F0E511CF801C080D180692DD7
:1054F00070E036FC02C06FEF7FEFC60114D14C01A3
:105500008201D7CFB70180E290E018D12A94281405
:10551000190409F0B8F7D1CFF60137FC859137FEB1
:1055200081916F01B70190E009D151105A94F1E0D7
:105530008F1A9108C3CF843619F0893609F073C0E9
:10554000F80137FE67C060817181828193810C5FB1
:105550001F4FF32DFF763F2E97FF09C09095809542
:10556000709561957F4F8F4F9F4F689437F82AE071
:1055700030E0A50113D1C82ECA188C2C432C36FE5E
:105580000CC0E89440F8C91440F434FE05C032FC65
:1055900003C0F32DFE7E4F2E892C44FE90C0FE01E9
:1055A000EC0DF11D8081803309F082C0242D297E0D
:1055B000422E842D8870582E43FC8FC040FE89C037
:1055C0009C2C821418F42C0C922C981844FE8BC03E
:1055D000B70180E390E0B2D042FE08C088E790E0D7
:1055E00041FE02C088E590E0B701A8D0C91408F4D4
:1055F00086C0CA94D12C9FEFC91AD90ACA0CDB1CE9
:10560000F60182916F01B70190E098D0AC14BD040F
:10561000B9F757CF60817181072E000C880B990B69
:105620000E5F1F4F96CFD32CE894D4F82AE030E0D9
:10563000853731F1232D297FD22E8F36F9F040F4B2
:105640008835A1F0F701868197812B96E2E11DC193
:10565000803749F08837B1F7D4FE02C06894D2F899
:1056600020E130E00DC06894D4F8F6CF34FE03C0DA
:10567000822F8660D82E20E132E002C028E030E0A0
:10568000F801D7FE0EC060817181828193810C5F29
:105690001F4FA50183D0C82ECA183D2CE89437F8B7
:1056A0006CCF6081718190E080E00E5F1F4FF1CF81
:1056B00042FC02C083947DCF839483947ACF842D5F
:1056C000867809F476CFF6CFB70180E290E036D045
:1056D00083948214C8F3512C79CF522C5818821419
:1056E00008F474CFF8CF842D867809F47FCF8BE24D
:1056F00041FE80E247FC8DE2B70190E076CFB70132
:1057000080E390E01BD09A9471CF8FEF9FEF9DCFF5
:10571000FC010590615070400110D8F7809590957C
:105720008E0F9F1F0895FC01615070400190011081
:10573000D8F7809590958E0F9F1F08950F931F9314
:10574000CF93DF93182F092FEB018B8181FD09C0C7
:105750001FEF0FEF812F902FDF91CF911F910F91AE
:10576000089582FF14C02E813F818C819D8128176E
:1057700039073CF4E881F981CF0101968883998348
:1057800010838E819F8101968E839F83E3CFE8856E
:10579000F985812F0995892BA1F3DACFFA01AA2780
:1057A000283051F1203181F1E8946F936E7F6E5F64
:1057B0007F4F8F4F9F4FAF4FB1E03ED0B4E03CD012
:1057C000670F781F891F9A1FA11D680F791F8A1FF5
:1057D000911DA11D6A0F711D811D911DA11D20D05C
:1057E00009F468943F912AE0269F11243019305D16
:1057F0003193DEF6CF010895462F4770405D419307
:10580000B3E00FD0C9F7F6CF462F4F70405D4A3353
:1058100018F0495D31FD4052419302D0A9F7EACF1B
:10582000B4E0A6959795879577956795BA95C9F74A
:1058300000976105710508959B01AC010A2E06943D
:105840005795479537952795BA95C9F7620F731FF6
:10585000841F951FA01D08952F923F924F925F9233
:105860006F927F928F929F92AF92BF92CF92DF9270
:10587000EF92FF920F931F93CF93DF93CDB7DEB7D5
:10588000CA1BDB0BCDBFDEBF09942A883988488844
:105890005F846E847D848C849B84AA84B984C8844C
:1058A000DF80EE80FD800C811B81AA81B981CE0F43
:1058B000D11DCDBFDEBFED010895AA1BBB1B51E179
:1058C00007C0AA1FBB1FA617B70710F0A61BB70B70
:1058D000881F991F5A95A9F780959095BC01CD0115
:1058E0000895A1E21A2EAA1BBB1BFD010DC0AA1F21
:1058F000BB1FEE1FFF1FA217B307E407F50720F039
:10590000A21BB30BE40BF50B661F771F881F991FB3
:105910001A9469F760957095809590959B01AC01FC
:10592000BD01CF010895052E97FB16F400940FD00A
:1059300057FD05D0D6DF07FC02D046F408C05095CD
:105940004095309521953F4F4F4F5F4F089590956B
:105950008095709561957F4F8F4F9F4F0895692770
:10596000962769277827872778270895EE0FFF1F46
:105970000590F491E02D0994FB01DC0104C08D91A8
:105980000190801921F441505040C8F7881B990BB1
:105990000895FB01DC0102C001900D92415050407E
:1059A000D8F70895DC0101C06D9341505040E0F7F5
:0659B0000895F894FFCFFA
:1059B6004C000000000C00000000A10000006B007D
:1059C6000000005508000000005548000000005582
:1059D600A0005504556A00000000003020000000B9
:1059E6000000FFFF7F557EC87F59FEFF7F557EC8AA
:1059F6007F00FE7F557EC37E04FFC205C15982C06B
:105A060002C100E0FF88D8CD45AB891255C21D55AD
:105A160087558B55E020676F72504D564E55E065A1
:105A2600736172454D564E55E065742673554D5655
:105A36004E55C72055CA0355C21555E655C8595582
:105A4600C30855C215558255C85955C80055C304D3
:0A5A560000000000A9050D0A000081
:00000001FF
