:02000004008179
:020000040000FA
:200000008BC60000CCC60000CAC60000C8C600000C941321C4C60000C2C60000C0C6000073
:20002000BEC60000BCC60000BAC60000B8C60000B6C60000B4C60000B2C60000B0C60000D8
:20004000AEC60000ACC60000AAC600000C947B20A6C60000A4C60000A2C60000A0C600006B
:200060000C94C2239CC600009AC6000098C6000096C6000094C6000092C6000090C6000077
:200080008EC600008CC6000055504449344156522D55534220312E33352E35322048414CE3
:2000A0002F41565244555F434E414E4F2E680020522F0020532F00204D3D24253034582C0D
:2000C000204C3D25642C20543D24253032580D0A00204D3D24253034582C204C3D25642CBE
:2000E00020543D24253032580D0A00204D3D24253034582C204C3D25640D0A00204D3D2443
:20010000253034582C204C3D25640D0A002050474D204F4B0D0A002058434B3D25643E2585
:20012000642C253032580D0A002053504920427573204661696C0D0A00204661696C0D0A7D
:2001400000204953505F524553204C3D25640D0A202000204953505F434D445F3F5B253034
:2001600032585D0D0A00204953505F434D445F524541445F25730D0A00204953505F434DBE
:20018000445F50524F4752414D5F25730D0A00204953505F434D445F524541445F454550A3
:2001A000524F4D0D0A00204953505F434D445F50524F4752414D5F454550524F4D0D0A0046
:2001C000204953505F434D445F524541445F464C4153480D0A00204953505F434D445F5093
:2001E000524F4752414D5F464C4153480D0A00204953505F434D445F434849505F4552415A
:2002000053450D0A00204953505F434D445F4C4F41445F414444524553533D2425303458CA
:200220000D0A00205049435F524553204C3D320D0A202000205049435F434D445F474554C2
:200240005F53434B3D25640D0A002058434C4B3D25640D0A00205049435F434D445F53452C
:20026000545F53434B3D25640D0A00204953505F434D445F4C454156455F50524F474D4FCF
:2002800044450D0A00204953505F434D445F454E5445525F50524F474D4F44450D0A000DC2
:2002A0000A00204C3D25640D0A2020003C5245424F4F543E0D0A004300440043002D004117
:2002C0000043004D002F005600430050000000550050004400490034004100560052002DFA
:2002E000005500530042003A004100560052002D00440055003A0045004400420047002FB0
:200300000043004D005300490053002D0044004100500000004D0075006C007400690058F9
:20032000002E006A00700020004F005300530057002F004F005300480057002000500072F7
:20034000006F0064002E0000000600FF0901A101150026FF007508964000090181029640FB
:20036000000901910295040901B102C009026B000301008032090400000203000000092162
:20038000110100012223000705020340000107058103400001080B010202020104090401B5
:2003A0000001020201000524001001042402060524060102052401030207058203100004C7
:2003C00009040200020A00000007050302400000070583024000000A060002EF020140009C
:2003E00000205649443A5049443D253034583A253034580D0A0012010002EF020140D80470
:20040000150B0001010203013C47493A253032583E0D0A003C53493A303E0D0A003C534311
:200420003A253032583E0D0A003C47433A253032583E0D0A0020555342305F414444523D29
:2004400025640D0A002053463D253032583A253032580D0A002043463D253032583A2530A3
:2004600032580D0A002053423D253034580D0A0020534C533D253032580D0A0020474C45B4
:200480003D0020534C453D002049444C3D253032580D0A0052513D253032583A25303458D8
:2004A0003A253032583A253032583A253034583A253034583A253034580D0A003C5253546D
:2004C0003A4F55543E0D0A003C5253543A494E3E0D0A003C454442475F454D5054593E0DB3
:2004E0000A003C454442475F4641494C3E0D0A003C454442475F4641494C3E0D0A00203F57
:2005000047454E3D253032583A253032583A253032580D0A002047454E5F5349474E5F4F64
:2005200046460D0A000855504449344156522047454E5F5349474E5F4F4E0D0A009028006C
:20054000183800000020504859534943414C0D0A0020565441524745543D25640D0A00207D
:2005600056455352494F4E3D0000012334002047454E5F4745545F504152414D0D0A002C74
:20058000533D253032582C493D253032582C4C3D253032580D0A0020555044495F5752490D
:2005A00054453D253032583A2530366C583A253034580D0A0020555044495F524541443DC1
:2005C000253032583A2530366C583A253034580D0A0020555044495F45524153453D2530CE
:2005E00032583A2530366C580D0A00204C4153545F58434C4B3D25640D0A002055504449BD
:200600005F4C454156455F50524F470D0A0020555044495F454E5445525F50524F470D0A83
:200620000020555044495F5349474E5F4F46460D0A0020555044495F5349474E5F4F4E3D6C
:200640004558543A253032580D0A00205044495F57524954453D253032583A2530386C58EB
:200660003A253034580D0A00205044495F524541443D253032583A2530386C583A25303466
:20068000580D0A00205044495F45524153453D253032583A2530386C580D0A002050444964
:2006A0005F4C454156455F50524F470D0A00205044495F454E5445525F50524F470D0A0038
:2006C000205044495F5349474E5F4F46460D0A00205044495F5349474E5F4F4E3D45585485
:2006E0003A253032580D0A00204156525F434D443F5B253032585D20415243483D25640DA7
:200700000A00204156525F53544152545F44575F44454255473A415243483D25643A46413A
:20072000494C45440D0A00204156525F5349474E5F4F4E3A415243483D25640D0A00204159
:2007400056525F5349474E5F4F46463A415243483D25640D0A002058434C4B3D25640D0AC3
:200760000020434F4E4E454354494F4E3D253032580D0A00204745545F415243483D253027
:2007800032580D0A00204156525F4745545F504152414D455445520D0A002C533D25303216
:2007A000582C493D253032582C4C3D253032580D0A0020554E4C4F434B454E3D253032580A
:2007C0000D0A002048564354524C454E3D253032580D0A0020444556494345444553433D1D
:2007E00025580D0A00204649585F58434C4B3D25640D0A0020434F4E4E454354494F4E3DA3
:20080000253032580D0A0020534553535F505552504F53453D253032580D0A002058434CBD
:200820004B3D25640D0A00205345545F415243483D253032580D0A00204156525F53455480
:200840005F504152414D3D253034580D0A00204156525F5345545F504152414D3D253032AB
:20086000580D0A00204156525F5345545F504152414D0D0A002C533D253032582C493D255C
:200880003032582C4C3D253032580D0A003C4856433A4F46463E0D0A00203C5245533A25C7
:2008A0003032583E0D0A00205450495F57524954453D253032583A2530386C583A25640DBB
:2008C0000A00205450495F45524153453D253032583A2530386C580D0A00205450495F43C5
:2008E0004D443D25642C205654474C4F573D25640D0A00205450495F524541443D25303249
:20090000583A2530386C583A25640D0A00205450495F4352430D0A00205450495F4C454181
:2009200056455F50524F474D4F44450D0A0020565441524745543D25640D0A002054504922
:200940005F454E5445525F50524F474D4F44450D0A00205441524745545F504F5745523DD7
:20096000253032580D0A00204156525F4745545F504152414D0D0A00205441524745545F0C
:20098000504F5745523D253032580D0A00204156525F5345545F504152414D3D2530345855
:2009A0000D0A002C533D2530322C493D253032582C4C3D253032580D0A00203F3A53434F23
:2009C00050453D253032580D0A0053513D25643A25643E53434F50453D253032582C433DA2
:2009E00025303258003C57414954494E473E0D0A0048414C5F50524F46494C453D48414C1D
:200A00002F41565244555F434E414E4F2E680D0A005F5F4156525F415243485F5F3D256402
:200A20000D0A005F4156525F494F5858585F485F3D696F6176723634647533322E680D0A9F
:200A400000465F4350553D256C640D0A000A3C737461727475703E0D0A00204C3D253034E0
:200A6000582C413D2530386C582C00204C3D253034582C413D2530386C582C002046616916
:200A80006C0D0A0020205044495F4F4E3A4756414C3D253032580D0A0020204E564D505F43
:200AA0004F4E3A253032580D0A0020204661696C3A253032580D0A00204C45443D48420DB4
:200AC0000A00204C45443D25640D0A005B544F5D002053454354494F4E5F45524153453D9E
:200AE000253034580D0A0020434849505F45524153453D253034580D0A0020524541443D3D
:200B0000253034583A2564200020434F44455F57524954453D253034583A253032580D0A9E
:200B2000002053454354494F4E5F45524153453D253034580D0A002057524954453D25303F
:200B400034583A256420002055534152543D54504920424155443D253034580D0A00205369
:200B600049473E253034583A253032580D0A0020534B45590D0A003C4856454E3E00205008
:200B8000524F475F4B45593D002045524153455F4B45593D002050524F4753544152543DB0
:200BA000253032580D0A00203C5359533A253032583E0D0A002057414954002043484950DD
:200BC0005F4552415345002055524F575F4B45593D002052455F50524F4753544152543D3B
:200BE000253032580D0A003C5359533A253032583A25643E0D0A003C5359533A253032583F
:200C00003A25643E0D0A0020454E5445525F55524F573D2530346C583A253034580D0A00B6
:200C20002055534152543D555044492058434C4B3D256420424155443D253034580D0A000D
:200C4000204641494C3A253032582C253032580D0A00204E564D3A253032582C5349423DAC
:200C6000222573220D0A003C4856433A5625643E00253032580D0A002055534152543D50DB
:200C8000444920424155443D253034580D0A00205643503D4641494C0D0A00205553415282
:200CA000543D5643500D0A002D3E253034580D0A0020424155443D256C6400204343493DA6
:200CC000000000000000000000004B000086630000007B00008E6300000000000000000074
:200CE0000000BB40009E630000008B00009E63400000B900008E630000008B0000DE634076
:200D00000002BB00001E6400000000E205181060044080770400CD2311241FBECFEFCDBF9A
:200D2000DFE7DEBF98ED80E294BF8093680080E094BF80936100E0E0F4E084E083878FEFF4
:200D4000848780934C0480936C048093AC0480916800826494BF8093680010E6A0E0B0E6A6
:200D6000ECE8F9E602C005900D92AA3CB107D9F720E6AAECB0E601C01D92A93DB207E1F743
:200D800016E0CCE8D6E004C02197FE010E94A134CB38D107C9F70E94DC230C94C43430C934
:200DA000FB01A485B585ED91FC9111970190F081E02D682FCD01099480E094E0209104087F
:200DC00027FF04C000900108009000080197B1F70895DC018FB7F8941092000A90912C0A69
:200DE0009093200A90912C0A9093260A91E09093000A90910B0A90FFFCCF90910B0A9160A7
:200E000090930B0A30E020E064E0F90193E0F595E7959A95E1F7EA0FFB1F408150E0922F07
:200E2000977002C0559547959A95E2F790910B0A90FFFCCF40FF16C00098609303046093F1
:200E4000000290910B0A916090930B0A2F5F3F4F20373105D1F61092000A9FE09093000A69
:200E60008FBF0895009AE9CFDC011296ED91FC91248125FFFDCF20E42483DC011296ED9162
:200E8000FC91628381E090E008958FB7F8941092A1641092E0641092E1648FBF80910B0CB6
:200EA00082FDFCCF8EEF80934C0C0895F49B0BC08091E66481FF07C02FB7F894F2990AC0A0
:200EC0008EE194E609C08091A264803411F51092A26408958EE594E68093EA649093EB648A
:200EE0008091A26490E08093E8649093E9641092EC641092ED641092A2648EB394E08927AA
:200F00008EBB2FBF80910B0C82FDFCCF8EEF80934E0C08958091A3649091A4649C0125504E
:200F200031092A3F3F4F28F404978093A3649093A4648AE090E08093D8649093D964109259
:200F4000DC641092DD6480910B0C82FDFCCF8EEF80934A0C08951092BC641092BD648091E3
:200F60000B0C82FDFCCF8EEF8093420C08951092B0641092B16480910B0C82FDFCCF8EEF39
:200F80008093400C0895FC01948196FFFDCF089590E080E00895809101088CBB8CB388238D
:200FA000D1F3809100088DBB8CB380588CBB9CB381E0911180E00895EECFCF93C82F809138
:200FC000040885FFFCCFC0930208E5DF882321F09DB381E09C1380E0CF9108950F931F93C8
:200FE000CF93DF93EB018C01F80181918F01E5DF882311F02197C1F7DF91CF911F910F9109
:20100000089569E070E087E990E6E8DF90E0089562E070E081E690E6E1DF8111CDCF80E023
:20102000089562E070E08FE590E6D8DF8111C4CF80E0089560931560709316608093176053
:201040009093186065E070E083E190E6C7DF8111B3CF80E008959FDF882329F09DB381E0DC
:20106000903409F080E00895CF93DF93EA0160932660709327608093286090932960CA01E2
:201080009695879581508093216085E68093236065E070E084E290E6A1DF8823F9F0DBDF64
:2010A0008823E1F063E070E08CE590E697DF8823A9F065E070E08FE190E690DF882371F08A
:2010C000BE016E7F88E191E689DF882339F063E070E087E890E6DF91CF9180CF80E0DF91E1
:2010E000CF910895CF93C42F60931B6070931C6080931D6090931E6065E070E089E190E60B
:201100006DDF882349F0A7DF882331F08C2F55DF882311F0CF919FCF80E0CF910895482F10
:2011200060E070E180E090E0DDCFCF92DF92EF92FF920F931F93CF93DF93C7E0D1E68A01AD
:20114000095F1E49C017D107C1F06B017C012FEFC21AD20AE20AF20A4989C4DF21968111FB
:2011600009C0DF91CF911F910F91FF90EF90DF90CF900895C701B601E5CF81E0F2CFCF9356
:20118000DF934130510529F440911861DF91CF91A9CFEA01609326607093276080932860DE
:2011A00090932960842F81508093216084E68093236065E070E084E290E610DF8823F1F07F
:2011C0004ADF8823D9F063E070E08CE590E606DF8823A1F065E070E08FE190E6FFDE8823D4
:2011E00069F0BE0188E191E6F9DE882339F063E070E087E890E6DF91CF91F0CE80E0DF9176
:20120000CF9108950F931F93CF93DF93EB018C01C2DE882331F09DB3F80191938F0121970F
:20122000B9F7DF91CF911F910F910895CF93DF93EA016093266070932760809328609093C1
:201240002960CA019695879581508093216085E28093236065E070E084E290E6BFDE8823D8
:2012600089F0F9DE882371F065E070E08FE190E6B5DE882339F0BE016E7F8EE091E6DF912F
:20128000CF91C0CF80E0DF91CF910895CF93DF93EA014130510559F4CDDE811104C080E05E
:2012A000DF91CF9108959DB390930E61F9CF60932660709327608093286090932960842F1A
:2012C00081508093216084E28093236065E070E084E290E683DE882311F3BDDE8823F9F2FB
:2012E00065E070E08FE190E679DE8823C1F2BE018EE091E6DF91CF9185CFCF93DF93809111
:201300000E6160910F6130911061843B51F46F7770E07F5EF9990FC090E080E0DF91CF91B3
:201320000895732F803BB1F78091256390912663680F791FEFCFC0911361D091146190E0F0
:2013400080E0AE01A3DF882339F3CE010196E6CFCF93DF93F99905C090E080E0DF91CF913F
:20136000089520910E6160910F61709110618091116190911261C0911361D0911461203BD0
:2013800049F480589F4FAE0151DF882329F3CE010196E4CF243B39F46F7770E07F5E072EB7
:2013A000000C880B990BAE0171DFEFCFD1CFCF93DF93F99905C090E080E0DF91CF91089525
:2013C00020910E6160910F61709110618091116190911261C0911361D0911461203B49F4D0
:2013E00080589F4FAE0122DF882329F3CE010196E4CF243B41F46F7770E060587F4E072E13
:20140000000C880B990BAE0141DFEECFD0CFCFCF8091080890910908880F991F80930808FB
:201420009093090880E0C9DD209184633091856350E040E060E071E782E090E00E947E3423
:20144000DA01C9010196A11DB11DB595A7959795879580349105A105B1057CF0009721E04C
:20146000A207B10520F08FEF9FEFA0E0B0E0809308089093090881E0089580E490E0A0E038
:20148000B0E0F5CF8091846389518DBB8DB3883270F08DB390E08093846390938563B8DF38
:2014A00063E070E087E890E699DD90E0089590E080E0089582CDCF93C82F83EF7EDD8823A4
:2014C00019F08C2FCF91F6CF80E0CF91089582E774DD882331F070DD882319F08DB381116D
:2014E000F6CF81E00895CF93C82F84E666DD882319F08C2FCF91DECF80E0CF91089584E2E4
:201500005CDD811159CD80E00895CF93DF93D82FC92F88E652DD882361F08D2F4EDD8823DF
:2015200041F089E64ADD882321F08C2FDF91CF9144CD80E0DF91CF91089530E020E04091DE
:20154000080442FFFCCF4091080442FDFCCF2F5F3F4F8217930799F7089580910A0681600E
:2015600080930A068091070681FFFCCF80910C0690910D069C013695279536952795820F4C
:20158000931F0895CF92DF92EF92FF92AB01BC0180915263282F30E0322F2227809127633D
:2015A000820F932F911D919581959109B0E0A0E084239523A623B72321E0C0905663D090D8
:2015C0005763E0905863F0905963C816D906EA06FB0609F420E08093566390935763A09363
:2015E0005863B0935963822FFF90EF90DF90CF900895823249F460912D6370912E638091F2
:201600002F63909130630895803B49F46091296370912A6380912B6390912C630895813B3C
:2016200051F3823B49F4609131637091326380913363909134630895833B49F460913563D1
:201640007091366380913763909138630895843B89F420915263309153636091416370913D
:2016600042638091436390914463620F731F811D911D0895803C49F460912563709126635E
:2016800080912763909128630895813C09F4BECF843C09F4B0CF853C49F460913963709157
:2016A0003A6380913B6390913C630895863C49F460913D6370913E6380913F6390914063D8
:2016C000089560914163709142638091436390914463089530E020E04091080446FFFCCF19
:2016E0004091080446FDFCCF2F5F3F4F8217930799F781E00895FB9B08C081E090E0EADF2A
:20170000049888E880930608FB9881E00895F3DF811152CC80E00895FB9909C081E090E05E
:20172000D9DF0C9A049A80EC80930608FB9A81E0089582E090E0CEDFEFDF811102C080E08C
:20174000089580E8B7DE8823D1F3E1DF882389F3E99BEFCF0895EF92FF920F931F93CF93F2
:20176000DF937C018B01D8DFE701899126DC882319F001501109C9F7DF91CF911F910F9134
:20178000FF90EF900895F89907C064E070E08FE490E6E1DF90E0089581E090E00895CF922D
:2017A000DF92EF92FF928FECC82EDD24D394E12CFD2CC0920660D0920760E0920860F092BA
:2017C000096065E070E085E090E6C5DF81119FDF8DB3807C71F781E0FF90EF90DF90CF909B
:2017E00008958BEC91E0A0E0B1E08093016090930260A0930360B093046065E070E080E028
:2018000090E6A9DF882311F081E054CE80E00895CF93C82F8AEC91E0A0E0B1E080930160D9
:2018200090930260A0930360B093046065E070E080E090E690DF882319F08C2FCF913ACE35
:2018400080E0CF910895CF93C0910E6180910F6190911061A0911161B091126180930F601D
:2018600090931060A0931160B093126098DFC11111C080E4CDDF811104C090E080E0CF91CC
:201880000895AFDF8823C9F354DF8823B1F387DF90E0F5CF81E090E0C73089F788E1B8DF52
:2018A000882359F365E070E08EE090E654DF882321F384E682DB882301F38FEF7EDBE5CFD5
:2018C0001ADF0C98049A80E190E004DF0C9A82E090E000DF0C9880E190E0FCDE1DCF67E040
:2018E00070E180E090E0A6DB8DB38370C1F78DB30895CF93C82FF3DF60E070E180E090E0F2
:2019000099DB882331F08DB38C1303C081E0CF91089580E004DC8823D1F3CC23B9F38C2F82
:20192000CF91FDCB80E0E5DF90E0089580E0E1CFCF92DF92EF92FF926B017C0188E0D9DF51
:20194000882371F04FEFC701B601CCDB882341F0C6DF837729F4FF90EF90DF90CF90E6CFEE
:2019600080E0FF90EF90DF90CF90089566E070E180E090E05FDB8DB38370C1F78DB3089525
:20198000F5DF982F937781E009F080E00895CF93C82FECDF60E070E180E090E04BDB8823F5
:2019A00031F08DB38C1303C081E0CF91089580E0B6DB8823D1F3CC23B9F38C2FCF91AFCB76
:2019C00080E0E5DF90E0089580E0E1CF8FE0DFDF8FE1DDDF80E0DBDF90E00895F7CFCF921F
:2019E000DF92EF92FF92CF93DF936B017C01EA0180E0CDDF882389F0AE01C701B601BFDBC4
:201A0000882359F085E0C3DF882339F0DF91CF91FF90EF90DF90CF90B3CF80E0DF91CF9199
:201A2000FF90EF90DF90CF900895CF92DF92EF92FF92CF93DF936B017C01EA0180E0A7DFBB
:201A4000882389F0AE01C701B6010EDB882359F085E09DDF882339F0DF91CF91FF90EF90C4
:201A6000DF90CF908DCF80E0DF91CF91FF90EF90DF90CF900895CF92DF92EF92FF926B0143
:201A80007C0188E084DF882371F04FEFC701B60129DB882341F06ADF837729F4FF90EF90E7
:201AA000DF90CF9091CF80E0FF90EF90DF90CF90089562E070E180E090E0BCDA8DB38370F3
:201AC000C1F78DB30895F5DF84E029DBF2DF80E026DB90E00895CF93C82FEBDF60E070E142
:201AE00080E090E0A7DA882331F08DB38C1303C081E0CF91089580E012DB8823D1F3CC231E
:201B0000B9F38C2FCF910BCB80E0E5DF90E0089580E0E1CFCF92DF92EF92FF926B017C011A
:201B200088E0D9DF882371F04FEFC701B601DADA882341F0BEDF837729F4FF90EF90DF90FB
:201B4000CF90E6CF80E0FF90EF90DF90CF90089590E080E0089590E080E0089590E080E0EE
:201B600008958DBB88E0EF9B1EC0089A90910B0A90FFFCCF0A9A9DB3990F9DBB90910B0A54
:201B8000916090930B0A1399E89A90910B0A90FFFCCF0A9890910B0A916090930B0A81508C
:201BA00011F78DB308950898E1CFDC01ED91FC910190F081E02D09948F929F92AF92BF9278
:201BC000CF92DF92EF92FF920F931F93CF93DF935A01922E832E7C01D0E0C0E06B0181E093
:201BE000C81AD108672BB9F1F70111917F01812F82958F7060E3680F6A3310F067E3680FF6
:201C000082ED90E6D2DF1F7060E3610F6A3310F067E3610F82ED90E6C8DFC114D104A1F0CE
:201C20002196AC16BD0691F4092D182DF80161918F01662339F082ED90E6B7DFEC01892B1F
:201C4000A9F702C0D0E0C0E0B601C8CF6AE382ED90E6ABDFF9CF82ED90E6DF91CF911F919B
:201C60000F91FF90EF90DF90CF90BF90AF909F908F900895CF93DF93EC016DE096DF6AE0A2
:201C8000CE0193DFCE01DF91CF910895CF93DF93CDB7DEB72E97CDBFDEBF80ED96E08987F9
:201CA0009A871B861C8682E08C8382ED90E68D879E87AE01495E5F4F6D897E89CE010196CA
:201CC0000E949A3182ED90E62E96CDBFDEBFDF91CF910895CF93CFB7F89481E18093E20588
:201CE00080E880931604069A80E280930408209184633091856350E040E060E27EE480E099
:201D000090E00E947E34DA01C9010196A11DB11DB595A7959795879536E0880F991FAA1F3B
:201D2000BB1F3A95D1F7009721E0A207B10520F08FEF9FEFA0E0B0E080349105A105B10569
:201D400020F480E490E0A0E0B0E080930808909309088BE6809307088AE08093050880E8AF
:201D60008093060880910808909109089F938F9388E79CE09F938F9382ED90E69F938F9323
:201D800085DFCFBF0F900F900F900F900F900F90CF9108950F931F93CF93C82F8B011F92B0
:201DA0008F9382EC9AE09F938F9382ED90E69F938F936CDF10922A0A8FE08093000A980146
:201DC00036952795A9014250510940930A0B50930B0B00930C0B20930D0B8093000BC0931F
:201DE00082630F900F900F900F900F900F90CF911F910F91089580918263823021F060E2FC
:201E000070E082E0C7CF089580918263813029F188EB9AE09F938F9382ED90E69F938F93A2
:201E200035DF84EC8093260A82E680932A0A9FE09093000A10920A0B10920B0B95EC90936D
:201E40000C0B80930D0B85E08093000B81E0809382630F900F900F900F900895BF92CF9299
:201E6000DF92EF92FF920F931F93CF93DF9300D000D0CDB7DEB7C090CB60D090CC60E09087
:201E8000CD60F090CE60FF92EF92DF92CF9281EB9CE09F938F9382ED90E69F938F93F6DE3A
:201EA000CDBFDEBFC114D104E104F10431F430E8C32E35E2D32EE12CF12C60E078E689E8F6
:201EC00099E0A70196010E945C34DA01C9010196A11DB11D6C017D01F694E794D794C7949A
:201EE00020E6C216D104E104F10408F07BC06C017D01E894C0F89AECB92EFF92EF92DF9213
:201F0000CF9288EA9CE09F938F9302ED10E61F930F93BCDECDBFDEBFD701C6018054910915
:201F2000A109B109803C9F4FA105B10508F05FC09091D160955040912A6050912B60609131
:201F40002C6070912D6049835A836B837C83E091D060E370EC0FFD2FF11D21818091CF60C6
:201F6000280F3327331F80E0232B09F088E0943008F03BC0890F9FB7F89422E12093E205A1
:201F800020E220930408C0920808D09209088093070880E880930508B0920608F19A9FBFC8
:201FA0008BE99CE09F938F9382ED90E69F938F936DDE0E94DC060F900F900F900F908EB318
:201FC0008F738EBBA698F09B1AC02496CDBFDEBFDF91CF911F910F91FF90EF90DF90CF9034
:201FE000BF9012CF88ECB82E88CF8D5FC4CF8FE89CE09F938F931F930F9348DEDCCF24965B
:20200000CDBFDEBFDF91CF911F910F91FF90EF90DF90CF90BF90EFCEF19B04C0F39B02C0EF
:202020001DDFF49AF3980895F9991DC069E070E083E590E690DB8823C9F07BDB8823B1F097
:20204000F99A8DB31F928F9389E99AE09F938F9382ED90E69F938F9319DE0F900F900F908D
:202060000F900F900F9081E090E008958DB31F928F938AEA9AE09F938F9382ED90E69F93A9
:202080008F9304DE0F900F900F900F900F900F9090E080E008958CE79AE09F938F9382ED65
:2020A00090E69F938F93F2DD8091846390918563845F914080938463909385630F900F908F
:2020C0000F900F90843F914020F004DEF9DB90E0089590E080E00895CF92DF92EF92FF920A
:2020E0000F931F93CF93DF93C0910E61C0900F61D0901061E0901161F09012618C2F79DA84
:20210000C60ED71EE81EF91E0091136110911461C0920F60D0921060E0921160F092126054
:2021200098012150310920930B6030930C6024E620930D60FF92EF92DF92CF921F930F93AC
:202140008BE69AE09F938F9382ED90E69F938F939DDD25DB8DB79EB70A968DBF9EBFC03CAF
:2021600009F43FC0C03B09F47AC0C13C09F477C0C23209F478C0C13B09F475C0C43C09F4AC
:2021800072C0C53C09F473C0C23B31F088E0C33B21F090E080E006C08CE43ADB81110BC0CF
:2021A00080E090E0DF91CF911F910F91FF90EF90DF90CF90089565E070E08EE090E6CBDA98
:2021C000882371F364E070E08AE090E6C4DA882339F3B80188E191E6BEDA882309F3DFDA76
:2021E000E0CFD3E286E2C5E213DB8823C9F2F9DA8823B1F2D4DA882399F28D2F09DB8823C8
:2022000079F265E070E08EE090E6A5DA882309F4C7CF64E070E08AE090E69DDA882309F48A
:20222000BFCFB80188E191E696DA882309F4B8CF8C2FEEDA882309F4B3CF65E070E08EE028
:2022400090E689DA882309F4ABCF84E60E94DD07882309F4A5CF8FEF0E94DD07BECFD3E231
:2022600086E2CDE2C1CFD3E386E3C5E3BDCFD3E286E2CAE1B9CFCF92DF92EF92FF920F938E
:202280001F93CF93DF93C0900F61D0901061E0901161F090126180910E61ABD9C60ED71E85
:2022A000E81EF91EC0911361D0911461FF92EF92DF92CF92DF93CF938AE59AE09F938F9371
:2022C00082ED90E69F938F93E1DC83E4A1DAEDB7FEB73A96EDBFFEBF882309F45AC0C130E1
:2022E000D10511F5C0920660D0920760E0920860F092096065E070E085E090E62CDA88239B
:2023000009F447C004DA882309F443C08DB380930E6182E090E0DF91CF911F910F91FF90ED
:20232000EF90DF90CF900895C0920F60D0921060E0921160F0921260CE01019780930B6064
:2023400090930C6084E280930D6065E070E08EE090E601DA8823E9F064E070E08AE090E6BC
:20236000FAD98823B1F0C7D907E011E69E01295F3E4979010E94CB07882359F08DB3F801F7
:2023800087830F5F1F4F0E151F05A1F7CE010196C2CF90E080E0BFCF0F931F93CF93DF93FB
:2023A000EC011FB7F8948881DCDB8093DE608981D8DB8093DF608A81D4DB8093E0608B8195
:2023C000D0DB8093E1601FBFF8992DC083EB90E09F938F9302ED10E61F930F9357DC26EAF4
:2023E00030E650E040E064E070E0CE01E5DB42DC8FEA90E09F938F931F930F9347DC26EA72
:2024000030E650E040E064E070E08EED90E6D4DB2DB73EB7285F3F4F2DBF3EBFDF91CF917B
:202420001F910F9127CCDF91CF911F910F9108958DE091E6B1DF90E080E008958EE091E6D6
:20244000ABDFA7E0B1E61696EC911697F0E0E352FF49808117968C9381E090E00895CF9314
:20246000DF93C0E0DCE018821092040C8EEA94E68093060C9093070C81E08093010C8EB333
:20248000807C8EBB1FBA1CBA1092A3641092A4641092A2641092A1641092A06410929F645B
:2024A0004AE450E061EC7CE086EA94E60E94913110929E64E6E8F3E681EA808780E28187A0
:2024C0001286138681E090E08487958782E090E086879787108A118A83E88883DF91CF915B
:2024E00008958AE18A95F1F700C08FB7F89410920608109205081CBA1DBA95E19093E205AF
:20250000F1988FBF88E08093120402980398089580918263843021F06CE070E084E03ADCB0
:20252000809106088111DDDF00980198029880918363833019F4049A069808950498FCCF6C
:20254000CF93DF93E2E1F1E03197F1F700C00000C1E0D0E002C0CC0FDD1F8A95E2F70E941F
:2025600008088DB390E08C239D23892BC1F781E0DF91CF910895CF93DF93E2E1F1E03197C2
:20258000F1F700C00000C1E0D0E002C0CC0FDD1F8A95E2F70E9408088DB390E08C239D23E0
:2025A000892BC1F381E0DF91CF910895CF93DF93E2E1F1E03197F1F700C00000C1E0D0E0BC
:2025C00002C0CC0FDD1F8A95E2F70E9411088DB390E08C239D23892BC1F381E0DF91CF91F7
:2025E0000895CF93C82F8EE79BE09F938F9382ED90E69F938F934ADB6AE070E083E690E6CA
:202600000E94EE070F900F900F900F90811103C080E0CF91089584E0C9DF8823C9F3CC2393
:20262000C1F366E070E087E990E6CF910C94EE07F9992CC081E0D5DF882359F182E191E019
:202640000197F1F700C000000E941108EC99FCCF0E940808882341F0E89906C0F99AE09156
:202660007A63F0917B6309958DB31F928F9381E79CE09F938F9382ED90E69F938F9306DB1B
:202680000F900F900F900F900F900F9081E090E0089590E080E00895BF92CF92DF92EF9201
:2026A000FF920F931F93CF93DF93F8990CC010E0812FDF91CF911F910F91FF90EF90DF90C7
:2026C000CF90BF90089580910E61853C81F700913D6310913E638091136190911461081749
:2026E000190729F7C0900F61D0901061E0901161F090126180914763909148638C159D056A
:20270000B1F60E94DC061F930F93FF92EF92DF92CF9287E09CE09F938F93C2EDD0E6DF9348
:20272000CF93B4DA8091D4609091D5600E94C30787EC9BE09F938F93DF93CF93A7DA6AE0C1
:2027400070E087E790E60E94EE072DB73EB7225F3F4F2DBF3EBF882309F4A9CF85E026DF53
:20276000882309F4A4CF66E070E087E990E60E94EE07882309F49BCF82E0FDDE8DB39DB34C
:2027800086958695BB24B3948B2581701F928F931F929F9387EF9BE09F938F93DF93CF936D
:2027A00075DA8091D4609091D5600E94C307A801C701B6010E94340883EF91E00197F1F75A
:2027C00000C0000063E070E084E890E60E94EE0782E0B6DE8DB39DB3869586958B258170D0
:2027E0001F928F931F929F9387EE9BE09F938F93DF93CF934BDA8091D4609091D5600E94A9
:20280000C30763E070E081E890E60E94EE078DB79EB740968DBF9EBFF9990FC066E070E0D6
:2028200087E990E6DF91CF911F910F91FF90EF90DF90CF90BF900C94EE0781E0D2DE182F7A
:20284000882361F383E097DE8DB31F928F9382ED9BE09F938F93DF93CF9318DA0F900F904C
:202860000F900F900F900F9023CF4F925F926F927F92AF92BF92CF92DF92EF92FF920F93EE
:202880001F93CF93DF9300D000D0CDB7DEB7F99914C002DF90E02496CDBFDEBFDF91CF918F
:2028A0001F910F91FF90EF90DF90CF90BF90AF907F906F905F904F90089580910E61C09015
:2028C0000F61D0901061E0901161F0901261960100911361109114619EE4980F923008F04D
:2028E00046C087E0E82E81E6F82EC901875091466C01C7018750914680179107B0F5F701A1
:20290000818990E089839A83C6018E0D9F1D8B839C83CFD8CE0101965C0166E070E180E068
:2029200090E0F50141915F012B013C01FFEF4F1A5F0A6F0A7F0A0E947208811102C080E004
:20294000A9CFC301B2016A3020E172078105910541F787E00E948F08882389F3AAD89FEF49
:20296000E91AF90A877029F2EACF81E093CF823221F09CE3980F923060F49BD8C701B601D0
:2029800088279927A8010E94BF0881111DC090E024C0803B11F0803C11F5609125637091FB
:2029A0002663C60ED71EF12CE12CC701B6010E94C20A882321F07DD884E00E948F0879D8AF
:2029C000A801C701B601DFCF83E00E948F088823F1F26FD8877091E0D1F6892F5BCFC701D7
:2029E000B60188279927A8010E94BF0853CFCF92DF92EF92FF92CF93DF93F99909C04CDE40
:202A000090E0DF91CF91FF90EF90DF90CF90089580910E61C0900F61D0901061E09011610A
:202A2000F0901261C0911361D0911461823231F09EE4980F923010F0843C91F483E14BD87C
:202A4000811102C080E0DCCFAE01C701B6010E9495088823B9F32DD88377A1F759D8D0CFEC
:202A6000803C11F0853CC9F4C701B6010E94C20A882319F0C701B6014DD882E02CD88823C5
:202A800009F3AE01C701B6010E9495088823D1F210D88377B9F63CD8B3CF803B11F580E80F
:202AA000E80EF11CFA9909C0C701B6010E94C20A882319F0C701B6012DD882E00CD88823A1
:202AC00009F4C0CFAE01C701B6010E943408882309F4B8CF0E94590D837709F0B3CF18D8C2
:202AE0008FCFAE01C701B6010E94BF0889CFCF92DF92EF92FF92CF93DF93F99909C0CCDDCD
:202B000090E0DF91CF91FF90EF90DF90CF90089580910E61C0900F61D0901061E090116109
:202B2000F0901261C0911361D0911461823231F09EE4980F923010F0843CB1F480E10E94DF
:202B4000C70C811102C080E0DBCFAE01C701B6010E94BF088823B9F385E10E94C70C8823D0
:202B600091F30E94C00CCCCF803C11F0853C31F4AE01C701B6010E94EF0CC2CF803B41F4D9
:202B8000C701B60180589F4FAE010E94150DB8CFAE01C701B6010E94BF08B2CFCF92DF920C
:202BA000EF92FF92CF93DF93F99909C075DD90E0DF91CF91FF90EF90DF90CF9008958091B8
:202BC0000E61C0900F61D0901061E0901161F0901261C0911361D0911461823231F09EE42E
:202BE000980F923010F0843CA9F483E10E94C70C811102C080E0DBCFAE01C701B6010E9408
:202C000095088823B9F30E94B60C837799F70E94E40CCDCF803C11F0853CE9F4C701B601CA
:202C20000E94C20A882321F0C701B6010E943B0D82E00E94C70C8823E9F2AE01C701B60176
:202C40000E9495088823B1F20E94B60C837791F60E94E40CACCF803B29F580E8E80EF11CB1
:202C6000FA990AC0C701B6010E94C20A882321F0C701B6010E943B0D82E00E94C70C882363
:202C800009F4B8CFAE01C701B6010E943408882309F4B0CF0E94B60C837709F0ABCF0E940A
:202CA000E40C85CFAE01C701B6010E94BF087FCFCF92DF92EF92FF92CF93DF93F99909C0D8
:202CC000EBDC90E0DF91CF91FF90EF90DF90CF90089580910E61C0900F61D0901061E090F3
:202CE0001161F0901261C0911361D0911461823231F09EE4980F923010F0843CB1F480E04F
:202D00000E94C70C811102C080E0DBCFAE01C701B6010E94BF088823B9F385E10E94C70C17
:202D2000882391F30E94C00CCCCF803C11F0853C31F4AE01C701B6010E94EF0CC2CF803BA1
:202D400041F4C701B60180589F4FAE010E94150DB8CFAE01C701B6010E94BF08B2CFCF9286
:202D6000DF92EF92FF92CF93DF93F99909C094DC90E0DF91CF91FF90EF90DF90CF90089578
:202D800080910E61C0900F61D0901061E0901161F0901261C0911361D0911461823231F0DD
:202DA0009EE4980F923010F0843CA9F483E10E94790C811102C080E0DBCFAE01C701B601B4
:202DC0000E9495088823B9F30E946F0C837799F70E94960CCDCF803C11F0853CE9F4C701B3
:202DE000B6010E94C20A882321F0C701B6010E94980C82E00E94790C8823E9F2AE01C701A7
:202E0000B6010E9495088823B1F20E946F0C837791F60E94960CACCF803B29F580E8E80EDA
:202E2000F11CFA990AC0C701B6010E94C20A882321F0C701B6010E94980C82E00E94790C31
:202E4000882309F4B8CFAE01C701B6010E943408882309F4B0CF0E946F0C837709F0ABCF86
:202E60000E94960C85CFAE01C701B6010E94BF087FCFCF93DF938BEB9BE09F938F9382ED4D
:202E800090E69F938F930E94460E0E94DC060F900F900F900F90F99902C080E0A2DB89E8D0
:202EA0009BE09F938F93C2EDD0E6DF93CF930E94460E6AE070E08DE690E60E94EE070F905B
:202EC0000F900F900F90811102C020E071C083E06DDB8823D1F366E070E087E990E60E9458
:202EE000EE07882391F385EB9BE09F938F93DF93CF930E94460E8FE191EA27E08150904012
:202F00002040E1F700C000008FE191EA27E0815090402040E1F700C000000E94DC0685E045
:202F20000FDB80E00DDB8DB31F928F9387EA9BE09F938F93DF93CF930E94460E82E191E06E
:202F40000197F1F700C000008DB79EB70A968DBF9EBF0E941108EB99FCCF0E9408088823E8
:202F600049F0EB9907C081E03CDB882309F4ADCF83E001DB8DB31F928F9385E99BE09F93C4
:202F80008F9382ED90E69F938F930E94460EFA9AF99AE0917A63F0917B63099521E00F90CE
:202FA0000F900F900F900F900F90892B09F48DCF822FDF91CF91089580910E61811103C0F6
:202FC00058DF90E0089581E090E00895F5CFF4CF80910E61811103C04CDF90E008958730F4
:202FE00059F460910F617091106180911161909112610E948A0DF1CF81E090E00895809122
:203000000E61811103C035DF90E00895873059F460910F61709110618091116190911261DD
:203020000E943B0DF1CF81E090E0089580910E61811103C01EDF90E00895873059F46091A4
:203040000F617091106180911161909112610E94980CF1CF81E090E00895882349F02FE709
:2030600088E391E0215080409040E1F700C000006B98809112048860809312048091130478
:20308000886080931304809110048860809310048091110488608093110408958823A9F0D3
:2030A0006B9A90911104977F9093110490911004977F9093100490911204977F909312047F
:2030C00090911304977F909313046111C6CF0895CF92DF92EF92FF920F931F93CF93DF93B8
:2030E00000D0CDB7DEB71FBA13DAFF9A019A80915563811105C081E08093556380E0ADDFB5
:2031000083ED90E30197F1F700C000008091236390912463079720F080910D61811102C0CC
:20312000F69B1FC0019880E68093010A1092210A81E08093000AE3EFF1E03197F1F700C0A4
:203140000000699A87E79BE09F938F9382ED90E69F938F930E94460EFC9A0F900F900F908D
:203160000F90FFE121EA87E0F15020408040E1F700C000001FB7F89480E18093E20580E840
:2031800080931204029A80E28093040880E09AE080930808909309088BE6809307088AE0BB
:2031A0008093050888EC8093060880910808909109089F938F9387E49BE09F938F9382ED0A
:2031C00090E69F938F930E94460E1FBF84E190E00E949D0A82EC0E94DD070F900F900F9062
:2031E0000F900F900F9081110DC090E080E00F900F90DF91CF911F910F91FF90EF90DF90E8
:20320000CF90089585E00E945A0A882371F38FE80E94DD078823D9F30E94DC078823B9F3E8
:203220008DB38038A1F7F89AFF988FE6E82E8BE0F82E92EDC92E90E6D92EFF92EF92DF9243
:20324000CF920E94460E03E510E60F900F900F900F90F80181918F010E94DD07882329F2D6
:20326000F0E60C351F07A9F718E084E190E00E949D0A80E80E94DD07811103C01150A9F717
:20328000DCCF0E94DC078823C9F38DB38230B1F719821A8281EC9FE30E94850A882381F189
:2032A0000E947F0A882361F18DB38A830E947F0A882311F08DB3898329813A812E3082E948
:2032C000380739F084E02F3091E9390719F082E001C088E0809305611F928F933F932F9395
:2032E0008EE59BE09F938F9382ED90E69F938F930E94460EF99ACDBFDEBF81E090E077CF8A
:2033000029813A81E4CF04D9FF9A109214040C98049A069A80915563811105C081E08093EF
:20332000556380E09ADE0C9A82E191E00197F1F700C000000E946A0E80E190E00E946A0B41
:2033400065E070E08AE490E60E94AB0B811105C00E94600C0E94600CF3CF0E94870B882388
:20336000B9F38DB38530A1F78DB31F928F9384E89AE09F938F9382ED90E69F938F930E94EC
:20338000460EF89AFF980F900F900F900F900F900F9081E090E00895CF9380E88FBBB8D8E4
:2033A0001092000A1092E2601092E3608FE08093020488E08093110410921304109212040F
:2033C0001092100487E08093060480930104209184633091856350E040E060E177E280E010
:2033E00090E00E947E34C901009741F12F3F310549F144F144E0959587954A95E1F78F3F74
:20340000910511F10CF1832F992787FD9A952DE0309108043770D1F089E291E09F938F9380
:2034200082ED90E69F938F930E94460E0F900F900F900F908FEF9FEFCF91089521E087E070
:2034400090E0E6CF21E0E4CF29E0E2CF1092000A1092010A3FEF380F3093200A3093260A2B
:203460002093000A30910B0A30FFFCCF30910B0A316030930B0A1F922F939F938F938091A8
:2034800085638F93809184638F9387E191E09F938F9382ED90E69F938F930E94460E8DB768
:2034A0009EB70A968DBF9EBFC3E0099A119BFECF83EF91E00197F1F700C000000998119941
:2034C000FECF9FEF20E782E0915020408040E1F700C0000084E191E60E94CC11E09113614F
:2034E000F0E0E352FF49908180911261981313C083E08FBB8DE091E09F938F9382ED90E6A8
:203500009F938F930E94460E0F900F900F900F9090E080E091CFC15041F6FFCFCF9310929B
:203520005A638FEF9FEFDC018093566390935763A0935863B093596388EC97E080937A6374
:2035400090937B638BEA9DE080937C6390937D638EEA9DE080937E6390937F6388EA9DE0A6
:2035600080938063909381630E948812FF9A0898099880915563811105C081E080935563EC
:2035800080E06BDD8091236390912463079740F080910E61882321F080910661811102C06E
:2035A000F69B34C0C0915463C13081F11F92CF9387E69CE09F938F9382ED90E69F938F9392
:2035C0000E94460E80E68093010A1092210A81E08093000A83EF91E00197F1F700C0000003
:2035E0000F900F900F900F900F900F90C1119CC0689A8FE99FE00197F1F700C00000109208
:20360000010A8FE08093000A68986A98009A83ED90E30197F1F700C000000098109BFECF44
:20362000CFB7F89480E18093E20580E280930408209184633091856350E040E060E071E773
:2036400082E090E00E947E34DA01C9010196A11DB11DB595A7959795879580349105A105BE
:20366000B1050CF466C0009721E0A207B10520F08FEF9FEFA0E0B0E08093080890930908F4
:203680008BE2809307088AE08093050888EC8093060880910808909109089F938F938091C4
:2036A00085638F93809184638F9380E29CE09F938F9382ED90E69F938F930E94460ECFBFF7
:2036C0008DB79EB708968DBF9EBF6BE070E08CE890E60E94EE07882389F10E94CB078823AA
:2036E00069F18DB3853151F562E070E08AE890E60E94EE07811125C09DB38CB31F929F933A
:203700001F928F9380E49CE09F938F9382ED90E69F938F930E94460E8DB79EB708968DBFF0
:203720009EBF90E080E05CC0C23009F062CF6A9A60CF80E490E0A0E0B0E09ECF0E94080AEC
:20374000C4CF60E270E08AE593E60E940209882399F28AE593E69F938F93809164631F92B4
:203760008F9382E59CE09F938F9382ED90E69F938F930E94460E809164632DB73EB7285F89
:203780003F4F2DBF3EBF863369F582E99CE080937A6390937B6387E09AE080937C639093CD
:2037A0007D6386E198E180937E6390937F638FEA96E1809380639093816380915A63EAE5C6
:2037C000F3E6803211F4EEE5F3E684E0AEE0B1E601900D928A95E1F7F89AFF9885E090E0FF
:2037E000CF9108958533A9F48EEE9CE080937A6390937B6386E09AE080937C6390937D63B9
:2038000087EE97E180937E6390937F6388E596E1D0CF8433A9F480EE9CE080937A639093EE
:203820007B6387ED99E080937C6390937D638FEF97E180937E6390937F638EEC95E1B9CF61
:203840008333A9F486EE9CE080937A6390937B6386ED99E080937C6390937D6386EE97E167
:2038600080937E6390937F6387E795E1A2CF8233A9F484E89DE080937A6390937B6388EA5C
:2038800099E080937C6390937D6388EE97E180937E6390937F6387EF94E18BCF803309F0E2
:2038A0002BCF83E69DE080937A6390937B638DE799E080937C6390937D638CED97E1809351
:2038C0007E6390937F6385E394E173CF2F923F924F925F926F927F928F929F92AF92BF9289
:2038E000CF92DF92EF92FF920F931F93CF93DF93B0900D6100911161109112611027012798
:203900001027E0901361F0901461FE24EF24FE24809105618150990BC5E1D1E62FEFAC012C
:2039200040235123452B79F42FEF4C018E209F208114910479F0F801EE0DFF1D2083EFEFD7
:20394000EE1AFE0AF2CF015011093FEFE31AF30A2A93E5CFFF92EF921F930F9387E39BE047
:203960009F938F9322EDC22E20E6D22EDF92CF920E94460E26EA30E650E040E0B701CE0129
:203980000E94DC0D0E943A0E8DB79EB708968DBF9EBF91E0B91271C0B12CA12C89E0482EDC
:2039A0008BE0582E92ED692E90E6792EAE14BF0408F0C6C0809105611F928F931F930F9342
:2039C0005F924F927F926F920E94460E0E94670A382EEDB7FEB73896EDBFFEBF882399F0D0
:2039E000C8010E94850A382E882369F08DE10E945B0A382E882339F088810E94730A382E26
:203A000081117EC021962090056133E0321548F580E190E00E949D0A88810E94730A81119E
:203A200079C02196382298E029121BC080E190E00E949D0A88810E94730A6E01811173C038
:203A4000EFEFCE1ADE0A382280E190E00E949D0AF60180810E94730AE60181116BC02196D2
:203A600038220E94670A3320B9F18823A9F1312C020D131DA20CB31C99CF58016894A0F829
:203A8000BF92AF9281E29BE09F938F93DF92CF920E94460E0E94670A0F900F900F900F900B
:203AA0000F900F908823C1F0C5010E94850A882399F084E10E945B0A882371F08FEF0E94A9
:203AC000730A882349F00E94670A882329F080E00E945B0A811160CFC401DF91CF911F9141
:203AE0000F91FF90EF90DF90CF90BF90AF909F908F907F906F905F904F903F902F90089567
:203B00006E01F2E0CF0ED11C89810E94730A382EE60179CF6E0182E0C80ED11C89810E949C
:203B2000730AE6017FCFF2E0CF0ED11C89810E94730A89CF2296F60181810E94730A90CF87
:203B400080E00E945B0A882E912CC6CF0F931F93CF93DF930091106110911161102701275A
:203B60001027C0911261D0911361DC27CD27DC27DF93CF931F930F938AEF9AE09F938F930C
:203B800082ED90E69F938F930E94460EC8010E94850AEDB7FEB73896EDBFFEBF07E011E68E
:203BA000C801875091468C179D0750F40E947F0A0F5F1F4F8823A9F08DB3F8018683F0CFB7
:203BC00026EA30E650E040E0BE018EE091E60E94DC0D0E943A0ECE01DF91CF911F910F9167
:203BE0000895D0E0C0E0F7CFCF93DF93C0911061D0911161DC27CD27DC2780910D6181307F
:203C000079F5DF93CF9387EE9AE09F938F9382ED90E69F938F930E94460E0E94670A0F903E
:203C20000F900F900F900F900F90811105C090E080E0DF91CF910895CE0181600E94850AF4
:203C40008823A9F380E10E945B0A882381F38FEF0E94730A882359F30E94670A90E0E9CFC7
:203C6000DF93CF9381ED9AE09F938F9382ED90E69F938F930E94460E0E94670A0F900F90B4
:203C80000F900F900F900F90882389F2CE0181600E94850A882359F284E1D5CFCF92DF92D0
:203CA000EF92FF920F931F93CF93DF9300D0CDB7DEB78091E2609091E36089839A83009170
:203CC0000D6110910E61102701271027D0900F611F92DF921F930F93880F991F9F938F93E7
:203CE00081ED90E09F938F9382ED90E69F938F930E94460ECDBFDEBF37E0E32E31E6F32EDA
:203D0000CC24CA94C701875091468017910740F5D092DA608A818093DB6089818093DC602D
:203D2000C092DD608AED90E60E94CC118091E160F70187838091DA6088608093DA608AED3D
:203D400090E60E94CC118091E160F701808789819A81019689839A83F2E0EF0EF11CD2CFBB
:203D6000C8010F900F90DF91CF911F910F91FF90EF90DF90CF900895CF92DF92EF92FF92BF
:203D80000F931F93CF93DF9300D0CDB7DEB78091E2609091E36089839A8300910D61109192
:203DA0000E61102701271027D0900F611F92DF921F930F939F938F9387EB90E09F938F932E
:203DC00082ED90E69F938F930E94460ECDBFDEBF87E0E82E81E6F82ECC24CA94C701875094
:203DE000914680179107D8F4D092DA608A818093DB6089818093DC60C092DD608AED90E627
:203E00000E94CC118091E160F701878389819A81019689839A83FFEFEF1AFF0ADFCFC80173
:203E20000F900F90DF91CF911F910F91FF90EF90DF90CF900895209141012111FCCF20910A
:203E4000480130914901820F931F20914801309149012817390711F0A895F7CF08958FE037
:203E600091E60E94CC1180910E6190E0009711F489E090E0E0DF90E080E008958F929F9269
:203E8000AF92BF92CF92DF92EF92FF920F931F93CF93DF9300D0CDB7DEB78091E260909127
:203EA000E36089839A8300910D6110910E61102701271027E0901061F12C5801B694A79415
:203EC00088248A948A0C1F930F939F938F938BEE90E09F938F9382ED90E69F938F930E94C2
:203EE000460ECDBFDEBF37E0C32E31E6D32EC601875091468017910760F580911161809396
:203F0000DA601092DB60998098209092DC60F60187858093DD608AED90E60E94CC1180918B
:203F2000116188608093DA601092DB609092DC60F60180898093DD608AED90E60E94CC11E3
:203F400089819A81019689839A83F2E0CF0ED11CCECF809112618093DA608091E36080930B
:203F6000DB60A1948091E260A822A092DC608FEF8093DD608AED90E60E94CC11E114F10422
:203F800019F485E0E82EF12CC70155DF90E080E00F900F90DF91CF911F910F91FF90EF9044
:203FA000DF90CF90BF90AF909F908F900895CF92DF92EF92FF920F931F93CF93DF9300D0DE
:203FC000CDB7DEB78091E2609091E36089839A8300910D6110910E61102701271027E090D3
:203FE0001061F12CCC24CA94C00E1F930F939F938F938CEF90E09F938F9382ED90E69F9319
:204000008F930E94460ECDBFDEBFD12C8D2D90E080179107D8F4209111612093DA6010928B
:20402000DB6029812C212093DC60895F9E49FC0187858093DD608AED90E60E94CC118981C1
:204040009A81019689839A83D394E0CF809112618093DA608091E3608093DB600195809155
:20406000E26008230093DC608FEF8093DD608AED90E60E94CC11E114F10419F484E0E82E59
:20408000F12CC701D8DE90E080E00F900F90DF91CF911F910F91FF90EF90DF90CF900895DE
:2040A000A89589E391E09F938F9382ED90E69F938F930E94460E8091E46081508093E460E6
:2040C0000F900F900F900F90882391F080918463909185639C013695279536952795821BEF
:2040E000930B809384639093856381E090E0089590E080E008951F920F920FB60F92112455
:204100002F933F934F935F936F937F938F939F93AF93BF93CF93EF93FF93C09101082091BA
:2041200000088C2F8674B1F4F29977C08EE194E6E091A26431E03E0F3093A264E80FF92FB5
:20414000F11D20838091A264803408F069C08EE180939F648CB3C82BCCBB8091D66481FFB9
:204160004AC080E0E29980E1E1998062E69980641CBAF49B40C090919E648917E1F180932D
:204180009E6491EA90938E6390E290938F63109290631092916321E030E020939263309360
:2041A000936322E030E0209394633093956390E080939663909397638BEB9CE09F938F93B3
:2041C00082ED90E69F938F930E94460E26EA30E650E040E06AE070E08EE893E60E94DC0D26
:2041E0000E943A0E8091D6640F900F900F900F9081FD0E948A07FF91EF91CF91BF91AF915D
:204200009F918F917F916F915F914F913F912F910F900FBE0F901F9018958EE594E688CF33
:204220000E94560797CF112462E070E08EEE90E60E9471311092420182E0809343011895D1
:20424000CF93DF93CDB7DEB72897CDBFDEBF8D839E836B837C834F83588719821A82898179
:204260009A81892B11F58EEE90E60E945131892B21F5E1E4F1E080818111FDCF809148013A
:20428000909149012F813885820F931F80934C0190934D0182E08093430180934201ED81B5
:2042A000FE81099589839A83C5DF89819A812896CDBFDEBFDF91CF910895BCDF2CEC3AE0CE
:2042C0003F932F93E2EDF0E6FF93EF930E94460E0F900F900F900F908B819C81009729F343
:2042E000FC010995892B09F0BACFDFCFEF92FF920F931F93CF93DF93D0912363D650C091A7
:204300000C61ED2EF12C1F92DF9382EA92E09F938F9302ED10E61F930F930E94460E0F90D5
:204320000F900F900F900F900F90DD23E9F124EC30E640E150E0B7018DE091E60E94DC0DEA
:204340000E943A0EC03109F04AC085E892E09F938F931F930F930E94460E0F900F900F9025
:204360000F90DB3008F46FC184E08093E4604CE251E060E570E28CEC99E162DF8E3F2FEF98
:20438000920709F460C18F3F980709F4FEC010920D61181619060CF0F2C1FC01E95FFE49A6
:2043A0001782EC01229692C08FE992E09F938F931F930F930E94460E0F900F900F900F9069
:2043C000C03169F485E892E09F938F931F930F930E94460E0F900F900F900F9034C1C131AF
:2043E000B9F58BE692E09F938F9382ED90E69F938F930E94460E8FB30F900F900F900F90EB
:20440000882319F11092000A8FE08093000A97E09093060488E0809312048093130480933D
:2044200010048CE0809311049093020461E081E00E944E1883ED90E30197F1F700C00000DE
:204440001FBA0E9488120E942E0F10920D613CC0CD3109F05CC0C0910D61D0910E61DF9348
:20446000CF9385E592E09F938F9382ED90E69F938F930E94460E0F900F900F900F900F9060
:204480000F90209749F088EE93E0BE010E9448346093846370938563809185638F938091D6
:2044A00084638F938AE492E09F938F9382ED90E69F938F930E94460E10920D610F900F9042
:2044C0000F900F900F900F90C1E0D0E0DF93CF9381E491E09F938F9382ED90E69F938F93D8
:2044E0000E94460EBE016F5F7F4F24EC30E640E150E08CE091E60E94DC0D0E943A0ECE01CD
:204500000F900F900F900F900F900F9035C0CE31D1F5809185638F93809184638F9384E38B
:2045200092E09F938F93C2EDD0E6DF93CF930E94460E809184639091856380930D619093E1
:204540000E6183E292E09F938F93DF93CF930E94460E26EA30E650E040E062E070E08DE082
:2045600091E60E94DC0D0E943A0E8DB79EB70A968DBF9EBF82E090E0DF91CF911F910F917B
:20458000FF90EF900895F99904C080EC80930D619BCFC63099F460910D6170910E61809160
:2045A0000F61909110610E949A346093E2607093E3607F936F9385E092E076CFC231B1F446
:2045C0008FEE91E09F938F9382ED90E69F938F930E94460E40E253E070E060E08FE29FE194
:2045E0002FDE0F900F900F900F90C8CEC33189F486ED91E09F938F9382ED90E69F938F93BA
:204600000E94460E40E253E070E060E08EE39FE1E7CFC431D1F480EC91E09F938F9382EDBE
:2046200090E69F938F930E94460E40E253E070E060E08EE49EE104DE0F900F900F900F9086
:20464000009709F09BCE80E8A1CFC53189F486EA91E09F938F9382ED90E69F938F930E9406
:20466000460E40E253E070E060E087ED9FE1B8CFC63189F48FE891E09F938F9382ED90E6F1
:204680009F938F930E94460E40E253E070E060E08CEB9EE1D0CFC73149F18EEA90E6C9313C
:2046A00039F1C83109F449C0CA3109F462C0CB3109F462C083EB90E6CC3109F440C01F920D
:2046C000CF9383E591E09F938F9382ED90E69F938F930E94460E89EC80930D610F900F90E8
:2046E0000F900F900F900F9081E045CF89EA90E69F938F9389E791E09F938F9382ED90E672
:204700009F938F930E94460E40E253E070E060E088E192E195DD0F900F900F900F900F9001
:204720000F90009709F02ACE10920D6110920E6110920F61C2E0D0E0C9CE89EA90E69F931B
:204740008F9386E691E09F938F9382ED90E69F938F930E94460E40E253E070E060E08EE183
:2047600092E16EDD0F900F900F900F900F900F9067CF8EEA90E6E3CF8AEB90E6E0CF0396B8
:20478000A9F2A2CE1F920F920FB60F921124F79A0F900FBE0F901F901895E2EDF0E680E222
:2047A00098E08283938384EA90E6808391838BE09DE0858396830895CF93DF93CDB7DEB7D8
:2047C0002597CDBFDEBF67E36CB9639A88E08093120480931304809310048CE08093110412
:2047E0008BE08093B60484E88093B2048093740483E28093180493E09093E70589E080932F
:20480000110281E18093120282E18093130280E48093140271E47093150254E050932B0231
:2048200025E0209322022093260236E0309327029093320242E0409331029093CF0160935A
:20484000CD0181E08093CC0166EF6093D7016AE06093D601E3E4E093D5017093D40130936A
:20486000D3016093D2016AE96093D1018093D0018093C0018093030A60E560932C0A40936D
:204880002B0A40932D0A9093270A47E04093010B63EC74E060931C0B70931D0B8093140B65
:2048A0003093110B2093100B24E7209356018093500129E22093400124E1209366008093A2
:2048C000000690930106509302068AEF809304069093050684E480930B068091080680FDD1
:2048E000FCCF80E380930A060E94AD0A0E94FB0E02ED10E68091D7609091D860FC01A591AA
:20490000B4912C91FC01329634913196E49123232E2B2C93FC013496A591B491FC01369666
:20492000E4911196EC931197FC013796E4911296EC93FC013896A591B49198E0F92EFC925B
:20494000E091D460F091D56080EA90E080879187158283E0878380EC86832FEF3EE944E21F
:20496000215030404040E1F700C000008DE49AE09F938F931F930F930E94460E81E08F9332
:2049800081E38F938DE28F931F9281E49AE09F938F931F930F930E94460E83E29AE09F93C1
:2049A0008F931F930F930E94460E1F9286E68F9381E19AE09F938F931F930F930E94460ED2
:2049C00081EF99E09F938F931F930F930E94460E8091D4609091D5600E94C3070E9488120D
:2049E00088ED84BFF09200018FEF87BB8093C70178948AEF90E01FDACDBFDEBF80918263D4
:204A0000833011F00E94FB0E1092030C8091000C0E942F1285EE99E09F938F9382ED90E661
:204A20009F938F930E94460E0F900F900F900F90DD24D39402ED10E6B0E88B2EB5E29B2EB2
:204A4000A12CB12C44244394512C1E0195E0290E311CDD2019F0A895DD24D394F0900A0C97
:204A6000F0920A0CF7FE14C080919F64882381F080919F64815080939F64811109C080913E
:204A8000E66481FF05C08091A26481110E9456078F2D807681F1F09B2CC08091010C8E7F19
:204AA0008093010CF098A895EFE1F1EA27E0E150F0402040E1F700C000001092000C8CEAE2
:204AC00092E09F938F9382ED90E69F938F930E94460E8091D4609091D5600E94C30788ED65
:204AE00091E084BF909300010F900F900F900F90FFCF6894F4F8F4FE0DC080918263833044
:204B000011F00E94FB0E1092030C8091000C81110E942F128091AE6484FF12C1F0908663C4
:204B200084E0809300028091B0649091B1642091AE6430918D633F9330918C633F93309118
:204B40008B633F9330918A633F93309189633F93309188633F93309187631F923F93309129
:204B600086631F923F939F938F931F922F9384E994E09F938F931F930F930E94460ECDBFF7
:204B8000DEBFF7FE0E94B7078F2D807609F06AC28091876381110FC010928E6310928F63C9
:204BA00082E090E08093B8649093B9640E94AB070E94B707C0C0813079F580918B638F9340
:204BC00080918A638F93809189638F93809188638F9385E594E09F938F931F930F930E9450
:204BE000460ECDBFDEBF80918863811110C0E0918A63E29580910B0C82FDFCCFF0E0F59539
:204C0000E795F595E795E05CF34F8BE080831092B8641092B964CACF8430D9F480918B6390
:204C20008F9380918A638F93809189638F93809188638F9385E494E09F938F931F930F9370
:204C40000E94460E1092B8641092B964CDBFDEBFADCF8530E1F480918863F82EE894F7F825
:204C60000E94AB078091B66481FFFCCFF092030C1F92FF9285E394E09F938F931F930F9313
:204C80000E94460E1092B8641092B964B2C1863009F09BC170908C63C0908D6380918863F8
:204CA00090918963913009F0ABC042E150E066EF73E08EE893E60E9491318091001490912E
:204CC0000114A0910214B09103148F3FFFEF9F07AF07BF0741F08093966390939763A093B5
:204CE0009863B0939963809199638F93809198638F93809197638F93809196638F9381EE55
:204D000093E09F938F931F930F930E94460ECDBFDEBF72E1E72EF12C872D9C2DE816F9065A
:204D200008F4C70197017C01E092B864F092B964232B09F03BCF80910B0C846080930B0CE6
:204D40008FB3837019F5F69B77C2B69B1FC001988EE290E60E94E9068DE790E06CD88091CD
:204D6000E56080931402F09B64C20E94040F8CEB94E09F938F931F930F930E94460E8EB395
:204D80008F738EBB0F900F900F900F90F09B61CEF19B99C2F39914C08091040885FF10C0DA
:204DA0008091DE6481FF0CC0F19B0AC02091E0643091E1648091A164821366C20E94450742
:204DC000F39B12C08091A3649091A4649C012F5F3F4F2230310540F0059708F479C28091DD
:204DE000D66481FD0E948A078091CE6481FD77C2F99B2FCEF799D12C8EB38F738EBB29CE2D
:204E0000923009F4C5C0963009F4CDC0913209F4D0C0923209F4D3C0811533E0930779F4AA
:204E200084E080938E6393E090938F6399E0909390638093916364E0E62EF12C6DCF823089
:204E400043E0940751F168F474E3E72EF12C65E173E08130934081F0F12CE12C70E060E025
:204E60000BC083309807F9F048E1E42EF12C67EB72E08430934081F7E0928E6383E0809358
:204E80008F63A7014250510980E993E6E114F10409F086C030E020E047CF56E4E52EF12CF1
:204EA0006FEC72E0E9CF4091041450910514609106147091071449835A836B837C834F3F5F
:204EC0008FEF58076807780771F5E0E8F0E17F019FEFE91AF90A2081422728E0DB01CA013B
:204EE000B695A79597958795417055276627772770956095509541955F4F6F4F7F4F4072EA
:204F00005378687B7D7E482759276A277B27215029F7F70120EAE21620E1F206C1F64983BF
:204F20005A836B837C8386E180938E6383E080938F638DE4809390631092916388E5809347
:204F4000926310929363E4E9F3E6DE0111968D91282F30E094E0359527959A95E1F790E39F
:204F6000920F9A3310F097E3920F908311828F7090E3980F9A3310F097E3980F9283138251
:204F800034962A163B0619F7E6E1EE2EF12CC4CE6BE6E62EF12C6CE673E0A7018EE893E666
:204FA0000E949131B9CE5AE0E52EF12C67ED73E0F4CF49E0E42EF12C6EE773E0EECF33E260
:204FC000E32EF12C69E473E0E8CF8830C9F48091A06480938E631F928F9389E294E09F93DA
:204FE0008F931F930F930E94460E4092B8645092B9640F900F900F900F900F900F90D6CDFB
:20500000893079F4809188638093A064F09A0E94040F8091A0641F928F938DE194E09F931C
:205020002CCE8A3099F424E134E03F932F931F930F930E94460E10928E634092B8645092D5
:20504000B9640F900F900F900F90B0CD8B3009F072CE809189638F93809188638F9388E0A1
:2050600094E0DDCF803209F066CE809187638A3061F4809188639091896399279F938F930A
:2050800028E834E03F932F93F9CD803209F040C08091AE6481FFFCCF47E050E06EE873E673
:2050A0008BEC90E60E94A734892B91F08091DE6481FD0E9445070E94881287E0EEE8F3E640
:2050C000ABECB0E601900D928A95E1F70E942E0F82E894E09F938F931F930F930E94460E21
:2050E00026EA30E650E040E067E070E08BEC90E60E94DC0D0E943A0EF49A1092A264109269
:20510000A16410929F641092B8641092B96499CF8132D9F587E0EBECF0E6AEE8B3E60190AB
:205120000D928A95E1F780918E6390918F63A0919063B0919163892B8A2B8B2B59F48092ED
:205140008E6390928F63A0929063B092916388E0809394632CE734E03F932F931F930F936E
:205160000E94460E26EA30E650E040E067E070E08EE893E60E94DC0D0E943A0E87E090E0F1
:205180008093B8649093B9645CCF823201F5809188639091896399279F938F9380E794E0D3
:2051A0009F938F931F930F930E94460E809188639091CA600F900F900F900F900F900F9050
:2051C00090FD02C080FDF79A8093CA6020CD833209F0B1CD809189638F93809188638F93DF
:2051E00025E634E03F932F931F930F930E94460E80918863909189638093A3649093A46464
:205200000F900F900F900F900F900F90892B71F0F19B0AC0F39908C0F49810929F648091D3
:20522000060881110E947112F39AF1CC0E940C10EECC0E94FB0E9BCDF79BA8CDF699A6CDCB
:2052400088EC94E09F938F931F930F930E94460E809114028093E56082E1809314020F901E
:205260000F900F900F9080918263833029F060E470E083E00E94CA0E019A8CE390E60E94FC
:20528000E906F69ABE9882CD4091E0645091E164282F30E0F12C4217530739F08F5F80934E
:2052A000A16422523C49F901F0808091E0649091E1642091A1642817190611F40E944507C4
:2052C000F09202087DCD8091DE6481FF79CD76CD1092A3641092A4640E940C1085CD909118
:2052E0009E6380919F6324E0209300022091C66421FFFCCF903809F0DFC0F82FFF706F2E88
:2053000090E024E0959587952A95E1F78D83C090A16301972CE3289F7001299FF00C112400
:2053200029E080EF94E02F1708F4B9C03D81313011F41092E6607090E66073947092E66025
:20534000D12CA60162EA73E6C701895F9E490E94B43481E080939F634D81641611F0E12C17
:205360000CC0EC0CFD1CE0922363F0922463671094C01092EC60EE24E39480E490E0809326
:20538000C8649093C9641092CC641092CD6480910B0C82FDFCCF8EEF8093460C1092D064C2
:2053A0001092D16480910B0C82FDFCCF8EEF8093480CEE2009F44FCBF0900B6180910C6131
:2053C0001F928F931F92FF92809124638F93809123638F9380910A618F93809109618F930A
:2053E0008AEC99E09F938F931F930F930E94460ECDBFDEBF31E0F31273C190910C6160902F
:205400000E6170900F6180911061923009F0F6C0E82EF12C1F928F93C72CD12C1F927F9202
:205420001F926F928FE795E09F938F931F930F930E94460E8EE695E09F938F931F930F93A0
:205440000E94460ECDBFDEBF6110A1C0B60167597A4FA7018EE091E664D78FE595E09F9338
:205460008F931F930F930E94460E26EA30E650E040E0B7018EE091E60E94DC0D0E943A0E38
:205480000F900F900F900F9084E891E080930C6190930D61C7010196DCC082EE94E09F9391
:2054A0008F931F930F930E94460E10929F630F900F900F900F9053CF9138E9F51092A063F2
:2054C0009091EC6091110DC083ED94E09F938F931F930F930E94460E10929F631092A16324
:2054E000E6CF8091ED602CE3829FF0011124E85FFE49A2EAB3E601900D922A95E1F78F5FDB
:205500008093ED60E0E18E9F90011124292B20939F632091236330912463981751F08CE390
:205520008093A1632C533109209323633093246316CF822FF5CF91111CC08F3F21F095E0EC
:20554000980F923048F482E080939F6380E48093A0631092A16303CF813F09F000CF82E053
:2055600080939F6380E88093A06381E08093A163F6CE923009F4F3CE913031F4882309F44E
:20558000EECE10929F63EBCE9330D9F7E8CE91E069127ACF872D8F7DF9F40E94AD0A80935B
:2055A000EA609093EB609F938F9381E595E09F938F931F930F930E94460E8091EA609091EA
:2055C000EB6080930E6190930F610F900F900F900F900F900F9058CF85E495E09F938F9358
:2055E0001F930F930E94460E672D677070E0635C7A4FA7018EE091E694D642CF903109F05C
:2056000041C08EE295E09F938F931F930F930E94460E1FBA1092066110928363F092556362
:2056200088EC90E0809384639093856380E890E080930C6190930D6149E050E065E275E0A3
:205640008EE091E66ED60F900F900F900F9089E090E09C012A5F3F4F209323633093246395
:205660001092ED608F5B9F4F6CE370E00E9448346093EC608EE080930861295F3E49F90174
:205680001082E9C99131D9F485E195E09F938F931F930F930E94460E0F900F900F900F9042
:2056A000F19904C00E9488120E942E0F80E890E080930C6190930D6190E080E0CACF1F927E
:2056C0008F931F927F921F926F928EEF94E09F938F931F930F930E94460ECDBFDEBFECCFC1
:2056E000F1E1FF1203C00E947621B3CF22E1F21223C480910C61D0900E61C0900F6170904E
:205700001061813009F004C1E72CF12C1F927F921F92CF921F92DF9285E798E09F938F934B
:205720001F930F930E94460EF701E95FFE491286E0901161F0901261CDBFDEBF99E07912FE
:205740002BC084E698E09F938F931F930F930E94460E0F900F900F900F90D1105EC0C11092
:2057600054C0C70199279F938F9387E298E09F938F931F930F930E94460EE09283630F90C3
:205780000F900F900F900F900F90F3E0EF121EC0049A84EC99E022C0EAE07E1212C0FF2484
:2057A000FF92EF928EE498E09F938F931F930F930E94460E0F900F900F900F900F900F9095
:2057C000CCCFFF92EF9288E398E0EECF22E02E1568F435E081EE90E0E312DBCF809384634E
:2057E000909385638093E8609093E960809185638F93809184638F938CE198E09F938F9369
:205800001F930F930E94460E19C041E0C4124ECFFF92EF9287E098E0F1CF81E0D81244C051
:20582000C11013C0FF92EF9284EF97E09F938F931F930F930E94460EE092E7600F900F9033
:205840000F900F900F900F9031CF91E3C9122ECFE114F10419F4EE24E394F12C88EE93E0FA
:20586000B7010E9448347B0180918463909185636817790781F0FF926F9385EE97E09F93B6
:205880008F931F930F930E94460E0F900F900F900F900F900F90E092E860F092E960E092EB
:2058A0008463F092856302CFE2E0DE1216C0C110FDCE1F927F9284ED97E09F938F931F93F2
:2058C0000F930E94460E472D4F7350E061E171E685E293E60E94B434B1CFF3E0DF12E6CECF
:2058E00026E0C2120DC0FF92EF9283EC97E09F938F931F930F930E94460EE09206619ECF25
:2059000037E0C312D3CEFF92EF9282EB97E076CF823009F059C0E72CF12C1F927F921F9258
:20592000CF921F92DF928AE997E09F938F931F930F930E94460E85E897E09F938F931F9372
:205940000F930E94460ECDBFDEBFD11013C0C1109BCD809183631F928F9384E797E09F93BB
:205960008F931F930F930E94460E8091836380930E612BCE91E0D91287CDC1100FC08091E8
:20598000E7601F928F9381E697E09F938F931F930F930E94460E8091E760E9CFE1E3CE12BD
:2059A00073CD809185638F93809184638F9386E597E09F938F931F930F930E94460E8091E1
:2059C000846390918563FDCD90918363953009F07CC1803109F044C01F92DF9282E396E060
:2059E0009F938F931F930F930E94460E0F900F900F900F900F900F90F69904C08091066184
:205A0000882369F08091E8609091E9608E37910530F08DE790E08093E8609093E960809188
:205A2000E8609091E960809384639093856380918463909185638436910508F437C246E43F
:205A400050E070E060E08EE89AE10E942021009709F05BC180918463909185634997E3CF73
:205A6000813109F03DC081E296E09F938F931F930F930E94460E8FB30F900F900F900F9049
:205A8000882309F481C1F89B28C040E253E070E060E081E098E00E942021E82E0E94080A36
:205AA00083EF91E00197F1F700C000000E948812019A61E081E00E944E18E3EDF0E33197D7
:205AC000F1F700C0000001981FBA0E942E0F8E2D90E0009709F4B4C03CC0EE24E394DECF68
:205AE0008531D9F48EE096E09F938F931F930F930E94460E4AEF50E062E47AE088E193E1BB
:205B00000E9420210F900F900F900F90892BF9F6EFB2FE2DF170EF2EDACF8631E9F48BEF82
:205B200095E09F938F931F930F930E94460E809185638F93809184638F938BEE95E09F93FD
:205B40008F931F930F930E94460ECDBFDEBF81E090E020E830E0DBC0803219F580911261E8
:205B60008F93809111618F93809110618F9380910F618F931F92DF9282ED95E09F938F93BD
:205B80001F930F930E94460E40E253E062E47AE080917E6390917F630E942021CDBFDEBFC5
:205BA00098CFF89B83C1813209F067C0809114618F93809113618F93809112618F938091CE
:205BC00011618F93809110618F9380910F618F931F92DF9285EB95E09F938F931F930F933B
:205BE0000E94460E80910E61E0901361F0901461CDBFDEBF833D99F480910F618F7190E0EF
:205C0000A701415051094F7155274F5F5F4F6AE573E6825F9E49A8D6C70101960CC0F99BAC
:205C200012C040E951E062E47AE080917C6390917D630E94202124E831E0009709F067C0F0
:205C400020EA30E064C0843B89F480915A63882369F09EE190930E61803209F481E48093C0
:205C60000F618091646380931061D6CFA7016FEF70E08EE091E681D6CFCF833209F016C1FE
:205C8000809114618F93809113618F93809112618F93809111618F93809110618F938091B5
:205CA0000F618F931F92DF9287E995E09F938F931F930F930E94460E40E253E062E47AE0B8
:205CC000809180639091816367CF933009F0F1C0803111F51F92DF9280ED96E09F938F9318
:205CE0001F930F930E94460E40E253E06BE470E183E899E10E9420210F900F900F900F9021
:205D00000F900F90009709F49BCF24E830E020930C6130930D619DCC8131C9F580EC96E01F
:205D20009F938F931F930F930E94460E8FB30F900F900F900F90882339F140E253E070E08D
:205D400060E083EC9BE00E942021E82E83EF91E00197F1F700C000000E9488120498109283
:205D600016040E98069AF99B0AC061E081E00E944E18E3EDF0E33197F1F700C0000006980A
:205D800084E080931404A0CEEE24E394A0CE853179F48EEA96E09F938F931F930F930E94B4
:205DA000460E40E253E06BE470E184E190E1A8CE863169F48CE996E09F938F931F930F93A7
:205DC0000E94460E0F900F900F900F90C0CEF99B6DC08032E9F4809112618F93809111614A
:205DE0008F93809110618F9380910F618F931F92DF9284E896E09F938F931F930F930E94EC
:205E0000460E40E253E06BE470E183E29CE0C4CE813239F5809114618F93809113618F9396
:205E2000809112618F93809111618F93809110618F9380910F618F931F92DF9288E696E0CA
:205E40009F938F931F930F930E94460E40E253E06BE470E18BE391E10E942021CDBFDEBFC3
:205E6000EACE833219F5809114618F93809113618F93809112618F93809111618F938091FC
:205E800010618F9380910F618F931F92DF928BE496E09F938F931F930F930E94460E40E205
:205EA00053E06BE470E18CE690E176CE90E080E0C7CE8131B9F41F929F938EE397E09F9327
:205EC0008F931F930F930E94460E80E890E080930C6190930D610F900F900F900F900F9052
:205EE0000F90EACB923009F4FECB803129F41F929F9387E297E0E3CF833159F41F929F939F
:205F000082E097E09F938F931F930F930E94460EE2CF1F929F931F928F9388EE96E09F9385
:205F20008F931F930F930E94460E80EA90E080930C6190930D61D1CB94E1F91234C18091E8
:205F40000C61813031F58CE399E09F938F931F930F930E94460E0E94AD0A8093EA6090939E
:205F6000EB609F938F938EE299E09F938F931F930F930E94460E1092836340E253E070E0CE
:205F800060E088E698E10E9420217C01CDBFDEBF15C0823009F061C088E199E09F938F937A
:205FA0001F930F930E94460E8FB30F900F900F900F9081111DC0EE24E394F12C81E0E1146E
:205FC000F10409F080E080930D61FF92EF9289E998E09F938F931F930F930E94460EC70190
:205FE00001960F900F900F900F900F900F9031CBF89B21C080EC0E94DD07882319F080E0DA
:206000000E945A0A8CE190E00E949D0AFC9B13C01092010A8FE08093000A6998FC988DE8A7
:2060200098E09F938F931F930F930E94460E0F900F900F900F900298019861E081E00E9457
:206040004E1883ED90E30197F1F700C000001FBA0E9488120E942E0FAECF873009F4ABCF18
:20606000863079F48DE099E09F938F931F930F930E94460E0F900F900F900F90F12CE12CD3
:206080009DCFF89BFBCF853049F5209112613091136132272327322760910E6170910F611E
:2060A000809110619091116145D43F932F939F938F937F936F9380910D611F928F9383EFF2
:2060C00098E09F938F931F930F930E94460E40E253E070E060E086EA9DE155CF2091EA60B8
:2060E0003091EB602836F0E13F0778F43F932F931F928F938AED98E09F938F931F930F93B5
:206100000E94460ECDBFDEBFB9CF833001F560910E6170910F6180911061909111610AD46B
:206120009F938F937F936F9380910D611F928F9382EC98E09F938F931F930F930E94460E21
:2061400040E253E070E060E084EF9DE11CCF843009F094CF20911361309114613227232770
:20616000322760910F61709110618091116190911261E0D33F932F939F938F937F936F932D
:2061800080910D611F928F9387EA98E09F938F931F930F930E94460E40E253E070E060E041
:2061A00086E69CE1F0CEF0E2FF1276C070900C61C0900E61D0900F6180911061E82EF12C6E
:2061C0001F928F931F92DF921F92CF9283EA99E09F938F931F930F930E94460ECDBFDEBF0B
:2061E00031E0731236C0E0901161F0901261FF92EF928DE899E09F938F931F930F930E94F4
:20620000460E0F900F900F900F900F900F90C1104DCA40E1D4124ACAFF92EF9288E799E073
:206220009F938F931F930F930E94460EE092556360E081E00E944E180F900F900F900F9071
:206240000F900F90EF2809F431CA80E00E942D182DCA82E0781230CA87E699E09F938F9393
:206260001F930F930E94460E0F900F900F900F90C1100AC990E1D91207C9809155631F920E
:206280008F9382E599E09F938F931F930F930E94460E809155636BCB1F92FF928AEB99E02F
:2062A00031CEDC012D923D924D925D926D927D928D929D92AD92BD92CD92DD92ED92FD92E0
:2062C0000D931D93CD93DD93FF91EF918DB78D938EB78D938FB78D93ED93FD9388279927E0
:2062E0000994DC01CB0181309105811D2D903D904D905D906D907D908D909D90AD90BD9041
:20630000CD90DD90ED90FD900D911D91CD91DD91ED91FD910D900FBEEDBFFEBFED91FD91A6
:206320000994FB01DC0102C005900D9241505040D8F70895CF93DF93EC018B8188608B83A1
:20634000CE0106D02B81277F2B83DF91CF910895ABE0B0E0EDEAF1E36AC27C013B018A01F5
:20636000FC0116821782838181FFBAC1CE0101965C01F7019381F30193FD859193FF8191E3
:206380003F01882309F449C1853239F493FD859193FF81913F01853221F4B70190E0B9D11F
:2063A000E8CF912C212C312CFFE1F31538F08B3211F190F4803209F1833229F137FC3CC0C2
:2063C00020ED280F2A3050F536FE20C08AE0989E200D1124922E06C08D3291F0803371F7E3
:2063E000689430F8F30193FD859193FF81913F018111DACF21C0689431F8689432F8F2CFD3
:20640000689433F8EFCF689434F8ECCFEAE02E9E200D1124222E689435F8E4CF8E3229F4B3
:2064200036FCFBC0689436F8DDCF8C3619F4689437F8D8CF8836B1F2982F9F7D9554933008
:20644000D8F0833691F18337B1F1833509F05EC02801F2E04F0E511CF801C080D180692D29
:2064600070E036FC02C06FEF7FEFC6013CD14C01689437F882010AC00C5F1F4FFFE3F9833C
:2064800088248394912C6501E89437F833FE2AC0522C8114910459F5552009F46ACFB701F7
:2064A00080E290E036D15A94F7CFF801808189830E5F1F4FE5CF2801F2E04F0E511CF801FC
:2064C000C080D180692D70E036FC02C06FEF7FEFC60114D14C018201D7CFB70180E290E0D9
:2064E00018D12A942814190409F0B8F7D1CFF60137FC859137FE81916F01B70190E009D15B
:2065000051105A94F1E08F1A9108C3CF843619F0893609F073C0F80137FE67C060817181B1
:20652000828193810C5F1F4FF32DFF763F2E97FF09C090958095709561957F4F8F4F9F4F3B
:20654000689437F82AE030E0A50113D1C82ECA188C2C432C36FE0CC0E89440F8C91440F4A8
:2065600034FE05C032FC03C0F32DFE7E4F2E892C44FE90C0FE01EC0DF11D8081803309F020
:2065800082C0242D297E422E842D8870582E43FC8FC040FE89C09C2C821418F42C0C922CAD
:2065A000981844FE8BC0B70180E390E0B2D042FE08C088E790E041FE02C088E590E0B70114
:2065C000A8D0C91408F486C0CA94D12C9FEFC91AD90ACA0CDB1CF60182916F01B70190E006
:2065E00098D0AC14BD04B9F757CF60817181072E000C880B990B0E5F1F4F96CFD32CE894D6
:20660000D4F82AE030E0853731F1232D297FD22E8F36F9F040F48835A1F0F7018681978177
:206620002B96E2E11DC1803749F08837B1F7D4FE02C06894D2F820E130E00DC06894D4F8A1
:20664000F6CF34FE03C0822F8660D82E20E132E002C028E030E0F801D7FE0EC06081718187
:20666000828193810C5F1F4FA50183D0C82ECA183D2CE89437F86CCF6081718190E080E067
:206680000E5F1F4FF1CF42FC02C083947DCF839483947ACF842D867809F476CFF6CFB70117
:2066A00080E290E036D083948214C8F3512C79CF522C5818821408F474CFF8CF842D86789C
:2066C00009F47FCF8BE241FE80E247FC8DE2B70190E076CFB70180E390E01BD09A9471CF5E
:2066E0008FEF9FEF9DCFFC010590615070400110D8F7809590958E0F9F1F0895FC0161506F
:20670000704001900110D8F7809590958E0F9F1F08950F931F93CF93DF93182F092FEB0193
:206720008B8181FD09C01FEF0FEF812F902FDF91CF911F910F91089582FF14C02E813F810A
:206740008C819D81281739073CF4E881F981CF0101968883998310838E819F8101968E8384
:206760009F83E3CFE885F985812F0995892BA1F3DACFFA01AA27283051F1203181F1E89476
:206780006F936E7F6E5F7F4F8F4F9F4FAF4FB1E03ED0B4E03CD0670F781F891F9A1FA11D3A
:2067A000680F791F8A1F911DA11D6A0F711D811D911DA11D20D009F468943F912AE0269F1C
:2067C00011243019305D3193DEF6CF010895462F4770405D4193B3E00FD0C9F7F6CF462FA0
:2067E0004F70405D4A3318F0495D31FD4052419302D0A9F7EACFB4E0A69597958795779530
:206800006795BA95C9F700976105710508959B01AC010A2E06945795479537952795BA95A3
:20682000C9F7620F731F841F951FA01D08952F923F924F925F926F927F928F929F92AF92DB
:20684000BF92CF92DF92EF92FF920F931F93CF93DF93CDB7DEB7CA1BDB0BCDBFDEBF099431
:206860002A88398848885F846E847D848C849B84AA84B984C884DF80EE80FD800C811B81A6
:20688000AA81B981CE0FD11DCDBFDEBFED010895AA1BBB1B51E107C0AA1FBB1FA617B70762
:2068A00010F0A61BB70B881F991F5A95A9F780959095BC01CD010895A1E21A2EAA1BBB1B9F
:2068C000FD010DC0AA1FBB1FEE1FFF1FA217B307E407F50720F0A21BB30BE40BF50B661FC6
:2068E000771F881F991F1A9469F760957095809590959B01AC01BD01CF010895052E97FB28
:2069000016F400940FD057FD05D0D6DF07FC02D046F408C050954095309521953F4F4F4FE4
